:020000022000DC
:10700000000004205D730200B9730200BB7302002C
:10701000BD730200BF730200C173020000000000D4
:10702000000000000000000000000000C373020028
:10703000C573020000000000C7730200C97302009C
:1070400071A00200CB7302007DAD020095B3020077
:1070500031E00200CB73020095AA0200CB7302005C
:10706000CB730200CB730200CB730200CB73020020
:10707000CB730200CB730200CB730200CB73020010
:10708000CB730200758B0200CB730200CB7302003E
:10709000CB730200CB730200E93D0300CB73020007
:1070A000CB730200CB730200CB730200CB730200E0
:1070B000CB730200CB730200000000000000000050
:1070C000CB730200CB730200CB730200CB730200C0
:1070D000CB730200CB730200CB73020000000000F0
:1070E00000000000000000000000000000000000A0
:1070F0000000000000000000000000000000000090
:10710000000000000000000000000000000000007F
:10711000000000000000000000000000000000006F
:10712000000000000000000000000000000000005F
:10713000000000000000000000000000000000004F
:10714000000000000000000000000000000000003F
:10715000000000000000000000000000000000002F
:10716000000000000000000000000000000000001F
:10717000000000000000000000000000000000000F
:1071800000000000000000000000000000000000FF
:1071900000000000000000000000000000000000EF
:1071A00000000000000000000000000000000000DF
:1071B00000000000000000000000000000000000CF
:1071C00000000000000000000000000000000000BF
:1071D00000000000000000000000000000000000AF
:1071E000000000000000000000000000000000009F
:1071F000000000000000000000000000000000008F
:10720000354936480A1A02D0072291438D4634493F
:1072100034480A1A06D00722914381F309880222D2
:1072200082F3148830483149314A00F044F831483B
:107230003149324A00F03FF831483249324A00F0D1
:107240003AF832483249334A00F035F83248334987
:10725000334A00F030F833483349344A00F02BF811
:1072600033483449344A00F026F83448344900227F
:1072700000F02CF833483449002200F027F8334856
:107280003349091A082902DB002202604160314AB1
:1072900090471F481F49884205D00268043003B454
:1072A000904703BCF7E700208646EC46002000210B
:1072B000294A9047FEE7884207D0521A05D0037842
:1072C00001300B700131013AF9D17047884202D088
:1072D00002700130FAE770470000042000E003204C
:1072E0000000042000000420E8B10300E82A002088
:1072F000202C0020D0730200D0730200B688030057
:10730000E8B10300E82A0020E82A00201C890300D5
:107310001C890300208903001C8903001C890300C9
:107320001C8903002089030020890300E8B10300C1
:1073300020B30300202C0020202C0020202C002033
:10734000604A0020604A0020684A0020684A002005
:10735000686A0020857302000D04030000F036B84F
:107360000F484FF00701884385460E4880470E4876
:10737000016841F470010160BFF34F8FBFF36F8F5D
:10738000FFF73EBF09480A490A4A884207D0521A05
:1073900005D0037801300B700131013AF9D1704703
:1073A000000004200992020088ED00E01C8903001F
:1073B000E82A0020E82A0020FEE7FEE7FEE7FEE7D5
:1073C000FEE7FEE7FEE7FEE7FEE7FEE7FFF7C8BFE2
:1073D00000487047584A002086B0039002910192FD
:1073E00001238DF817309DF81730214A039B136055
:1073F0001F4A029B53601E4A019B9360039B44F209
:107400000102934213D0039B44F20202934221D122
:10741000019B174AD360164BDB681B881A46144B36
:107420009A61134BDB685B68114AD36112E0019BE0
:107430000F4A13610E4B1B699B680D4A53610C4B3D
:107440001B691B680A4A9361094B1B695B68084A00
:10745000D36100BF72B600BF00BF9DF81730DBB22A
:10746000002BFAD162B600BF00BF06B0704700BF64
:10747000202C002000B583B002900091019244F2CC
:10748000010071466A4600F003F803B000BD00BF7A
:1074900000B587B003900291019272B600BF039BC2
:1074A00044F20202934217D0039B44F20202934239
:1074B00018D8039B44F20102934210D0039B44F27C
:1074C000010293420ED8039B012B0DD0039B41F286
:1074D000010293420AD005E0019B059307E0019B5E
:1074E000049304E000BF02E000BF00E000BF084BCF
:1074F0001B6803F00103002B00D000BE019A029923
:107500000398FFF769FF00BF07B05DF804FB00BFF9
:10751000F0ED00E084B00190019B9B680393019B18
:10752000DA68039BD31A184604B0704782B0019002
:107530000B468DF80330019B1A68019BDB680199AB
:1075400089880B4013449DF803201A70019BDB6867
:107550005A1C019BDA6000BF02B0704784B00390F0
:107560000B460192ADF80A30039B1A68039B996899
:10757000BDF80A300B44039989880B4013441A78EC
:10758000019B1A7000BF04B0704700B583B0019032
:107590000091009A00210198FFF7E0FF019B9B6892
:1075A0005A1C019B9A6000BF03B05DF804FB84B0D5
:1075B000039002911346ADF80630029B002B01D1D7
:1075C0000E231DE0BDF80630002B07D0BDF80630B5
:1075D0005A1EBDF806301340002B01D009230FE0DE
:1075E000039B029A1A60BDF80630013B9AB2039BD6
:1075F0009A80039B00229A60039B0022DA6000239A
:10760000184604B0704700B583B001900B468DF862
:1076100003300198FFF77EFF0246019B9B889A4248
:1076200007D89DF8033019460198FFF77FFF002324
:1076300000E00423184603B05DF804FB00B583B0F6
:10764000019000910198FFF765FF0346002B05D0DC
:1076500000990198FFF799FF002300E005231846E1
:1076600003B05DF804FB82B00190019BDA68019BD6
:107670009A600023184602B0704700002DE9F043DD
:1076800083B0144801F05CFA034600221C461546FC
:10769000114BD3E9002314EB020845EB0309CDE9B4
:1076A00000890E4BD3E90023DDE90001904271EB24
:1076B000030307D2DDE9002312F1807643F10007CE
:1076C000CDE90067DDE900231046194603B0BDE8A7
:1076D000F08300BFE82A0020482C0020502C002016
:1076E00088B001900091019B0793009B0693079B34
:1076F000D3E90223CDE90423069BD3E90223CDE994
:107700000223DDE90423DDE90201904271EB03036A
:107710002CBF01230023DBB2184608B070470000DD
:10772000F0B585B00190019B5B69002B03D12B491B
:10773000A22007F01DF800238DF80F30284B1B788E
:10774000002B45D0019B002B42D0019B1B7FDBB25D
:10775000002B3DD0FFF792FF019BD3E9022390421B
:1077600071EB03032CD3019B1B69002B02D1019BFE
:1077700000221A77019B5B69019A9269104698472B
:10778000019B1B69002B23D0019B1B7FDBB2002BCD
:107790001ED0019BD3E902230199096900200C4600
:1077A0000546161943EB0507019BC3E90267019BD8
:1077B00019460C4801F062FC01238DF80F3007E0F8
:1077C000019B1946074801F059FC01238DF80F3041
:1077D0009DF80F30184605B0F0BD00BF2C8903009E
:1077E000442C002020890300F0B589B0019000915D
:1077F0000D230793009B00221A70019BD3E90245D9
:10780000FFF73CFF02460B46A61A65EB0307CDE9DE
:107810000467DDE90423012A73F100031BDB049BE9
:10782000B3F5350F05D300F0B9FA0246154B1344F2
:1078300003E0019BD3E90223134603934FF496031D
:10784000039A0021104801F07DF80790079B002B58
:1078500005D1012313E000210B4801F04BF9079BF0
:107860000D2B07D10198FFF75BFF03461A46009BDB
:107870001A7003E00549F52006F07AFF0023184648
:1078800009B0F0BDFFFFB400E82A00202C890300F6
:1078900000B583B0044801F02BFC0190019B184611
:1078A00003B05DF804FB00BF2089030000B583B07E
:1078B000044801F03FFC0190019B184603B05DF8BD
:1078C00004FB00BF2089030000B583B0FFF7E0FF91
:1078D0000190019B002B02D0019B00221A77019B93
:1078E000002BF3D100BF00BF03B05DF804FB000024
:1078F000054BD3E9002312F1807043F10001024BE4
:10790000C3E9000100BF7047482C002000B583B0D8
:107910000190134B1B68002B1DD0019801F010F94A
:107920000F4B1B68D3E90223134623F07F4319460C
:1079300000F028FA0346B3F5960F04D309494FF433
:10794000957006F015FF064B1B681846FFF7E8FE1A
:10795000034B00221A6000BF03B05DF804FB00BFB8
:10796000402C00202C89030000B583B00190FFF764
:1079700085FE02460B460349C1E9002300BF03B060
:107980005DF804FB502C002000B587B00190FFF794
:107990008DFF049000238DF81730049B002B48D0F6
:1079A0002B4B1B68002B03D101238DF8173019E0F6
:1079B000049BD3E90201264B1B68D3E902239042C2
:1079C00071EB03030ED201238DF81730204B1B6897
:1079D0001B7FDBB2002B05D01D4B1B6819461D48D1
:1079E00001F04CFB9DF81730002B2AD0FFF750FF19
:1079F00004900DF10F0319460498FFF7F5FE0346B6
:107A0000002B12D0124B1B68002B02D1019800F002
:107A1000A5FE0F4A049B13609DF80F3083F001030D
:107A2000DBB2002BB3D000BF0EE0094B00221A607E
:107A3000ADE7074B1B68002B05D1019800F0A4FEB1
:107A400001E000BF00E000BF00BF07B05DF804FB2D
:107A5000402C00202089030000B587B001902C4AFB
:107A600003AB1946104601F068F9059048E0059B04
:107A70001B78022B2ED0022B32DC002B02D0012BE4
:107A800014D02DE0059B5B681B7FDBB283F0010304
:107A9000DBB2002B26D0059B5B6801221A77059B81
:107AA0005B6819461B4801F0E9FA1BE0059B5A6820
:107AB000194B1B689A4203D1174B00221A6012E03F
:107AC000059B5B681946134801F048FB03468DF897
:107AD000133008E0FFF7F8FE104B01221A7002E0A5
:107AE00000BF00E000BF0A4A03AB1946104601F090
:107AF0003DF9074A03AB1946104601F01EF90590FF
:107B0000059B002BB3D100BF00BF07B05DF804FB9D
:107B1000B02C002020890300402C0020442C0020A1
:107B200000B583B00190019800F0D7FF0346002B09
:107B300001D0FFF7DDFE0021019800F0ECFF0346C5
:107B4000002B02D00198FFF7E1FE0121019800F01F
:107B5000E2FF0346002B02D00198FFF705FF0198D2
:107B6000FFF77AFF0198FFF70FFF00BF03B05DF842
:107B700004FB000008B5024800F0EFFF00BF08BD9D
:107B8000E82A002000B585B0034600918DF8073043
:107B9000114A02AB1946104601F0A2F80390039B6C
:107BA000002B13D0039B9DF807201A70039B009AAB
:107BB0005A60094A02AB1946104601F0AAF803467A
:107BC000002B01D0FFF7D6FF002300E00423184666
:107BD00005B05DF804FB00BFB02C002000B583B0F9
:107BE000164B1B680093164808235822154901F0CC
:107BF00044F80190019B002B01D0019B19E06B46DA
:107C0000114A1946114800F049FD0190019B002BD3
:107C100001D0019B0DE001210C4800F04DFF012334
:107C20000B4A0121094800F0C5FD0A4B01221A70D8
:107C3000019B184603B05DF804FB00BF9489030064
:107C4000B02C0020582C0020217B0200E82A0020C4
:107C5000FFFF7F00442C002000B587B003900B4647
:107C600001928DF80B30039B002B04D1134940F295
:107C70002E2006F07DFD019B002B04D10F4940F220
:107C80002F2006F075FD019B002B01D1072310E08A
:107C9000039B1B680593059B019A5A619DF80B3065
:107CA000012B0CBF01230023DBB21A46059B1A618E
:107CB0000023184607B05DF804FB00BF2C890300C1
:107CC000F0B587B0039002910192039B002B04D181
:107CD000164940F23E2006F04BFD039B0593059BA1
:107CE0001B7FDBB2002B01D000231CE0059B019A17
:107CF0009A61FFF7C3FC02460B46029900200C462E
:107D00000546161943EB0507059BC3E90267059B6A
:107D10001B69002B02D0059B029A1A61059900206D
:107D2000FFF730FF0346184607B0F0BD2C8903006B
:107D300000B585B00190019B002B04D109494FF497
:107D4000157006F015FD019B0393039B00221A7723
:107D500003990120FFF716FF0346184605B05DF8AA
:107D600004FB00BF2C89030008B5054B00221A70E4
:107D700000210220FFF706FF0346184608BD00BF9A
:107D8000442C002082B001900091019A009BD31AEC
:107D900023F07F43184602B07047000008B503483F
:107DA00000F0CEFE0346184608BD00BFE82A0020BA
:107DB00000B583B00190019B1B781A460C4B9B5C6D
:107DC000002B05D0019B0433184604F037FE0BE06E
:107DD000019B1B781A46064B9B5C002B04D1019B30
:107DE0000C33184603F09AFE00BF03B05DF804FBA5
:107DF0003C2D002000B587B00390029113468DF80A
:107E0000073000230593039B1B781A46114B9B5C9C
:107E1000002B09D0039B04339DF8072002991846D4
:107E200004F062FE05900FE0039B1B781A46094B95
:107E30009B5C002B08D1039B0C339DF80720029913
:107E4000184603F0E3FE0590059B184607B05DF861
:107E500004FB00BF3C2D002000B585B0019000233D
:107E60008DF80F30019B1B781A46114B9B5C002B41
:107E700008D0019B0433184604F0F6FE03468DF843
:107E80000F300EE0019B1B781A46094B9B5C002BC0
:107E900007D1019B0C33184603F040FF03468DF8D1
:107EA0000F309DF80F30184605B05DF804FB00BF99
:107EB0003C2D002000B587B00390029113468DF849
:107EC000073000230593039B1B781A46114B9B5CDC
:107ED000002B09D0039B04339DF807200299184614
:107EE00004F0DAFE05900FE0039B1B781A46094B5D
:107EF0009B5C002B08D1039B0C339DF80720029953
:107F0000184603F063FF0590059B184607B05DF81F
:107F100004FB00BF3C2D002084B00190019B9B68B6
:107F20000393019BDA68039BD31A184604B0704789
:107F300000B587B001900091019B1B78022B45D0C2
:107F4000022B6ADC002B52D0012B66D1019B1B7ADD
:107F5000002B05D1012233493348FFF7ABFF5DE029
:107F6000019B5B681B7819463048FFF74CFB059076
:107F7000059B002B0AD001238DF80C30059B049340
:107F80002B4B1B6803AA104698470DE02748FFF7C4
:107F9000C3FF0346002B07D000238DF80C30244B81
:107FA0001B6803AA104698472048FFF7B5FF034611
:107FB0001E4A9288934205D801221A491A48FFF7AF
:107FC00079FF2BE01B4B01221A7027E002238DF86A
:107FD0000C30019BDB680493012212491248FFF721
:107FE00069FF134B1B6803AA1046984716E0124915
:107FF0001248FFF723FB0346002B05D101220E494F
:108000000948FFF7F7FE09E003238DF80C30084B11
:108010001B6803AA1046984700E000BF00BF07B0E6
:108020005DF804FBCC2C0020F02A0020D02C00208E
:10803000C42C0020CD2C0020C82C0020E02C0020D7
:1080400030B591B00390029101928DF803303C4A13
:10805000019B1360029B002B01D107236DE0029B63
:108060001968029B5B689BB21A463648FFF79FFA75
:108070000F900F9B0E930E9B002B01D00E9B5CE08C
:10808000029B9968029BDB689BB21A462E48FFF759
:108090008EFA0F900F9B0D930D9B002B01D00D9B23
:1080A0004BE02A4B04AC1D460FCD0FC495E80F00E2
:1080B00084E80F00039B5B690A93039B1B7C002BE6
:1080C00014BF01230023DBB28DF824309DF8033068
:1080D0008DF82C30039B5B7C002B01D00E2300E03D
:1080E00000238DF82530039BDB680693039B9B6878
:1080F0000793039B1B680593039B5B68049304AB86
:10810000134A1946134801F0A7FD0F900F9B0C93DB
:108110000C9B002B01D00C9B0FE00F4B00221A7020
:10812000039B1B68B3F1FF3F06D001220B490948AE
:10813000FFF7C0FE034600E00023184611B030BD33
:10814000C42C0020D02C0020E02C002098890300B3
:10815000317F0200F02A0020CD2C0020CC2C002002
:1081600000B585B00D48FFF77EFA0390039B02939C
:10817000029B002B01D0029B0BE00948FFF773FA2A
:108180000390039B0193019B002B01D0019B00E016
:108190000023184605B05DF804FB00BFD02C00207A
:1081A000E02C002000B587B00190019B002B03D18B
:1081B0001449CA2006F0DCFA134B1B788DF81730EF
:1081C00001991248FFF73AFA04909DF81730002BF6
:1081D00012D00D4B00221A7001220D490D48FFF7F5
:1081E00069FE0390039B0293029B002B04D0054A77
:1081F000D6210298FFF73EF9049B184607B05DF8B8
:1082000004FB00BFB8890300CD2C0020D02C002037
:10821000CC2C0020F02A002000B585B003468DF854
:1082200007309DF8073019461048FFF7ECF9039026
:10823000039B002B15D10E48FFF70EFE034683F07B
:108240000103DBB2002B0CD00A490848FFF7F6F90E
:108250000346002B05D1012206490548FFF7CAFD58
:108260000390039B184605B05DF804FBE02C00204A
:10827000F02A0020C82C002008B50348FFF74CFE68
:108280000346184608BD00BFD02C002008B503489F
:10829000FFF78EFD0023184608BD00BFF02A00201E
:1082A00082B0EFF310830093009B019372B600BF7E
:1082B000019B184602B0704762B600BF00BF70470E
:1082C00000B585B00190FFF7EBFF0390164B9B685C
:1082D000002B1BD1144B01229A60144BD3F8802041
:1082E000134B1340104A1360104B114AC3F88020FF
:1082F0000E4BD3F884300C4A53600C4B4FF0FF32D6
:10830000C3F88420019B00221A7002E0019B012225
:108310001A70039B002B01D1FFF7CEFF00231846F4
:1083200005B05DF804FB00BFF02C002000E100E088
:10833000FC06FFBD00B585B003468DF80730104B35
:108340009B68002B16D09DF80730002B12D1FFF749
:10835000A7FF03900B4A0A4B1B681360094A084B9E
:108360005B685360064B00229A60039B002B01D18F
:10837000FFF7A2FF0023184605B05DF804FB00BF1D
:10838000F02C002000E100E000B583B0019000F087
:108390002BF80346012B03D00549432006F0E8F9EA
:1083A0000198FFF78DFF00BF03B05DF804FB00BF2D
:1083B000248A030000B583B003468DF8073000F02F
:1083C00013F80346012B03D00649512006F0D0F9DB
:1083D0009DF807301846FFF7ADFF00BF03B05DF80A
:1083E00004FB00BF248A030084B0EFF305830193EC
:1083F000019BC3F308030393039B002B0DD1EFF301
:1084000014830093009B0293029B03F00103002B53
:108410000CBF01230023DBB200E00123184604B0A7
:108420007047000082B003468DF807309DF8073092
:1084300003F01F0205499DF907305B09012000FA8E
:1084400002F241F8232000BF02B0704700E100E0D3
:1084500082B003468DF807309DF8073003F01F0205
:1084600006499DF907305B09012000FA02F240330A
:1084700041F8232000BF02B0704700BF00E100E0D8
:1084800082B0034600918DF807309DF90730002B2C
:108490000CDA009BDAB20C499DF8073003F00F03A9
:1084A000043B5201D2B20B441A7609E0009BDAB2C7
:1084B00006499DF907305201D2B20B4483F80023DC
:1084C00000BF02B0704700BF00ED00E000E100E037
:1084D00000B583B003460A468DF8073013468DF881
:1084E00006309DF80630012B03D99DF80630032B8A
:1084F0000BD99DF80630042B03D99DF80630072BC5
:1085000003D908496B2006F033F99DF806209DF940
:10851000073011461846FFF7B3FF00BF03B05DF800
:1085200004FB00BF948A030000B583B003468DF8B6
:1085300007309DF907301846FFF774FF00BF03B0FE
:108540005DF804FB00B585B00190019B002B0AD0BB
:10855000074B43F001030393019B9B010293039B91
:108560000298984700E000BF05B05DF804FB00BF2B
:10857000708B030084B0039002910192039B029AD6
:1085800002F5A872019943F8221000BF04B07047A9
:1085900082B001900091019B009A02F5A87253F8F5
:1085A0002230184602B0704782B001900091019BC2
:1085B000009AC3F8042300BF02B0704782B0019054
:1085C0000091019B009AC3F8082300BF02B07047D6
:1085D00082B001900B46ADF80230BDF80230019A2E
:1085E00013441B68184602B0704784B001900B46D4
:1085F000ADF80230BDF80230019A134400221A602F
:10860000BDF80230019A13441B680393039B00BF1B
:1086100004B0704782B00190019BD3F8043518462E
:1086200002B0704700B583B001900091009BB3F594
:10863000805F04D306494FF4BE7006F099F8019BA1
:10864000009AC3F8082500BF03B05DF804FB00BF23
:10865000CC8A030082B001900B468DF803309DF860
:108660000320019B13441A460123136000BF02B08C
:10867000704782B001900091019B009AC3F8442397
:1086800000BF02B0704782B001900091019B009A38
:10869000C3F8482300BF02B07047000000B587B0A0
:1086A000039002910192039B002B03D1284955208E
:1086B00006F05EF8029B002B03D12549562006F0F8
:1086C00057F8019B002B03D12149572006F050F8A1
:1086D000039B5B7919461F4A019B42F82130039B9B
:1086E0005B791D4ADB0013441B79002B03D0082360
:1086F0000593059B27E0039B1A68029B1B8819467C
:108700001046FFF78FFF039B93F90420029B9B7891
:1087100019461046FFF7DCFE039B93F90430184618
:10872000FFF702FF039B5B790B4ADB001344012236
:108730001A71039B5B791946074A039B42F8313053
:1087400000230593059B184607B05DF804FB00BFA6
:10875000008B0300FC2C0020002D002000B583B00E
:108760000190019B002B03D10649872006F000F8F9
:10877000019B1B6800211846FFF76CFF00BF03B088
:108780005DF804FB008B030000B583B00190019BF2
:10879000002B03D106498D2005F0EAFF019B1B68E1
:1087A00004211846FFF756FF00BF03B05DF804FB35
:1087B000008B030000B587B00390029101928DF801
:1087C0000330039B002B03D12149962005F0D0FFF5
:1087D0004FF48032029B02FA03F30593029B50335D
:1087E0009BB29B00ADF81230019B23F07F430193B5
:1087F000039B1B6805991846FFF7E0FE039B1B6867
:1088000005991846FFF73FFF039B1B68BDF8122030
:1088100011461846FFF7E9FE039B1B68019A02996F
:108820001846FFF7A7FE039B1B6805991846FFF73C
:1088300020FF9DF80330002B05D0039B1B68059992
:108840001846FFF7B1FE00BF07B05DF804FB00BF9C
:10885000008B030000B585B00390029113468DF89C
:108860000730039B002B03D10B49A92005F080FFA3
:10887000039B1B6802991846FFF7FBFE9DF8073023
:10888000002B05D0039B1B6802991846FFF78CFE4E
:1088900000BF05B05DF804FB008B030000B583B09A
:1088A00001900091019B002B03D10A49B32005F0F0
:1088B0005FFF019B1B6800991846FFF7E4FE019BD0
:1088C0001B6800991846FFF779FE00BF03B05DF8FA
:1088D00004FB00BF008B030000B583B001900B4682
:1088E000ADF80230019B002B03D10F49BA2005F0EF
:1088F0003FFF019B1B68BDF8022011461846FFF799
:1089000067FE0346002B09D0019B1B68BDF80220BF
:1089100011461846FFF769FE012300E000231846C0
:1089200003B05DF804FB00BF008B030082B0019030
:108930000091019A009BD31A23F07F43184602B09E
:108940007047000000B58BB0039002910192009334
:10895000039B002B03D15749CD2005F009FF4FF4AD
:108960008032029B02FA03F30993029B50339BB2BD
:108970009B00ADF82230019B23F07F4301930999BE
:108980000398FFF78BFF039B1B681846FFF742FE17
:108990000790039B1B6802991846FFF7F9FD0690A4
:1089A000039B1B68079A02991846FFF7E3FD039B98
:1089B0001B68BDF8222011461846FFF716FE0799DE
:1089C0000698FFF7B3FF0346012B0AD11020FFF7EB
:1089D000B9FD039B1B68BDF8222011461846FFF71E
:1089E00004FE039B1B681846FFF714FE07900799C7
:1089F0000198FFF79BFF0590039B1B680999184698
:108A0000FFF737FE059B012B15D1039B1868019BCF
:108A100001331A460299FFF7ADFD1020FFF792FDD2
:108A2000039B1B681846FFF7F5FD0246079B934220
:108A300035D00D2339E0039B1B68019A0299184633
:108A4000FFF798FD039B1B681846FFF7E3FD0790AF
:108A5000019B013B07991846FFF768FF0590009BB3
:108A6000C3F1FF1303F57F43059A9A4201D90D2301
:108A70001BE0059B002B12D1039B1868019B01335F
:108A80001A460299FFF776FD039B1B681846FFF70D
:108A9000C1FD0246079B934201D00D2305E0012250
:108AA00009990398FFF7D6FE002318460BB05DF82E
:108AB00004FB00BF008B030000B583B001900B46A0
:108AC0008DF803309DF803301A4602210198FFF714
:108AD000C1FE00BF03B05DF804FB00B583B0019098
:108AE0004FF482710198FFF7F7FE0346184603B072
:108AF0005DF804FB00B583B0019000914FF4803223
:108B0000009B02FA03F319460198FFF7C7FE00BF66
:108B100003B05DF804FB00B585B001900091009BA7
:108B200050339BB29B00ADF80E30BDF80E301946A5
:108B30000198FFF7D1FE0346184605B05DF804FB27
:108B400000B583B00190019B1B681846FFF762FDDA
:108B50000346184603B05DF804FB00B583B00190EE
:108B6000019B93F904301846FFF772FC00BF03B075
:108B70005DF804FB08B5044B1B68044A12681046F4
:108B8000984700BF08BD00BFFC2C0020002D00202E
:108B900086B001900091019B53E8011F8AB2D889E9
:108BA00002449889824228BF121A1889824202BF61
:108BB000BFF32F8F002307E0C2EA010243E8012040
:108BC0000028E9D14FF001038DF80F300590029194
:108BD0000492029A009B1A609DF80F30DBB218468F
:108BE00006B0704784B00190019951E8013FC3EA93
:108BF000034341E80132002AF7D10392029300BFF8
:108C000004B0704786B001900091019B53E8021FA9
:108C10001FFAA1F2D888824202BFBFF32F8F002330
:108C20000DE0D88902449889824228BF121AC1EA0D
:108C3000024243E802200028E8D14FF001038DF8FA
:108C40000F30059002910492029A009B1A609DF8E1
:108C50000F30DBB2184606B0704784B0019001991E
:108C600051E8023FC3EA234341E80232002AF7D128
:108C70000392029300BF04B0704784B00390029146
:108C800011461A460B46ADF806301346ADF80430CF
:108C9000029B002B01D10E231FE0BDF80630BDF86A
:108CA0000420B3FBF2F101FB02F29B1A9BB2002BF2
:108CB00001D0092311E0039B029A1A60039B002252
:108CC0005A60039B00229A60039BBDF806209A819C
:108CD000039BBDF80420DA810023184604B07047D6
:108CE00000B585B001900091009B19460198FFF7EF
:108CF0004FFF0346002B07D0019B1B68009A128888
:108D000013440393039B00E00023184605B05DF86D
:108D100004FB00B583B001900091009B1A88009B72
:108D20005B889A4204D10198FFF75CFF012300E0C1
:108D30000023184603B05DF804FB00B585B0019030
:108D40000091009B19460198FFF75CFF0346002B3A
:108D500007D0019B1B68009A528813440393039B1E
:108D600000E00023184605B05DF804FB00B583B0B1
:108D700001900091009B1A88009B5B889A4204D165
:108D80000198FFF76AFF012300E00023184603B0B3
:108D90005DF804FB00B585B001900091009B5B0974
:108DA0009B00019A1A44009B03F01F03012101FA62
:108DB00003F31946104600F036F8039000BF05B0E3
:108DC0005DF804FB00B585B001900091009B5B0944
:108DD0009B00019A1A44009B03F01F03012101FA32
:108DE00003F3DB431946104600F035F8039000BF4B
:108DF00005B05DF804FB82B001900091009B5B0917
:108E00009B00019A13441A68009B03F01F0322FA87
:108E100003F303F00103002B14BF01230023DBB293
:108E2000184602B0704710B487B001900091019BC2
:108E3000009A53E8004F44EA020043E8000191F031
:108E4000000FF6D1059404900391049B184607B0D7
:108E50005DF8044B704710B487B001900091019BFE
:108E6000009A53E8004F04EA020043E8000191F041
:108E7000000FF6D1059404900391049B184607B0A7
:108E80005DF8044B7047000082B003468DF8073050
:108E90009DF8073003F01F0206499DF907305B0972
:108EA000012000FA02F2603341F8232000BF02B033
:108EB000704700BF00E100E000B583B00190019B66
:108EC000002B03D10649722005F052FC019B0022C1
:108ED0001A60BFF35F8F00BF00BF03B05DF804FBF3
:108EE000D48B030041DF704700BF184600B585B042
:108EF00000238DF803300DF103031846FFF744FA01
:108F0000F1EE103A0193019B0393039B23F09F031F
:108F10000293029BE1EE103A00BFBFF35F8F00BFE8
:108F20002620FFF7B1FF9DF803301846FFF742FAFD
:108F3000039B03F00703002B03D004497D2005F0B9
:108F400017FC00BF05B05DF804FB00BF148C0300E4
:108F500008B5064B00221A700548FFF7ADFF05491A
:108F6000054800F02FF80023184608BD0C2D0020FE
:108F7000082D0020808C0300102D002000B583B048
:108F8000FFF7B4FF0AF002FF0346002B0ED0FFF7F5
:108F9000A9FF0190019B002B0ED0019B022B0BD04F
:108FA00007494FF4B07005F0E3FB05E020BF00BFB8
:108FB00040BF00BF20BF00BF00BF03B05DF804FB8F
:108FC000148C030000B583B001900091019B002B2D
:108FD00003D11049502005F0CBFB009B002B03D19F
:108FE0000C49512005F0C4FB019B009A1A60019BBB
:108FF0001B681A68019B5A60019B5A68019B1B6899
:109000005B689A4202D1019B00225A6000BF03B004
:109010005DF804FB8C8C030000B583B00190019BCC
:10902000002B03D11449632005F0A2FB019B1B68B0
:10903000002B03D11049642005F09AFB019B5B686B
:10904000002B14D0019B5B681A46019B1B689B6830
:1090500013441A46019B5A60019B5A68019B1B6886
:109060005B689A4204D1019B00225A6000E000BF75
:1090700003B05DF804FB00BF8C8C030000B585B025
:1090800001900091019B002B03D118493A2005F073
:109090006FFB009B002B03D114493B2005F068FBBC
:1090A000019B5B6803930FE0019B9B68039A126826
:1090B000009910469847034683F00103DBB2002B6A
:1090C00007D1039B1B680393039B1B68002BEBD109
:1090D00000E000BF039B1A68009B1A60039B009A84
:1090E0001A6000BF05B05DF804FB00BF108D0300DF
:1090F00000B585B00190019B002B03D10C49512094
:1091000005F036FB019B5B681B680393019B5B6862
:109110001B68002B06D0019B5B681A68019B5B688B
:1091200012681A60039B184605B05DF804FB00BF87
:10913000108D030000B583B00190019B002B03D17B
:1091400005495D2005F014FB019B5B681B68184610
:1091500003B05DF804FB00BF108D030000B585B0BF
:1091600001900091019B002B03D11649692005F065
:10917000FFFA009B002B03D112496A2005F0F8FA90
:1091800000238DF80F30019B5B6802930FE0029B78
:109190001B68009A9A4207D1009B1A68029B1A60CA
:1091A00001238DF80F3006E0029B1B680293029B9F
:1091B0001B68002BEBD19DF80F30184605B05DF809
:1091C00004FB00BF108D0300BFF34F8F00BF074BA0
:1091D000DB6803F4E0620549054B1343CB60BFF342
:1091E0004F8F00BF00BF00BFFCE700BF00ED00E0F5
:1091F0000400FA05024B034A1A6000BF704700BF23
:10920000042B00200090D00308B500F097F9034626
:10921000002B06D0B74B1B681B0AB74A03F01F038D
:10922000136000F0B7F90346002B02D0B34BB44AE9
:109230001A6000F0CBF90346002B06D0B14B1B6837
:109240005B0BB14A03F00703136000F0EBF9034630
:10925000002B05D0AD4BDB68AC4A23F08073D360A4
:1092600000F0FCF90346002B0ED04FF080430022A3
:10927000C3F80C214FF080430022C3F810214FF0B7
:1092800080430022C3F8382500F014FA0346002B6F
:1092900002D09F4B03221A6000F028FA0346002BED
:1092A0000BD09C4B05221A609B4B01221A609B4BF2
:1092B00000221A609A4B3F221A6000F033FA0346EC
:1092C000002B76D04FF08053964AD3F80434C2F87E
:1092D00020354FF08053934AD3F80834C2F8243530
:1092E0004FF080538F4AD3F80C34C2F828354FF032
:1092F00080538C4AD3F81034C2F82C354FF0805389
:10930000884AD3F81434C2F830354FF08053854A78
:10931000D3F81834C2F834354FF08053814AD3F86B
:109320001C34C2F840354FF080537E4AD3F82034C5
:10933000C2F844354FF080537A4AD3F82434C2F847
:1093400048354FF08053774AD3F82834C2F84C356B
:109350004FF08053734AD3F82C34C2F850354FF095
:109360008053704AD3F83034C2F854354FF08053EC
:109370006C4AD3F83434C2F860354FF08053694AF0
:10938000D3F83834C2F864354FF08053654AD3F8C7
:109390003C34C2F868354FF08053624AD3F8403409
:1093A000C2F86C354FF080535E4AD3F84434C2F8AB
:1093B000703500F0D3F90346002B05D05A4B1B68DB
:1093C0005A4A03F04F03136000F0F4F90346002BF0
:1093D0000DD04FF08043D3F8003403F00103002B8D
:1093E00005D04FF080436FF00102C3F8002400F075
:1093F0000DFA0346002B05D04D4B1B684C4A43F435
:10940000806313604B4BD3F888304A4A43F47003AF
:10941000C2F88830BFF34F8F00BFBFF36F8F00BF1C
:109420004FF01023D3F80C3203F00103012B25D1A8
:10943000414B0122C3F8042500BF3F4BD3F8003451
:10944000002BFAD04FF01023D3F80C324FF010223B
:1094500023F00103C2F80C3200BF374BD3F80034BD
:10946000002BFAD0344B0022C3F8042500BF324B46
:10947000D3F80034002BFAD0FFF7A6FE4FF01023EC
:10948000D3F80032002B05DB4FF01023D3F8043261
:10949000002B2BDA284B0122C3F8042500BF264BF2
:1094A000D3F80034002BFAD04FF010231522C3F864
:1094B000002200BF204BD3F80034002BFAD04FF02D
:1094C00010231522C3F8042200BF1B4BD3F800342D
:1094D000002BFAD0184B0022C3F8042500BF164B0E
:1094E000D3F80034002BFAD0FFF76EFEFFF782FEB0
:1094F00000BF08BD240300104035014074C0074080
:109500000DF0ADBA440200103C050040F0ED00E063
:10951000A0050040105600408856004018560040F4
:109520001456004000C0004058020010E40E0040F5
:109530003C17004000ED00E000E00140124B1B68CA
:10954000DBB2062B1DD1114B1B6803F00F03002B60
:1095500017D10F4B1B6803F0F003302B01D101230F
:1095600010E00B4B1B6803F0F003402B01D10123EB
:1095700008E0074B1B6803F0F003502B01D10123D7
:1095800000E0002318467047E00F00F0E40F00F001
:10959000E80F00F00A4B1B68DBB2062B0DD1094B1C
:1095A0001B6803F00F03002B07D1074B1B6803F068
:1095B000F003302B01D1012300E00023184670474F
:1095C000E00F00F0E40F00F0E80F00F0124B1B6812
:1095D000DBB2062B1DD1114B1B6803F00F03002BD0
:1095E00017D10F4B1B6803F0F003302B01D101237F
:1095F00010E00B4B1B6803F0F003402B01D101235B
:1096000008E0074B1B6803F0F003502B01D1012346
:1096100000E0002318467047E00F00F0E40F00F070
:10962000E80F00F00A4B1B68DBB2062B0DD1094B8B
:109630001B6803F00F03002B07D1074B1B6803F0D7
:10964000F003302B01D1012300E0002318467047BE
:10965000E00F00F0E40F00F0E80F00F0124B1B6881
:10966000DBB2062B1DD1114B1B6803F00F03002B3F
:1096700017D10F4B1B6803F0F003302B01D10123EE
:1096800010E00B4B1B6803F0F003402B01D10123CA
:1096900008E0074B1B6803F0F003502B01D10123B6
:1096A00000E0002318467047E00F00F0E40F00F0E0
:1096B000E80F00F00A4B1B68DBB2062B0DD1094BFB
:1096C0001B6803F00F03002B07D1074B1B6803F047
:1096D000F003302B01D1012300E00023184670472E
:1096E000E00F00F0E40F00F0E80F00F00A4B1B68F9
:1096F000DBB2062B0DD1094B1B6803F00F03002BC7
:1097000007D1074B1B6803F0F003302B01D1012375
:1097100000E0002318467047E00F00F0E40F00F06F
:10972000E80F00F00A4B1B68DBB2062B0DD1094B8A
:109730001B6803F00F03002B07D1074B1B6803F0D6
:10974000F003502B01D1012300E00023184670479D
:10975000E00F00F0E40F00F0E80F00F0124B1B6880
:10976000DBB2062B1DD1114B1B6803F00F03002B3E
:1097700017D10F4B1B6803F0F003302B01D10123ED
:1097800010E00B4B1B6803F0F003402B01D10123C9
:1097900008E0074B1B6803F0F003502B01D10123B5
:1097A00000E0002318467047E00F00F0E40F00F0DF
:1097B000E80F00F0124B1B68DBB2062B1DD1114BDA
:1097C0001B6803F00F03002B17D10F4B1B6803F02E
:1097D000F003302B01D1012310E00B4B1B6803F089
:1097E000F003402B01D1012308E0074B1B6803F075
:1097F000F003502B01D1012300E0002318467047ED
:10980000E00F00F0E40F00F0E80F00F0064B1B68DB
:10981000062B05D1054B1B68062B01D1012300E067
:1098200000231846704700BF3001001034010010BB
:1098300082B003468DF807309DF8073003F01F0211
:1098400006499DF907305B09012000FA02F2203336
:1098500041F8232000BF02B0704700BF00E100E0E4
:1098600008B50AF093FA034683F00103DBB2002B3C
:1098700003D10549792004F07BFF00F0DFFB034BA7
:1098800000229A7000BF08BD7C8D0300182D0020B7
:1098900000B583B000230193144B1B78002B02D03A
:1098A000852301931CE0114B00229A600F4B00228C
:1098B0005A600E4B00221A610C4B0022DA600C48F1
:1098C00000F068FB01900AF061FA034683F001039F
:1098D000DBB2002B01D000F083FB044B01221A7095
:1098E000019B184603B05DF804FB00BF182D002053
:1098F000B99A020084B001900091019B1B68039308
:1099000006E0039A009B9A420DD0039B1B680393C9
:10991000039B002BF5D1019B1A68009B1A60019BE9
:10992000009A1A6000E000BF04B0704784B0019054
:10993000019B1B680393039B002B03D0039B1A68B6
:10994000019B1A60039B184604B0704700B585B0B0
:109950000190294B1B78002B03D12849E92004F002
:1099600007FF254B9B78DBB2002B19D0019B002B06
:1099700003D0019B5B680120984700238DF80F30CE
:109980000DF10F031846FEF7FFFC1B4BDB6801339C
:10999000194AD3609DF80F301846FEF70BFD1EE004
:1099A00000238DF80E300DF10E031846FEF7ECFC87
:1099B000019B002B03D001991148FFF79BFF0E4B31
:1099C000DB68002B01D100F01FFB0B4BDB68013380
:1099D000094AD3609DF80E301846FEF7EBFC064BA3
:1099E000DB68002B04D1054940F2051004F0C0FEED
:1099F00000BF05B05DF804FB182D00207C8D03002E
:109A0000282D002000B583B0164B1B78002B04D105
:109A100015494FF4857004F0ABFE124BDB68002B48
:109A200004D1114940F20B1004F0A2FE00238DF87E
:109A300007300DF107031846FEF7A6FC094BDB685B
:109A4000013B084AD360074BDB68002B01D1FFF7CD
:109A500007FF9DF807301846FEF7ACFC00BF03B0C7
:109A60005DF804FB182D00207C8D030000B585B047
:109A700003468DF807309DF80730002B02D10C4BC0
:109A8000039301E00B4B03930398FFF74FFF029002
:109A9000029B002B06D0029B5B689DF807201046B6
:109AA0009847F1E700BF00BF05B05DF804FB00BFB9
:109AB000202D0020282D002000B583B003468DF80E
:109AC00007309DF80730002B05D10A4B01225A7050
:109AD0000020FFF7CBFF9DF80730012B05D1054B88
:109AE00001229A700120FFF7C1FF00BF03B05DF8AB
:109AF00004FB00BF182D002000B583B00190009139
:109B0000019B002B05D1054B01225A700020FFF765
:109B1000ADFF00BF03B05DF804FB00BF182D0020AF
:109B200000B585B0034600918DF807309DF80730E9
:109B3000032B29D0032B35DC002B02D0012B04D0C2
:109B400030E00020FFF774FE2DE000238DF80F3089
:109B50000DF10F031846FEF717FC154B1B7883F029
:109B60000103DBB2002B01D0FFF792FE104BDB6844
:109B700001330F4AD3600E4B01229A709DF80F30CB
:109B80001846FEF717FC0EE0094B1B78002B04D19A
:109B9000084940F2452004F0EBFD00F021FAFFF700
:109BA00031FF00E000BF00BF05B05DF804FB00BF5F
:109BB000182D00207C8D030000B589B00190009124
:109BC000009B0793019B1B788DF80C30019B5B6811
:109BD0000493019B9B68DBB28DF81430019BDB681A
:109BE0000693074A079B52F823300649079A51F813
:109BF000221003AA1046984700BF09B05DF804FB85
:109C00002C2D0020342D002000B589B0019000914A
:109C1000009B0793019B1B788DF80C30019B5B68C0
:109C20000493019B9B68DBB28DF81430019BDB68C9
:109C30000693074A079B52F823300649079A51F8C2
:109C4000221003AA1046984700BF09B05DF804FB34
:109C50002C2D0020342D002030B58FB003900291C0
:109C60000192039B1B780C932C490C9B019A41F8A1
:109C70002320029B1A692A490C9B41F823200C9B44
:109C8000012B07D1029B5B7F002B03D12549762056
:109C900004F06EFD029B5B7F1946234A0C9B134424
:109CA0000A461A70029B04AC1D460FCD0FC495E8FE
:109CB0000F0084E80F000C9B089300230D93039B77
:109CC0001B781A46184B9B5C002B0DD0039B181D6C
:109CD000019B002B01D0154A00E0002204AB19467D
:109CE00002F046FE0D9014E0039B1B781A460E4BC3
:109CF0009B5C002B0DD1039B03F10C00019B002BFF
:109D000001D00B4A00E0002204AB194601F09CFE92
:109D10000D900D9B18460FB030BD00BF2C2D0020BC
:109D2000342D0020E48D03003C2D0020B99B02005F
:109D3000099C020082B003468DF807309DF8073079
:109D400003F01F0205499DF907305B09012000FA65
:109D500002F241F8232000BF02B0704700E100E0AA
:109D600082B0034600918DF807309DF90730002B33
:109D70000CDA009BDAB20C499DF8073003F00F03B0
:109D8000043B5201D2B20B441A7609E0009BDAB2CE
:109D900006499DF907305201D2B20B4483F80023E3
:109DA00000BF02B0704700BF00ED00E000E100E03E
:109DB00082B00190019B1B0B5BB2184602B070474A
:109DC00000B583B003460A468DF8073013468DF878
:109DD00006309DF80630012B03D99DF80630032B81
:109DE0000BD99DF80630042B03D99DF80630072BBC
:109DF00003D908496B2004F0BBFC9DF806209DF9AF
:109E0000073011461846FFF7ABFF00BF03B05DF8FF
:109E100004FB00BF4C8E030000B583B003468DF8F1
:109E200007309DF907301846FFF784FF00BF03B0E5
:109E30005DF804FB82B003468DF807300F4A9DF9A8
:109E40000730002B00DA1F335B115BB252F823207E
:109E50009DF90730594203F01F0301F01F0158BF5D
:109E60004B425BB222FA03F303F00103002B14BF51
:109E700001230023DBB2184602B0704700E100E086
:109E800082B001904FF08042019BC2F8043300BFC2
:109E900002B0704782B001904FF08042019BC2F83F
:109EA000083300BF02B0704782B003468DF8073018
:109EB0009DF8073003F1804301221A6000BF02B011
:109EC000704784B00346ADF80630BDF8063003F1A4
:109ED000804300221A60BDF8063003F180431B68FE
:109EE0000393039B00BF04B0704782B00346ADF8F4
:109EF0000630BDF8063003F180431B68002B14BF09
:109F000001230023DBB2184602B0704782B00190F3
:109F10004FF08042019BC2F8183500BF02B0704775
:109F20004FF08043D3F818341B0C03F00103002BCF
:109F300014BF01230023DBB21846704700B583B07D
:109F400006238DF807304FF08040FFF731FF0346BE
:109F50001846FFF76FFF034683F00103DBB2002BC7
:109F600013D04FF08040FFF723FF03461A469DF8B9
:109F7000073019461046FFF723FF4FF08040FFF7E8
:109F800017FF03461846FFF747FF00BF03B05DF811
:109F900004FB000000B585B00190019B002B03D1AC
:109FA0000D49A42004F0E4FB002303930B4B1B7921
:109FB000002B02D08523039308E0084A019B13601D
:109FC000064B01221A71054B00225A71039B184659
:109FD00005B05DF804FB00BF848E0300402D002017
:109FE00008B5074B1B79002B03D10649BD2004F0AF
:109FF000BFFBFFF7A3FF0120FFF788FF00BF08BDED
:10A00000402D0020848E030008B50A4B1B79002BDD
:10A0100003D10949EA2004F0ABFB4FF48270FFF74B
:10A0200050FF0220FFF72CFF0820FFF73DFF00BF85
:10A0300008BD00BF402D0020848E030008B50A4BE8
:10A040001B79002B03D10949F72004F091FB0C2068
:10A05000FFF72AFF00BFFFF763FF0346002BFAD18B
:10A0600000BF00BF08BD00BF402D0020848E03004C
:10A0700008B54FF48070FFF738FF0346002B14D06B
:10A080004FF48070FFF71DFF0120FFF703FF114B16
:10A090005B7983F00103DBB2002B06D00D4B01226C
:10A0A0005A710C4B1B68002098474FF48270FFF7E1
:10A0B0001CFF0346002B0AD04FF48270FFF701FF0C
:10A0C0000220FFF7E7FE034B1B680120984700BF03
:10A0D00008BD00BF402D002082B003468DF8073038
:10A0E0009DF8073003F01F0205499DF907305B0911
:10A0F000012000FA02F241F8232000BF02B07047AD
:10A1000000E100E082B0034600918DF807309DF930
:10A110000730002B0CDA009BDAB20C499DF80730AF
:10A1200003F00F03043B5201D2B20B441A7609E04C
:10A13000009BDAB206499DF907305201D2B20B44B6
:10A1400083F8002300BF02B0704700BF00ED00E0BD
:10A1500000E100E000B583B003460A468DF8073001
:10A1600013468DF806309DF80630012B03D99DF873
:10A170000630032B0BD99DF80630042B03D99DF82C
:10A180000630072B03D908496B2004F0F1FA9DF83B
:10A1900006209DF9073011461846FFF7B3FF00BFB0
:10A1A00003B05DF804FB00BFEC8E030000B583B084
:10A1B00003468DF807309DF907301846FFF78CFFEE
:10A1C00000BF03B05DF804FB00B583B00346ADF8F3
:10A1D0000630BDF80630184600F026F803461B6826
:10A1E000012B0CBF01230023DBB2184603B05DF83E
:10A1F00004FB00B585B00346ADF80630BDF8063067
:10A20000184600F011F803461A4600231360BDF803
:10A210000630184600F008F803461B680393039BBA
:10A2200000BF05B05DF804FB82B00346ADF8063010
:10A23000BDF8063003F1804303F5C043184602B071
:10A240007047000082B00190034A019BC2F80433BA
:10A2500000BF02B0704700BF0060004082B00190B4
:10A26000034BD3F80423019B1340184602B07047F8
:10A270000060004082B00190084A019B03F5A27380
:10A2800052F82330054943F00102019B03F5A27304
:10A2900041F8232000BF02B0704700BF00600040BB
:10A2A00084B00390029113468DF80730144A039B43
:10A2B00003F5A27352F82330114923F44F3323F4EA
:10A2C0004073039A02F5A27241F822300C4A039BB4
:10A2D00003F5A27352F82320029B1B0203F47C5166
:10A2E0009DF807301B0403F440330B4304491A4321
:10A2F000039B03F5A27341F8232000BF04B070470D
:10A300000060004082B00190054A019B03F5A273F2
:10A3100052F823301B0A03F03F03184602B070477F
:10A320000060004082B00190064A019B03F5A273D1
:10A3300052F823301B0C03F00303DBB2184602B0C3
:10A34000704700BF0060004000B583B00190019BE2
:10A350001B682F2B04D90B4940F2CD1004F008FAEA
:10A36000019B1B681F2B02D84FF0A04306E0019B06
:10A370001B6803F01F02019B1A60034B184603B0D1
:10A380005DF804FB248F03000003005000B585B086
:10A390000190084611461A4603468DF803300B46D5
:10A3A0008DF8023013468DF8013001AB1846FFF7E7
:10A3B000CBFF03909DF803209DF802305B001A4309
:10A3C0009DF801309B001A439DF818301B0242EAA9
:10A3D00003019DF81C301B04019A1943039B02F5ED
:10A3E000E07243F8221000BF05B05DF804FB00B531
:10A3F00085B003900B468DF80B309DF80B30002292
:10A40000019200220092002200210398FFF7BEFF74
:10A4100000BF05B05DF804FB00B585B0019001AB4D
:10A420001846FFF791FF0390019A039B02F5E07233
:10A4300053F8223023F002030293019A039B02F5A2
:10A44000E072029943F8221000BF05B05DF804FBEA
:10A4500000B585B001900B468DF8033001AB18466E
:10A46000FFF772FF0390019A039B02F5E07253F825
:10A470002230019A23F44031039B02F5E07243F845
:10A480002210019A039B02F5E07253F822309DF8E6
:10A49000032012041146019A1943039B02F5E0724E
:10A4A00043F8221000BF05B05DF804FB00B585B08D
:10A4B000019001AB1846FFF747FF0390039800F0A7
:10A4C00020F80246019B22FA03F303F00103184629
:10A4D00005B05DF804FB00B585B0019001AB1846EE
:10A4E000FFF732FF0390019A039B02F5E07253F8E5
:10A4F00022301B0C03F00303DBB2184605B05DF8F5
:10A5000004FB82B00190019BD3F81035184602B0CD
:10A510007047000000B589B0039002910192184A7B
:10A5200005AB92E8030083E80300039A029B1344FF
:10A53000022B04D9134940F2FD2004F019F9039BC2
:10A54000079311E0079B9B0008AA134453F80C3CA7
:10A550001846FFF7D6FF0246019B1A60019B0433A1
:10A560000193079B01330793039A029B1344079AB5
:10A570009A42E7D300BF00BF09B05DF804FB00BFFB
:10A580005C8F0300248F030084B001900091009B36
:10A590000393019BDB080293019B03F007030193E4
:10A5A0000122019B02FA03F30399029A0A441278EA
:10A5B0001340184604B0704784B001900091009B8E
:10A5C0000393019BDB080293019B03F007030193B4
:10A5D000039A029B13441B785AB20121019B01FA92
:10A5E00003F35BB2134359B2039A029B1344CAB2FA
:10A5F0001A7000BF04B0704782B001900C4A019BF2
:10A600001344303393F90030002B09DB084A019BD7
:10A610001344303393F90030072B01DC012300E0B1
:10A62000002303F00103DBB2184602B0704700BFFD
:10A63000482D002082B00190064A019B134430331C
:10A6400093F90030072BCCBF01230023DBB218465F
:10A6500002B07047482D002082B00190064A019B4D
:10A660001344303393F90030DB43DBB2DB09DBB258
:10A67000184602B0704700BF482D002084B00390F8
:10A68000029101928DF80330029B59B20E4A039B4E
:10A69000134430330A461A700B49029B019A41F861
:10A6A00023209DF8033083F00103DBB2002B08D098
:10A6B000029B083B039A51B2034A13440A4683F8AB
:10A6C000602000BF04B07047482D002082B0019088
:10A6D000044A019B13443033FF221A7000BF02B0BA
:10A6E000704700BF482D002000B583B00190044999
:10A6F0000198FFF761FF00BF03B05DF804FB00BFE6
:10A70000AC2D002082B00190044A019B13443033E9
:10A7100093F90030184602B0704700BF482D002062
:10A7200082B00190034A019B52F82330184602B0D0
:10A73000704700BF482D002000B589B003900291FA
:10A7400013468DF80730FF238DF81F309DF8073032
:10A75000002B01D0002300E0082305939DF807306B
:10A76000002B01D0082300E00C230493059B0693E3
:10A7700014E00F4A069B52F82330B3F1FF3F0AD191
:10A780009DF80730029A06990398FFF777FF069B1A
:10A790008DF81F3006E0069B01330693069A049B52
:10A7A0009A42E6D39DF91F30184609B05DF804FBC4
:10A7B000482D002082B003468DF807309DF8073001
:10A7C000094A4FF0FF3142F823109DF80730072B5C
:10A7D00007D99DF80730083B034A1344FF2283F84A
:10A7E000602000BF02B07047482D002000B583B044
:10A7F000254B93F86A30002B03D008230093009B6D
:10A800003EE000238DF8073009E09DF80730184638
:10A81000FFF75CFF9DF8073001338DF807309DF896
:10A8200007302F2BF1D900238DF8073009E09DF870
:10A8300007301846FFF7BEFF9DF8073001338DF84B
:10A8400007309DF807300B2BF1D9062200210F4865
:10A850000DF075F806210620FFF77CFC0620FFF7B7
:10A86000A5FC4FF4BE70FFF7C4FC4FF00040FFF7AB
:10A87000E9FC054B012283F86A2000230093009B2A
:10A88000184603B05DF804FB482D0020AC2D0020D5
:10A8900000B587B0039002910192039B2F2B04D93E
:10A8A000364940F2072003F063FF00230593039825
:10A8B000FFF7D2FE0346002B02D00823059357E092
:10A8C000029B9B78C3F34003DBB21A4601990398BD
:10A8D000FFF732FF03468DF813309DF91330B3F1C3
:10A8E000FF3F43D0029B9B78C3F38003DBB283F02E
:10A8F0000103DBB2002B13D0029B9B7803F0010312
:10A90000DBB2002B03D00398FFF786FD05E0029B26
:10A910005B7819460398FFF76AFD0398FFF7E4FE9A
:10A92000029B9B7803F00203DBB2002B08D09DF959
:10A930001300029B1B781A460399FFF7B1FC17E03E
:10A940009DF91330083B0E4A134493F96010029BA3
:10A950001B789B015AB29DF91330083B0A4351B250
:10A96000074A13440A4683F8602001E00423059354
:10A97000059B184607B05DF804FB00BF648F030019
:10A98000482D002000B589B001900B468DF80330AA
:10A99000019B2F2B04D93D4940F2372003F0E8FEFC
:10A9A0000198FFF759FE0346002B04D137494FF4B5
:10A9B0000E7003F0DDFE0198FFF73CFE0346002B0E
:10A9C0002FD00198FFF79EFE0346083B304A134400
:10A9D00093F960308DF80F309DF80F309B098DF89A
:10A9E0000E309DF80E30032B0BD10198FFF75EFD62
:10A9F0000346002B01D0032300E002238DF81F3013
:10AA000008E09DF80E30012B01D1022300E0032362
:10AA10008DF81F309DF81F3019460198FFF718FD7B
:10AA200030E00198FFF7E8FD0346002B2AD001989B
:10AA3000FFF768FE03460693069B9BB240339BB22A
:10AA40009B00ADF81630069B1846FFF713FCBDF8C7
:10AA500016301846FFF7CDFB9DF80330002B11D0C0
:10AA60000198FFF74FFE03461846FFF759FE049082
:10AA7000049B002B06D00122069B02FA03F3184622
:10AA8000FFF7E0FB00BF09B05DF804FB648F030033
:10AA9000482D002000B599B00023179306AB002283
:10AAA0001A605A604FF48073ADF856300123149346
:10AAB0000023169321E0BDF856301846FFF784FBBB
:10AAC0000346002B0ED01498FFF7C8FB0346002B5B
:10AAD00008D0BDF856301846FFF78BFB179A149B29
:10AAE00013431793149B5B001493BDF85630043343
:10AAF000ADF85630169B01331693169B072BDAD907
:10AB00004FF4BE70FFF760FB0346002B0DD04FF4EF
:10AB1000BE70FFF76EFB179B43F00043179306AB25
:10AB20001A4602210020FFF7F5FC179BDBB2002B31
:10AB300029D0012314930023169321E0149A179B24
:10AB40001340002B16D01698FFF7DCFB11901698D7
:10AB5000FFF7E8FB03468DF843301698FFF7E0FD5A
:10AB60000F900F9B002B05D09DF843200F9B1146A3
:10AB700011989847149B5B001493169B013316930E
:10AB8000169B072BDAD9179B002B80F2F08000234D
:10AB90008DF84B3004AB00221A605A6000231393E7
:10ABA0000AE0139B9B0018AA13444FF0FF3243F8AE
:10ABB000582C139B01331393139B012BF1D90023C2
:10ABC0008DF84B300023169378E06B4A169B1344A4
:10ABD000603393F900308DF83B309DF83B3023F023
:10ABE000C0030D93644A169B1344603393F90030FD
:10ABF000B3F1FF3F5FD002AB19460D98FFF7C4FCDD
:10AC00000346002B57D09DF83B309B098DF833301D
:10AC10000D98FFF777FD03461846FFF781FD0B906F
:10AC20000B9B002B03D19DF83330032B43D19DF8B0
:10AC30003330032B04D104AB19460D98FFF7BCFC4D
:10AC40000D98FFF748FC03468DF82B3006AB1946EC
:10AC50000D98FFF799FC0990099B002B03D09DF8F4
:10AC60002B30022B06D0099B002B24D19DF82B30D2
:10AC7000032B20D19DF83330032B13D19DF82B30BB
:10AC8000022B01D1032300E002238DF823309DF82D
:10AC9000233019460D98FFF7DBFB9DF84B3001334D
:10ACA0008DF84B300B9B002B05D09DF833200B9B70
:10ACB00011460D989847169B01331693169B032B4C
:10ACC00083D99DF84B30002B4CD001238DF84A30AE
:10ACD0006B461A4602210020FFF71CFC0023139349
:10ACE00014E0139B9B0018AA134453F8602C139B89
:10ACF0009B0018A90B4453F8483C9A4203D0002308
:10AD00008DF84A3005E0139B01331393139B012BFD
:10AD1000E7D99DF84A30002B03D000238DF84B3043
:10AD200020E0002313931AE0139B9B0018AA1344FE
:10AD300053F8602C139B9B0018A90B4443F8482C34
:10AD4000139B9B0018AA134453F8502C139B9B0091
:10AD500018A90B4443F8582C139B01331393139BEE
:10AD6000012BE1D99DF84B30002B7FF428AF00BFB9
:10AD700019B05DF804FB00BF482D002008B5064B54
:10AD80001B68002B03D10549512003F0F1FC024B55
:10AD90001B68984700BF08BDB42D0020CC8F03006E
:10ADA00082B00190019B044A934201D1034B00E021
:10ADB0000023184602B0704700200040B42D002048
:10ADC00000B587B001900091019B002B03D11C4975
:10ADD000772003F0CDFC0198FFF7E2FF0490049B7D
:10ADE000002B25D000238DF8173000238DF80B3071
:10ADF0000DF10B031846FDF7C7FA049B1B79002BD6
:10AE000003D001238DF8173005E0049B009A1A60E7
:10AE1000049B01221A719DF80B301846FDF7CAFAFF
:10AE20009DF81730002B03D011230393039B02E0FE
:10AE300000230393039B184607B05DF804FB00BF93
:10AE4000CC8F030000B585B00190019B002B03D18E
:10AE50000A499B2003F08CFC0198FFF7A1FF0390A7
:10AE6000039B002B05D0039B00221A60039B00224A
:10AE70001A7100BF05B05DF804FB00BFCC8F030062
:10AE800082B00190019B03F06043B3F1005F0CBFFF
:10AE900001230023DBB2184602B0704782B0019054
:10AEA0000B468DF803309DF80330019A13440122BC
:10AEB0001A6000BF02B0704784B001900B46ADF835
:10AEC0000230BDF80230019A134400221A60BDF826
:10AED0000230019A13441B680393039B00BF04B024
:10AEE000704782B001900B46ADF80230BDF80230D9
:10AEF000019A13441B68002B14BF01230023DBB20B
:10AF0000184602B0704782B001900091019B009AF0
:10AF1000C3F8042300BF02B0704782B001900091D3
:10AF2000019B009AC3F8082300BF02B0704784B0A9
:10AF3000039002910192029A039BC3F84425039B5C
:10AF4000019AC3F8482500BF04B0704784B003904D
:10AF500002910192029A039BC3F83425039B019A44
:10AF6000C3F8382500BF04B0704782B00190019B40
:10AF70000122C3F8502500BF02B0704782B0019093
:10AF8000019B0022C3F8502500BF02B0704782B079
:10AF90000190019B0122C3F8402500BF02B0704719
:10AFA00082B00190019B0022C3F8402500BF02B08F
:10AFB0007047000000B583B00190019B1B682F2BE8
:10AFC00004D90B4940F2CD1003F0D2FB019B1B6862
:10AFD0001F2B02D84FF0A04306E0019B1B6803F033
:10AFE0001F02019B1A60034B184603B05DF804FB77
:10AFF0006C9003000003005000B585B0019001ABD8
:10B000001846FFF7D7FF0390019B012202FA03F3D2
:10B010001946039800F018F800BF05B05DF804FB6E
:10B0200000B585B0019001AB1846FFF7C3FF039050
:10B03000019B012202FA03F31946039800F00EF86F
:10B0400000BF05B05DF804FB82B001900091019B48
:10B05000009AC3F8082500BF02B0704782B0019083
:10B060000091019B009AC3F80C2500BF02B0704705
:10B0700000B583B00190019BDB7FFF2B0ED0019BBD
:10B080009B7F002B05D0019BDB7F1846FFF7C8FF95
:10B0900004E0019BDB7F1846FFF7AEFF019B002217
:10B0A0005A77019B00221A72019B1B68019A02F1D8
:10B0B0000800019A52681146984700BF03B05DF836
:10B0C00004FB00B583B001900B468DF803309DF86A
:10B0D000033083F00103DBB2002B04D04021019840
:10B0E000FFF71BFF03E040210198FFF70CFF00BFB3
:10B0F00003B05DF804FB00B583B001900091009BA4
:10B1000003F00103002B03D00198FFF72EFF02E0AC
:10B110000198FFF733FF009B03F00203002B03D0DD
:10B120000198FFF734FF02E00198FFF739FF00BFF5
:10B1300003B05DF804FB00B587B003900291019263
:10B140000093019B1B68002B0AD0019B1B681846CB
:10B15000FFF796FE034683F00103DBB2002B0ED10E
:10B16000019B9B68002B11D0019B9B681846FFF741
:10B1700087FE034683F00103DBB2002B06D0029B5F
:10B1800000225A7710230593059B54E0019B196810
:10B19000019B5B681A460398FFF7C9FE019B9968FB
:10B1A000019BDB681A460398FFF7D0FE4FF48C71C1
:10B1B0000398FFF781FE00990398FFF79CFF009B1F
:10B1C00003F00803002B03D110210398FFF766FE5C
:10B1D000029B1B68002B1FD100BF4FF48C7103989A
:10B1E000FFF77FFE034683F00103DBB2002BF4D1AF
:10B1F000029BDB7FFF2B1BD0029B9B7F002B05D08C
:10B20000029BDB7F1846FFF70BFF11E0029BDB7F01
:10B210001846FFF7F1FE0BE0009B03F00403002B40
:10B220000CBF01230023DBB219460398FFF749FF47
:10B2300000230593059B184607B05DF804FB00004A
:10B2400010B586B0039002910192039B1B791A46B8
:10B250001346DB0013449B003A4A13440593059BB5
:10B260001B7F002B04D1384940F2322003F080FAD2
:10B27000029B1B68002B08D1029B5B68002B04D04B
:10B28000314940F2332003F073FA029B9B68002B94
:10B2900008D1029BDB68002B04D02B494FF40D70C2
:10B2A00003F066FA039B1B79002B09D1029BDB6834
:10B2B000B3F5803F04D2029B5B68B3F5803F04D3B3
:10B2C000214940F2352003F053FA00230493059BF3
:10B2D0005B7FDBB2002B03D011230493049B2EE091
:10B2E000059B1B68002B07D0019B03F01403002B68
:10B2F00002D1059B01225A77059B029A03F10C04A7
:10B3000013460FCB84E80F00059BDB7FFF2B0ED08D
:10B31000059B9B7F002B05D0059BDB7F1846FFF725
:10B320006BFE04E0059BDB7F1846FFF779FE039B6D
:10B330001868019B029A0599FFF7FDFE034618461F
:10B3400006B010BDBC2D0020A490030000B583B052
:10B35000019000914FF48C710198FFF7C2FD0346F4
:10B36000002B10D04FF48C710198FFF7A5FD009BC6
:10B370001B68002B04D106494FF4277003F0F8F93D
:10B380000098FFF775FE00BF03B05DF804FB00BF37
:10B39000A490030008B503490348FFF7D7FF00BF97
:10B3A00008BD00BFBC2D00200030004082B0034625
:10B3B0008DF807309DF8073003F01F0205499DF90D
:10B3C00007305B09012000FA02F241F8232000BF98
:10B3D00002B0704700E100E082B003468DF807300C
:10B3E0009DF8073003F01F0206499DF907305B09FD
:10B3F000012000FA02F2203341F8232000BF02B0FE
:10B40000704700BF00E100E082B0034600918DF874
:10B4100007309DF90730002B0CDA009BDAB20C499B
:10B420009DF8073003F00F03043B5201D2B20B44E6
:10B430001A7609E0009BDAB206499DF907305201FD
:10B44000D2B20B4483F8002300BF02B0704700BFA4
:10B4500000ED00E000E100E082B00190019B1B0BD9
:10B460005BB2184602B0704700B583B003460A4687
:10B470008DF8073013468DF806309DF80630012B05
:10B4800003D99DF80630032B0BD99DF80630042B09
:10B4900003D99DF80630072B03D908496B2003F028
:10B4A00067F99DF806209DF9073011461846FFF709
:10B4B000ABFF00BF03B05DF804FB00BF08910300C1
:10B4C00000B583B003468DF807309DF90730184664
:10B4D000FFF76CFF00BF03B05DF804FB00B583B05D
:10B4E00003468DF807309DF907301846FFF774FFC3
:10B4F00000BF03B05DF804FB84B001900B46ADF8CB
:10B500000230BDF80230019A134400221A60BDF8DF
:10B510000230019A13441B680393039B00BF04B0DD
:10B52000704782B001900B46ADF80230BDF8023092
:10B53000019A13441B68002B14BF01230023DBB2C4
:10B54000184602B0704782B001900091019B009AAA
:10B55000C3F8042300BF02B0704782B0019000918D
:10B56000019BD3F80423009B1340002B14BF01233D
:10B570000023DBB2184602B0704782B00190009100
:10B58000019B009AC3F8082300BF02B0704784B043
:10B590000190019BD3F880340393019B039AC3F875
:10B5A0008024039B184604B0704782B00190019B31
:10B5B0000422C3F8002500BF02B0704782B001909A
:10B5C000019B0022C3F8002500BF02B0704784B081
:10B5D000039002910192039B019AC3F81425039BE7
:10B5E000029AC3F80C2500BF04B0704700B583B0C1
:10B5F00001904FF0FF324FF0FF310198FFF7E7FF66
:10B6000000BF03B05DF804FB82B00190019BD3F84A
:10B610000C35184602B0704782B00190019BD3F8F8
:10B620001435184602B0704782B00190019BD3F8E0
:10B630000835184602B0704782B00190019BD3F8DC
:10B640001035184602B0704784B003900291019201
:10B65000039B029AC3F80825039B019AC3F810259F
:10B6600000BF04B0704700B583B001904FF0FF32C7
:10B670004FF0FF310198FFF7E7FF00BF03B05DF81F
:10B6800004FB82B00190019BD3F81835DBB2184659
:10B6900002B0704782B001900B468DF803309DF8E0
:10B6A0000320019BC3F81C2500BF02B0704782B085
:10B6B00001900B468DF803309DF80330019A134436
:10B6C00001221A6000BF02B0704782B001900B46A1
:10B6D0008DF8033013468DF802309DF803209DF855
:10B6E00002301343DBB21A46019BC3F86C2500BF3E
:10B6F00002B0704782B001900091019B009AC3F89C
:10B70000242500BF02B0704700B583B00190019BB3
:10B710001B682F2B04D90B4940F2CD1003F028F8F9
:10B72000019B1B681F2B02D84FF0A04306E0019B32
:10B730001B6803F01F02019B1A60034B184603B0FD
:10B740005DF804FB409103000003005000B585B094
:10B750000190084611461A4603468DF803300B4601
:10B760008DF8023013468DF8013001AB1846FFF713
:10B77000CBFF03909DF803209DF802305B001A4335
:10B780009DF801309B001A439DF818301B0242EAD5
:10B7900003019DF81C301B04019A1943039B02F519
:10B7A000E07243F8221000BF05B05DF804FB00B55D
:10B7B00085B003900023019300230093002301220E
:10B7C00001210398FFF7C2FF00BF05B05DF804FB3D
:10B7D00000B585B003900B468DF80B309DF80B300B
:10B7E0000022019200220092002200210398FFF71C
:10B7F000ADFF00BF05B05DF804FB00B585B0039058
:10B8000000230193002300930023012200210398C9
:10B81000FFF79CFF00BF05B05DF804FB00B585B0E5
:10B82000019001AB1846FFF76FFF0390019B0122C7
:10B8300002FA03F31946039800F004F800BF05B0BC
:10B840005DF804FB82B001900091019B009AC3F85F
:10B85000082500BF02B0704700B583B00190009189
:10B86000009B1B68B3F1FF3F09D0009B1B68184683
:10B87000FFF7D4FF009B1B681846FFF798FF009B5B
:10B880005B68B3F1FF3F05D0009B5B680021184661
:10B89000FFF79EFF019B1A68009B9B6919461046A3
:10B8A000FFF728FF019B1868009B597D009B1B7DBB
:10B8B0001A46FFF70AFF019B1868009B1968009B56
:10B8C0005B681A46FFF783FE009B1B7D012B22D18C
:10B8D000009B9B68B3F1FF3F05D0009B9B68002154
:10B8E0001846FFF775FF009BDB68B3F1FF3F09D0F7
:10B8F000009BDB681846FFF791FF009BDB6818464A
:10B90000FFF755FF019B1868009BD968009B9B6857
:10B910001A46FFF799FE00BF03B05DF804FB000074
:10B9200000B583B001900B468DF80330019B1B6876
:10B930004FF48E711846FFF7DFFD019B1B684FF433
:10B94000A2711846FFF7D8FD019B1B680E491846E7
:10B95000FFF7F9FD019B1B681846FFF77DFD0346C5
:10B960001A469DF8033019461046FFF77DFD019BEE
:10B970001B681846FFF770FD03461846FFF7A0FD49
:10B9800000BF03B05DF804FB8000020000B583B087
:10B990000190019B1B6808491846FFF7EEFD019BCB
:10B9A0001B681846FFF758FD03461846FFF796FD3B
:10B9B00000BF03B05DF804FB8402020000B587B04D
:10B9C0000190019B1B681846FFF71EFE0590019B26
:10B9D0001B681846FFF720FE0490019B1B68184661
:10B9E000FFF722FE0390019B1B681846FFF724FE19
:10B9F0000290019B1B681846FFF7F8FD019B1B682E
:10BA00001846FFF730FE059BB3F1FF3F02D00598C3
:10BA1000FFF7F3FE049BB3F1FF3F02D00498FFF75A
:10BA2000ECFE029BB3F1FF3F02D00298FFF7E5FE68
:10BA3000039BB3F1FF3F02D00398FFF7DEFE00BF88
:10BA400007B05DF804FB000000B587B003900291D9
:10BA50000192029B002B03D12D49AA2002F088FEFF
:10BA6000039B1B791A462C2302FB03F3294A134438
:10BA7000059300230493059B93F82A30002B03D0F1
:10BA800008230493049B3EE0039B1A68039B1B79E5
:10BA90001946214B53F8213019461046FFF790F90B
:10BAA0000346002B03D011230493049B2BE002993F
:10BAB0000398FFF7D1FE059B019A5A60029B1A6911
:10BAC000059B1A60059B5B68002B05D0029B1B7FC2
:10BAD00019460398FFF724FF039B1B681846FFF7DE
:10BAE00064FD059B00229A61059B0022DA61059B9B
:10BAF000002283F82920059B00225A61059B012220
:10BB000083F82A20049B184607B05DF804FB00BFA9
:10BB100078910300E02D0020DC91030000B585B092
:10BB20000190019B1B791A462C2302FB03F3114A57
:10BB300013440393019B1B681846FFF73FFD039BCB
:10BB40005B68002B02D00198FFF720FF0198FFF7F8
:10BB500035FF019B1B681846FFF774F9039B002211
:10BB600083F82A20039B00225A6000BF05B05DF8CD
:10BB700004FB00BFE02D002000B585B001900091CE
:10BB80004FF48E710198FFF7B7FC009B9A68009BF9
:10BB90001B6A13441B788DF80F30009B1B6A5A1CDC
:10BBA000009B1A629DF80F3019460198FFF772FD4D
:10BBB00000BF05B05DF804FB00B585B001900091B1
:10BBC000009B5B69039316E0009B93F82830DBB27F
:10BBD000002B01D0002314E04FF48E710198FFF781
:10BBE000A0FC034683F00103DBB2002BECD10099EB
:10BBF0000198FFF7C1FF009B1B6A039A9A42EBD89A
:10BC00000123184605B05DF804FB000000B587B0BD
:10BC1000039002910192039B1B791A462C2302FB8D
:10BC200003F33C4A13440493049B93F82A30012BFA
:10BC300004D039494FF48C7002F09AFD029B002B1E
:10BC400004D1354940F2191002F092FD019B002BFE
:10BC500004D131494FF48D7002F08AFD039800F051
:10BC60005DF80346002B03D011230593059B4CE0A0
:10BC7000049B019A5A61049B029A9A60049B0022D9
:10BC80001A62049B002283F8282000230593039B5B
:10BC90001B684FF48E711846FFF72EFC039B1B6840
:10BCA00008211846FFF703FD039B1B6804991846FB
:10BCB000FFF762FF049B5B68002B25D1039B1B6889
:10BCC00004991846FFF778FF034683F00103DBB2BF
:10BCD000002B02D00F23059313E000BF039B1B68CA
:10BCE0004FF48E711846FFF71CFC034683F00103E6
:10BCF000DBB2002BF2D1039B1B680C211846FFF727
:10BD0000D6FC049B00225A61059B184607B05DF8DB
:10BD100004FB00BFE02D00207891030082B0019069
:10BD2000019B1B791946074A2C2301FB03F313449B
:10BD300014331B68002B14BF01230023DBB2184609
:10BD400002B07047E02D002000B583B00190019B48
:10BD50001B684FF492711846FFF7CEFB019B1B68DE
:10BD60004FF484711846FFF7C7FB019B1B68002145
:10BD70001846FFF79CFC00BF03B05DF804FB10B54C
:10BD800082B001900091009B9B69002B08D14FF479
:10BD900084710198FFF7B0FB0198FFF772FC13E084
:10BDA0004FF484710198FFF7A7FB009BDA68009BB2
:10BDB0005B6AD4180198FFF764FC03462370009B6C
:10BDC0005B6A5A1C009B5A6202B010BD00B589B074
:10BDD000039002910192039B1B791A462C2302FBCC
:10BDE00003F37F4A13440693039B1B7919467C4A4D
:10BDF0002C2301FB03F313442A331B78012B04D0BB
:10BE000078494FF4B67002F0B3FC029B002B04D1CA
:10BE1000744940F26D1002F0ABFC019B002B04D181
:10BE200070494FF4B77002F0A3FC00238DF81F3067
:10BE3000069B5B68002B06D0039B1B684FF40171C7
:10BE40001846FFF79AFB069B9B69002B15D0069BB3
:10BE5000DB69002B0ED0069B5B68002B06D0039B92
:10BE60001B684FF401711846FFF76DFB1123059312
:10BE7000059BB0E001238DF81F309DF81F3083F043
:10BE80000103DBB2002B0CD0069B019A9A61069B42
:10BE9000029ADA60069B00225A62069B0022DA614F
:10BEA00005E0069B029A1A61069B019ADA61069BDD
:10BEB00093F8293083F00103DBB2002B09D09DF801
:10BEC0001F3083F00103DBB2002B02D00398FFF791
:10BED0003BFF069B5B68002B73D1039B1B684FF4F1
:10BEE000A2711846FFF708FB039B1B684FF4927181
:10BEF0001846FFF716FB03468DF81330039B1B68AB
:10BF00004FF484711846FFF70CFB03468DF812308E
:10BF1000039B1B684FF4A2711846FFF702FB034610
:10BF20008DF811309DF8123083F00103DBB2002B45
:10BF30000DD09DF8113083F00103DBB2002B06D049
:10BF40009DF8133083F00103DBB2002BCCD19DF8B8
:10BF50001330002B0FD19DF81130002B0BD1039B18
:10BF60001B6806991846FFF70AFF069B9A69069B0D
:10BF70005B6A9A42B8D8069B00229A619DF81330FA
:10BF8000002B03D003230593059B24E09DF811307B
:10BF9000002B03D00F230593059B1CE0069B93F811
:10BFA0002930002B06D0039B1B6800211846FFF7A1
:10BFB0007EFB0DE0039B1B6804211846FFF777FB0F
:10BFC00006E0039B1B684FF401711846FFF7BBFAAC
:10BFD00000230593059B184609B05DF804FB00BFDC
:10BFE000E02D00207891030000B589B00390029104
:10BFF000019201238DF81030029B0693019B05935B
:10C00000039B5B68039A116804AA1046984700BF17
:10C0100009B05DF804FB00B587B0019000910023E2
:10C020008DF80830009B0493019B9B680393019B50
:10C0300000225A61019B5B68019A116802AA1046AE
:10C04000984700BF07B05DF804FB00B58BB00190C6
:10C0500000914FF400710198FFF77FFA0346002B1F
:10C0600039D04FF492710198FFF75BFA0346002B29
:10C0700031D04FF492710198FFF73EFA4FF40171FD
:10C080000198FFF77AFA009B93F8293083F00103B7
:10C09000DBB2002B03D004210198FFF708FB022339
:10C0A0008DF80C300198FFF772FA03460693009B57
:10C0B0009B690593009BDB680493009B00229A61B7
:10C0C000009B0022DA61009B5B68009A116803AA5A
:10C0D0001046984752E004210198FFF73EFA0346C4
:10C0E000002B4BD04FF484710198FFF71AFA0346E6
:10C0F000002B43D000990198FFF741FE009B9A69FD
:10C10000009B5B6A9A4239D1009BDB69002B19D0F6
:10C11000009BDB680993009B5B6A0893009BDA69CC
:10C12000009B9A61009B1A69009BDA60009B0022C9
:10C13000DA61009B00225A62099A08990098FFF779
:10C1400053FF1BE0009B93F8293083F00103DBB21F
:10C15000002B03D004210198FFF7A9FA4FF40171D5
:10C160000198FFF70AFA009B00229A61009B596A26
:10C17000009BDB681A460098FFF736FF4FF48E717C
:10C180000198FFF7CEF90346002B24D0009B5B6992
:10C190000793009B1B6A079A9A420DD9009B93F85C
:10C1A0002830DBB283F00103DBB2002B04D000990E
:10C1B0000198FFF7E1FC0EE04FF48E710198FFF754
:10C1C0009BF9009B5B69002B05D0009B5B691946BE
:10C1D0000098FFF720FF4FF4A2710198FFF7A1F933
:10C1E0000346002B1CD04FF4A2710198FFF784F98D
:10C1F000009B93F82930002B03D000210198FFF712
:10C2000056FA009B9B69002B0AD0009B00229A6182
:10C21000009B596A009BDB681A460098FFF7E4FE12
:10C2200000BF0BB05DF804FB08B503490348FFF7F6
:10C230000CFF00BF08BD00BFE02D00200020004023
:10C2400082B003468DF807309DF8073003F01F02D7
:10C2500005499DF907305B09012000FA02F241F817
:10C26000232000BF02B0704700E100E082B0034627
:10C270008DF807309DF8073003F01F0206499DF93D
:10C2800007305B09012000FA02F2203341F8232035
:10C2900000BF02B0704700BF00E100E082B003467B
:10C2A00000918DF807309DF90730002B0CDA009BC8
:10C2B000DAB20C499DF8073003F00F03043B52013A
:10C2C000D2B20B441A7609E0009BDAB206499DF916
:10C2D00007305201D2B20B4483F8002300BF02B0F2
:10C2E000704700BF00ED00E000E100E082B0019087
:10C2F000019B03F06043B3F1005F0CBF01230023F7
:10C30000DBB2184602B0704782B00190019B1B0B54
:10C310005BB2184602B0704700B583B003460A46C8
:10C320008DF8073013468DF806309DF80630012B46
:10C3300003D99DF80630032B0BD99DF80630042B4A
:10C3400003D99DF80630072B03D908496B2002F06A
:10C350000FFA9DF806209DF9073011461846FFF7A1
:10C360009DFF00BF03B05DF804FB00BFE091030038
:10C3700000B583B003468DF807309DF907301846A5
:10C38000FFF75EFF00BF03B05DF804FB00B583B0AC
:10C3900003468DF807309DF907301846FFF766FF12
:10C3A00000BF03B05DF804FB84B001900B46ADF80C
:10C3B0000230BDF80230019A134400221A60BDF821
:10C3C0000230019A13441B680393039B00BF04B01F
:10C3D000704782B001900B46ADF80230BDF80230D4
:10C3E000019A13441B68002B14BF01230023DBB206
:10C3F000184602B0704782B001900091019BD3F8BB
:10C400000022009B1A43019BC3F8002200BF02B028
:10C41000704782B001900091019BD3F80022009BED
:10C42000DB431A40019BC3F8002200BF02B07047F3
:10C4300082B001900091019B009AC3F8042300BFD1
:10C4400002B0704782B001900091019B009AC3F83E
:10C45000082300BF02B0704784B00190019BD3F85D
:10C4600080340393019B039AC3F88024039B1846EE
:10C4700004B0704782B00190019B0822C3F80025E8
:10C4800000BF02B0704782B00190019B0022C3F848
:10C49000002500BF02B0704784B003900291019262
:10C4A000039B029AC3F80C25039B019AC3F8142539
:10C4B00000BF04B0704700B583B001904FF0FF3269
:10C4C0004FF0FF310198FFF7E7FF00BF03B05DF8C1
:10C4D00004FB82B00190019BD3F80C35184602B0E2
:10C4E000704782B00190019BD3F81435184602B012
:10C4F000704782B00190019BD3F80835184602B00E
:10C50000704782B00190019BD3F81035184602B0F5
:10C51000704784B0039002910192039B029AC3F882
:10C520000825039B019AC3F8102500BF04B070478B
:10C5300000B583B001904FF0FF324FF0FF3101980A
:10C54000FFF7E7FF00BF03B05DF804FB82B0019086
:10C550000B468DF803309DF80330019A13440122F5
:10C560001A6000BF02B0704782B001900B468DF890
:10C57000033013468DF802309DF803209DF80230F9
:10C580001343DBB21A46019BC3F86C2500BF02B00F
:10C59000704782B001900091019B009AC3F8242556
:10C5A00000BF02B0704784B0039002910192029ADA
:10C5B000039BC3F84425039B019AC3F8482500BF99
:10C5C00004B0704782B00190019BD3F84C351846F7
:10C5D00002B0704784B0039002910192029A039BCB
:10C5E000C3F83425039B019AC3F8382500BF04B073
:10C5F000704782B00190019BD3F83C35184602B0D9
:10C600007047000000B583B00190019B1B682F2B81
:10C6100004D90B4940F2CD1002F0AAF8019B1B6827
:10C620001F2B02D84FF0A04306E0019B1B6803F0CC
:10C630001F02019B1A60034B184603B05DF804FB10
:10C64000189203000003005000B585B00190084621
:10C6500011461A4603468DF803300B468DF802301A
:10C6600013468DF8013001AB1846FFF7CBFF03905E
:10C670009DF803209DF802305B001A439DF80130BD
:10C680009B001A439DF818301B0242EA03019DF8F3
:10C690001C301B04019A1943039B02F5E07243F816
:10C6A000221000BF05B05DF804FB00B585B0039013
:10C6B000002301930023009300230122012103980A
:10C6C000FFF7C2FF00BF05B05DF804FB00B585B001
:10C6D00003900B468DF80B309DF80B300022019231
:10C6E00000220092002200210398FFF7ADFF00BF57
:10C6F00005B05DF804FB00B585B0039000230193FD
:10C70000002300930023012200210398FFF79CFFE0
:10C7100000BF05B05DF804FB00B585B0019001AB2A
:10C720001846FFF76FFF0390019B012202FA03F303
:10C730001946039800F004F800BF05B05DF804FB4B
:10C7400082B001900091019B009AC3F8082500BFB8
:10C7500002B0704700B583B001900091009B1B6848
:10C76000B3F1FF3F09D0009B1B681846FFF7D4FFC9
:10C77000009B1B681846FFF798FF009B5B68B3F1AE
:10C78000FF3F05D0009B5B6800211846FFF79EFF26
:10C79000019B1A68009B9B6919461046FFF7F9FE3A
:10C7A000019B1868009B597D009B1B7D1A46FFF773
:10C7B000DBFE019B1868009B1968009B5B681A46AA
:10C7C000FFF76AFE009B1B7D012B22D1009B9B681B
:10C7D000B3F1FF3F05D0009B9B6800211846FFF78F
:10C7E00075FF009BDB68B3F1FF3F09D0009BDB685E
:10C7F0001846FFF791FF009BDB681846FFF755FFCF
:10C80000019B1868009BD968009B9B681A46FFF73C
:10C8100080FE00BF03B05DF804FB000000B583B0EC
:10C8200001900B468DF80330019B1B684FF4887113
:10C830001846FFF7B9FD019B1B684FF4907118462D
:10C84000FFF7B2FD019B1B684FF492711846FFF78A
:10C85000ABFD019B1B684FF4A2711846FFF7A4FDC6
:10C86000019B1B684FF4AC711846FFF79DFD019BBF
:10C870001B680F491846FFF7DBFD019B1B68184634
:10C88000FFF742FD03461A469DF80330194610464D
:10C89000FFF742FD019B1B681846FFF735FD034675
:10C8A0001846FFF765FD00BF03B05DF804FB00BF4D
:10C8B0001003420000B583B00190019B1B6808493A
:10C8C0001846FFF7BFFD019B1B681846FFF71CFDCC
:10C8D00003461846FFF75AFD00BF03B05DF804FB9E
:10C8E0001003420000B587B00190019B1B681846F9
:10C8F000FFF7EFFD0590019B1B681846FFF7F1FD60
:10C900000490019B1B681846FFF7F3FD0390019B01
:10C910001B681846FFF7F5FD0290019B1B6818463F
:10C92000FFF7C9FD019B1B681846FFF701FE059B39
:10C93000B3F1FF3F02D00598FFF7DDFE049BB3F192
:10C94000FF3F02D00498FFF7D6FE029BB3F1FF3FF2
:10C9500002D00298FFF7CFFE039BB3F1FF3F02D056
:10C960000398FFF7C8FE00BF07B05DF804FB0000A6
:10C9700000B587B0039002910192029B002B03D176
:10C980002B49CF2001F0F4FE039B1B791A46134676
:10C99000DB0013449B00274A1344059300230493B0
:10C9A000059B93F82030002B03D008230493049BAD
:10C9B0003AE0039B1A68039B1B7919461E4B53F8F8
:10C9C000213019461046FEF7FBF90346002B03D031
:10C9D00011230493049B27E002990398FFF7BAFE02
:10C9E000059B019A5A60029B1A69059B1A60059B78
:10C9F0005B68002B05D0029B1B7F19460398FFF74D
:10CA00000DFF039B1B681846FFF734FD059B0022B2
:10CA10009A61059B0022DA61059B00225A61059B01
:10CA2000012283F82020049B184607B05DF804FB20
:10CA3000509203000C2E0020B892030000B585B080
:10CA40000190019B1B791A461346DB0013449B009F
:10CA5000244A13440393039B5B68002B02D0019884
:10CA6000FFF728FF019B1B6820211846FFF7D1FC28
:10CA7000019B1B6804211846FFF768FD019B1B689A
:10CA80004FF4AC711846FFF78FFC019B1B680C211B
:10CA90001846FFF75BFD00BF019B1B684FF4AC71AC
:10CAA0001846FFF796FC034683F00103DBB2002B28
:10CAB000F2D1019B1B681846FFF7E5FC0198FFF7D0
:10CAC00011FF019B1B681846FEF7BCF9039B00226F
:10CAD00083F82020039B00225A6000BF05B05DF858
