:020000022000DC
:10700000000004205D730200B9730200BB7302002C
:10701000BD730200BF730200C173020000000000D4
:10702000000000000000000000000000C373020028
:10703000C573020000000000C7730200C97302009C
:107040000D860200CB7302000989020099890200B3
:1070500011970200CB7302005D870200CB73020020
:10706000CB730200CB730200CB730200CB73020020
:10707000CB730200CB730200CB730200CB73020010
:10708000CB730200F17C0200CB730200CB730200D1
:10709000CB730200CB73020085C30200CB730200E6
:1070A000CB730200CB730200CB730200CB730200E0
:1070B000CB730200CB730200000000000000000050
:1070C000CB730200CB730200CB730200CB730200C0
:1070D000CB730200CB730200CB73020000000000F0
:1070E00000000000000000000000000000000000A0
:1070F0000000000000000000000000000000000090
:10710000000000000000000000000000000000007F
:10711000000000000000000000000000000000006F
:10712000000000000000000000000000000000005F
:10713000000000000000000000000000000000004F
:10714000000000000000000000000000000000003F
:10715000000000000000000000000000000000002F
:10716000000000000000000000000000000000001F
:10717000000000000000000000000000000000000F
:1071800000000000000000000000000000000000FF
:1071900000000000000000000000000000000000EF
:1071A00000000000000000000000000000000000DF
:1071B00000000000000000000000000000000000CF
:1071C00000000000000000000000000000000000BF
:1071D00000000000000000000000000000000000AF
:1071E000000000000000000000000000000000009F
:1071F000000000000000000000000000000000008F
:10720000354936480A1A02D0072291438D4634493F
:1072100034480A1A06D00722914381F309880222D2
:1072200082F3148830483149314A00F044F831483B
:107230003149324A00F03FF831483249324A00F0D1
:107240003AF832483249334A00F035F83248334987
:10725000334A00F030F833483349344A00F02BF811
:1072600033483449344A00F026F83448344900227F
:1072700000F02CF833483449002200F027F8334856
:107280003349091A082902DB002202604160314AB1
:1072900090471F481F49884205D00268043003B454
:1072A000904703BCF7E700208646EC46002000210B
:1072B000294A9047FEE7884207D0521A05D0037842
:1072C00001300B700131013AF9D17047884202D088
:1072D00002700130FAE770470000042000E003204C
:1072E0000000042000000420E8E902000033002030
:1072F000B5330020D0730200D0730200C0DE02005C
:10730000E8E90200003300200033002024DF0200FF
:1073100024DF020028DF020024DF020024DF020055
:1073200024DF020028DF020028DF0200E8E9020073
:10733000A0EA0200B8330020B8330020B8330020A0
:1073400048510020485100204C5100204C51002051
:107350004C7100208573020001AB020000F036B8CA
:107360000F484FF00701884385460E4880470E4876
:10737000016841F470010160BFF34F8FBFF36F8F5D
:10738000FFF73EBF09480A490A4A884207D0521A05
:1073900005D0037801300B700131013AF9D1704703
:1073A000000004200980020088ED00E024DF0200D4
:1073B0000033002000330020FEE7FEE7FEE7FEE793
:1073C000FEE7FEE7FEE7FEE7FEE7FEE7FFF7C8BFE2
:1073D00000487047405100201FB50021039001AACA
:1073E00044F20100CDE9011100F004F805B05DF8A8
:1073F00004FB000072B6094B1B68DB0700D500BE1A
:10740000BFF34F8F0649074BCA6802F4E06213438B
:10741000CB60BFF34F8F00BFFDE700BFF0ED00E092
:1074200000ED00E00400FA0549B152B1531E1A40C4
:1074300007D1826001608380C260104670470E20D1
:1074400070470920704710B58468C2688388121B92
:10745000934208D3C26813400268D154C368013311
:10746000C360002010BD0420FCE78268C3689A4214
:107470000AD08268838813400268D35C0B708368EB
:10748000013383600020704705207047C368836024
:1074900000207047D0E90223D1E90201994208BFD8
:1074A00090422CBF012000207047000008B50B4817
:1074B00000F009FC0A4B0B49D3E900231218D1E96B
:1074C000000143F100038B4208BF824203D212F154
:1074D000807243F100031046194608BD00330020B6
:1074E000C03300203834002037B505460C460A4822
:1074F00001A900F01AFC60B10570446001A90648BA
:1075000000F03DFC18B1054800F0E2FB002003B09C
:1075100030BD0420FBE700BF2434002000330020EE
:1075200038B5184B1B78044613B90025284638BDDA
:107530000028FAD0037F03F0FF05002BF5D0FFF7FA
:10754000B5FFD4E90223994208BF904214D32369BE
:1075500003B92377D4E90530984721690029E4D09D
:10756000237F03F0FF05002BDFD0D4E9022352185C
:1075700043F10003C4E902230348214600F0D2FC92
:10758000D4E700BFC83300202CDF020013B5114B35
:1075900011491868019008231048582200F0B2FBE6
:1075A000044698B90E4A0F4801A900F091FA044622
:1075B00060B90C48012100F069FB01230A4A09481F
:1075C000194600F0CBFA094B01221A70204602B08E
:1075D00010BD00BF28DF0200CC330020243400207F
:1075E0006176020000330020FFFF7F00C8330020D7
:1075F0003AB103685A614A1E514251411961002053
:1076000070470720704738B5037F04460D4683B99D
:107610008261FFF74BFF2369401941F10001C4E982
:10762000020103B1256121460020BDE83840FFF783
:107630005BBF002038BD0023014603770120FFF720
:1076400053BF0000024B002102201970FFF74CBF0E
:10765000C8330020014800F036BB00BF00330020D3
:107660002DE9F04F85B0804600F018FB40B15A4A32
:10767000D2E9003113F1807341F10001C2E9003118
:107680000021404600F019FB38B1544E336823B155
:107690003068FFF745FF002333600121404600F0CA
:1076A0000CFB20B1FFF702FF4D4BC3E900014D4831
:1076B0004A4F4D4EDFF8389103A900F070FB0028C7
:1076C00045D1DFF82491454EDFF828A1484600F067
:1076D0003FFC3368002875D07BB13368D0E90201E4
:1076E000D3E90223994208BF90422DD233681B7F11
:1076F0001BB13168484600F015FC484600F022FCFA
:10770000D0E902B307460193FFF7D0FE019BBBEB24
:10771000000463EB0105012C75F1000345DBB4F5B2
:10772000350F40D3FFF796FF304A02444FF49603DB
:107730000021504600F032FA00283ED1336813B9D8
:10774000404600F003FA376005B0BDE8F08F0378DB
:10775000012B1DD0022B09D14FF0000A304600F05A
:10776000F1FB002834D080F81CA0F7E73BB9416852
:107770000B7F23B901230B77304600F0D3FB03A91D
:10778000184800F037FB03A9164800F008FB96E7FD
:1077900041683B68994202D100233B60EFE73046E5
:1077A00000F0D9FBEBE7BA68C0E70021504600F0D3
:1077B0007AFA3846FFF7B4FE01E00D28F9D000232D
:1077C000336083E7002BBFD1404600F0C3F9BBE72D
:1077D000012389F80030D2E7C03300204034002074
:1077E00038340020243400202CDF0200FFFFB400D6
:1077F000C8330020003300200648074A03780749B1
:10780000D35C012213B1043001F0D8BE0C3001F07A
:1078100081BC00BF08330020DC3400206C34002021
:107820000648074A03780749D35C012213B10430A4
:1078300001F070BE0C3001F01BBC00BF083300200B
:10784000DC3400206D34002037B50578012D0BD0D5
:10785000022D2ED065B91E491E48FFF706FE0028EE
:1078600032D1FFF7DDFF03E0037A1BB9FFF7C4FF56
:1078700003B030BD4368184C19782046FFF7E3FD8C
:1078800080B18DF800500190144B68461B689847F2
:10789000A168E368A2885B1A9A42E7D2104B0122E2
:1078A0001A70E5E7A268E3689A42F1D08DF800000B
:1078B000EAE7C3688DF800500193FFF79DFF074B7F
:1078C00068461B689847D3E703238DF80030F6E736
:1078D0006D3400205C340020483400204434002003
:1078E00058340020F0B51F46234B89B004461A6077
:1078F0000D4600293DD08A8820480968FFF794FD8D
:10790000002834D1AA89A9681D48FFF78DFD0028F9
:107910002DD11C4E0FCE6D460FC596E80F0085E8A1
:107920000F0063690693237C174A18488DF81C7072
:10793000003B18BF01238DF81430637C002B14BF6B
:107940000E2300238DF81530E3680293A368039398
:107950002368019369466368009300F0DDFD30B948
:107960000B4B18702368013301D0FFF745FF09B0B6
:10797000F0BD0720FBE700BF44340020483400205E
:107980005C34002038DF0200497802000833002010
:107990005834002008B50548FFF778FD20B9BDE848
:1079A00008400348FFF772BD08BD00BF48340020FF
:1079B0005C34002070B5084D014608482E78FFF76A
:1079C00054FD044636B100232B70FFF715FF08B1B4
:1079D000FFF702FD204670BD5834002048340020D7
:1079E00010B501460E48FFF72EFD0446A8B90D4814
:1079F0000D4A0378D35C63B1043001F0D3FD60B964
:107A00000A490748FFF731FD38B9BDE81040FFF7D4
:107A100007BF0C3001F072FBF1E7204610BD00BF3C
:107A20005C34002008330020DC3400206D3400205A
:107A3000024B9A68D868801A704700BF483400200B
:107A400070B5EFF3108672B60C4A946801239CB9A6
:107A500093600B4B0B4DD3F8801029401160C3F895
:107A60008050D3F8841051604FF0FF32C3F8842067
:107A7000047006B962B670BD0370FAE77034002076
:107A800000E100E0FC06FFBD084B9A6810B55AB152
:107A900050B9EFF3108172B6054A1C6814605C6837
:107AA0005460986001B962B610BD00BF7034002008
:107AB00000E100E0435882B03BB1002343504358FB
:107AC0000193019B012002B070471846FBE70000BC
:107AD000F0B51A4B46791A4C43F8262004EBC6033E
:107AE000F7001B793BBB03680A88C3F8082590F9A7
:107AF00004508A780379002DADBF05F1604111492A
:107B000003F00F0C01F561414FEA4212D2B2B4BF4B
:107B100001F80C2081F800236D0901220A4903F0C5
:107B20001F0302FA03F341F82530E31944F8360045
:107B30001A710020F0BD0820FCE700BF843400204B
:107B40007C34002014ED00E000E100E00368012235
:107B50001A607047036801225A60704773B501F1DB
:107B60005005AD000068ADB24FF480348C40002663
:107B7000C0F80843C0F84843465101F5A87145597B
:107B8000019522F07F42019D40F82120C0F8444336
:107B90000BB1C0F8044302B070BD00002DE9F74FEF
:107BA0000D4622F07F4402684FF4803705F15006FD
:107BB0008F408046B60002EB8500C2F84873B6B22B
:107BC000C2F80873D2F8041599464FF0000BD0F8AC
:107BD0004035C0F8401542F806B05B1A9259009241
:107BE00023F07F43012B009A4FEA850A0CD1264BE4
:107BF0004FF4806043F001039847D8F8003043F811
:107C000006B09B590193019BD8F80010D1F8046588
:107C1000C1F84473A31B23F07F43012B1CD11A4BE3
:107C200005F5A875013443F0010341F825404FF4F0
:107C300080609847D8F80030D3F804359E4209D1C7
:107C4000D8F800300020C3F84473C3F8047303B0BD
:107C5000BDE8F08F0D20FAE78A44C9F1FF13CAF896
:107C60004045D1F80405221A013A22F07F4203F57B
:107C70007F439342EED3002AE2D10134CAF8404553
:107C8000D1F804359842DAE760DF02000368022287
:107C9000C3F8442309B1C3F80423704700684FF4C4
:107CA0008271FFF707BF4FF4803303FA01F10368D5
:107CB000C3F84813C3F808137047503189000068AF
:107CC00089B2FFF7F7BE0368D3F8040570470000D8
:107CD00090F9043001215A0903F01F0301FA03F35C
:107CE0004032024941F82230704700BF00E100E015
:107CF000024B034A1B681068184700BF84340020F9
:107D00007C34002010B561B1B2FBF3F403FB142402
:107D1000A4B244B9C0E9001484608281C3812046C2
:107D200010BD0E20FCE70920FAE737B550E8013F07
:107D30009DB2C48925448489A54228BF2D1B04898E
:107D4000A54202BFBFF32F8F002207E0C5EA03055B
:107D500040E80154002CE9D14FF001028DF80320D6
:107D60000193019B9DF803200B6002F0FF0322B1F9
:107D70000B880068184403B030BD1846FBE70A883A
:107D80004B889A4209D150E8012FC2EA024240E8EA
:107D90000123002BF7D1012070470020704737B531
:107DA00050E8023F1FFAA3F5C488A54202BFBFF303
:107DB0002F8F00220DE0C48925448489A54228BF65
:107DC0002D1BC3EA054540E80254002CE8D14FF0D2
:107DD00001028DF803200193019B9DF803200B60A5
:107DE00002F0FF0322B14B880068184403B030BD95
:107DF0001846FBE70A884B889A4209D150E8022FBF
:107E0000C2EA224240E80223002BF7D1012070474A
:107E10000020704701F01F024B090121914000EB47
:107E2000830000F013B801F01F0301229A404B09B0
:107E300000EB8300D14300F015B84B0901F01F019E
:107E400050F82300C84000F00100704710B5034609
:107E500053E8002F42EA010043E8000494F0000FC9
:107E6000F6D110BD10B5034653E8002F02EA010019
:107E700043E8000494F0000FF6D110BD41DF7047D5
:107E8000064B10B500241C70054B1C60BFF35F8FC0
:107E90000449054800F030F8204610BD9034002019
:107EA0009434002068DF02008834002007B50023E6
:107EB0000DF107008DF80730FFF7C2FDF1EE103A23
:107EC00023F09F03E1EE103ABFF35F8F094B40228E
:107ED000C3F884219DF80700FFF7D6FD04F038FAB7
:107EE00020B1FFF7CBFF03B05DF804FB20BF40BF1C
:107EF00020BFF8E700E100E00B684A684360934266
:107F000008BF0023016008BF43607047436843B166
:107F10000268916852680B449342436004BF002397
:107F20004360704770B5446806460D46206818B136
:107F3000B3682946984718B923682B60256070BD3F
:107F40002468F3E74368186808B102681A6070474C
:107F50004368186870474368186800B970478842DA
:107F600003D102681A600120704703460068F4E7F5
:107F7000BFF34F8F0549064BCA6802F4E062134312
:107F8000CB60BFF34F8F00BFFDE700BF00ED00E007
:107F90000400FA050C4B1B78062B10D10B4B1B6809
:107FA0001A070CD10A4B186800F0F003302B08D0E8
:107FB00000F0E000A0F14003584258417047002013
:107FC00070470120704700BFE00F00F0E40F00F0A1
:107FD000E80F00F0094B1B78062B0CD1084B1B68EF
:107FE0001A0708D1074B186800F0F000A0F1300321
:107FF0005842584170470020704700BFE00F00F022
:10800000E40F00F0E80F00F008B5FFF7C3FF28B158
:10801000894B8A4A1B68C3F304231360FFF7DAFF16
:1080200010B1874B874A1A60FFF7B4FF28B1864B1F
:10803000864A1B68C3F342331360FFF7CBFF20B1BE
:10804000834AD36823F08073D360FFF7A3FF40B166
:108050004FF080430022C3F80C21C3F81021C3F86D
:108060003825FFF7B7FF10B17A4B03221A60FFF7EC
:10807000B1FF40B1784B05221A6001229A670022B5
:108080009A603F225A60754B1B78062B50D1744B77
:108090001B6818074CD1734B1B6803F0F003502B7F
:1080A00046D14FF08052704BD2F80414C3F820151B
:1080B000D2F80814C3F82415D2F80C14C3F8281504
:1080C000D2F81014C3F82C15D2F81414C3F83015D4
:1080D000D2F81814C3F83415D2F81C14C3F840159C
:1080E000D2F82014C3F84415D2F82414C3F8481564
:1080F000D2F82814C3F84C15D2F82C14C3F8501534
:10810000D2F83014C3F85415D2F83414C3F86015FB
:10811000D2F83814C3F86415D2F83C14C3F86815C3
:10812000D2F84014C3F86C15D2F84424C3F8702573
:10813000FFF730FF28B14D4B4D4A1B6803F04F034A
:108140001360FFF727FF48B14FF08043D3F80024B6
:10815000D10744BF6FF00102C3F80024454B1B68F0
:10816000062B08D1444B1B68062B01BF434A1368FA
:1081700043F480631360424AD2F8883043F47003BA
:10818000C2F88830BFF34F8FBFF36F8F4FF01023CB
:10819000D3F80C22D2071ED53A4B0122C3F804258E
:1081A000D3F80024002AFBD04FF01022D2F80C3272
:1081B00023F00103C2F80C32324B1A46D3F80014F4
:1081C0000029FBD00021C3F80415D2F80034002B9D
:1081D000FBD0FFF7CDFED3F80022002A03DBD3F853
:1081E0000432002B23DA274B0122C3F80425D3F8ED
:1081F0000024002AFBD04FF010221521C2F80012F3
:10820000D3F80024002AFBD04FF010231522C3F826
:1082100004221C4B1A46D3F800140029FBD000217D
:10822000C3F80415D2F80034002BFBD0D1E7164B6D
:10823000164A1A6008BD00BF2403001040350140F3
:1082400074C007400DF0ADBA440200103C05004078
:10825000F0ED00E0A005004010560040E00F00F0F7
:10826000E40F00F0E80F00F000C0004058020010DA
:10827000E40E004030010010340100103C170040B3
:1082800000ED00E000E001401C3300200090D0032E
:1082900038B5074C051E04F1080318BF1C462368B7
:1082A0002BB11A6822605B6828469847F7E738BD0B
:1082B000A034002020B9054B01225A70FFF7E8BF17
:1082C000012802D1014A9070F8E7704798340020E5
:1082D00020B9034B01225A70FFF7DABF704700BF85
:1082E0009834002038B50B4C237883B90A48636072
:1082F000A3602361E36000F04DF9054604F028F81F
:1083000008B900F053F901232370284638BD8525AC
:10831000FBE700BF98340020B582020037B5184C47
:10832000A378054603F0FF029BB110B1436801201A
:10833000984700230DF107008DF80730FFF780FB09
:10834000E3689DF807000133E360FFF79DFB03B08E
:1083500030BD0DF107008DF80720FFF771FB25B147
:10836000226913463BB92A602561E368002BE7D1F7
:1083700000F02EF9E4E79D42F7D01B68F2E700BF5A
:108380009834002037B50B4C00230DF107008DF811
:108390000730FFF755FBE368013BE360E56815B97B
:1083A00000F028F9A5709DF80700FFF76DFB03B0FA
:1083B00030BD00BF98340020012813B508D0032831
:1083C0001CD018B9104B0122C3F8802002B010BD98
:1083D0000E4C00230DF107008DF80730FFF730FB3E
:1083E00023780BB9FFF77EFFE3689DF807000133A0
:1083F000E3600123A370FFF747FBE7E700F0D6F83F
:10840000FFF7C0FFE2E700BF00E100E09834002082
:108410007FB503788DF804304368029383688DF844
:108420000C30C36804930369064A8DF81430064B78
:1084300001A853F8213052F82110984707B05DF891
:1084400004FB00BFAC340020BC340020F0B505466E
:10845000174615F804CB124A42F82C70114A42F81C
:108460002C30114B0C460FCB85B06E4686E80F00C2
:108470002368009323798DF8053063798DF80630F1
:10848000A3680293002FA389084AADF80C3008BFF7
:108490003A4663463146284600F0AAFA05B0F0BDD8
:1084A000BC340020AC34002074DF020011840200D0
:1084B0001FB503788DF800304368019383688DF809
:1084C0000830C368054A0393054B684653F82130CA
:1084D00052F82110984705B05DF804FBCC34002019
:1084E000D43400201FB503788DF800304368019321
:1084F00083688DF80830C368054A0393054B6846C6
:1085000053F8213052F82110984705B05DF804FB6C
:10851000CC340020D4340020F0B5194B90F800C0C2
:10852000DFF86CE043F82C20164B16460A6943F836
:108530002C204B7F0EF80C300C4607460FCC89B030
:108540006D460FC594E80F0085E80F001EF80C304B
:10855000CDF810C04BB1002E0B4A694608BF324619
:10856000381D00F0F3FE09B0F0BD002E074A694641
:1085700008BF324607F10C0000F0A4FCF3E700BF8F
:10858000D4340020CC340020B1840200E584020001
:10859000DC340020044A137923B901211060918052
:1085A0001846704785207047E0340020074B1A6852
:1085B000D2075FBFC02283F8002301221A604FF068
:1085C00080430122C3F81825704700BF00E100E096
:1085D000074B00221A6082B01B680193019B4FF089
:1085E00080430222C3F8042301229A6002B070473C
:1085F00004010040044B01221A604FF08042D2F87F
:108600001834DB03FBD470470C000040154B07B552
:108610001A687AB100221A601B680093009B4FF021
:1086200080430122C3F808230F4B587910B95A71BF
:108630001B6898470D4B1A6882B100221A601B68AC
:108640000193019B4FF080430222C3F80823064B9D
:108650001B68012003B05DF804EB184703B05DF818
:1086600004FB00BF00010040E03400200401004092
:1086700000F1804000F5C040002382B00360036831
:108680000193019B02B0704703681F2B83BF03F067
:108690001F03036001484FF0A040704700030050E3
:1086A00007B5019001A8FFF7EFFF019B00EB8300E6
:1086B000D0F8003723F44033C0F80037D0F8003743
:1086C00043EA0141C0F8001703B05DF804FB000065
:1086D000054B4FF0FF32072843F8202084BFC01815
:1086E00080F85820704700BFE834002010B5174CC0
:1086F00094F86A3043BB04F130033021FF22013982
:1087000011F0FF0103F8012BF9D1C8B2FFF7E0FF28
:1087100001310C29F9D1062200210D4804F051FC49
:108720000C4BC02283F8062340221A604FF4BE701F
:10873000FFF79EFF084B4FF00042C3F804230123CC
:1087400084F86A30002010BD0820FCE7E8340020DF
:108750004C35002000E100E0006000402DE9F04FC2
:10876000002489B0CDE90244624D4FF480720121AA
:1087700002F1804303F5C04390B21B68012B06D180
:10878000D5F804330B4202D0FFF772FF0C430432DA
:10879000B2F5907F4FEA4101EAD1574B1B68012B9C
:1087A0000ED14FF4BE70FFF763FF4FF0A04344F0CB
:1087B0000044D3F810350293504BD3F8103503938F
:1087C00014F0FF0F1AD04E4F01260025264210D07C
:1087D000AB0003F1804303F5C043D3F81005D3F891
:1087E000101557F8253023B1C1F30141C0F305201E
:1087F00098470135082D4FEA4606E7D1002C75DA77
:1088000004AF002304937B604FF0FF33CDE90633C0
:10881000DFF8EC90DFF8EC8000252E4618F9012BEC
:10882000531C4AD0C2F3C2000123D4B202F03F0B62
:1088300002F0070203FA02F208AB191811F8083C1B
:1088400013423AD009EB0B03A40993F9303059F8DD
:1088500023A0BAF1000F08D1032C2ED117F800C0C5
:108860004CEA020C07F800C001E0032CF6D001A886
:10887000CDF804B0FFF708FF019B11F8181C03F5B1
:10888000E07C114250F82C00C0F3014005D00228D2
:1088900013D1032C0BD1214604E003280DD1032C66
:1088A00005D102215846FFF7FBFE0135EDB2BAF1C2
:1088B000000F02D021465846D0470136042EADD1D4
:1088C000A5B14FF0A0430299D3F8102503F54073EA
:1088D0009142D3F8103502D10399994206D0029201
:1088E0000393049A059B0692079393E709B0BDE8AA
:1088F000F08F00BF006000407C610040000300502A
:10890000E834002048350020014B1B68184700BFA1
:10891000543500200E4B984237B50C4602D000204B
:1089200003B030BD00230DF107008DF80730FFF7CD
:1089300087F8084B1D7915B901221C601A719DF842
:108940000700FFF7A1F8002DE9D01120E8E700BFEC
:1089500000200040543500201F2886BF054A00F043
:108960001F004FF0A042012303FA00F0C2F80805EF
:10897000704700BF000300501F2886BF054A00F063
:108980001F004FF0A042012303FA00F0C2F80C05CB
:10899000704700BF00030050114BD3F8183107B5E2
:1089A000D3B1104B104900221A60C87F1B68019395
:1089B000FF28019B03D08B7F5BB1FFF7DDFF002316
:1089C0004B770B72D1E90031084803B05DF804EB36
:1089D0001847FFF7C1FFF2E703B05DF804FB00BFE3
:1089E00000300040183100405C3500206435002024
:1089F0002DE9F74F0679734F4FF0240A0AFB06FA68
:108A000007EB0A0B0C469BF81C10CDE900328046A0
:108A1000002940F0D08005686B492846FFF77AFFAF
:108A20008146002840F0CA80019A47F80A20009B3E
:108A3000CBF80430237B2078012B00F2AA80FFF7CB
:108A40009BFF23781F2B86BF03F01F035F4A4FF065
:108A5000A04203F5E073012142F823106178FF2959
:108A600000F09A800846FFF787FF1F298BBF01F0AF
:108A70001F030B46554A4FF0A04203F5E073032055
:108A800042F82300A378FF2B00F089801F2B8BBFB7
:108A900003F01F021A464D484FF0A04002F5E07265
:108AA0004FF0040C40F822C09A46242202FB0672C2
:108AB00082F82030E078D077FF2816D02379002B79
:108AC00070D0FFF759FFE3781F2B86BF03F01F0319
:108AD0003E4A4FF0A04203F5E073032042F8230022
:108AE000242303FB067322799A772378C5F8083587
:108AF000A368C5F80C15C5F810A5C5F82435637B27
:108B0000227B003B18BF0123022A4ED0032A4FD0FC
:108B1000012A01D143F00203C5F85435A379C5F801
:108B2000C03524237343FB5813B14022C5F80423F6
:108B30000722C5F800250BB3D8F80030627943F35B
:108B400007310029A8BF01F16040C3F30733BCBF60
:108B500003F00F041E484FEA4212A8BF00F561401F
:108B6000D2B2B4BF025580F8002303F01F030122E4
:108B700002FA03F34909174A42F82130242303FB80
:108B800006760023737701233377484603B0BDE8A8
:108B9000F08FFFF7E1FE54E74FF0FF3172E74FF03F
:108BA000FF3A82E7FFF7D8FE8DE743F00403B3E70F
:108BB00043F00603B0E74FF00809E6E74FF011096C
:108BC000E3E700BF5C3500209989020000030050F4
:108BD00014ED00E000E100E02DE9F3410679424F99
:108BE000242373431446FA180D46517F804600290A
:108BF00078D1FB5823B114F0140F04BF012353772D
:108C000095E80F004FF0240C0CFB067C0CF10C0EC9
:108C10008EE80F009CF81F00FF2804D09CF81E303F
:108C2000C3B1FFF799FE296821B101F06043B3F1A8
:108C3000005F06D1AA6882B102F06043B3F1005F21
:108C40000BD0242303FB067600237377102002B099
:108C5000BDE8F081FFF790FEE5E7D8F800306868DE
:108C6000C3F84415C3F84805E968C3F83425002261
:108C7000C3F83815C3F81821D3F818210192019AC6
:108C800014F0010218BF0122C3F8502514F00202AB
:108C900018BF0122C3F8402522075CBF01221A61D8
:108CA00024227243BA5892B9D3F81821002AFBD073
:108CB000242303FB0676F07FFF2803D0B47F1CB18A
:108CC000FFF75AFE0020C2E7FFF746FEFAE714F06E
:108CD00004004FF0400202D0C3F80823F2E7C3F8C3
:108CE0000423B4E71120B2E75C3500200023435091
:108CF00082B043580193019B02B070470A4610B5F9
:108D00004FF48E71FFF7F2FF136A9168C95C136A22
:108D100001331362C0F81C1510BD024608B5006887
:108D20004FF49271FFF7E2FF4FF484711068FFF780
:108D3000DDFF136801221A6008BD8B690A4610B571
:108D40004FF4847123B9FFF7D1FFD0F8183510BD67
:108D5000FFF7CCFF536AD168D0F81805C854536A9E
:108D600001335362F3E700001FB501238DF8003093
:108D7000044BCDE90110D3E900126846904705B0D5
:108D80005DF804FB8035002030B54C48D0F8043342
:108D900013F4007F85B005464DD0D0F82431002B68
:108DA00049D04FF49271FFF7A1FF4FF40173C0F85F
:108DB0000833434B93F829200AB9012242603F4906
:108DC00002228DF80020D1F88024C1F8802403927B
:108DD0009A690292DA6801920022C3E90622684683
:108DE000D3E9001290473548D0F81C315BB13449C3
:108DF0004A690B6A9A420A464AD991F82830002BF0
:108E000046D1FFF77BFF2D48D0F844318BB14FF4AA
:108E1000A271FFF76BFF2A4B93F829200AB10122B8
:108E200002609A692AB10022586AD9689A61FFF7EC
:108E30009BFF05B030BDD5F804335B07D3D5D5F81B
:108E40000831002BCFD01E4C1C482146FFF775FF80
:108E5000636AA2699A422346C5D1E269E1684AB1D0
:108E60002369E3600023606AA261E3616362FFF744
:108E70007BFFB8E794F829200AB901226A600F4AFB
:108E80004FF40170C2F808030022586A9A61EEE7B5
:108E90000A484FF48E71FFF729FF5369002BB2D0B7
:108EA00051690291002391688DF80030019153615E
:108EB0006846D2E900139847A5E700BF00200040AC
:108EC000803500202DE9F843634B057991462C222B
:108ED00002FB0532064692F82A200C469846002AE4
:108EE00040F0B6805D490068FFF714FD0746002892
:108EF00040F0B08021684A1C10D01F2987BF584A13
:108F000001F01F030B464FF0A0420120984003F5EB
:108F1000E073C2F80805032042F823006068431C90
:108F20000DD01F288BBF00F01F0303464C4A4FF0A3
:108F3000A04203F5E0734FF0000C42F823C0336801
:108F4000A269C3F8242594F814C0627DBCF1010F16
:108F50004CEA0202C3F86C25C3F81405C3F80C15DB
:108F60002BD1A168481C0DD01F298BBF01F01F0217
:108F70000A463B484FF0A04002F5E0724FF0000C6B
:108F800040F822C0E068421C13D01F2887BF344A33
:108F900000F01F0C84464FF0A0424FF0010E0EFA75
:108FA0000CFE0CF5E07CC2F808E54FF0030E42F829
:108FB0002CE0C3F80805C3F810152C236B4308EB0D
:108FC0000302C2F80490226948F80320B9F1000FA7
:108FD0002BD03068247F4FF48E71FFF787FE306806
:108FE0004FF4A271FFF782FE32681E4BC2F80433C1
:108FF000110B42F30732002AA8BF02F160404FEA8A
:109000004413BABF184801F00F0400F56140DBB209
:10901000B4BF035580F8003301F01F01012303FAA8
:1090200001F15209114B43F8221033680422C3F8AE
:1090300000252C2303FB05830022C3E9062283F8C5
:1090400029205A61012283F82A203846BDE8F88396
:109050000827FAE71127F8E780350020898D0200FC
:10906000000300508000020014ED00E000E100E089
:109070002DE9F047204F90F804904FF02C0808FBA2
:10908000097405466669002E34D162610068A160EA
:1090900026624FF48E7184F82860FFF727FE286857
:1090A000012383602146FFF729FE6368A0468BB940
:1090B0002868D4F814A0236A9A4511D82A68D2F8EF
:1090C0001C31002BFBD00123D3602C2303FB09733D
:1090D00000225A613046BDE8F08794F828303BB949
:1090E000D0F81C31002BF8D04146FFF707FEE2E72D
:1090F0000F26EAE71126EDE7803500200379044AC0
:109100002C2101FB03235869003818BF0120704748
:10911000803500202DE9F843394F05792C2303FBD6
:10912000057306465C6824B103684FF40170C3F808
:1091300008032C2303FB0573986950B1D8690028F4
:109140003ED024B133684FF40172C3F804231124D4
:1091500033E09A61D9605862D8612C2303FB057310
:1091600093F829301BB910B93046FFF7D6FD4FF000
:109170002C0909FB05783068D8F80430002B34D16D
:109180004FF4A271C146FFF7B1FD3068D0F8243129
:10919000D0F80821D0F84441B2B90CB9002BF4D072
:1091A0002C2202FB05750022AA6123BB2CBB95F87B
:1091B000291033680122B1B11A602046BDE8F88356
:1091C0001961DA610120C8E7002BE9D1002CE7D151
:1091D0004946FFF7B2FDD8F82430D8F818209A4253
:1091E000D3D82346DCE75A60E7E74FF40173C0F8B1
:1091F00004330024E1E70324DFE70F24DDE700BFA9
:10920000803500200023435082B043580193019BD6
:1092100002B070471FB501238DF80030044BCDE933
:109220000110D3E900126846904705B05DF804FBD1
:10923000AC3500207FB5434AD2F82461002E60D0BF
:1092400010464FF49271FFF7DDFF02238DF80030D6
:10925000D2F88034C2F880340393D2F83C350293BC
:10926000394BDA6801920022C3E906226846D3E945
:10927000001290473348D0F8443173B14FF4A271D3
:10928000FFF7C0FF304B9A693AB10022C3E90622CA
:10929000D968D0F83C05FFF7BDFF2A48D0F8203147
:1092A000ABB14FF49071FFF7ADFF0123C360264BC4
:1092B0005A6962B1D0F84C150291002299688DF874
:1092C000002001915A616846D3E9001290471D4879
:1092D000D0F858319BB14FF4AC71FFF793FF1A4BA4
:1092E0005A6962B1D0F84C150291002299688DF844
:1092F000002001915A616846D3E90012904704B0FA
:1093000070BDD2F81031002BB4D04FF488711046E4
:10931000FFF778FF0C4BD2F83C0599698842A9D138
:10932000DC69D96864B1D2F8005225F02005C2F892
:1093300000521A699C61DA60DE61FFF76BFF99E702
:109340009C61FAE700200040AC3500202DE9F8438D
:109350006A4B06799146242202FB0632044692F8B3
:1093600020200D469846002A40F0C38064490068DA
:10937000FFF7D0FA0746002840F0BD802868421C5D
:1093800010D01F2887BF5F4A00F01F0303464FF02D
:10939000A0420121994003F5E073C2F808150321AA
:1093A00042F8231069684B1C0DD01F298BBF01F0B8
:1093B0001F030B46534A4FF0A04203F5E0734FF0F2
:1093C000000C42F823C02368AA69C3F8242595F845
:1093D00014C06A7DBCF1010F4CEA0202C3F86C258F
:1093E000C3F80C05C3F814152BD1A968481C0DD07F
:1093F0001F298BBF01F01F020A4642484FF0A040D0
:1094000002F5E0724FF0000C40F822C0E868421C00
:1094100013D01F2887BF3B4A00F01F0C84464FF033
:10942000A0424FF0010E0EFA0CFE0CF5E07CC2F8E3
:1094300008E54FF0030E42F82CE0C3F80805C3F826
:1094400010152423734308EB0302C2F804902A6921
:1094500048F80320B9F1000F3AD020682A7F4FF472
:109460008871FFF7CFFE20684FF49071FFF7CAFEB6
:1094700020684FF49271FFF7C5FE20684FF4A27187
:10948000FFF7C0FE20684FF4AC71FFF7BBFE236806
:109490001D49C3F80413190B43F30733002BAEBF68
:1094A00003F1604001F00F0518484FEA4212A8BFCF
:1094B00000F56140D2B2B4BF425580F8002301F0FC
:1094C0001F01012202FA01F15B09114A42F823103F
:1094D00023680822C3F80025242303FB0683002207
:1094E000C3E906225A61012283F820203846BDE8EC
:1094F000F8830827FAE71127F8E700BFAC3500200A
:1095000035920200000300501003420014ED00E009
:1095100000E100E001F06043B3F1005F2DE9F041AC
:10952000064638D11E4B0779242505FB073598469A
:109530006C69002C31D16A610068A9604FF49071A8
:10954000FFF760FE4FF4AC713068FFF75BFE3368E5
:109550006A69A968C3F84415C3F8482501229A60CE
:109560006A68AAB9D3F82021D3F858411AB9002C57
:10957000F8D00F2407E0002CFBD10122DA60D3F8E9
:109580005821002AFBD0242303FB078700237B619B
:109590002046BDE8F0811024FAE71124F8E700BF67
:1095A000AC3500200379044A242101FB03235869C8
:1095B000003818BF01207047AC350020F8B501F025
:1095C0006043B3F1005F04460F465ED10379304D2E
:1095D000242101FB0351496821B100684FF404764E
:1095E000C0F80863242000FB03539E6956B1D86974
:1095F000002839D021B123684FF40472C3F8042342
:10960000112030E09A61DF60DE6120684FF48871DC
:10961000FFF7F8FD20684FF4A271FFF7F3FD236810
:10962000C3F83475C3F8382516BB01221A602179B6
:10963000242202FB015252680ABBD3F81041D3F82E
:109640004421D3F82401144302D10028F5D0224646
:10965000242303FB01550023984218BF03209A429C
:10966000AB6118BF0F20F8BD1F61DA610126CCE79E
:10967000D3F8002242F02002C3F80022D7E74FF4CB
:109680000472C3F804230020EDE71020EBE700BFCD
:10969000AC3500200023435082B043580193019B16
:1096A00002B070470B7B032B2DD8DFE803F0252990
:1096B0001D028A68154B9A4204D1D0F84C350A69CC
:1096C0009A4209D18A6840F202239A421BD1D0F80B
:1096D0004C354A699A4216D000230622C0F800355C
:1096E000C0F8002518467047D0F84C350A699A42F0
:1096F000F2D1D0F83C35ECE7D0F84C350A69E9E70F
:10970000D0F83C35FAE70120704700BF00020400A2
:10971000F0B54FF040204E4CD0F8243187B0ABB1BB
:109720004FF49271FFF7B6FFD0F8043173B9A36814
:10973000C0F808330223A360A368C0F804330123F0
:109740000362436184F82E3007B0F0BD4FF040252E
:10975000D5F80431002B46D03E4E4FF48271284696
:10976000FFF798FF0FCE01AF0FC733683B6094F847
:109770002E3043B9A6F11C012846FFF793FF80F075
:10978000010084F82E004FF4B0714FF04020FFF735
:1097900081FF4FF4AE714FF04020FFF77BFF94F84C
:1097A000303013B194F82E3043B14FF040230022F3
:1097B000C3F80022A260284AC3F808234FF04022D1
:1097C000D2F8C434C2F8C4349A0736D501238DF8D0
:1097D000003094F830300BB984F82F30D4E90031E0
:1097E00068469847B0E74FF4A4712846FFF752FF48
:1097F000237B83B9174F0FCF01AE0FC63B68336091
:1098000094F83030002BD9D1C5F80032A360124B48
:10981000C5F80833D2E74FF40073C5F8003240F2C0
:109820000223A36003F1CE73C5F80833A368C5F81B
:1098300004330123AB602B6286E713F0050F01D0E0
:109840000223C4E794F82E30002BC0D00423BEE7D7
:10985000D0350020DC35002002029C01BFF34F8F81
:109860000549064BCA6802F4E0621343CB60BFF3BC
:109870004F8F00BFFDE700BF00ED00E00400FA05D8
:1098800074DF704776DF70477ADF70477CDF7047A0
:109890008ADF70478BDF70478FDF7047024A13689B
:1098A00001331360704700BF20430020014B0122A9
:1098B0001A607047FC400020014B01221A7070476B
:1098C0006C4400200C4B4A881B889A4210B5044611
:1098D0000BD10A8840F677239A4206D18A88074836
:1098E000033A92B2114601F087FA2288618804484F
:1098F000BDE8104001F080BA2C33002084DF020064
:10990000A1DF020008B5032806D8DFE800F00C024A
:109910000E10084801F070FAFDF794FE08B1FDF74B
:109920005BFD012008BD0448F4E70448F2E7044861
:10993000F0E700BFDBDF0200FBDF02001BE00200FC
:1099400047E00200037823B9024B3B211888FFF758
:1099500099BF70472C3300200388212B07B528D0EE
:1099600006D8102B0DD0112B15D003B05DF804FBD9
:109970003B2B01D0562BF8D113218088FFF782FFB3
:10998000F3E7104B81881048198002F06BFA0F4BF7
:1099900001221A70E9E70B4B4FF6FF703B2118804C
:1099A000FFF770FF094B00221A70094B01221A6061
:1099B000DBE7002301A98088ADF80430FFF76CFFD6
:1099C000D3E700BF2C330020BC4000200A41002018
:1099D000CC45002038B5054D044645F001054FF44F
:1099E0007A40A847013CFAD138BD00BF20E502000B
:1099F00007B50023019302F03DFC01A9012002F00C
:109A000001FD01A802F066FD03B05DF804FB000053
:109A100038B50D4A044600210C48FDF7E9FD4FF426
:109A200000454FF47A70002100234FF4FA62C5FB21
:109A3000040103F015F9002201460548FDF7E3FD96
:109A4000044B00221A6038BD599A020010E502004A
:109A5000503C0020CC45002038B5104B01221A6044
:109A60000F4A1368012B09D10E4C0F4D21680029B4
:109A700005DC0E490B60002111602B7038BD0C4BCA
:109A80001B684FF47A705843FFF7C2FF21680948FA
:109A90000139216001F0B0F90023EEE7CC45002048
:109AA000684400202843002064440020C84500206A
:109AB000B033002066E0020008B5064A06480121DE
:109AC000FDF796FDBDE80840044800221021FDF78F
:109AD0009ABD00BF9D9802000CE50200F8370020F7
:109AE00010B50D4CF4220021204603F06AFA412300
:109AF0002370432363704B23A3703123E370074B20
:109B0000074A1B880748214602F022FBBDE81040A7
:109B1000054801F071B900BF0B4100202C33002033
:109B200094330020503300207AE0020073B50578AA
:109B30000446002D56D1818A2B482C4E01F05CF949
:109B4000A38AAB4206D923693046595D01F054F926
:109B50000135F5E7264801F04FF923699A78012A83
:109B60000BD1244B1A704FF08043B122C3F81C254F
:109B70006420FFF72FFFFFF771FE1F4A197911705C
:109B80001E4A5979117099791D484FF47A725143E0
:109B900001601C49D8790870197A1B48514301604B
:109BA000597A4A4319490A60194A997A1170DA7A3E
:109BB0008DF800201A7B8DF801205A7B8DF8022049
:109BC00004229B7B8DF8033069460DEB020003F005
:109BD000CFF9DDED017A0F4BFDEEE77AC3ED007AA8
:109BE000FFF77EFF02B070BD8DE00200B6E002001C
:109BF00025E602000A3600201C4200200941002010
:109C00006C330020B4330020A8330020AC33002094
:109C100009360020883300201FB50E49112308465D
:109C20008DF8043003F022FA0A4982B201A8FFF746
:109C30002DFE082200210DEB020003F0C2F9064AB6
:109C40004FF0C87302A8CDE90223FFF71DFE05B04F
:109C50005DF804FBBCE0020010003C0013B50024DA
:109C600001A90848019402F0EBF804222146684655
:109C700003F0A7F9044B05480093694602F0EEF99A
:109C800002B010BDBC4000202D9B020050330020CC
:109C900000B589B000211C2201A803F092F900232D
:109CA0004FF4A032CDE901324FF4F02203920322A7
:109CB0008DF81020064AADF8123001A8CDE9062330
:109CC0008DF8143001F006FE09B05DF804FB00BF0A
:109CD0004599020008B5FFF7DDFDBDE808400249DF
:109CE0000248FFF7D5BD00BF3033002038330020D5
:109CF00008B5FFF77DFEBDE80840FFF7EBBF0000A9
:109D000013B502F0B7FA04460146124801F074F8A0
:109D100014B12046FDF760FB002301A8019302F077
:109D200067FB01460C4801F067F801990B4801F008
:109D300063F801A9012002F065FB10B1084801F0A9
:109D40005BF801A802F0C6FB0146024801F054F896
:109D500002B010BDCBE00200C7E00200DBE0020071
:109D6000EDE0020030B5ADB0AC22002101A803F057
:109D700028F902238DF804304FF4A0630D4DADF89F
:109D800006300D4B1593402244F25063CDE9232356
:109D90000124002301A928462A93ADF850408DF8EC
:109DA000804001F0D8FA2146284601F0D1FA2DB0C2
:109DB00030BD00BF183800202833002010B5054CF6
:109DC0000549204601F074FF2046F721BDE8104008
:109DD00001F082BFC8400020C5980200014803215D
:109DE00001F038BB1838002008B5FFF789FFFFF7EE
:109DF00013FFFFF7E3FFFFF731FFFFF7B3FFFFF7B5
:109E000047FFFFF7EBFF044B044800221A70BDE840
:109E1000084000F0F1BF00BF0A410020F6E0020058
:109E20000E4B082815D8DFE800F005080A0C0E10C4
:109E300012141600D8221A707047E222FBE7EC22B7
:109E4000F9E7F022F7E7F422F5E7F822F3E7FC223E
:109E5000F1E70022EFE70422EDE700BFD045002044
:109E6000094B0022C3F80022C3F810211A60012216
:109E7000DA601A61C3F80C21D3F81021002AFBD054
:109E80000022C3F8102170470010004010B50C49A3
:109E90000C4B0124C1F8FC4FC1F8004293F90000BB
:109EA000FFF7BEFF084B1B78C1F80C35074B1B783A
:109EB000C1F81035064B1B68C1F808350C6010BDA1
:109EC00000100040B4330020D04500209C33002017
:109ED0008833002038B5244D04232B70234BD3F84E
:109EE000502622F00102C3F85026214AC3F8182553
:109EF0000022C3F83425C3F82C250122C3F83025ED
:109F0000CC214FF0CC32C3F82415C3F81C25194AD4
:109F1000C3F81425184B1A46FF2402F8014B013CE4
:109F200014F0FF0402F8011BF9D11049C1F80435FF
:109F30002123C1F80032114B93F90000FFF770FFA5
:109F40000F4B1B78C1F80C352B78C1F810350D4B31
:109F50001B68C1F808350123C1F80C410B60D1F82A
:109F60000C31002BFBD038BD9C330020001000408A
:109F7000FF000403080000011E420020B43300204B
:109F8000D04500208833002008B5FEF7ABF900204B
:109F9000FEF7C4F9BDE80840FDF772BF7FB54FF08A
:109FA0008051134ED1F8A820D1F8A830D1F8A400E0
:109FB000D1F8A440D1F8A450D1F8A410C5F30725D6
:109FC000C9B2C4F30744000EC2F307220391009004
:109FD000084902950194DBB242F0C002304602F01B
:109FE00058FF0548314604B0BDE8704000F004BF9A
:109FF000DC40002004E10200DCE6020013B54FF073
:10A0000080540E48D4F80421D4F80011D3B201933F
:10A01000C2F307230093C2F30743120E00F0ECFED5
:10A02000D4F80811064800F0E7FE216E0548626E7C
:10A0300002B0BDE8104000F0DFBE00BF28E1020022
:10A0400041E102004EE1020030B54FF0A04300258F
:10A0500085B0C3F818573220FFF7BCFC0B4B0FCB71
:10A060006C4684E80F000A4B00934FF000530293B4
:10A07000084A09488DF80D502B462146FEF7E6F9AF
:10A0800008B1FDF7A9F905B030BD00BFE8E4020052
:10A0900004030502B9980200FCE402000148FDF740
:10A0A000CABA00BF7840002038B50446FFF7F6FF73
:10A0B0000C4A0D480021FDF79BFA4FF400454FF480
:10A0C0007A70002100234FF4FA62E5FB040102F0EC
:10A0D000C7FD002201460548FDF795FA044B002212
:10A0E0001A6038BDAD980200F8E402007840002004
:10A0F000FC40002013B50B4C0B4800F07DFE0B4BD1
:10A1000000931A220A4B1B21204602F0ADFA4FF4AD
:10A11000FA60FFF75FFC204602B0BDE8104002F095
:10A1200011BB00BF703C00205BE10200FC4000203E
:10A13000A9A00200104BB3F8E01041FA00F2D207D8
:10A1400010B512D4012282400A430C4CA3F8E0203F
:10A150000B4A24681268342101FB0031121B4FF4B2
:10A160007A74B2FBF4F2A1F87420342202FB0030BE
:10A170000023A0F8683010BD1436002024430020CE
:10A180002043002030B50023934205DAC55CCC5C47
:10A19000A54203D10133F7E7012030BD0020FCE7E1
:10A1A00008B5064B782202FB013148310622FFF741
:10A1B000E9FFB0FA80F04009404208BD14360020A3
:10A1C000F0B504465D4AA18B11805D4A5D4E5E4D3F
:10A1D0001278A3692B60033085B03060002A60D10B
:10A1E0005A4893F805C00778BC4555D19F79407807
:10A1F000874251D1564893F807C00778BC454BD1E8
:10A200001F7A43789F4247D1524B1B888B4243D1E0
:10A21000514B52481A7094F913300393237A0293E6
:10A22000E3790193A379009363792279E1784C4C27
:10A2300000F0E2FD316820784A4E342303FB0063CE
:10A240008A1D4D3312F8017D03F801798A42F9D154
:10A25000FFF770FF2B68444893F9091023783427DF
:10A2600007FB036383F8571000F0C6FD2B689B7A49
:10A2700007EE903A2378F8EE677A07FB036617EE4D
:10A28000900AC6ED197A02F065FB02460B46374884
:10A2900000F0B2FD0023237005B0BDE8F040FFF7E9
:10A2A00019BD2B4ADF7911788F42F5D1197A53788D
:10A2B0009942F1D10021FFF773FF0130ECD194F9FD
:10A2C00013300393237A0293E3790193A3790093E4
:10A2D00063792279E1782148224F00F08DFD3068C2
:10A2E0001F4E3278342303FB0273811D4D3311F866
:10A2F00001CD03F801C98142F9D194F913101A482C
:10A30000342404FB027282F8571000F075FD2B68AC
:10A310009B7A07EE903A3378F8EE677A04FB03777E
:10A3200017EE900AC7ED197A02F014FB02460B46AD
:10A330000E4800F061FD00233370ADE7F4400020CB
:10A34000FF410020EC400020F0400020203300209E
:10A35000223300208E3300208C33002078E102006D
:10A360002D43002014360020A1E10200AAE10200E2
:10A3700003881D2B02D10830FFF722BF7047000071
:10A3800008B50348FDF757F9024B00221A6008BDD3
:10A39000503C0020CC4500202DE9F8436A4B6B4D22
:10A3A00019686B4B04466B48196000F025FDFFF7F8
:10A3B0001BFD2046FFF72CFB6748684C00F01CFD96
:10A3C0002368002B00F0B6802B78002B40F0B28081
:10A3D0006348644D00F010FD634B93F85400FFF7A1
:10A3E0004FFA4FF47A70FFF7F5FA01F081FF4FF45E
:10A3F0007A70FFF7EFFAFFF7C3FF95F90030082BEB
:10A4000000F39B80594C5A4F2368642B03D93B7847
:10A410000BB911232360574A5749D2F800C0574A55
:10A4200095F900301668564A09681068DFF8BC9143
:10A43000DFF8BC81801BA3EB0C02A1EB0C014243B3
:10A4400092FBF1F24F4932440A7022684E494F4E56
:10A45000096802F5617207EE902A4D4AF8EE677AB4
:10A46000C2ED007A4B4AD2F800E04B4AD2F800C065
:10A470004A4A1068A3EB0E02A0EB0C00A1EB0E0100
:10A48000424392FBF1F262443270454AD2F800C076
:10A49000444A1068444A1168444A1268A3EB0C030A
:10A4A000091AA2EB0C024B4399F8001093FBF2F34C
:10A4B00003443F4888F8003000F09EFC3D4B3E4886
:10A4C000196800F099FC95F900103C4800F094FCE4
:10A4D0003B4B3C48196800F08FFC3B4B3B481968EC
:10A4E00000F08AFC3A4B3B48197800F085FC216863
:10A4F000394800F081FC3978384800F07DFC21684B
:10A50000374800F079FC96F90010364800F074FCEA
:10A5100098F90010344800F06FFC99F800307BB1D6
:10A520004FF08043B122C3F81C256420FFF752FA94
:10A53000FFF794F9FDF7BAFC42E707232B7061E7B8
:10A54000BDE8F843FFF754BA204300200A41002039
:10A5500024430020B3E10200BEE10200CC4500200C
:10A56000D4E10200B43300201838002088330020E2
:10A57000094100201842002090330020A43300201D
:10A58000A03300201D420020703300200041002035
:10A5900098330020F84000207833002074330020E6
:10A5A0000441002084330020803300207C330020CD
:10A5B000EAE102006C330020F3E1020000E2020055
:10A5C000AC33002013E20200A833002022E2020094
:10A5D0000936002034E202003EE2020054E20200AA
:10A5E00076E202008CE20200A9E202000A360020B4
:10A5F0000841002073B50446124D1348134E00F075
:10A60000FBFB2046FFF704FA114C95F9003000934C
:10A610000021019123680F48012202F0FDF8336800
:10A6200013B9FDF743FCFAE7FFF7AAFE95F90030EE
:10A6300000930022019223680648114602F0ECF8CC
:10A6400002B070BD08410020C8E20200CC450020E5
:10A6500088330020703C002073B50446134D144825
:10A66000144E00F0C9FB2046FFF7D2F9124C95F9C1
:10A67000003000930122019223681048002102F06B
:10A68000CBF8336813B9FDF711FCFAE7FFF778FE52
:10A690000123019395F900300093002223680748B5
:10A6A000114602F0B9F802B070BD00BF00410020B1
:10A6B000C8E20200CC45002088330020703C002016
:10A6C00037B5124A019000231370114A114C1370D0
:10A6D000114A124D1370124A1370124A1370124A23
:10A6E0001370FFF705FB0198FFF792F9236823B970
:10A6F0002B7813B9FDF7DAFBF8E7FFF7CBF8FFF794
:10A700003FFE03B0BDE8304001F0F2BD043600204A
:10A7100008360020CC450020063600202D430020BE
:10A7200007360020053600202C43002083B501F0B9
:10A73000DFFD654B01221A604FF080430021C3F812
:10A7400000111A60D3F80021002AFBD05F4C237857
:10A7500073BB5F4800F050FBFFF782FB5D4B1D7839
:10A76000002D7FD05C4FDFF8B091B84625783B686C
:10A77000012D21D1002B0FDD584800F03DFB0023B7
:10A780000193574B574893F900300093564B2A4694
:10A790001B68294602F040F8D8F80000002817DDB1
:10A7A000FFF736F9514D2B6883B9FDF77FFBFAE7C8
:10A7B0004F4800F021FBD1E7002DEDD1002BEBDD60
:10A7C000484600F019FBFFF761FBE5E7FFF7D8FD0E
:10A7D0002178012919D1424B42480022019293F974
:10A7E00000300093404B1B6802F016F8414E33686E
:10A7F00083B141483D4D00F0FFFA3068FFF708F99A
:10A800002B683BB9FDF752FBFAE70029EED1FFF7C1
:10A8100027FBEBE72278394D022A2B6817D1002B52
:10A82000A4DD374800F0E8FA2968364800F0E4FA79
:10A830002868FFF7DFFE2B68D8F80020002B95DD95
:10A840003368134392D1304800F0D6FA8EE7002ADD
:10A85000F1D1002B8ADD2D4800F0CEFA2868FFF7F1
:10A860002FFFE8E72478012C15D1294800F0C4FA1D
:10A870001B4B019593F9003000931B4B1B6822463C
:10A880002146184801F0C8FFFDF710FB4FF47A701D
:10A89000FFF7A0F8F8E7022C0ED1184B19680E4B01
:10A8A0001B681943F0D11B4B019193F900300093C1
:10A8B0000D4B01221B68E4E7002CE5D1164800F09F
:10A8C0009BFAFFF7E3FADFE700D0004009410020E0
:10A8D000E8E20200FF4100206C33002023E3020085
:10A8E00000410020703C002088330020CC4500202F
:10A8F00005E30200AC33002061E30200A83300202E
:10A9000080E30200A6E30200E1E30200C8E30200E4
:10A91000FDE302000841002044E3020083B5054640
:10A9200001F0E6FC624B01221A604FF080430021E7
:10A93000C3F800111A60D3F80021002AFBD05D4C47
:10A9400023785BBB5C4800F057FAFFF789FA002DCB
:10A950007ED05A4FDFF8A491B84625783B68012D88
:10A9600020D1002B0EDD564800F046FA554B0195DC
:10A9700093F900300093544B54481B682A462946EB
:10A9800001F04AFFD8F80000002817DDFFF740F873
:10A990004F4D2B6883B9FDF789FAFAE74D4800F06F
:10A9A0002BFAD4E7002DEDD1002BEBDD484600F06B
:10A9B00023FAFFF78FFAE5E7FFF7E2FC2178012998
:10A9C00019D1404B019193F9003000933E4B3F4821
:10A9D0001B68002201F020FF3F4E336883B13F48DF
:10A9E0003B4D00F009FA3068FFF712F82B683BB9CD
:10A9F000FDF75CFAFAE70029EED1FFF731FAEBE751
:10AA00002278374D022A2B6817D1002BA5DD354857
:10AA100000F0F2F92968344800F0EEF92868FFF7F1
:10AA20001BFE2B68D8F80020002B96DD33681343FB
:10AA300093D12E4800F0E0F98FE7002AF1D1002BE6
:10AA40008BDD2B4800F0D8F92868FFF739FEE8E7DE
:10AA50002478012C15D1274800F0CEF9194B019428
:10AA600093F900300093184B1B6822462146174883
:10AA700001F0D2FEFDF71AFA4FF47A70FEF7AAFF42
:10AA8000F8E7022C0CD11C4800F0B6F90D4B01225E
:10AA9000019293F9003000930B4B29461B68E6E7BF
:10AAA000002CE7D1154800F0A7F9FFF713FAE1E70A
:10AAB00000D0004009410020E8E202006C33002091
:10AAC000FDE302000041002088330020703C00209C
:10AAD000CC45002005E30200AC33002061E3020016
:10AAE000A83300201BE40200A6E30200E1E3020019
:10AAF000C8E3020041E4020069E4020044E302000A
:10AB000008B5FDF7F3FD08B1FCF766FCFFF73CFA6A
:10AB1000FFF744FAFFF772FAFCF738FDFEF7CCFFB7
:10AB2000264B0322C3F818274022C3F808254FF408
:10AB3000FA60FEF74FFFFFF7DDFAFFF785FA2048CE
:10AB4000FFF72AFC1F4B1B78032B2FD8DFE803F0FD
:10AB5000020A13221C4800F04FF901F0C9FBFDF76F
:10AB6000A5F9FCE7194800F047F9194B00221A70C3
:10AB7000FDF79CF9FCE7174800F03EF9164B1A6800
:10AB8000164B1B681343124B14BF012200221A708C
:10AB9000FFF7CCFD124800F02FF90F4B18680F4B50
:10ABA0001B68184318BF0120FFF7B8FE064800F0E5
:10ABB00023F901F09DFBFDF779F9FCE70003005054
:10ABC000C0D401000936002090E402009AE402009B
:10ABD000FF410020ACE402006C330020A8330020C9
:10ABE000CBE4020007B5104801F0A6FE4FF0CC738D
:10ABF0000722082100930D48022301F09EFE0C4815
:10AC000001F096FC0B4801F08FFC0B4B1A680B4BC4
:10AC100002F1640119600A4B9A800A4A598012684D
:10AC2000DA8003B05DF804FBF43700200042002016
:10AC300030430020704400202433002010360020D0
:10AC4000383300200C3600200369C1688B429DBF59
:10AC50008268D21802F1FF3203F1FF3394BF501A19
:10AC6000581A70472DE9F843D0E902940546A9EB3C
:10AC700004084068904520440F46144404D902F06B
:10AC800077F9EC60BDE8F8834246A4EB090402F0D2
:10AC90006FF96868224607EB0801F0E72DE9F843F1
:10ACA000C5680646894617464FF000083469B36800
:10ACB0007068A54228BFE418013C621B5C1BBC42C3
:10ACC00028BF3C46944228BF1446494628442246A1
:10ACD00002F04EF9B3682544AB4208BF00253F1B84
:10ACE000A044A144F560E1D14046BDE8F8830000EE
:10ACF00010B5114C114AA2610223C4E90433104B70
:10AD0000E361A2644FF400730E4A0F492362E264C8
:10AD100000231022E01DA3626362E362A365636502
:10AD2000E365226502F080F90849204602F07CF9CB
:10AD30002023A37110BD00BFD445002026E50200EA
:10AD40005C4600204C4600202FE5020033E502005F
:10AD5000F8B5184C182300FB033503FB00402544CD
:10AD6000C46A012C0F4616460FD0022C1AD0F4B933
:10AD70002846FFF769FF864205D8324639462846FD
:10AD8000FFF770FF34462046F8BD2846FFF75CFF0A
:10AD90008642344628BF0446224639462846FFF7F5
:10ADA00061FFF0E72846BDE8F840FFF777BF0024D1
:10ADB000E9E700BFD445002073B50E4B1B7804466D
:10ADC0000D4616460BB9FFF793FF00230DF1070060
:10ADD0008DF80730FCF734FE324629462046FFF74F
:10ADE000B7FF04469DF80700FCF74EFE204602B070
:10ADF00070BD00BFD44500200FB410B5A2B024AB85
:10AE0000802153F8042B019302A802F0A3F88028B4
:10AE100004460ADD802202A90020FFF7CDFF20466C
:10AE200022B0BDE8104004B070470028F7DD0246AC
:10AE3000F1E76DDF704779DF70477DDF704764DFD2
:10AE400070472DE9F04F85B000250E9CBDF83CB051
:10AE5000B4F800A00191074690461E46A9463A88DC
:10AE60004A450DDC45B12388013BA3EB0A039BB2A5
:10AE7000FF2B3AD806F80A30002005B0BDE8F08F65
:10AE80007A6852F82900039000220DF10B0103A803
:10AE9000FFF7D5FF0028F0D19DF80B20424521D1C6
:10AEA0002288002D14BF0020022002EB080101447B
:10AEB00059451ADC3DB9013292B2019B2280B3544C
:10AEC00022880132228022880DF10B01324403A82E
:10AED000FFF7B5FF0028D0D121889DF80B200A4448
:10AEE0002280012509F10109B9E70C20C5E72DE908
:10AEF000F341089FBDF824801546CDE90078022271
:10AF000004461E46FFF79DFF50B9334610222946DE
:10AF10002046CDE9087802B0BDE8F041FFF791BFC7
:10AF200002B0BDE8F0812DE9F04F002317881380AF
:10AF300090F82D3085B006460D46144653B3082FC1
:10AF400001D80C2027E102A8FFF773FF002840F08A
:10AF5000228123880822EA54238801339BB21B22D2
:10AF60002380EA542088013080B2208006220DF12F
:10AF70000901284401F0FCFF23889DF808200633CE
:10AF80009BB212F0FE0218BF01222380EA542388EC
:10AF900001332380B378FBB123880433BB42D0D87C
:10AFA00002A8FFF748FF002840F0F580238803221D
:10AFB000EA54238801339BB219222380EA54238860
:10AFC000BDF8082001339BB2E9182380EA54120A25
:10AFD0004A70238802332380F2789AB12388D91CDF
:10AFE000B942AED80221E954238801339BB2012132
:10AFF0002380E95423880B449BB22380EA5423889E
:10B000000B4423807268AAB12388D91CB94298D80E
:10B01000022192F90020E954238801339BB20A21CE
:10B020002380E954238801339BB22380EA54238888
:10B03000013323803389002B40F0A180338A5BB138
:10B04000CDE900472B460722032106F11000FFF748
:10B050004EFF002840F09F80338B5BB1CDE9004765
:10B060002B461522142106F11800FFF740FF002897
:10B0700040F09180326A002A40F09080D6F8248017
:10B08000B8F1000F30D0B8F804302188981C8A1C21
:10B090000244BA423FF655AFFE283FF652AF0333A3
:10B0A0006B54238801339BB2FF222380EA54238808
:10B0B00001339BB22380B8F80020EA54E918120A41
:10B0C0004A702088023080B22080B8F804205AB13B
:10B0D000D8F8081000296BD0284401F049FF2388D4
:10B0E000B8F804201344238096F82C30002B40F04D
:10B0F0009A80307800284ED03388012B58D022888F
:10B1000002F1020CBC453FF61CAF012805D1737853
:10B11000023313449F42FFF414AF023FBF1ABFB281
:10B1200002A905EB0C00ADF80870FFF786FE90BB96
:10B130003178BDF80830022900F0BA8072789A425E
:10B1400002D3BB4240F2B280012940F0B380974263
:10B1500093B2C0F0AF80ADF808300821BDF80830D8
:10B16000FE2B3FF6EEAE22880133AB54228801322B
:10B1700092B22280A9542288134423800BE0CDE9A7
:10B1800000472B460622022106F10800FFF7AFFE1A
:10B1900000283FF453AF05B0BDE8F08FB4F800C00D
:10B1A0000CF10603BB423FF6CCAE1188052901D84D
:10B1B0000720F0E76FF4486E01EB0E039BB24FF2ED
:10B1C0007D3E7345F4D95388052BF1D96FF448605F
:10B1D000181880B27045EBD94FF6FF70814203D04A
:10B1E000834201D09942E3D8052305F80C30238827
:10B1F00001339BB212212380E954238801339BB28F
:10B2000023801188E954E818090A41702388023321
:10B210009BB223805288EA54E918120A4A702388A4
:10B22000023323802AE7B36A002BC1D04FF0000914
:10B230004FF00C0A4FF0160B96F82C305FFA89F29B
:10B2400093427FF656AFB16A0AFB02F201EB0208A5
:10B25000B8F80430981CFE283FF673AE20880333FC
:10B260002B54238801339BB2238005F803B0238835
:10B2700001339BB223808A5AEA54E918120A4A70B1
:10B280002088023080B22080B8F804205AB1D8F863
:10B29000081000298CD0284401F06AFE2388B8F8F1
:10B2A00004201344238009F10109C5E7092155E76A
:10B2B000BB42FBD9ADF808704FE770B5E8B14AB1B1
:10B2C00016880024B44203D305196D789D4208D036
:10B2D000A14201D8002010E0055D01352C44A4B244
:10B2E000F0E7A142F6D9005D0138A31C80B29DB2FF
:10B2F00010FA83F38B42EDDC158070BD13B5134655
:10B300000022ADF806200DF106020446FFF7D5FF36
:10B3100010B1BDF80630E01802B010BD72DF704702
:10B3200073DF704738B5012204460D46B0F8141497
:10B33000D0F81004FFF7E2FF00B1057004F13C0201
:10B3400004F5826104F15400BDE83840FFF7E6BF20
:10B3500080F830107047F8B504460F46002975D0C4
:10B36000002873D091F87A301BB191F89830002BF7
:10B370006ED1D7F8A030042B6AD0D7F89C30042BBC
:10B3800066D04FF0000C84F802C007F178060FCEAB
:10B39000251D0FC50FCE0FC596E8070085E80700ED
:10B3A00084F830C0D7F8A4306363D7F8A830A3631B
:10B3B0004FF6FF7504F58263C4F82034A4F82454D2
:10B3C0000722614604F2264001F0FBFD23780BB909
:10B3D00084F8545094F82430002B14BFEE231F231C
:10B3E00004F15501C4F81014A4F8143404F2144202
:10B3F0003846FFF798FD40BB94F82430002B14BF6B
:10B40000EE231F2304F23121C4F81814A4F81C34CD
:10B4100004F21C4207F13C00FFF785FDA8B9A369BF
:10B42000A4F848304FF480730125A4F850306369C4
:10B430002064014684F83C50636404F13C0204F14A
:10B440005400FFF76BFF00B92570F8BD0E20FCE734
:10B450000720FAE7F8B5077804460D46002F00F0FC
:10B46000038100F22646817007220021304601F058
:10B47000A8FDE38813B1A378012B04D0E3794BB185
:10B48000A378022B06D1636BA3B1012284F82D248B
:10B4900008209847334604F22C4113F8012F12B9C3
:10B4A0009942FAD117466B1E032B51D8DFE803F0FF
:10B4B000050B0F1284F82D34ECE7A3791BB194F837
:10B4C000243003B95FB9E3790BB1002F42D1237A5D
:10B4D000002B41D1637A002B0CBF00250425636B40
:10B4E000A570002B3AD0033D012D37D86279AAB35D
:10B4F00094F82E2492BB84F83024012284F82F245F
:10B500000720984704F13C0518220021284601F045
:10B5100058FDE26A531E0121022B28BF0A4684F817
:10B52000512094F8242084F83C1032B1A36A581EAC
:10B53000022828BF0B4684F85230A178002384F8F3
:10B54000503004291BD8DFE801F0770D223559006F
:10B550000025C4E70225C2E70325C0E7002384F8DD
:10B560002F34CFE7C4E91063C4F82034022301224A
:10B5700084F83C30802384F83120A4F84830A37844
:10B58000002B5CD1636B002B6AD1002067E00223A3
:10B59000002A84F8313014BF0723032384F83C3099
:10B5A0002369A4F848300023C4F82034E3682664F3
:10B5B0006364E4E763696364A369A4F8483012B183
:10B5C000062384F83C306379B3B194F82E349BB9E8
:10B5D00094F8303483B1022384F85030042120469B
:10B5E000FFF7A0FE0028CAD1052384F8313004F506
:10B5F0008263C4F82034C2E70323F6E7E369636497
:10B60000236AA4F8483012B1062384F83C306379E9
:10B6100083B194F82E346BB994F8303453B10223CB
:10B6200084F8503004212046FFF77CFE0028A6D184
:10B630000623DAE70423D8E784F831309FE7D4F80B
:10B6400020142A4604F15400FFF768FE38B994F834
:10B65000301094F85400FFF763FE002892D0F8BD34
:10B6600094F83100984790E70820F8E70388112BF9
:10B6700010B50C460AD0262B1FD0102B05D1C37B4A
:10B68000012B02D18388A1F8243410BD00228388C5
:10B6900081F82E24B1F824249A42F6D10B79002B9C
:10B6A000F3D101212046FFF7D5FE0028EDD0A36B92
:10B6B000002BEAD0BDE810401847037A013B012B6C
:10B6C000E3D8897805230131B1FBF3F303EB83035E
:10B6D000C91AC9B2E6E775DF704776DF70477ADFCF
:10B6E00070477BDF70470000034B1A8882420CBF13
:10B6F00018460020704700BF78480020024B9B6925
:10B7000003B11847704700BF5C48002073B585B28D
:10B710002846FFF7E9FF044670B1164E027A337BE4
:10B720009A420BD200F10A012846FFF7D4FFE8B194
:10B73000112801D0FFF7E2FF02B070BD00230372B1
:10B74000337C43B13B212846FFF7C7FF30F00803A5
:10B7500001D0FFF7D3FF7369002BEDD000228DF8E5
:10B760000420ADF8065001A89847E5E7237A013395
:10B770002372E1E75C48002037B50B46497A0F4A4F
:10B7800071B9D2E901141D7A0246002D18BF214675
:10B790005868FBF738FF08B1FFF7B0FF03B030BDC2
:10B7A000002119725369002BF8D00122ADF8060070
:10B7B0008DF8042001A89847F0E700BF5C480020FE
:10B7C0004B8802889A4213D842889A4210D38088C4
:10B7D0008A8840F2F313984294BF031AC31A934223
:10B7E00006D800F2F310904234BF002001207047C9
:10B7F000002070470388122B70B5014659D004D839
:10B80000102B1ED0112B44D070BD502BFCD12F4BD0
:10B81000C288DB899A42F7D1038A022BF4D1868849
:10B820003046FFF761FF05460028EDD001F1120018
:10B8300000F079F938BB6868FBF7FDFE0028E3D01B
:10B8400009E0C37B012BDFD14FF6FF70FFF74CFF00
:10B85000054620B90420BDE87040FFF74FBF1C4AE1
:10B860008E880680002303721368C0F80A3053687C
:10B87000C0F80E3010310A30FFF7A2FF134B687288
:10B88000DB89002BC0D129463046BDE87040FFF768
:10B8900073BF8088FFF728FF04460028B4D04068B3
:10B8A000FBF7C9FE08B1FFF729FF4FF6FF732380AE
:10B8B000AAE786883046FFF717FF05460028A3D081
:10B8C00008310A30FFF77CFF6872DCE75C48002033
:10B8D0008C480020F8B5064648B305460FCD154FF5
:10B8E0003C460FC495E8070084E807003068124C16
:10B8F0003C60B0B1FFF7F3FEC0B932681368236053
:10B90000536863600D480E4A4FF6FF7303800D4B7A
:10B9100040F8043F0021FBF76BFE002818BF03200E
:10B9200004E02046FFF7DDFE0028EBD0F8BD0E2036
:10B93000FCE700BF5C4800208C48002078480020CD
:10B940000DB70200984800200AB1FCF763BAFCF773
:10B950006ABA73B50191019C06466CB100252C466C
:10B96000294601A8FCF769FA18B106EB4403013433
:10B970009D800135142DF3D13046346002B070BD86
:10B980002DE9F04703888488103B8CB005460A2BCC
:10B990001FD8DFE803F0063F1E1E1E1E1E1E1E607F
:10B9A0004400314EB368DB43009371686846FCF78E
:10B9B00059FA009901A8FFF7CCFF0DF108094FF0E3
:10B9C0000008019B984507D3132C13D90420FBF7DB
:10B9D00003FD0CB0BDE8F08739F802AB0027013752
:10B9E000514606EB8700FCF71EFA1E2FF7D108F12F
:10B9F0000108E6E71D482146FCF70CFA1C482146E1
:10BA0000FCF708FAEB7B012BE3D01A482146FCF740
:10BA100001FADEE715482146FCF705FAD9E7027A74
:10BA200015483F2A4FEA1215214694BF00220122F1
:10BA3000FFF78AFF022D94BF002201220F48214602
:10BA4000FFF782FF012D0E4894BF002201222146FC
:10BA5000FFF77AFFBDE7037A002BBAD1427A064896
:10BA6000C2F3C0022146F3E7B8480020C0480020D6
:10BA7000BC480020C4480020D0480020CC4800200A
:10BA8000C84800201328014602D80248FCF7D5B95F
:10BA900000207047BC48002010B50446FFF7F2FFB5
:10BAA000002814BF2046142010BD70B50546164668
:10BAB00008460AB90E2070BD00231360002DF9D08E
:10BAC0002B68002BF6D0EB8813F003040ED1FFF7A0
:10BAD000E3FFC0B214280BD02B7983420AD9EB883C
:10BAE0002A6800FB032030602046E4E70720E2E7F5
:10BAF0000520E0E70420DEE7AADF704700230138D5
:10BB00000B70042806D8DFE800F00306080A0C00D2
:10BB100011230B7070472123FBE73123F9E7122330
:10BB2000F7E72223F5E7007800F001007047F0B551
:10BB30008B7891B0012B0C4638BF01238DF80E3065
:10BB400005460B88ADF80C300021164668460322E6
:10BB500001F037FA607C6946FFF7D0FFA07C0DF159
:10BB60000101FFF7CBFFE27B237B217D43EAC20388
:10BB7000227C43EA02139DF80220002922F01902D8
:10BB800003F0190314BF02210121134361F342039F
:10BB90001C22002109A88DF8023001F012FA637B03
:10BBA00013F0300F15D002AF03220021384601F008
:10BBB00008FAE07C0DF10901FFF7A0FF11238DF8D1
:10BBC00008309DF80A300E97012262F342038DF887
:10BBD0000A30637B8DF824301422A37B8DF8253046
:10BBE000002104A801F0EDF903AB0493A388ADF89C
:10BBF0001C30A368CDF814D01BB1E288ADF8182032
:10BC00000893A369002B31D001AF032200213846ED
:10BC100001F0D7F9A3691A88ADF82C205A88ADF83D
:10BC20002E205A680D97187B0A923946FFF766FF57
:10BC3000A3690DF10501587BFFF760FFA269917AB6
:10BC4000137A43EAC103D17A927B43EA01139DF848
:10BC50000610002A03F0190321F0190114BF022273
:10BC600001220B4362F342038DF80630E36903B10E
:10BC70000C93334604AA09A92846FFF73DFF11B0EB
:10BC8000F0BD90DF7047A5DF7047B5DF70471FB587
:10BC90000023ADF80810ADF80A106A4602A9039314
:10BCA0000093ADF80430FFF7ECFF05B05DF804FB3E
:10BCB00080B14FF0F7130360FB230371F723C380B8
:10BCC0001723038141F6FB32002301614381828106
:10BCD000184670470E20704730B1A1F11703E02BD2
:10BCE00004D80180002070470E207047072070475D
:10BCF00013B5034680880C4698B91A88242A76D052
:10BD000011D8112A52D0232A7ED0102A2BD0A37A00
:10BD10003BB1E1880020FFF7B6FF10B94FF4807304
:10BD2000638102B010BD3A2A49D0552AEFD1DB8891
:10BD3000C988A072172B38BF17238B4228BF0B4628
:10BD40002381FFF7A2FFE37A002BE0D12369002BC8
:10BD5000DDD040F6772200922289ADF804206946B2
:10BD600020469847D3E7DB7B0A790A73012B13D06F
:10BD7000022B14D0E18823898B4205D20020FFF7E3
:10BD800082FF70B90123E372217B637B8B42BED2B9
:10BD90000020FFF77CFFBAE70B88E380EAE74B88D7
:10BDA000FBE7112804BF0123A372EDE7F723CB8043
:10BDB00017230B8141F6FB3348818B81A7E75B8911
:10BDC000CA88934228BF1346172B0A6938BF172326
:10BDD0000B814AB1C97A39B140F677210091ADF8AB
:10BDE0000430694620469047002363818FE71A7A22
:10BDF0000B694A73002B8AD04DF67A218DF8050025
:10BE000000918DF80420AAE7197A237B994228BF74
:10BE10001946BEE7B0DF704766DF704710B50021F6
:10BE200004464088FFF7F8FF034608B9237210BDA7
:10BE3000112801D10123F9E76368BDE810401847D4
:10BE400060B159B10378DE2B0AD00B684360DE2362
:10BE500003704FF6FF734380002070470E20704739
:10BE60000820704728B10378DE2B04D141800020E0
:10BE700070470E20704708207047F0B5054685B022
:10BE80000C46F1B1E8B10B78DE2B1AD182884B88D1
:10BE90009A4204D10B7A13B10846FFF7BFFF2B88F3
:10BEA000112B32D0512B0ED0012B0AD12B7A012B22
:10BEB00007D1A9886288914203D123722046FFF7F7
:10BEC000ADFF05B0F0BDAE886388B342F9D1AF795C
:10BED000022FF6D1AD7B2B1F022BF2D800211022AE
:10BEE000684601F06EF8052D14BF4FF4C0730023AF
:10BEF000694630468DF80070ADF80430FFF78AFFD0
:10BF00000028DED063689847DBE76388AA889A42F6
:10BF100004BF4FF6FF736380D3E7A8DF7047ADDF40
:10BF20007047AEDF704762DF704770B505468AB074
:10BF30000C46002962D0002860D00388502B37D0EF
:10BF4000572B72D0102B59D181886069002601AA25
:10BF50000196FFF7AAFD082231460DEB020001F021
:10BF600030F802232189A888CDF80CD002AA0293C8
:10BF7000FFF7D5FF002841D1A369002B3ED00398DD
:10BF8000FFF7D1FD002839D0019B0BB101221A70B7
:10BF90001822002104A801F014F802238DF81030B3
:10BFA000AB88ADF81830019B05940793A36923E093
:10BFB0008188606902AAFFF778FD1822002104A891
:10BFC00000F0FFFFAB882189ADF81830EB88029AAA
:10BFD00005949942079218D12E8A022E15D16AB182
:10BFE00005F11200FFF79FFD029B48B101221A7074
:10BFF0008DF81060A3690BB104A898470AB070BD12
:10C00000187003238DF81030F4E7A2899A42F5D115
:10C01000A369002BF2D000228DF8102005F1120246
:10C0200008922A8AADF82420E6E78188606902AA8E
:10C03000FFF73BFD01460028E0D1029B1B78002B57
:10C04000DCD0182204A800F0BCFF01238DF81030CA
:10C05000AB88ADF818300594029BA6E7F0B53A4BD3
:10C060008FB002AD04460A4603F1100C2F46186843
:10C0700059682E4603C6083363453546F7D1002C70
:10C080005FD0002A5DD01368A36121463846FFF7D0
:10C090004AFF002853D12246012512F8023B8DF8B1
:10C0A000063001A92846ADF80450FFF736FF0028F6
:10C0B00045D10146202206A800F083FF2246022334
:10C0C000ADF8183012F80C3B8DF81A30BDF824305A
:10C0D0001E4E6088079623F44F6323F00F0343F44A
:10C0E00040632B4306A9ADF824308DF829508DF814
:10C0F0002A50FFF71CFD10BB0146202206A800F0C5
:10C1000060FF22460323ADF8183012F8043B8DF887
:10C110001A30BDF824306088079623F4875323F043
:10C120001F0343F480532B43ADF8243006A940F29B
:10C1300001138DF82950ADF82A30FFF7F8FC0FB045
:10C14000F0BD0E20FBE700BF3AE50200F40001005D
:10C15000F0B50F4687B016461C46054618B3406931
:10C1600001AA1946FFF7A1FCD8B94FF6FF739C420C
:10C170001BD0019BCBB11B78CBB13388F42B18D8E3
:10C180000146102202A800F01CFFAB88ADF8083071
:10C1900002A901232046CDE904678DF80A30FFF794
:10C1A000C0FE07B0F0BD0E20FBE70520F9E7082030
:10C1B000F7E70720F5E710DF704711DF7047000051
:10C1C00013B5044609496846FBF796FE019808B97D
:10C1D00002B010BDD0E900212046904718B1684652
:10C1E000FBF794FEF2E71120F2E700BF50E50200F2
:10C1F00013B5044607496846FBF77EFE019B0BB961
:10C2000002B010BD2046D3E9002190476846FBF7F5
:10C210007DFEF3E768E50200064B9A6822B11A68D2
:10C2200022F480021A607047034B4FF48002C3F877
:10C23000802070477034002000E100E00B4991F845
:10C2400016335A09EC231341DB0706D5084B9A68CD
:10C250003AB94FF480030B60704742F20200FBF7DB
:10C26000BBB81A6842F480021A60704700E100E02F
:10C2700070340020F7B5194F3C7864BB184E012587
:10C2800020463570FFF79CFF112821D02046FFF78C
:10C29000AFFF144B8DF80340186801900DF10300B7
:10C2A000FBF7CEFB104901A8FFF785FF0446B0FA63
:10C2B00080F0400938709DF80300FBF7E5FB3CB9BE
:10C2C0000A4B34701C70FFF7B9FF2846FFF790FF48
:10C2D000204603B0F0BD0824FAE700BF354900202E
:10C2E000344900204AE50200F57302003649002077
:10C2F000F7B5154F3B781BB3144E01203070FFF794
:10C300005FFF11284FF000051CD00220FFF770FFDF
:10C310000DF107008DF80750FBF792FBFFF74DFF7B
:10C3200004469DF807003D70FBF7AEFB2CB9347056
:10C33000FFF772FF0320FFF75BFF204603B0F0BD5D
:10C340000824FAE72C46F8E7354900203449002054
:10C35000014B1878704700BF3549002007B50849E0
:10C360006846FBF7C9FD019B13B903B05DF804FBF8
:10C37000D3E9002090476846FBF7C8FDF3E700BF0C
:10C380005CE50200FFF7EABF60DF704769DF7047D6
:10C3900061DF704730B5114DADF5017D4FF4FA7492
:10C3A0000DF1020103A8ADF80240FFF7F1FF70B9EB
:10C3B000294601A8FBF7A0FD029B002BF0D003A8A3
:10C3C000D3E90021904701A8FBF7A0FDF4E7052879
:10C3D00001D0FBF701F80DF5017D30BD74E50200D9
:10C3E000024B1B780BB1FFF7D5BF704737490020D0
:10C3F00018B1034B0360002070470E20704700BF48
:10C4000000330020F0B5074685B00D4600295DD009
:10C410002F4B0B600C22002101A800F0D2FD012659
:10C4200006232A68ADF8083001A920208DF8047091
:10C430008DF80660FFF7AAFF0C22002101A800F08A
:10C44000C0FD00242A688DF8056001A94020ADF8E0
:10C450000640FFF79BFF0C22214601A800F0B1FD2A
:10C46000F7232A68ADF8063001A923208DF804705F
:10C47000FFF78CFF0C22214601A800F0A2FD2A68DC
:10C480008DF8046001A93046FFF780FF0C22214699
:10C4900001A800F096FD4FF4B0632A68019301A94A
:10C4A000A120FFF773FF0C22214601A800F089FDAF
:10C4B0009DF804302A6864F3000301A9A0208DF8D8
:10C4C0000430FFF763FF204605B0F0BD0E20FBE708
:10C4D0000033002008B5FFF757FF10B9014B0122C8
:10C4E0001A7008BD374900204BDF70471FB50D4C4F
:10C4F00001A8FFF7F9FF70B9214602A8FBF7FCFC81
:10C50000039B002BF4D00198D3E90021904702A8A7
:10C51000FBF7FCFCF4E7052801D0FAF75DFF04B057
:10C5200010BD00BF80E502007047FB20704700008F
:10C53000014B0360704700BF94E5020010B586B060
:10C5400061F07F0100690C4C8DF80010022301A9F5
:10C55000CDE904138DF8012002A9002204302270D5
:10C56000CDF808D00393FCF737FB10B92378002BE4
:10C57000FCD006B010BD00BF6C44002090F8203005
:10C58000012B10B5044606D000220121FFF7D6FF8B
:10C59000012384F82030012010BD90F82030052BB5
:10C5A00010B504460BD007220121FFF7C7FF8022F8
:10C5B00040212046FFF7C2FF052384F8203094F87D
:10C5C0002030052BFBD0A07E10BD00000378022B8D
:10C5D00002D10448FEF710BC012B01D10248F9E753
:10C5E000704700BFA0E50200BCE5020038B5054D6C
:10C5F000044645F001054FF47A40A847013CFAD1C2
:10C6000038BD00BFD0E8020000B58BB000234FF06A
:10C610000A0C08930B23CDE906C30D4B0993CDE912
:10C6200004120C4B0C4A00934FF48063CDE90223B3
:10C6300001930A4A6946022304A8FBF753F9084B01
:10C6400018700848FEF7D8FB0BB05DF804FB00BF7C
:10C6500000E0D70139490020394D0020CDC5020046
:10C6600038490020D8E5020010B51C46FFF7CCFF82
:10C67000FBF790F9024B029A1C60024B1A6010BD46
:10C680003C510020405100202DE9F7430546174654
:10C690001E460C4691B1FBF77DF9204600F0E6FC02
:10C6A00004EB0008444506D02078FBF799F90028F0
:10C6B000FAD10134F6E76420FFF798FF1D4C4FF4E0
:10C6C00080620021284600F07CFC236800221A606A
:10C6D000194B38461B689847184B05F1FF38002E58
:10C6E00008BF1E4605F2FD3927463B681B689BB90B
:10C6F000FBF79EF90028F8D00DF10700FBF75AF977
:10C7000004460028F8D1C1459DF8073006D10C48F1
:10C71000FEF772FB85F8FF43002008E008F8013FB0
:10C720003146284600F0F6FB0028DED0012003B099
:10C73000BDE8F083405100203C510020FAE50200A2
:10C74000FEE5020010B504461748FEF755FB00232E
:10C7500044F6206215492046FFF796FF214614480B
:10C76000FEF74AFB0A20FFF741FF1248FEF744FBA1
:10C77000002344F6206210492046FFF785FF21463A
:10C780000E48FEF739FB0A20FFF730FF0C49204620
:10C79000002344F62062FFF777FF21460948BDE8F1
:10C7A0001040FEF729BB00BF52E6020064E602001B
:10C7B00046E602006FE6020086E6020095E6020009
:10C7C000B1E60200C3E6020030B5084B0F221D6837
:10C7D0008D42D3E9014001DA8C4205DA013A03F1D6
:10C7E0000C03F4D14FF0FF3030BD00BF10E8020061
:10C7F00030B5084B0F221D688D42D3E9014001DAA4
:10C800008C4205DA013A03F10C03F4D14FF0FF300A
:10C8100030BD00BF5CE702002DE9F0478946ADF569
:10C82000036D164605A90A22044606AD48469846F9
:10C830009DF854A800F00CFB0A222946304600F06F
:10C8400007FB0A2202FB08F00AAE3146043808AFA3
:10C8500000F0FEFADDF850080A22394600F0F8FA36
:10C86000B9F1010F49D141462046FFF7ADFF0A2239
:10C8700007A900F0EDFA4FF4806200210CA800F047
:10C88000A0FB4FF4806200210DF5866000F099FB5B
:10C89000234800F0EBFB224902460CA800F068FB9D
:10C8A00007ABCDE90053CDE9026705ABBAF1000F44
:10C8B00033D11C4A4FF480610DF5866000F0D5FA43
:10C8C0004FF480620DF586610CA800F0F7FA0CA910
:10C8D0001548FEF791FAC820FFF788FE002344F6BA
:10C8E00020620CA92046FFF7CFFE21460F48FEF735
:10C8F00083FA0DF5036DBDE8F087B9F1000FBAD1E9
:10C9000041462046FFF774FF01460948FEF774FAD6
:10C9100041462046FFF76CFFA9E7064ACAE700BF79
:10C92000EDE60200F9E602003BE7020046E60200FF
:10C93000E0E602001AE70200704710B50372029B9E
:10C94000C3604FF0402303610023C0E90012037568
:10C9500010BD0000C0F3C75191B142004FEA4070D2
:10C960004FEAD2014FEA310101F16051B2F17F4F3C
:10C9700038BF704701F1605118BF41F40021704782
:10C9800010F000410020704701F000428B1AA3F123
:10C990006051B1F5801F0ADBB1F17F6F09D242EA25
:10C9A000C102C10071F1004142EB50707047104666
:10C9B000704701285B4113F5001F04D842F0FE4088
:10C9C00040F400007047C90041EA507040EA02009C
:10C9D00040F4800040F08040704700BF10EE100A25
:10C9E0004FEA4000B0F17F4F0CBF0120002070479C
:10C9F00010EE100A41000020B1F17F4F18BF50EB3C
:10CA00000000704710EE100A00F00040704700BFB1
:10CA1000B0EEC00A704700BF00B510EE100A00F07B
:10CA200003F800EE100A00BD4FF07F43B3EB400F58
:10CA300022D9410008BF704703EA4002120E7F3A34
:10CA400014DB172AA8BF70474FF6FF73C0F27F03AD
:10CA5000D340184220EA030018BF10F0004F08BF6F
:10CA600070474FF40001D1404018704710F0004F5C
:10CA70000CBF00200248704718BF024870470000F2
:10CA8000000080BF0000C07F00B5014610EE100A14
:10CA900000F003F800EE100A00BD4FF07F43B3EB47
:10CAA000400F98BF704713EA400207D0120E7E3A3B
:10CAB0000A6020EA530040F07C5070470A6000F0A2
:10CAC0000040704700B5014610EE100A00F003F870
:10CAD00000EE100A00BD4FF07F43B3EB400F98BF4C
