:020000022000DC
:1060000000600020A56302005D6302005F63020080
:106010006163020063630200656302000000000028
:1060200000000000000000000000000067630200A4
:1060300069630200000000006B6302006D630200F0
:106040000D8102006F630200018402006F63020091
:106050006F630200000000007D8202006F63020097
:106060006F6302006F6302006F6302006F630200E0
:106070006F6302006F6302006F6302006F630200D0
:106080006F6302001D7302006F6302006F63020002
:106090006F6302006F63020039AE02006F6302009B
:1060A0006F6302006F630200000000000000000048
:1060B0006F6302006F630200000000000000000038
:1060C00000000000000000000000000000000000D0
:1060D00000000000000000000000000000000000C0
:1060E00000000000000000000000000000000000B0
:1060F00000000000000000000000000000000000A0
:10610000000000000000000000000000000000008F
:10611000000000000000000000000000000000007F
:10612000000000000000000000000000000000006F
:10613000000000000000000000000000000000005F
:10614000000000000000000000000000000000004F
:10615000000000000000000000000000000000003F
:10616000000000000000000000000000000000002F
:10617000000000000000000000000000000000001F
:10618000000000000000000000000000000000000F
:1061900000000000000000000000000000000000FF
:1061A00000000000000000000000000000000000EF
:1061B00000000000000000000000000000000000DF
:1061C00000000000000000000000000000000000CF
:1061D00000000000000000000000000000000000BF
:1061E00000000000000000000000000000000000AF
:1061F000000000000000000000000000000000009F
:10620000354936480A1A02D0072291438D4634494F
:1062100034480A1A06D00722914381F309880222E2
:1062200082F3148830483149314A00F044F831484B
:106230003149324A00F03FF831483249324A00F0E1
:106240003AF832483249334A00F035F83248334997
:10625000334A00F030F833483349344A00F02BF821
:1062600033483449344A00F026F83448344900228F
:1062700000F02CF833483449002200F027F8334866
:106280003349091A082902DB002202604160314AC1
:1062900090471F481F49884205D00268043003B464
:1062A000904703BCF7E700208646EC46002000211B
:1062B000294A9047FEE7884207D0521A05D0037852
:1062C00001300B700131013AF9D17047884202D098
:1062D00002700130FAE7704700600020005800208B
:1062E000006000200060002028D00200D82A002092
:1062F000BC2B0020EC630200EC630200C8BD02006E
:1063000028D00200D82A0020D82A0020D8BE0200B7
:10631000D8BE0200DCBE0200D8BE0200D8BE020019
:10632000D8BE0200DCBE0200DCBE020027D00200A4
:106330000CD10200BC2B0020BC2B0020BC2B002069
:10634000B43E0020B43E0020B43E0020B43E002005
:10635000B4460020BB6302002D950200FEE7FEE775
:10636000FEE7FEE7FEE7FEE7FEE7FEE7FEE7FEE705
:1063700009480068094909680A280AD1002908D192
:10638000074802686FF070031A404FF040031A4349
:10639000026000F009B80000300100103401001064
:1063A000E40E0040FFF7E4BF0B484FF007018843BD
:1063B00085460A488047FFF723BF094809490A4A2A
:1063C000884207D0521A05D0037801300B70013192
:1063D000013AF9D17047000000600020797C02008A
:0C63E000D8BE0200D82A0020D82A0020D5
:1063EC007047000007B5044B0093044A402300F0AB
:1063FC0030F803B05DF804FB0D640200BD2B0020E7
:10640C002DE9F84388461446B2B10F4B0F4E0325C5
:10641C00002743F00109224608EB0701002003F096
:10642C0081F90744241A48B933782BB14FF47A40D8
:10643C00C847013D02D13570BDE8F88301233370A4
:10644C00002CE8D1F8E700BFE0BE0200BC2B002016
:10645C007047F0B595B01D46164608460C4601F03F
:10646C00F1FA1A9B0D93CDE9086500252B460822FD
:10647C0005A920460A958DF82C500C9501F0FFFAD1
:10648C00079B0293069B03939DF814308DF81150D3
:10649C0003F00302012A1DD1BDF81420059DC3F39E
:1064AC00C203C2F383168DF81030B20008230EA974
:1064BC00204601F0E4FAC5F3952508AB009332466B
:1064CC0002AB0EA9284600F0FDFA204601F0BEFAF8
:1064DC0015B0F0BD022AF8D1BDF81650C3F3C203B3
:1064EC00C5F389158DF810300827082D2E4628BFC6
:1064FC0008263B4632460EA9204601F0C0FAAD1BD9
:10650C0008AB02AA31460EA8374400F03FFB002D21
:10651C00EBD1DAE70378024613F0040006D003F05F
:10652C000300012803D0022809D0012070470B6812
:10653C0012880233C2F3831213440B6070470B684A
:10654C005288023303EB92130B60EEE72DE9F04F08
:10655C0087B000230446861C0DF107000F46154634
:10656C008DF8073000F066FD454801683960D0E9C8
:10657C000132134401335B1A824600F21C4700F5CA
:10658C00836900F21448B3421CD30020002D73D051
:10659C0004F00F039B0143F0050363F30F00DAF8DB
:1065AC000020DAF808301340033316444AF823006D
:1065BC009DF80700CAF8006000F060FD012007B0EC
:1065CC00BDE8F08F0121384600F07FFF484600F00F
:1065DC0094FF404600F091FFDAF80400DAF808B0B6
:1065EC00029000EA0B0003300AEB800002A9FFF7CF
:1065FC0091FF029B50BB0BEA03020AEB820203F1F0
:10660C00020CD2680392013303EA0B0B0AEB8B0BDF
:10661C0002F00302012ADBF80C10CDF808C023D0DD
:10662C00022A16D08346404600F06AFF10B1029B46
:10663C00CAF804305946384600F047FFDAE901231E
:10664C001344DAF8002001339B1A9CE70BEA030091
:10665C00C9E7BDF80E30C3F3891303334FEA114B6E
:10666C000CEB93030293DEE7BDF80C30C3F38313FA
:10667C004FEA114B6344F5E7A40544F006008EE79E
:10668C00D02C002030B50A4C71B10A4A0A49121BB1
:10669C00D20800239A4201D1002030BD31F823509A
:1066AC00854202D00133F5E7034654F83300F4E792
:1066BC0048BE0200C8BE0200D82A0020094B01398E
:1066CC0003EBC000032909D8DFE801F00A02040635
:1066DC00042070470079704740797047002070475C
:1066EC000220704748BE0200034BD3E90030C31AA6
:1066FC0058425841704700BFD02C00202DE9F04380
:10670C0087B0FFF7F1FF0646002840F0F9807D4D79
:10671C00C5F81804BFF34F8F6B68AC680293234025
:10672C00033305EB830002A9FFF7F4FE029B18B1BB
:10673C00D5F81824002A5FD004EA0302991C01330F
:10674C0005EB8202234005EB8303D268DB680493DC
:10675C0002F00303022B0392029160D1BDF80E30BC
:10676C006948C3F38917502FB84628BF4FF050081B
:10677C0068F38F1308F10801ADF80E3001F033F90E
:10678C000646002800F0A78001F05CF900230822DF
:10679C0003A9304601F069F9029924EA0102013299
:1067AC00B8EB820F4FEA820332D95FFA88F85BB3F9
:1067BC002140DCB2A8EB040803315FFA88F9A0464B
:1067CC00524C05EB810108234246304601F04DF94D
:1067DC0034B108F108034A462146304601F045F928
:1067EC00029B033703EB97070297D5F81834002B5D
:1067FC0049D1D5F8104459E02A689A428FD86A607A
:10680C00304607B0BDE8F08340491C469946DAE7AC
:10681C000C40E11C0823424605EB8101DDE7012B0E
:10682C0059D1BDF80C303848C3F38311062928BF61
:10683C00062161F3891302318900ADF80C3001F0A7
:10684C00D2F80646002846D001F0FCF800230822B6
:10685C0003A9304601F009F90027BDF80C20C2F35A
:10686C008312BB00974203F10803BED202994A1C63
:10687C0021400331029205EB81010422304601F0E4
:10688C00F4F80137E9E7304601F0E0F8FFF72CFFA8
:10689C0080F00106F6B2B3E7E3685B7923B12368B5
:1068AC0031461B6820469847E3681C68002CF3D1DE
:1068BC00304601F0CBF80DF107008DF8074000F0E1
:1068CC00B9FBD5F818340BB9029B6B609DF8070027
:1068DC0000F0D4FBDAE7D5F8104454B90C4B0D4852
:1068EC000D49C01AC008000440F0020000F062F824
:1068FC00CCE7236820469B689847E3681C68ECE764
:10690C0000267DE7D02C002034BE0200DC2C0020B9
:10691C0048BE020070BE020004BF02002DE9F74F12
:10692C00224D04460F46924601A901221846D5F87D
:10693C0008909B46FFF70AFE20B3019E4FF000081B
:10694C00B21CD84508EB020126D11948002100F0F1
:10695C008DFD80F31000000440EA1440E400731C29
:10696C0004F0380403EA090306EA090644F00104BA
:10697C0005EB8303033644EA881444EA8724D86081
:10698C0045F8264095F820341BB1FFF7B7FE0028D8
:10699C00FBD103B0BDE8F08F09EA010105EB8101E1
:1069AC005AF82830CB6008F10108CAE7D02C002037
:1069BC00EC30002000231A46FFF7B0BF07B50123C7
:1069CC00019201AAFFF7AAFF03B05DF804FB07B51B
:1069DC00CDE9002302236A46FFF7A0FF03B05DF860
:1069EC0004FB0000094A38B50123D2F8104482F8A0
:1069FC0020341D4604B938BDE3685D712368204618
:106A0C005B689847E3681C68F4E700BFD02C002053
:106A1C0010B5037A052B0C460FD0437A23B1084AE4
:106A2C000849204600F0B8FD0749204600F0B4FDA7
:106A3C002046BDE8104000F0A4BD002AF8D0F3E7D2
:106A4C0019BF02001EBF02003EBF0200C38873B50F
:106A5C0004460D4633B1144A00921449144A284690
:106A6C0000F09AFD217A05291CD0637A4BB1A088DD
:106A7C00FFF724FE0F4B104953F82020284600F056
:106A8C008BFD227A0D4BA08853F822600021FFF772
:106A9C00F9FD0B4903463246284602B0BDE870406A
:106AAC0000F07ABD02B070BD19BF020029BF020010
:106ABC0021BF0200A8BF02001EBF0200CCBF020013
:106ACC0041BF02002DE9F04385B01F460C9D002309
:106ADC0095F80C902B7306460C4690462946384682
:106AEC00FFF7B4FFB8F1060F09D8DFE808F004127D
:106AFC00181F283340003146284600F04DFD002277
:106B0C0029463846FFF784FF85F80C9005B0BDE8A0
:106B1C00F08322683146284600F03EFDEFE7D4E9C9
:106B2C0000233146284600F037FDE8E7A3680093C0
:106B3C003146D4E90023284600F02EFDDFE7E36858
:106B4C000193A36800933146D4E90023284600F052
:106B5C0023FDD4E723690293E3680193A3680093B0
:106B6C003146D4E90023284600F016FDC7E76369D7
:106B7C00039323690293E3680193A368009331465E
:106B8C00D4E90023284600F007FDB8E708292DE9D1
:106B9C00F74F80460E4617461C463CD800251B7BFB
:106BAC002573214610460193FFF750FFDFF884A0B0
:106BBC00DFF884B0AE4231D918F80520594620468A
:106BCC0000F0EAFC0135082DF4D11949DFF86CA06E
:106BDC00DFF86CB0204600F0DFFC4FF000094E45AA
:106BEC0021D918F809507E2D03D8284604F0CCFC86
:106BFC0000B92E252A465946204600F0CDFC09F155
:106C0C000109B9F1080FEAD1012221463846FFF7F4
:106C1C00FFFE019B237303B0BDE8F08F5146204665
:106C2C0000F0BAFCCEE75146204600F0B5FCE6E792
:106C3C0055BF020051BF02004BBF020053BF020000
:106C4C0057BF02001FB50021039001AA44F20100B6
:106C5C00CDE9011100F004F805B05DF804FB00006B
:106C6C0010B572B6FFF7BEFEFFF748FD0028FBD14A
:106C7C00104B114C1149E41AE408240444F00100AF
:106C8C00FFF798FE0E4B1B68DB0700D500BE0D49C5
:106C9C0044F00200FFF78EFEBFF34F8F0A490B4BF7
:106CAC00CA6802F4E0621343CB60BFF34F8F00BF9E
:106CBC00FDE700BF48BE020070BE0200EBBF020041
:106CCC00F0ED00E0F7BF020000ED00E00400FA0573
:106CDC00D0E90223D1E90201994208BF90422CBFAE
:106CEC00012000207047000008B50B4800F0FBFAAB
:106CFC000A4B0B49D3E900231218D1E9000143F1E7
:106D0C0000038B4208BF824203D212F1807243F11E
:106D1C0000031046194608BDE02A0020F830002078
:106D2C007031002037B505460C460A4801A900F021
:106D3C000CFB60B10570446001A9064800F02FFB04
:106D4C0018B1054800F0D4FA002003B030BD04207F
:106D5C00FBE700BF5C310020E02A002038B5184B5F
:106D6C001B78044613B90025284638BD0028FAD0F4
:106D7C00037F03F0FF05002BF5D0FFF7B5FFD4E937
:106D8C000223994208BF904214D3236903B9237795
:106D9C00D4E90530984721690029E4D0237F03F01A
:106DAC00FF05002BDFD0D4E90223521843F1000376
:106DBC00C4E902230348214600F0A6FED4E700BF35
:106DCC000031002014C0020013B5114B1149186892
:106DDC00019008231048582200F0A4FA044698B9F0
:106DEC000E4A0F4801A900F06BF9044660B90C4833
:106DFC00012100F05BFA01230A4A0948194600F008
:106E0C00BDF9094B01221A70204602B010BD00BF1B
:106E1C000EC00200043100205C310020A96E02007B
:106E2C00E02A0020FFFF7F00003100203AB1036808
:106E3C005A614A1E51425141196100207047072086
:106E4C00704738B5037F04460D4683B98261FFF75E
:106E5C004BFF2369401941F10001C4E9020103B160
:106E6C00256121460020BDE83840FFF75BBF0020BC
:106E7C0038BD0023014603770120FFF753BF000004
:106E8C00024B002102201970FFF74CBF003100208B
:106E9C00014800F028BA00BFE02A00202DE9F04F8D
:106EAC0085B0804600F00AFA40B15A4AD2E9003166
:106EBC0013F1807341F10001C2E900310021404619
:106ECC0000F00BFA38B1544E336823B13068FFF739
:106EDC0045FF002333600121404600F0FEF920B14C
:106EEC00FFF702FF4D4BC3E900014D484A4F4D4E91
:106EFC00DFF8389103A900F062FA002845D1DFF8D9
:106F0C002491454EDFF828A1484600F013FE336863
:106F1C00002875D07BB13368D0E90201D3E9022394
:106F2C00994208BF90422DD233681B7F1BB1316848
:106F3C00484600F0E9FD484600F0F6FDD0E902B302
:106F4C0007460193FFF7D0FE019BBBEB000463EBFC
:106F5C000105012C75F1000345DBB4F5350F40D369
:106F6C00FFF796FF304A02444FF496030021504637
:106F7C0000F024F900283ED1336813B9404600F0E4
:106F8C00F5F8376005B0BDE8F08F0378012B1DD004
:106F9C00022B09D14FF0000A304600F0C5FD002845
:106FAC0034D080F81CA0F7E73BB941680B7F23B9BC
:106FBC0001230B77304600F0A7FD03A9184800F019
:106FCC0029FA03A9164800F0FAF996E741683B68DC
:106FDC00994202D100233B60EFE7304600F0ADFD53
:106FEC00EBE7BA68C0E70021504600F06CF9384670
:106FFC00FFF7B4FE01E00D28F9D00023336083E7DE
:10700C00002BBFD1404600F0B5F8BBE7012389F84F
:10701C000030D2E7F83000207831002070310020A9
:10702C005C31002014C00200FFFFB40000310020CE
:10703C00E02A002070B5EFF3108672B60C4A946803
:10704C0001239CB993600B4B0B4DD3F88010294056
:10705C001160C3F88050D3F8841051604FF0FF32A8
:10706C00C3F88420047006B962B670BD0370FAE7E9
:10707C007C31002000E100E0FC06FFBD084B9A6863
:10708C0010B55AB150B9EFF3108172B6054A1C68AD
:10709C0014605C685460986001B962B610BD00BFA2
:1070AC007C31002000E100E00346405882B028B15A
:1070BC0000225A505B580193019B012002B070478B
:1070CC00F8B5224B4679224C43F82620214A224B14
:1070DC009B1A04EBC602DB0812791B04F70032B1D1
:1070EC0043F002001D49FFF765FC0820F8BD02685B
:1070FC000D88C2F8085590F9045002798978002D52
:10710C00ADBF05F1604CDFF85CC002F00F0E0CF562
:10711C00614C4FEA4111C9B2B4BF0CF80E108CF897
:10712C0000136D090121DFF840C002F01F0201FAC3
:10713C0002F24CF82520E21944F83600117143F0A4
:10714C0003000749FFF736FC0020CFE79031002001
:10715C008831002048BE020080BE020020C0020020
:10716C0042C0020014ED00E000E100E003680122DF
:10717C001A607047036801225A60704773B501F1B9
:10718C005005AD000068ADB24FF480348C40002641
:10719C00C0F80843C0F84843465101F5A871455959
:1071AC00019522F07F42019D40F82120C0F8444314
:1071BC000BB1C0F8044302B070BD00002DE9F74FCD
:1071CC000D4622F07F4402684FF4803705F15006DB
:1071DC008F408046B60002EB8500C2F84873B6B209
:1071EC00C2F80873D2F8041599464FF0000BD0F88A
:1071FC004035C0F8401542F806B05B1A925900921F
:10720C0023F07F43012B009A4FEA850A0CD1264BC1
:10721C004FF4806043F001039847D8F8003043F8EE
:10722C0006B09B590193019BD8F80010D1F8046566
:10723C00C1F84473A31B23F07F43012B1CD11A4BC1
:10724C0005F5A875013443F0010341F825404FF4CE
:10725C0080609847D8F80030D3F804359E4209D1A5
:10726C00D8F800300020C3F84473C3F8047303B09B
:10727C00BDE8F08F0D20FAE78A44C9F1FF13CAF874
:10728C004045D1F80405221A013A22F07F4203F559
:10729C007F439342EED3002AE2D10134CAF8404531
:1072AC00D1F804359842DAE760C002000368022284
:1072BC00C3F8442309B1C3F80423704700684FF4A2
:1072CC008271FFF7F1BE4FF4803303FA01F10368CA
:1072DC00C3F84813C3F8081370475031890000688D
:1072EC0089B2FFF7E1BE0368D3F8040570470000CC
:1072FC0090F9043001215A0903F01F0301FA03F33A
:10730C004032024941F82230704700BF00E100E0F2
:10731C00024B034A1B681068184700BF90310020CD
:10732C008831002030B5054659B1B2FBF3F403FBAC
:10733C001424A0B238B9C5E90010A860AA81EB8169
:10734C0030BD0E20FCE70920FAE737B550E8013FC5
:10735C009DB2C48925448489A54228BF2D1B04896C
:10736C00A54202BFBFF32F8F002207E0C5EA030539
:10737C0040E80154002CE9D14FF001028DF80320B4
:10738C000193019B9DF803200B6002F0FF0322B1D7
:10739C000B880068184403B030BD1846FBE70A8818
:1073AC004B889A4209D150E8012FC2EA024240E8C8
:1073BC000123002BF7D1012070470020704737B50F
:1073CC0050E8023F1FFAA3F5C488A54202BFBFF3E1
:1073DC002F8F00220DE0C48925448489A54228BF43
:1073EC002D1BC3EA054540E80254002CE8D14FF0B0
:1073FC0001028DF803200193019B9DF803200B6083
:10740C0002F0FF0322B14B880068184403B030BD72
:10741C001846FBE70A884B889A4209D150E8022F9C
:10742C00C2EA224240E80223002BF7D10120704728
:10743C000020704701F01F024B090121914000EB25
:10744C00830000F01EB801F01F0301229A404B0983
:10745C0000EB8300D14300F02CB84B0901F01F0165
:10746C0050F82300C84000F00100704710B50346E7
:10747C0053E8000F0A4643E8002494F0000FF7D1BC
:10748C0010BD10B5034653E8002F42EA010043E853
:10749C00000494F0000FF6D110BD10B5034653E86C
:1074AC00000F00EA010243E8002494F0000FF6D12B
:1074BC0010BD10B5034653E8002F02EA010043E863
:1074CC00000494F0000FF6D110BD10B5034653E83C
:1074DC00002F02EB010043E8000494F0000FF6D1FA
:1074EC0010BD10B5034653E8002FA2EB010043E892
:1074FC00000494F0000FF6D110BD0121FFF7C1BFBD
:10750C000021FFF7CABF37B5054600240DF107006F
:10751C008DF80740FFF78EFD2A686B681168994259
:10752C000ED9481E106011F8014CEB68298A01FB3A
:10753C000434AB6811791B1ADBB2994238BF137152
:10754C009DF80700FFF79AFD204603B030BD37B514
:10755C00054600230DF107000C468DF80730FFF7A8
:10756C0069FD2A681368591C1160E968641A298A34
:10757C00B4FBF1F41C709DF80700FFF77FFD03B01E
:10758C0030BD826810B504462AB1436901680069B0
:10759C0098470023A36010BD0EB403B5039921B125
:1075AC0004AB01AA019300F077F802B05DF804EB8C
:1075BC0003B070470A2938B504460D4602D10D2197
:1075CC00FFF7F8FFA3682268591CA160D554D4E9D1
:1075DC0001329A4204D32046BDE83840FFF7D1BFB0
:1075EC0038BD00002DE9F84F9846DDE90A431546F1
:1075FC0082460F460A464FF00109AA420FD2C145F6
:10760C0038BFC14613F0010B01D16CB9002401261F
:10761C00B8F1010F1BD908F1FF386E43F8E709F1F7
:10762C000109B2FBF5F2E8E79B070ED5B8F1000FA4
:10763C000CBF30262026A145E9D2013C31465046EC
:10764C00FFF7B8FF002CF6D1E0E72026F3E7B7FBF5
:10765C00F6F39D42E1D9DFF83C80B7FBF6F35046D8
:10766C0018F8031006FB1377FFF7A4FF3346AB4261
:10767C00B6FBF5F6F1D2BBF1000F02D00CB1A1456F
:10768C0001D3BDE8F88F20215046013CFFF792FF53
:10769C00F4E700BF66C002002DE9F74F0546174618
:1076AC008846002900F0428118F8011B49B92B7B50
:1076BC00002B00F03B81284603B0BDE8F04FFFF7EC
:1076CC0060BF252940F0B780002698F800302D2B9C
:1076DC00424608F1010823D0302B24D02B2B25D087
:1076EC0000242A2B02F1010123D13B681A1D1B68CF
:1076FC003A601C440A4613782E2B26D101324FF0E7
:10770C00000A104610F8011BA1F1300CBCF1090F56
:10771C001DD80A2303FB0A13A3F1300A0246F0E733
:10772C0046F00106D1E746F00206CEE746F0040625
:10773C00CBE711F8013CA3F130000928DBD80A2271
:10774C0002FB0434303C0A46CBE74FF0000A12F837
:10775C00011B01F0FB0068289046F8D0782909D865
:10776C006F290CD8632962D022D8252963D05829D7
:10777C0000F0888098F80030002B95D197E770398D
:10778C000829F7D801A353F821F000BF13790200A0
:10779C008177020081770200A178020081770200D4
:1077AC007F780200817702008177020091780200D5
:1077BC00642901D06929DDD13A68D2F80090111DF5
:1077CC0089EAE9723960A2EBE9724FF0010B092AE0
:1077DC0035DCD34538BFD3462CB1B9F1000F01DBF2
:1077EC00720700D5013CB30702D5BAF1000F03D0E4
:1077FC00F00701D44CBB0024B9F1000F2DDAC9F10C
:10780C0000092D212846FFF7D5FE06F00302022AB7
:10781C0004D1BAF1000F01D11CBB0024CDE9004604
:10782C0053460A2249462846FFF7DCFEA2E73B688E
:10783C001A1D19783A602846FFF7BCFE9AE70A230E
:10784C000BF1010BB2FBF3F2C1E7A345D4D220211B
:10785C002846013CFFF7AEFECCE77107D5D52B21AE
:10786C00D0E7A345DAD230212846013CFFF7A2FE2F
:10787C00D2E73968CDE900460A1D3A6053460A2220
:10788C000968D0E739680A1D3A60CDE900465346CD
:10789C001022F5E73B681A1D3A6016F00106D3F882
:1078AC00009028D1B9F1000F03D0484603F023FF14
:1078BC000646B44200D904BB09F1FF3919F8011F7F
:1078CC0000293FF457AF2846FFF774FEF6E7284629
:1078DC000136FFF76FFE19F806100029F7D1A64202
:1078EC00BFF448AF002C3FF445AF20212846013CA3
:1078FC00FFF760FEF3E70026EDE720212846013C68
:10790C00FFF758FED5E73B681A1D3A603021284630
:10791C001C68FFF74FFE78212846FFF74BFE00222C
:10792C000823CDE90032214610227CE703B0BDE8E4
:10793C00F08F00BF2DE9F84FB0F806A04579D2F8CA
:10794C0000B09DF828900AFB05F5043D88460BEB2A
:10795C000301A94203F1040488BFA5EB030BB4FB9C
:10796C00FAF607460AFB1644C2F800B04EB9AAEB69
:10797C0004055D4528BF5D46BBF1000F04D1BDE891
:10798C00F88F3F68013EF1E7043408EB06003C44F5
:10799C002A46B9F1000F0DD02146ABEB050B03F0D5
:1079AC002CFEDA452E443F6855464FF0000428BFA4
:1079BC005D46E1E701462046EFE7F8B5467901461A
:1079CC00721E0546002393422D6803D30024A64261
:1079DC0002D8F8BD0133F6E70F682846FFF7B7FD6C
:1079EC0001343946F3E72DE9F843068ACD1C0746E6
:1079FC00FFF789FD043E35440446B5FBF6F5F0B1BE
:107A0C004FF48073EDB28380C680013D07608146E0
:107A1C004FF00008A84512D23846FFF774FD064611
:107A2C0048B163790133637108F10108C9F80000AA
:107A3C0007608146EEE72046FFF7BFFF344620463D
:107A4C00BDE8F88301210430FFF73FBD10B50121DB
:107A5C0004460430FFF745FD10F0FF0F04D120461B
:107A6C00BDE81040FFF7A9BF10BD1FB5039200225F
:107A7C00009203AAFFF75EFF05B05DF804FB1FB58B
:107A8C0003920122009203AAFFF754FF05B05DF8A0
:107A9C0004FB41DF70470000064B10B500241C703E
:107AAC00054B1C60BFF35F8F0449054800F016F8C6
:107ABC00204610BD9C310020A031002080C0020067
:107ACC009431002008B503F097F918B1BDE80840CF
:107ADC00FFF7DFBF20BF40BF20BF08BD0B684A685F
:107AEC004360934208BF0023016008BF43607047A6
:107AFC00436843B10268916852680B4493424360F7
:107B0C0004BF00234360704770B5446806460D46B9
:107B1C00206818B1B3682946984718B923682B60B8
:107B2C00256070BD2468F3E74368186808B10268E3
:107B3C001A6070474368186870474368186800B942
:107B4C007047884203D102681A60012070470346CF
:107B5C000068F4E710B50D49A1F59472914201D873
:107B6C0000200FE08C1AE30F03EBE4035B1002EB35
:107B7C00C30452F83330834205D802D204F1080210
:107B8C00ECE7606810BD2146E8E700BF8CC5020039
:107B9C0008B5FFF7DFFF024B002808BF184608BDE9
:107BAC004FC402000C4B1B78062B10D10B4B1B68DF
:107BBC001A070CD10A4B186800F0F003302B08D0D0
:107BCC0000F0E000A0F140035842584170470020FB
:107BDC0070470120704700BFE00F00F0E40F00F089
:107BEC00E80F00F0094B1B78062B0CD1084B1B68D7
:107BFC001A0708D1074B186800F0F000A0F1300309
:107C0C005842584170470020704700BFE00F00F009
:107C1C00E40F00F0E80F00F00F4B1B680A2B03D1A8
:107C2C000E4B1B68012B14D90D4B1B78062B10D156
:107C3C000C4B1B681A070CD10B4B186800F0F003A7
:107C4C00302B06D000F0E000A0F140035842584120
:107C5C0070470120704700BF300100103401001044
:107C6C00E00F00F0E40F00F0E80F00F008B5FFF7AC
:107C7C0099FF28B1884B894A1B68C3F3042313600E
:107C8C00FFF7B0FF10B1864B864A1A60FFF7C4FFAE
:107C9C0028B1854B854A1B68C3F342331360FFF749
:107CAC00A1FF20B1824AD36823F08073D360FFF721
:107CBC00B3FF40B14FF080430022C3F80C21C3F84E
:107CCC001021C3F83825FFF78DFF10B1794B032233
:107CDC001A60FFF787FF40B1774B05221A6001222B
:107CEC009A6700229A603F225A60744B1B680A2BD9
:107CFC0003D1734B1B68012B0DD9724B1B78062BD0
:107D0C0009D1714B1B68190705D1704B1B6803F027
:107D1C00F003502B46D14FF080526D4BD2F8041427
:107D2C00C3F82015D2F80814C3F82415D2F80C1493
:107D3C00C3F82815D2F81014C3F82C15D2F8141463
:107D4C00C3F83015D2F81814C3F83415D2F81C1433
:107D5C00C3F84015D2F82014C3F84415D2F82414F3
:107D6C00C3F84815D2F82814C3F84C15D2F82C14C3
:107D7C00C3F85015D2F83014C3F85415D2F8341493
:107D8C00C3F86015D2F83814C3F86415D2F83C1453
:107D9C00C3F86815D2F84014C3F86C15D2F8442413
:107DAC00C3F87025454B1B680A2B06D1444B1B6846
:107DBC001BB9484BFB22C3F81825FFF7F3FE28B17B
:107DCC00454B464A1B6803F04F031360FFF724FF33
:107DDC0048B14FF08043D3F80024D20744BF6FF072
:107DEC000102C3F80024354B1B68062B47D1344BDA
:107DFC001B68062B3ED0394A136843F00F031360FF
:107E0C004FF01023D3F80022002A03DBD3F80432FE
:107E1C00002B3DDA324B0122C3F80425D3F80024A1
:107E2C00002AFBD04FF010221521C2F80012D3F813
:107E3C000024002AFBD04FF010231522C3F8042293
:107E4C00274B1A46D3F800140029FBD00021C3F8A5
:107E5C000415D2F80034002BFBD0BFF34F8F21490F
:107E6C00214BCA6802F4E0621343CB60BFF34F8F1F
:107E7C0000BFFDE71D4A136843F4806313600F4B8A
:107E8C001B680A2BB7D10E4B1B68002BB3D1B7E77D
:107E9C00174B184A1A6008BD2403001040350140E6
:107EAC0074C007400DF0ADBA440200103C05004010
:107EBC00F0ED00E0A005004010560040300100102D
:107ECC0034010010E00F00F0E40F00F0E80F00F0B8
:107EDC0000C0004000F0004058020010E40E0040CA
:107EEC0000E0014000ED00E00400FA053C17004002
:107EFC00E82A00200090D00338B5074C051E04F189
:107F0C00080318BF1C4623682BB11A6822605B68F3
:107F1C0028469847F7E738BDAC31002020B9054B0F
:107F2C0001225A70FFF7E8BF012802D1014A907074
:107F3C00F8E77047A431002020B9034B01225A7096
:107F4C00FFF7DABF704700BFA431002038B50B4CE7
:107F5C00237883B90A486360A3602361E36000F06F
:107F6C0095F8054602F048FF08B900F09DF801238A
:107F7C002370284638BD8525FBE700BFA4310020BF
:107F8C00297F020037B5184CA378054603F0FF0291
:107F9C009BB110B143680120984700230DF10700F5
:107FAC008DF80730FFF746F8E3689DF807000133BA
:107FBC00E360FFF763F803B030BD0DF107008DF8F7
:107FCC000720FFF737F825B1226913463BB92A6021
:107FDC002561E368002BE7D100F078F8E4E79D42D7
:107FEC00F7D01B68F2E700BFA431002037B50B4C6B
:107FFC0000230DF107008DF80730FFF71BF8E3683D
:10800C00013BE360E56815B900F06EF8A5709DF8CA
:10801C000700FFF733F803B030BD00BFA4310020D8
:10802C00012813B508D003281CD018B9104B012215
:10803C00C3F8802002B010BD0E4C00230DF10700D8
:10804C008DF80730FEF7F6FF23780BB9FFF77EFFAC
:10805C00E3689DF807000133E3600123A370FFF789
:10806C000DF8E7E700F020F8FFF7C0FFE2E700BFEC
:10807C0000E100E0A431002000F18040002382B038
:10808C00036003680193019B02B07047054B0246E5
:10809C00187920B91A60012298719A80704785204E
:1080AC00704700BFB8310020074B1A68D2075FBF7A
:1080BC00C02283F8002301221A604FF08043002273
:1080CC00C3F81825704700BF00E100E008B54FF475
:1080DC008270FFF7D1FF4FF080430222C3F80423D4
:1080EC0001229A6008BD0000044B01221A604FF077
:1080FC008042D2F81834DB03FBD470470C000040EC
:10810C00244B1B6810B573B14FF48070FFF7B4FFAC
:10811C004FF080430122C3F808231F4B587910B944
:10812C005A711B6898471D4B1B6863B14FF48270E2
:10813C00FFF7A2FF4FF080430222C3F80823164B2F
:10814C0001201B689847164B1B6863B14FF488706D
:10815C00FFF792FF4FF080431022C3F808230E4B19
:10816C0002201B6898470F4B1B6893B10E4B0022E3
:10817C001A604FF48670FFF77FFF4FF080430821A1
:10818C00C3F80813044B9A71BDE810401B68032018
:10819C00184710BD00010040B83100200401004018
:1081AC00100100400C010040340C004000F18040F4
:1081BC0000F5C040002382B0036003680193019B6B
:1081CC0002B07047800000F1A040D0F8002722F4E4
:1081DC004032C0F80027D0F8003743EA0143C0F81A
:1081EC0000377047054B4FF0FF32072843F820202B
:1081FC0084BFC01880F84820704700BFC0310020F1
:10820C0010B5174C94F8583043BB04F130032021BF
:10821C00FF22013911F0FF0103F8012BF9D1C8B28B
:10822C00FFF7E0FF01310C29F9D1042200210D48A0
:10823C0003F00CFA0C4BC02283F8062340221A6080
:10824C004FF4BE70FFF7B2FF084B4FF00042C3F87B
:10825C000423012384F85830002010BD0820FCE7CB
:10826C00C03100201432002000E100E0006000402A
:10827C002DE9F04F87B000245A4D03944FF48072CF
:10828C00012102F1804303F5C04390B21B68012B1E
:10829C0006D1D5F804330B4202D0FFF787FF0C430D
:1082AC000432B2F5907F4FEA4101EAD14E4B1B6884
:1082BC00012B0AD14FF4BE70FFF778FF4FF0A043AB
:1082CC0044F00044D3F81035039314F0FF0F1AD088
:1082DC00464F00250126344210D0AB0003F18043F9
:1082EC0003F5C043D3F81005D3F8101557F8253013
:1082FC0023B1C1F30141C0F3042098470135082D87
:10830C004FEA4606E7D1002C65DA00214FF0FF3327
:10831C00CDE90413354D01274FF0000A344ED146F8
:10832C004FF0A04816F9013B5A1C45D0C3F3C201CB
:10833C0006AA5018DCB210F8042C03F03F0B03F023
:10834C00070307FA03F31A4236D005EB0B02A40914
:10835C0092F9302055F8222052B9032C2CD10DF172
:10836C00100E1EF801C04CEA030C0EF801C001E01F
:10837C00032CF4D00BF5E07110F80C0C58F821100C
:10838C001842C1F3014105D0022915D1032C0FD19C
:10839C00214604E003290FD1032C09D102215846B0
:1083AC00019209F10109FFF70DFF019A5FFA89F9B2
:1083BC0012B12146584690470AF1010ABAF1040F4E
:1083CC00B0D1B9F1000F06D04FF0A043039AD3F807
:1083DC001035934202D107B0BDE8F08F0393049B94
:1083EC00059399E7006000407C610040C03100209B
:1083FC0010320020014B1B68184700BF1C320020B4
:10840C00032811D8012A0AD101290FD100F10E023B
:10841C00D2B20D4B00EB40001A54002070470129DA
:10842C00F7D0022904D049B1072070470022F8E7A1
:10843C00054B00EB400018444270EEE7024B00EB9A
:10844C00400018448270E8E72432002008B501226D
:10845C0002210020FFF7D4FF08B1072810D1072212
:10846C0002210120FFF7CCFF08B1072808D1002119
:10847C000A220846FFF7C4FF10B1072808BF0020E6
:10848C0008BD00000388102B10B502D0112B1ED094
:10849C0010BD1A4C2168B1B901220846FFF7B0FF94
:1084AC0008B1072824D1072202210120FFF7A8FFD9
:1084BC0008B107281CD1042202210020FFF7A0FFDD
:1084CC0008B1072814D1236801332360E0E70B4A75
:1084DC001368013B1360002BDAD1FFF7B7FF0028BC
:1084EC00D6D0074B1B68002BD2D0BDE810401847E4
:1084FC00034B1B68002BE6D09847E4E7343200208E
:10850C0030320020BFF34F8F0549064BCA6802F486
:10851C00E0621343CB60BFF34F8F00BFFDE700BF9A
:10852C0000ED00E00400FA0572DF704773DF70475E
:10853C0074DF704776DF704777DF70477ADF7047FC
:10854C007CDF70478ADF70478BDF70478FDF7047A7
:10855C00024A136801331360704700BF2C3B0020A4
:10856C000C4B4A881B889A4210B504460BD10A88DA
:10857C0040F677239A4206D18A880748033A92B28A
:10858C00114601F023F9228861880448BDE81040A7
:10859C0001F01CB9322B0020AEC50200CBC5020085
:1085AC0008B5032806D8DFE800F00C020E100848C6
:1085BC0001F00CF9FEF764FC08B1FEF743FB012057
:1085CC0008BD0448F4E70448F2E70448F0E700BFAC
:1085DC0005C6020025C6020045C6020071C602008F
:1085EC00037823B9024B3B211888FFF7A3BF7047D0
:1085FC00322B00200388212B07B528D006D8102B4E
:10860C000DD0112B15D003B05DF804FB3B2B01D022
:10861C00562BF8D113218088FFF78CFFF3E7104B12
:10862C0081881048198002F071F90F4B01221A70E1
:10863C00E9E70B4B4FF6FF703B211880FFF77AFFF1
:10864C00094B00221A70094B01221A60DBE7002348
:10865C0001A98088ADF80430FFF778FFD3E700BF9D
:10866C00322B0020FC38002032390020443B002003
:10867C0038B5054D044645F001054FF47A40A8473E
:10868C00013CFAD138BD00BF70C9020007B5002308
:10869C00019302F043FB01A9012002F0FDFB01A8AC
:1086AC0002F0CAFC03B05DF804FB000038B50D4ABB
:1086BC00044600210C48FEF7B9FB4FF400454FF47B
:1086CC007A70002100234FF4FA62C5FB040102F01A
:1086DC0067FE002201460548FEF7B3FB044B00225F
:1086EC001A6038BD0187020060C90200B83800204A
:1086FC00443B002038B5104B01221A600F4A136816
:10870C00012B09D10E4C0F4D2168002905DC0E49B7
:10871C000B60002111602B7038BD0C4B1B684FF4A3
:10872C007A705843FFF7C2FF21680948013921606C
:10873C0001F04CF80023EEE7443B00203C3B0020CA
:10874C00343B00203A3B0020403B0020A02B002073
:10875C0090C6020008B5064A06480121FEF766FBE2
:10876C00BDE80840044800221021FEF76ABB00BF98
:10877C005D8502005CC902004034002070B592B0E7
:10878C001B4C59230025ADF800301826194B0293C9
:10879C003C22002103A8ADF8046002F057FF04232B
:1087AC003246294620468DF80C508DF80F30CDF806
:1087BC0030D002F04BFF052323700F4B65601A6815
:1087CC002575A5810D4D4FF47A732968534303A881
:1087DC0040F2712293FBF2F32A1DA36001F08DF895
:1087EC00224629460648FFF79FFE12B070BD00BF17
:1087FC00283400207A2B0020EC2A00201C2B00208F
:10880C00302B0020024B01211878FFF78FBE00BFE0
:10881C00302B0020014B1878FFF78ABE302B00203C
:10882C0010B50D4CF4220021204602F00FFF41231D
:10883C002370432363704B23A3703123E370074BE6
:10884C00074A1B880748214602F0D6F9BDE81040BC
:10885C00054800F0BBBF00BF33390020322B00208D
:10886C00782B0020542B0020A4C6020070B505788C
:10887C000446002D38D1818A1C481D4E00F0A6FFFD
:10888C00A38AAB4206D923693046595D00F09EFF9E
:10889C000135F5E7174800F099FF23699A78012A0A
:1088AC000BD1154B1A704FF08043B122C3F81C2525
:1088BC006420FFF7DDFEFFF725FE99790F484FF492
:1088CC007A72514301600E49D8790870597A4A433B
:1088DC000C490A600C4A997A1170DA7A0B4B1A70AF
:1088EC00BDE87040FFF79CBF70BD00BFB7C602006B
:1088FC00E0C602003FBF02003E320020702B002079
:10890C00A42B0020942B00203D320020742B00203F
:10891C001FB50E4C112320468DF8043002F0EBFEEF
:10892C00214682B201A8FFF70BFE082200210DEBB5
:10893C00020002F08BFE064A4FF0C87302A8CDE984
:10894C000223FFF7FBFD04B010BD00BFE6C602001A
:10895C0010003C0013B5002401A90848019401F053
:10896C00C3FF04222146684602F070FE044B054802
:10897C000093694602F0C6F802B010BDFC38002026
:10898C0079880200542B002000B589B000211C22EC
:10899C0001A802F05BFE00234FF4A032CDE90132B6
:1089AC004FF4F022039203228DF81020064AADF802
:1089BC00123001A8CDE906238DF8143001F074FCB7
:1089CC0009B05DF804FB00BFED85020008B5FFF7A8
:1089DC00BBFDBDE8084002490248FFF7B3BD00BF2C
:1089EC00342B00203C2B002008B5FFF74FFEBDE8D0
:1089FC000840FFF7EBBF000007B502F08FF900232A
:108A0C0001A90120019302F047FA10B1064800F0C9
:108A1C00DDFE01A802F010FB10B1044800F0D6FEF8
:108A2C0003B05DF804FB00BFF1C60200FAC60200F9
:108A3C0030B5ADB0AC22002101A802F007FE022334
:108A4C008DF804304FF4A0630D4DADF806300D4B8E
:108A5C001593402244F25063CDE9232301240023D3
:108A6C0001A928462A93ADF850408DF8804001F0BA
:108A7C005CF92146284601F055F92DB030BD00BFF8
:108A8C00603400202C2B002010B5054C05492046E5
:108A9C0001F028FE2046F721BDE8104001F036BE5B
:108AAC00083900206D8502000148032101F0BCB992
:108ABC006034002008B5FFF79FFFFFF729FFFFF791
:108ACC00E3FFFFF747FFFFF7B3FFFFF75DFFFFF78C
:108ADC00EBFF044B044800221A70BDE8084000F07C
:108AEC0075BE00BF323900200AC702000E4B0828A1
:108AFC0015D8DFE800F005080A0C0E101214160049
:108B0C00FC221A707047F822FBE7F422F9E7F022F6
:108B1C00F7E7EC22F5E7E222F3E7D822F1E70022AF
:108B2C00EFE70422EDE700BF483B0020094B002291
:108B3C00C3F80022C3F810211A600122DA601A610E
:108B4C00C3F80C21D3F81021002AFBD00022C3F863
:108B5C00102170470010004010B50C490C4B01243B
:108B6C00C1F8FC4FC1F8004293F90000FFF7BEFFBB
:108B7C00084B1B78C1F80C35074B1B78C1F8103526
:108B8C00064B1B78C1F808350C6010BD0010004076
:108B9C00A42B0020483B0020922B0020742B00209B
:108BAC0038B5244D04232B70234BD3F8502622F0D8
:108BBC000102C3F85026214AC3F818250022C3F835
:108BCC003425C3F82C250122C3F83025CC214FF0D5
:108BDC00CC32C3F82415C3F81C25194AC3F8142544
:108BEC00184B1A46FF2402F8014B013C14F0FF0409
:108BFC0002F8011BF9D11049C1F804352123C1F841
:108C0C000032114B93F90000FFF770FF0F4B1B78EC
:108C1C00C1F80C352B78C1F810350D4B1B78C1F809
:108C2C0008350123C1F80C410B60D1F80C31002B35
:108C3C00FBD038BD922B002000100040FF00040335
:108C4C0008000001293A0020A42B0020483B0020FA
:108C5C00742B0020F7B52A4D2A4C182200212846E7
:108C6C0002F0F4FC522394F8486094F857702B707F
:108C7C005823606E6B70AE70EF7002F03BFB3A469F
:108C8C00C3B2314620482B7100F0A0FD1F4B1B785E
:108C9C0053B91F4B1F4A1B6812689B1A4FF47A7208
:108CAC00B3FBF2F3A4F8EC3094F8E060B4F8EC40C9
:108CBC00194B2E752712E4B2B3F906006F75AC751B
:108CCC0002F028FB154902F0AFFA4FF06A5102F09E
:108CDC00ABFA014602F01AFA114902F0A5FA114951
:108CEC0002F0A2FA02F006FBC0B2E875009023462F
:108CFC003A4631460C4800F069FD03B0F0BD00BFA8
:108D0C007A2B00204832002018C70200752B002057
:108D1C002C3B0020303B00201C3900209A99193F35
:108D2C000000C040000020413BC7020008B5FFF71F
:108D3C000DF90020FFF726F9BDE80840FEF7ACBEA0
:108D4C0030B54FF0805195B0D1F8A820D1F8A830AB
:108D5C00D1F8A400D1F8A440D1F8A450D1F8A410B3
:108D6C00C5F30725C9B2C4F30744000EC2F30722AA
:108D7C0003910090DBB242F0C002064902950194C7
:108D8C0004A802F006FC04A9034800F01FFD15B06E
:108D9C0030BD00BF70C702001EBF020013B54FF0FC
:108DAC0080540E48D4F80421D4F80011D3B20193A6
:108DBC00C2F307230093C2F30743120E00F006FD23
:108DCC00D4F80811064800F001FD216E0548626ECA
:108DDC0002B0BDE8104000F0F9BC00BF95C702001E
:108DEC00AEC70200BBC70200114BB3F8E02042FA39
:108DFC0000F1C90710B513D50121814022EA010207
:108E0C000C4CA3F8E0200C4A24681268342101FBB6
:108E1C000031121B4FF47A74B2FBF4F2A1F87420F7
:108E2C00342202FB00300023A0F8683010BD00BFD4
:108E3C0048320020303B00202C3B0020104BB3F874
:108E4C00E01041FA00F2D20710B512D40122824090
:108E5C000A430C4CA3F8E0200B4A24681268342116
:108E6C0001FB0031121B4FF47A74B2FBF4F2A1F83F
:108E7C007420342202FB00300023A0F8683010BDAF
:108E8C0048320020303B00202C3B0020134B144A6E
:108E9C0014491B681268096810B50446124800F0A2
:108EAC0095FC022C4FF0070011D0032C12D0012C92
:108EBC0006D0FFF799FFBDE810400620FFF794BFDE
:108ECC00FFF792FFBDE810400620FFF7B7BFFFF792
:108EDC00B5FFF0E7FFF7B2FFF4E700BF982B0020D7
:108EEC00702B0020942B0020C8C7020030B5002343
:108EFC00934205DAC55CCC5CA54203D10133F7E79C
:108F0C00012030BD0020FCE708B5064B782202FB9F
:108F1C00013148310622FFF7E9FFB0FA80F0400931
:108F2C00404208BD48320020F0B50446584AA18B97
:108F3C001180584A584E594D1278A3692B60033052
:108F4C0085B03060002A5BD1554893F805C007788E
:108F5C00BC4550D19F79407887424CD1514893F809
:108F6C0007C00778BC4546D11F7A43789F4242D14F
:108F7C004D4B1B888B423ED14C4B4D481A7094F98B
:108F8C0013300393237A0293E3790193A37900932B
:108F9C0063792279E178474C00F018FC316820782D
:108FAC00454E342303FB00638A1D4D3312F8017DBB
:108FBC0003F801798A42F9D1FFF740FF2B683F484B
:108FCC0093F909102378342707FB036383F85710B0
:108FDC0000F0FCFB2B68987A02F0B4F9237807FBBD
:108FEC000366706602F0C2F902460B46344800F084
:108FFC00EDFB0023237005B0BDE8F040FFF7E6BCA5
:10900C00284ADF7911788F42F5D1197A5378994231
:10901C00F1D10021FFF778FF0130ECD194F9133036
:10902C000393237A0293E3790193A37900936379F1
:10903C002279E1781E48204F00F0C8FB30681D4EA5
:10904C003278342303FB0273811D4D3311F801CDAB
:10905C0003F801C98142F9D194F91310174834244B
:10906C0004FB027282F8571000F0B0FB2B68987A60
:10907C0002F068F9337804FB0377786602F076F92E
:10908C0002460B460E4800F0A1FB00233370B2E7FA
:10909C0030390020273A0020283900202C390020B4
:1090AC00F02A0020F22A0020762B0020752B0020BD
:1090BC00E4C70200393B0020483200200DC80200F2
:1090CC0016C8020003881D2B02D10830FFF72CBFF5
:1090DC007047000008B50348FDF7CBFE024B002299
:1090EC001A6008BDB8380020443B002008B501F0D8
:1090FC0053FE1F4B01221A604FF080430021C3F82E
:10910C0000111A60D3F80021002AFBD0FFF70EFDE6
:10911C00184B1B781BB3184C184E2546FFF71CFD3B
:10912C00304600F053FB164B1868FFF7BFFA236864
:10913C0013B9FEF7C7FCFAE7FFF7CCFFFFF7F6FC15
:10914C00104800F043FB104B1868FFF7AFFA2B6880
:10915C0013B9FEF7B7FCFAE7FFF7BCFFDEE7FFF742
:10916C00FBFC0A4800F032FBFEF7ACFCFCE700BF4E
:10917C0000D00040273A0020443B00201FC80200CA
:10918C00702B00202EC80200942B00203BC802003C
:10919C0008B5044601F000FE1D4B01221A604FF089
:1091AC0080430021C3F800111A60D3F80021002A73
:1091BC00FBD0FFF7BBFC1CB3164C174E2546FFF734
:1091CC00EFFC304600F002FB144B1868FFF76EFA08
:1091DC00236813B9FEF776FCFAE7FFF77BFFFFF77E
:1091EC00A5FC0F4800F0F2FA0E4B1868FFF75EFA78
:1091FC002B6813B9FEF766FCFAE7FFF76BFFDEE7A7
:10920C00FFF7CEFC084800F0E1FAFEF75BFCFCE748
:10921C0000D00040443B00201FC80200702B0020EF
:10922C002EC80200942B00203BC80200354B196855
:10923C00354B70B504463548196000F0C7FAFFF796
:10924C0039FC2046FFF732FA3148324C324D00F0EF
:10925C00BDFA2368002B4AD02B78002B47D12F481E
:10926C002F4D00F0B3FA2F4B93F85400FFF760F931
:10927C004FF47A70FFF7FCF901F08EFD4FF47A7021
:10928C00FFF7F6F9FFF726FF95F90030082B31DCD4
:10929C00254C264E237831782548642B84BF112326
:1092AC00237000F093FA234B2348196800F08EFAD0
:1092BC0095F90010214800F089FA214B21481968D2
:1092CC0000F084FA204B2148197800F07FFA2178BD
:1092DC001F4800F07BFA33787BB14FF08043B1220A
:1092EC00C3F81C256420FFF7C3F9FFF70BF9FEF751
:1092FC00E9FBAEE707232B70CAE7BDE87040FFF728
:10930C00C5B900BF2C3B0020303B002053C80200E5
:10931C005EC80200443B00203239002074C80200B1
:10932C00A42B002060340020742B00203E3200203F
:10933C008AC80200702B002093C80200A0C802004B
:10934C00942B0020ADC802003D320020BFC80200A3
:10935C00C9C80200124A38B500231370114A124DC5
:10936C001370124A1370124A1370124A1370124A75
:10937C0004461370FFF738FB2046FFF797F90F4CA4
:10938C00236823B92B7813B9FEF79CFBF8E7FFF79A
:10939C00DBF8FFF79FFEBDE8384001F0FDBC00BFD5
:1093AC00383200203C320020393B00203A32002079
:1093BC003B32002039320020383B0020443B002057
:1093CC00454BF7B5454D1868FFF7C4FFB5F8682055
:1093DC004348002100F0FAF9B5F86830032B02D9A4
:1093EC000020FFF701FDB5F868300133A5F86830AF
:1093FC003C4B1978002965D13B4C1822204602F0D1
:10940C0025F95223237058236370B5F8743095F8FE
:10941C0057103648A1701A12DBB22371E27000F0BB
:10942C00D5F9334B1B7853B9324B334A1B6812684E
:10943C009B1A4FF47A72B3FBF2F3A5F8EC3095F863
:10944C00E060B5F8EC502D4B26752F12EDB2B3F948
:10945C0006006775A57501F05DFF294901F0E4FE72
:10946C004FF06A5101F0E0FE014601F04FFE254934
:10947C0001F0DAFE244901F0D7FE01F03BFFC0B247
:10948C00E0752B4600903A462048314600F09EF994
:10949C00FFF7FCF8FFF772F91D4B1E4C93F90020F7
:1094AC001D4B002113F922200120FFF745F8FFF78F
:1094BC00A9F91A4B1868FFF7F9F823682BB9FEF7CE
:1094CC0001FBFAE7FFF7C6FBE2E7FFF703FE03B089
:1094DC00BDE8F040FFF79EB9942B002048320020E5
:1094EC00D6C80200283A00207A2B0020E1C80200DE
:1094FC00752B00202C3B0020303B00201C39002019
:10950C009A99193F0000C040000020413BC702005F
:10951C00A42B0020443B0020F82A0020702B0020B4
:10952C0010B5FEF76DFE08B1FDF78CFBFFF7FEFBE7
:10953C00FFF706FCFFF732FCFDF746FCFFF70AF9D4
:10954C002148FFF773FE0024204B20461C60FFF7D8
:10955C009DFC1F4B1B78032B2ED8DFE803F0020A6F
:10956C0012211C4800F032F901F016FCFEF7AAFAA1
:10957C00FCE7194800F02AF9184B1C70FFF720FF84
:10958C00FCE7174800F022F9164B1A68164B1B68BB
:10959C001343124B14BF012200221A70FFF7A6FDD1
:1095AC00124800F013F90F4B18680F4B1B68184347
:1095BC0018BF0120FFF7ECFD064800F007F901F099
:1095CC00EBFBFEF77FFAFCE7C0D401009C2B0020DC
:1095DC003D32002002C902000CC90200273A0020CB
:1095EC001EC90200702B0020942B00203DC90200E4
:1095FC00064B1A68064B02F164011960054B9A8000
:10960C00054A59801268DA80704700BFF42A00209E
:10961C00443200203C2B0020403200200369C168FA
:10962C008B429DBF8268D21802F1FF3203F1FF33E7
:10963C0094BF501A581A70472DE9F843D0E9029498
:10964C000546A9EB04084068904520440F46144495
:10965C0004D901F0D2FFEC60BDE8F8834246A4EBDC
:10966C00090401F0CAFF6868224607EB0801F0E71D
:10967C002DE9F843C5680646894617464FF00008A1
:10968C003469B3687068A54228BFE418013C621BBA
:10969C005C1BBC4228BF3C46944228BF144649463A
:1096AC002844224601F0A9FFB3682544AB4208BF09
:1096BC0000253F1BA044A144F560E1D14046BDE824
:1096CC00F883000010B5114C114AA2610223C4E9C1
:1096DC000433104BE361A2644FF400730E4A0F493C
:1096EC002362E26400231022E01DA3626362E36242
:1096FC00A3656365E365226501F0DBFF084920463D
:10970C0001F0D7FF2023A37110BD00BF4C3B0020FC
:10971C0076C90200D43B0020C43B00207FC9020064
:10972C0083C90200F8B5184C182300FB033503FB62
:10973C0000402544C46A012C0F4616460FD0022C5B
:10974C001AD0F4B92846FFF769FF864205D832468D
:10975C0039462846FFF770FF34462046F8BD2846A8
:10976C00FFF75CFF8642344628BF04462246394642
:10977C002846FFF761FFF0E72846BDE8F840FFF701
:10978C0077BF0024E9E700BF4C3B002073B50E4BBC
:10979C001B7804460D4616460BB9FFF793FF0023C2
:1097AC000DF107008DF80730FDF744FC32462946D1
:1097BC002046FFF7B7FF04469DF80700FDF75EFC57
:1097CC00204602B070BD00BF4C3B00200FB410B55A
:1097DC00A2B024AB802153F8042B019302A801F012
:1097EC00FEFE802804460ADD802202A90020FFF735
:1097FC00CDFF204622B0BDE8104004B070470028D1
:10980C00F7DD0246F1E76DDF704779DF70477DDFEA
:10981C00704764DF70472DE9F04F85B000250E9C32
:10982C00BDF83CB0B4F800A00191074690461E4626
:10983C00A9463A884A450DDC45B12388013BA3EB88
:10984C000A039BB2FF2B3AD806F80A30002005B069
:10985C00BDE8F08F7A6852F82900039000220DF1D0
:10986C000B0103A8FFF7D5FF0028F0D19DF80B20C2
:10987C00424521D12288002D14BF0020022002EB8A
:10988C000801014459451ADC3DB9013292B2019BE1
:10989C002280B35422880132228022880DF10B01E0
:1098AC00324403A8FFF7B5FF0028D0D121889DF8DA
:1098BC000B200A442280012509F10109B9E70C208B
:1098CC00C5E72DE9F341089FBDF824801546CDE985
:1098DC000078022204461E46FFF79DFF50B933461E
:1098EC00102229462046CDE9087802B0BDE8F041A7
:1098FC00FFF791BF02B0BDE8F0812DE9F04F0023D6
:10990C001788138090F82D3085B006460D46144606
:10991C0053B3082F01D80C2027E102A8FFF773FFDF
:10992C00002840F0228123880822EA54238801333E
:10993C009BB21B222380EA542088013080B2208005
:10994C0006220DF10901284401F057FE23889DF8E9
:10995C00082006339BB212F0FE0218BF01222380AE
:10996C00EA54238801332380B378FBB12388043372
:10997C00BB42D0D802A8FFF748FF002840F0F58082
:10998C0023880322EA54238801339BB219222380B3
:10999C00EA542388BDF8082001339BB2E9182380D0
:1099AC00EA54120A4A70238802332380F2789AB15F
:1099BC002388D91CB942AED80221E954238801333B
:1099CC009BB201212380E95423880B449BB2238052
:1099DC00EA5423880B4423807268AAB12388D91CCB
:1099EC00B94298D8022192F90020E9542388013316
:1099FC009BB20A212380E954238801339BB2238034
:109A0C00EA542388013323803389002B40F0A18052
:109A1C00338A5BB1CDE900472B460722032106F1BF
:109A2C001000FFF74EFF002840F09F80338B5BB196
:109A3C00CDE900472B461522142106F11800FFF73B
:109A4C0040FF002840F09180326A002A40F090805C
:109A5C00D6F82480B8F1000F30D0B8F80430218843
:109A6C00981C8A1C0244BA423FF655AFFE283FF6BA
:109A7C0052AF03336B54238801339BB2FF222380F4
:109A8C00EA54238801339BB22380B8F80020EA54AF
:109A9C00E918120A4A702088023080B22080B8F887
:109AAC0004205AB1D8F8081000296BD0284401F0D2
:109ABC00A4FD2388B8F804201344238096F82C3096
:109ACC00002B40F09A80307800284ED03388012B40
:109ADC0058D0228802F1020CBC453FF61CAF01287D
:109AEC0005D17378023313449F42FFF414AF023F45
:109AFC00BF1ABFB202A905EB0C00ADF80870FFF756
:109B0C0086FE90BB3178BDF80830022900F0BA808F
:109B1C0072789A4202D3BB4240F2B280012940F0E3
:109B2C00B380974293B2C0F0AF80ADF808300821F3
:109B3C00BDF80830FE2B3FF6EEAE22880133AB5455
:109B4C002288013292B22280A954228813442380A5
:109B5C000BE0CDE900472B460622022106F1080056
:109B6C00FFF7AFFE00283FF453AF05B0BDE8F08F10
:109B7C00B4F800C00CF10603BB423FF6CCAE118822
:109B8C00052901D80720F0E76FF4486E01EB0E03AE
:109B9C009BB24FF27D3E7345F4D95388052BF1D916
:109BAC006FF44860181880B27045EBD94FF6FF700F
:109BBC00814203D0834201D09942E3D8052305F8B2
:109BCC000C30238801339BB212212380E954238863
:109BDC0001339BB223801188E954E818090A4170BB
:109BEC00238802339BB223805288EA54E918120A64
:109BFC004A702388023323802AE7B36A002BC1D032
:109C0C004FF000094FF00C0A4FF0160B96F82C3061
:109C1C005FFA89F293427FF656AFB16A0AFB02F201
:109C2C0001EB0208B8F80430981CFE283FF673AE1E
:109C3C00208803332B54238801339BB2238005F8EF
:109C4C0003B0238801339BB223808A5AEA54E91863
:109C5C00120A4A702088023080B22080B8F80420A2
:109C6C005AB1D8F8081000298CD0284401F0C5FC52
:109C7C002388B8F804201344238009F10109C5E7AF
:109C8C00092155E7BB42FBD9ADF808704FE770B519
:109C9C00E8B14AB116880024B44203D305196D7893
:109CAC009D4208D0A14201D8002010E0055D01358D
:109CBC002C44A4B2F0E7A142F6D9005D0138A31CF4
:109CCC0080B29DB210FA83F38B42EDDC158070BD2F
:109CDC0013B513460022ADF806200DF1060204461A
:109CEC00FFF7D5FF10B1BDF80600204402B010BD3F
:109CFC0072DF704773DF704738B5012204460D469A
:109D0C00B0F81414D0F81004FFF7E2FF00B105709E
:109D1C0004F13C0204F5826104F15400BDE83840C2
:109D2C00FFF7E6BF80F830107047F8B504460F46D1
:109D3C00002975D0002873D091F87A301BB191F8B6
:109D4C009830002B6ED1D7F8A030042B6AD0D7F8FE
:109D5C009C30042B66D04FF0000C84F802C007F145
:109D6C0078060FCE251D0FC50FCE0FC596E8070040
:109D7C0085E8070084F830C0D7F8A4306363D7F8BF
:109D8C00A830A3634FF6FF7504F58263C4F8203442
:109D9C00A4F824540722614604F2264001F056FC34
:109DAC0023780BB984F8545094F82430002B14BF4A
:109DBC00EE231F2304F15501C4F81014A4F8143435
:109DCC0004F214423846FFF798FD40BB94F8243057
:109DDC00002B14BFEE231F2304F23121C4F81814F6
:109DEC00A4F81C3404F21C4207F13C00FFF785FD7B
:109DFC00A8B9A369A4F848304FF480730125A4F8DE
:109E0C00503063692064014684F83C50636404F16B
:109E1C003C0204F15400FFF76BFF00B92570F8BD4C
:109E2C000E20FCE70720FAE7F8B5077804460D4644
:109E3C00002F00F0038100F22646817007220021DA
:109E4C00304601F003FCE38813B1A378012B04D056
:109E5C00E3794BB1A378022B06D1636BA3B101223A
:109E6C0084F82D2408209847334604F22C4113F82B
:109E7C00012F12B99942FAD117466B1E032B51D8F8
:109E8C00DFE803F0050B0F1284F82D34ECE7A3790F
:109E9C001BB194F8243003B95FB9E3790BB1002FEF
:109EAC0042D1237A002B41D1637A002B0CBF0025C1
:109EBC000425636BA570002B3AD0033D012D37D8D8
:109ECC006279AAB394F82E2492BB84F83024012230
:109EDC0084F82F240720984704F13C051822002110
:109EEC00284601F0B3FBE26A531E0121022B28BF66
:109EFC000A4684F8512094F8242084F83C1032B19E
:109F0C00A36A581E022828BF0B4684F85230A17849
:109F1C00002384F8503004291BD8DFE801F0770DBA
:109F2C00223559000025C4E70225C2E70325C0E706
:109F3C00002384F82F34CFE7C4E91063C4F820342D
:109F4C000223012284F83C30802384F83120A4F8C9
:109F5C004830A378002B5CD1636B002B6AD10020B6
:109F6C0067E00223002A84F8313014BF072303234F
:109F7C0084F83C302369A4F848300023C4F820341A
:109F8C00E36826646364E4E763696364A369A4F823
:109F9C00483012B1062384F83C306379B3B194F89D
:109FAC002E349BB994F8303483B1022384F85030AA
:109FBC0004212046FFF7A0FE0028CAD1052384F80F
:109FCC00313004F58263C4F82034C2E70323F6E78A
:109FDC00E3696364236AA4F8483012B1062384F859
:109FEC003C30637983B194F82E346BB994F83034E7
:109FFC0053B1022384F8503004212046FFF77CFE35
:10A00C000028A6D10623DAE70423D8E784F83130F8
:10A01C009FE7D4F820142A4604F15400FFF768FE99
:10A02C0038B994F8301094F85400FFF763FE002808
:10A03C0092D0F8BD94F83100984790E70820F8E7E3
:10A04C000388112B10B50C460AD0262B1FD0102BD1
:10A05C0005D1C37B012B02D18388A1F8243410BD18
:10A06C000022838881F82E24B1F824249A42F6D158
:10A07C000B79002BF3D101212046FFF7D5FE0028E8
:10A08C00EDD0A36B002BEAD0BDE810401847037A43
:10A09C00013B012BE3D8897805230131B1FBF3F3A4
:10A0AC0003EB8303C91AC9B2E6E775DF704776DFA5
:10A0BC0070477ADF70477BDF70470000034B1A88CC
:10A0CC0082420CBF18460020704700BFF03D0020B4
:10A0DC00024B9B6903B11847704700BFD43D002069
:10A0EC0073B585B22846FFF7E9FF044670B1164EEA
:10A0FC00027A337B9A420BD200F10A012846FFF711
:10A10C00D4FFE8B1112801D0FFF7E2FF02B070BD17
:10A11C0000230372337C43B13B212846FFF7C7FF72
:10A12C0030F0080301D0FFF7D3FF7369002BEDD09B
:10A13C0000228DF80420ADF8065001A89847E5E7F9
:10A14C00237A01332372E1E7D43D002013B50B468B
:10A15C00497A02460E4869B9D0E901101C7A002CE4
:10A16C0018BF01465868FCF76CFE08B1FFF7B0FF4A
:10A17C0002B010BD002119724369002BF8D00121E7
:10A18C008DF80410ADF8062001A89847F0E700BF41
:10A19C00D43D00204B8802889A4213D842889A42B8
:10A1AC0010D380888A8840F2F313984294BF031A24
:10A1BC00C31A934206D800F2F310904234BF002029
:10A1CC0001207047002070470388122B70B50146A0
:10A1DC0059D004D8102B1ED0112B44D070BD502B4D
:10A1EC00FCD12F4BC288DB899A42F7D1038A022B10
:10A1FC00F4D186883046FFF761FF05460028EDD084
:10A20C0001F1120000F079F938BB6868FCF731FEF7
:10A21C000028E3D009E0C37B012BDFD14FF6FF70A0
:10A22C00FFF74CFF054620B90420BDE87040FFF74E
:10A23C004FBF1C4A8E880680002303721368C0F837
:10A24C000A305368C0F80E3010310A30FFF7A2FF05
:10A25C00134B6872DB89002BC0D129463046BDE810
:10A26C007040FFF773BF8088FFF728FF0446002873
:10A27C00B4D04068FCF7FDFD08B1FFF729FF4FF69D
:10A28C00FF732380AAE786883046FFF717FF054641
:10A29C000028A3D008310A30FFF77CFF6872DCE796
:10A2AC00D43D0020043E0020F8B5064648B30546D0
:10A2BC000FCD154F3C460FC495E8070084E8070006
:10A2CC003068124C3C60B0B1FFF7F3FEC0B9326895
:10A2DC0013682360536863600D480E4A4FF6FF7392
:10A2EC0003800D4B40F8043F0021FCF79FFD002834
:10A2FC0018BF032004E02046FFF7DDFE0028EBD05A
:10A30C00F8BD0E20FCE700BFD43D0020043E002029
:10A31C00F03D0020EDA00200103E00200AB1FDF738
:10A32C0089B8FDF790B873B50191019C06466CB1E4
:10A33C0000252C46294601A8FDF78FF818B106EB2D
:10A34C00440301349D800135142DF3D13046346023
:10A35C0002B070BD2DE9F04703888488103B8CB0A7
:10A36C0005460A2B1FD8DFE803F0063F1E1E1E1EF3
:10A37C001E1E1E604400314EB368DB4300937168AF
:10A38C006846FDF796F8009901A8FFF7CCFF0DF190
:10A39C0008094FF00008019B984507D3132C13D9DB
:10A3AC000420FCF74FFC0CB0BDE8F08739F802AB89
:10A3BC0000270137514606EB8700FDF744F81E2FA6
:10A3CC00F7D108F10108E6E71D482146FDF732F800
:10A3DC001C482146FDF72EF8EB7B012BE3D01A48E5
:10A3EC002146FDF727F8DEE715482146FDF72BF847
:10A3FC00D9E7027A15483F2A4FEA1215214694BF35
:10A40C0000220122FFF78AFF022D94BF00220122B5
:10A41C000F482146FFF782FF012D0E4894BF002202
:10A42C0001222146FFF77AFFBDE7037A002BBAD150
:10A43C00427A0648C2F3C0022146F3E7303E0020C0
:10A44C00383E0020343E00203C3E0020483E002098
:10A45C00443E0020403E00201328014602D802480A
:10A46C00FCF7FBBF00207047343E002010B50446BB
:10A47C00FFF7F2FF002814BF2046142010BD70B562
:10A48C000546164608460AB90E2070BD0023136017
:10A49C00002DF9D02B68002BF6D0EB8813F00304B9
:10A4AC000ED1FFF7E3FFC0B214280BD02B798342F7
:10A4BC000AD9EB882A6800FB032030602046E4E7C9
:10A4CC000720E2E70520E0E70420DEE7AADF70477B
:10A4DC00002301380B70042806D8DFE800F00306CF
:10A4EC00080A0C0011230B7070472123FBE7312362
:10A4FC00F9E71223F7E72223F5E7007800F00100D3
:10A50C007047F0B58B7891B0012B0C4638BF012306
:10A51C008DF80E3005460B88ADF80C300021164630
:10A52C006846032201F092F8607C6946FFF7D0FF81
:10A53C00A07C0DF10101FFF7CBFFE27B237B217D9A
:10A54C0043EAC203227C43EA02139DF8022000294D
:10A55C0022F0190203F0190314BF02210121134345
:10A56C0061F342031C22002109A88DF8023001F08E
:10A57C006DF8637B13F0300F15D002AF032200216E
:10A58C00384601F063F8E07C0DF10901FFF7A0FFFC
:10A59C0011238DF808309DF80A300E97012262F3D2
:10A5AC0042038DF80A30637B8DF824301422A37B90
:10A5BC008DF82530002104A801F048F803AB049372
:10A5CC00A388ADF81C30A368CDF814D01BB1E28879
:10A5DC00ADF818200893A369002B31D001AF0322EA
:10A5EC000021384601F032F8A3691A88ADF82C2006
:10A5FC005A88ADF82E205A680D97187B0A92394666
:10A60C00FFF766FFA3690DF10501587BFFF760FFAB
:10A61C00A269917A137A43EAC103D17A927B43EA15
:10A62C0001139DF80610002A03F0190321F01901FB
:10A63C0014BF022201220B4362F342038DF8063051
:10A64C00E36903B10C93334604AA09A92846FFF722
:10A65C003DFF11B0F0BD90DF7047A5DF7047B5DF4F
:10A66C00704700007FB50023ADF80810ADF80A1054
:10A67C006A4602A9064603930093ADF80430FFF72F
:10A68C00EAFF054600B3124B124CE41AE408FDF73E
:10A69C007FFA240444F0010403460F493246204655
:10A6AC00FCF795F9BDF80020BDF8023052EA030121
:10A6BC0003D00A492046FCF78AF9BDF804201AB1E8
:10A6CC0007492046FCF77AF9284604B070BD00BF54
:10A6DC0048BE020098BE02008AC90200D4C902001A
:10A6EC0013CA020080B14FF0F7130360FB23037110
:10A6FC00F723C3801723038141F6FB32002301614A
:10A70C0043818281184670470E20704730B1A1F109
:10A71C001703E02B04D80180002070470E207047EF
:10A72C000720704713B5034680880C46B8B91A88C1
:10A73C00242A00F0968014D8112A71D0232A00F014
:10A74C009E80102A3BD0A37A4BB1E1880020FFF702
:10A75C0084FF002840F099804FF48073638102B02D
:10A76C0010BD3A2A65D0552AEDD1DB88C988A07274
:10A77C00172B38BF17238B4228BF0B462381FFF7BB
:10A78C006EFF60B1FDF704FA484B4949024649484F
:10A79C001B1ADB081B0443F00100FCF70FF9E37AEA
:10A7AC00002BD0D12369002BCDD040F6772200921C
:10A7BC002289ADF80420694620469847C3E7DB7B25
:10A7CC000A790A73012B13D0022B14D0E188238948
:10A7DC008B4205D20020FFF740FF70B90123E372D2
:10A7EC00217B637B8B42AED20020FFF73BFFAAE7B5
:10A7FC000B88E380EAE74B88FBE7112802D10123A1
:10A80C00A372EDE7FDF7C4F9284B2B490246294802
:10A81C001B1ADB081B0443F00100FCF7CFF8DFE741
:10A82C00F723CB8017230B8141F6FB3348818B81B7
:10A83C0089E75B89CA88934228BF1346172B0A699C
:10A84C0038BF17230B814AB1C97A39B140F6772149
:10A85C000091ADF80430694620469047002363818F
:10A86C0071E71A7A0B694A73002B3FF46CAF4DF603
:10A87C007A218DF8050000918DF804209BE7197A58
:10A88C00237B994228BF1946AFE711283FF467AFE5
:10A89C00FDF77EF9054B0849024606481B1ADB08F2
:10A8AC001B0443F00100FCF789F858E798BE02003E
:10A8BC009ACA020048BE020069CA0200B0DF7047A3
:10A8CC0066DF704710B5002104464088FFF7F8FF9B
:10A8DC00034608B9237210BD112801D10123F9E7F1
:10A8EC006368BDE81040184760B159B10378DE2B9E
:10A8FC000AD00B684360DE2303704FF6FF7343806E
:10A90C00002070470E2070470820704728B103784C
:10A91C00DE2B04D14180002070470E2070470820A8
:10A92C007047F0B5054685B00C46F1B1E8B10B782F
:10A93C00DE2B1AD182884B889A4204D10B7A13B140
:10A94C000846FFF7BFFF2B88112B32D0512B0ED0AE
:10A95C00012B0AD12B7A012B07D1A988628891424D
:10A96C0003D123722046FFF7ADFF05B0F0BDAE88D2
:10A97C006388B342F9D1AF79022FF6D1AD7B2B1F8F
:10A98C00022BF2D800211022684600F05FFE052D44
:10A99C0014BF4FF4C0730023694630468DF8007025
:10A9AC00ADF80430FFF78AFF0028DED063689847C3
:10A9BC00DBE76388AA889A4204BF4FF6FF73638073
:10A9CC00D3E7A8DF7047ADDF7047AEDF704762DFBB
:10A9DC00704770B505468AB00C46002962D0002835
:10A9EC0060D00388502B37D0572B72D0102B59D1F5
:10A9FC0081886069002601AA0196FFF740FD0822B4
:10AA0C0031460DEB020000F021FE02232189A888BB
:10AA1C00CDF80CD002AA0293FFF7D5FF002841D144
:10AA2C00A369002B3ED00398FFF767FD002839D0AF
:10AA3C00019B0BB101221A701822002104A800F00E
:10AA4C0005FE02238DF81030AB88ADF81830019B51
:10AA5C0005940793A36923E08188606902AAFFF734
:10AA6C000EFD1822002104A800F0F0FDAB8821890E
:10AA7C00ADF81830EB88029A05949942079218D1D8
:10AA8C002E8A022E15D16AB105F11200FFF735FDA1
:10AA9C00029B48B101221A708DF81060A3690BB1AA
:10AAAC0004A898470AB070BD187003238DF81030B5
:10AABC00F4E7A2899A42F5D1A369002BF2D00022C7
:10AACC008DF8102005F1120208922A8AADF8242084
:10AADC00E6E78188606902AAFFF7D1FC01460028ED
:10AAEC00E0D1029B1B78002BDCD0182204A800F0CC
:10AAFC00ADFD01238DF81030AB88ADF818300594FE
:10AB0C00029BA6E7F0B53A4B8FB002AD04460A465D
:10AB1C0003F1100C2F46186859682E4603C60833EB
:10AB2C0063453546F7D1002C5FD0002A5DD0136801
:10AB3C00A36121463846FFF74AFF002853D122462D
:10AB4C00012512F8023B8DF8063001A92846ADF814
:10AB5C000450FFF736FF002845D10146202206A8F5
:10AB6C0000F074FD22460223ADF8183012F80C3BAD
:10AB7C008DF81A30BDF824301E4E6088079623F4E9
:10AB8C004F6323F00F0343F440632B4306A9ADF846
:10AB9C0024308DF829508DF82A50FFF7B2FC10BBE9
:10ABAC000146202206A800F051FD22460323ADF8F1
:10ABBC00183012F8043B8DF81A30BDF82430608838
:10ABCC00079623F4875323F01F0343F480532B433E
:10ABDC00ADF8243006A940F201138DF82950ADF8D8
:10ABEC002A30FFF78EFC0FB0F0BD0E20FBE700BF44
:10ABFC00DECA0200F4000100F0B50F4687B016461D
:10AC0C001C46054618B3406901AA1946FFF737FCE4
:10AC1C00D8B94FF6FF739C421BD0019BCBB11B786C
:10AC2C00CBB13388F42B18D80146102202A800F0BF
:10AC3C000DFDAB88ADF8083002A901232046CDE903
:10AC4C0004678DF80A30FFF7C0FE07B0F0BD0E2088
:10AC5C00FBE70520F9E70820F7E70720F5E710DF09
:10AC6C00704711DF7047000013B504460949684668
:10AC7C00FCF734FF019808B902B010BDD0E90031DF
:10AC8C002046984718B16846FCF732FFF2E71120CE
:10AC9C00F2E700BFFCCA020013B504460749684638
:10ACAC00FCF71CFF019B0BB902B010BD2046D3E989
:10ACBC00002190476846FCF71BFFF3E714CB02001A
:10ACCC00064B9A6822B11A6822F480021A60704707
:10ACDC00034B4FF48002C3F8802070477C31002076
:10ACEC0000E100E00B4991F816335A09EC231341AB
:10ACFC00DB0706D5084B9A683AB94FF480030B6012
:10AD0C00704742F20200FBF79DBF1A6842F48002C2
:10AD1C001A60704700E100E07C310020F7B5194F54
:10AD2C003C7864BB184E012520463570FFF79CFF1C
:10AD3C00112821D02046FFF7AFFF144B8DF80340AC
:10AD4C00186801900DF10300FCF774F9104901A883
:10AD5C00FFF785FF0446B0FA80F0400938709DF883
:10AD6C000300FCF78BF93CB90A4B34701C70FFF7ED
:10AD7C00B9FF2846FFF790FF204603B0F0BD08242A
:10AD8C00FAE700BFAD3E0020AC3E0020F6CA020040
:10AD9C006D6C0200AE3E0020F7B5154F3B781BB32F
:10ADAC00144E01203070FFF75FFF11284FF00005A3
:10ADBC001CD00220FFF770FF0DF107008DF8075033
:10ADCC00FCF738F9FFF74DFF04469DF807003D707E
:10ADDC00FCF754F92CB93470FFF772FF0320FFF71E
:10ADEC005BFF204603B0F0BD0824FAE72C46F8E7D9
:10ADFC00AD3E0020AC3E0020014B1878704700BFE0
:10AE0C00AD3E002007B508496846FCF767FE019B7C
:10AE1C0013B903B05DF804FBD3E9002090476846F2
:10AE2C00FCF766FEF3E700BF08CB0200FFF7EABFB2
:10AE3C0060DF704769DF704761DF704730B5114DD7
:10AE4C00ADF5017D4FF4FA740DF1020103A8ADF8D4
:10AE5C000240FFF7F1FF70B9294601A8FCF73EFE4E
:10AE6C00029B002BF0D003A8D3E90021904701A846
:10AE7C00FCF73EFEF4E7052801D0FBF7E3FE0DF5E9
:10AE8C00017D30BD9CCD0200024B1B780BB1FFF74E
:10AE9C00D5BF7047AF3E002030B5054685B00C4697
:10AEAC00002900F0B5805B4B0B600C22002101A83F
:10AEBC0000F0CCFB01238DF8063022688DF804508D
:10AECC00062301A92020ADF80830FFF7B3FF60B1CD
:10AEDC00FCF75EFE504B5149024651481B1ADB08E9
:10AEEC001B0443F00100FBF769FD0C22002101A8B3
:10AEFC0000F0ACFB01238DF805302268002301A97A
:10AF0C004020ADF80630FFF795FF60B1FCF740FE2E
:10AF1C00414B4449024642481B1ADB081B0443F0D0
:10AF2C000100FBF74BFD0C22002101A800F08EFB69
:10AF3C00F72322688DF8045001A92320ADF80630C0
:10AF4C00FFF778FF60B1FCF723FE334B364902461E
:10AF5C0033481B1ADB081B0443F00100FBF72EFDE2
:10AF6C000C22002101A800F071FB012022688DF851
:10AF7C00040001A9FFF75EFF60B1FCF709FE264B48
:10AF8C002A49024626481B1ADB081B0443F0010021
:10AF9C00FBF714FD0C22002101A800F057FB4FF425
:10AFAC00B0632268019301A9A120FFF743FF60B1B0
:10AFBC00FCF7EEFD184B1E49024619481B1ADB081C
:10AFCC001B0443F00100FBF7F9FC0C22002101A843
:10AFDC0000F03CFB9DF8043022686FF3000301A9DC
:10AFEC00A0208DF80430FFF725FF034668B1FCF76D
:10AFFC00CFFD094B0F49024609481B1ADB081B04FD
:10B00C0043F00100FBF7DAFC0023184605B030BD15
:10B01C000E23FAE7D82A0020A8BE020020CB02009B
:10B02C0048BE020066CB0200B2CB0200F9CB020094
:10B03C0045CC020096CC0200F8B506460768FFF72F
:10B04C00F7FE3368BB4205461DD91948194C1A49FD
:10B05C00241AE408240444F002042046FBF7AAFC5A
:10B06C00336816493A462046FBF7B1FC4FF0805343
:10B07C003268D3F80C3112499B0203F100539A1A2F
:10B08C002046FBF79BFC25B90E4B01221A70284673
:10B09C00F8BD2846FCF77CFD064B0B4902460448DC
:10B0AC001B1ADB081B0443F00100FBF787FCEEE7DF
:10B0BC0048BE0200A8BE0200E9CC020018CD020076
:10B0CC0049CD0200AF3E002073CD02004BDF70472C
:10B0DC001FB50D4C01A8FFF7F9FF70B9214602A866
:10B0EC00FCF7FCFC039B002BF4D00198D3E9002166
:10B0FC00904702A8FCF7FCFCF4E7052801D0FBF70D
:10B10C00A1FD04B010BD00BFB4CD02004FF07F4CC8
:10B11C0090EA010F3ED4431A3CBFC01AC918BCEBCD
:10B12C00400F78D91CEA410F2BD0C20DB2EBD15392
:10B13C00182BC8BF70474FF0004C4CEA00204CEA6B
:10B14C000121C3F1200C01FA0CFC31FA03F1401877
:10B15C0032BF013A5FEA300040F001005CEA406C1B
:10B16C0004BF10F4807F20F08000000A40EBC25036
:10B17C004FF0807111EB400F38BF7047C00DC00508
:10B18C0070471CEA400F08BF00F00040704700F009
:10B19C000040704781F00041431A3EBF83F00043EA
:10B1AC00C01AC918BCEB400F32D91CEA410F28D089
:10B1BC00C20DA2EBD1534FF0004C4CEA01214CEAEA
:10B1CC000020C3F1200C11FA0CFC21FA03F118BF7A
:10B1DC0041F00101401A09D417D0130AD2B2B0FAC7
:10B1EC0080F18840521A11DD02EB0322C0F31621C4
:10B1FC00400641EBC25038BF704708BF20F0010039
:10B20C0070471CEA400F08BF00207047D8077047F2
:10B21C00BCEB410F03D0BCEB400F08BF70474FF0A5
:10B22C00FE4040F4400070474FF0FF0C1CEAD05237
:10B23C001EBF1CEAD153FF2AFF2B28D01A444FF013
:10B24C00004C90EA010313EA0C034CEA01214CEA8E
:10B25C000020A0FB01C1B1F1004F62F17F0238BFA9
:10B26C0049004CEA416CFE2A09D253EA11204CEAFF
:10B27C00C07C28BFBCF1010340EBC25070471242A6
:10B28C0044BF18467047FF2043EAC050704710EA8D
:10B29C00CC5F08BF00F0004011EACC5F08BF01F0A2
:10B2AC0000410CEAD153FF2A18BFFF2B03D04840B2
:10B2BC0000F00040704700281EBFB0F1004F00297D
:10B2CC00B1F1004F11D0FF2A02D15FEA402C0CD112
:10B2DC00FF2B02D15FEA412C07D1484000F000401F
:10B2EC0040F0FE4040F4000070474FF0FE4040F448
:10B2FC0040007047C10DD1F19E0105DB000240F00A
:10B30C00004020FA01F070474000404038BF01383F
:10B31C00704700BF10F0004118BF4042B0FA80F2F5
:10B32C0010FA02F30DD0D2F19D0241EAC25101EBA9
:10B33C0013205A0638BF704700F1010008BF20F0F7
:10B34C0001007047B0FA80F110FA01F30DD0D1F181
:10B35C009D01C90501EB13205B0638BF704700F156
:10B36C00010018BF704720F001007047C0F3C751AF
:10B37C0091B142004FEA40704FEAD2014FEA3101DD
:10B38C0001F16051B2F17F4F38BF704701F160514C
:10B39C0018BF41F40021704710F0004100207047A5
:10B3AC0053EA020C61D02DE9F04BB3FA83F51E0081
:10B3BC0007BFB2FA82F502FA05F403FA05F4164651
:10B3CC00C5F120051EBF22FA05F73C43203556EA8D
:10B3DC00044C4FEA144418BF0134A3464FF0000943
:10B3EC00C846904271EB030C39D3094207BFB0FA3F
:10B3FC0080F700FA07F6B1FA81F701FA07F6C7F100
:10B40C0020071EBF20FA07FC46EA0C062037B6FBC5
:10B41C00FBFC7F1B103F07F01F04C4F120060CFA45
:10B42C0004F42CFA06F644BF34460026202FA4BFA1
:10B43C002646002454EA060C08BF012418EB040825
:10B44C0049EB0609A4FB027CC01B06FB02CC04FBE7
:10B45C0003CC71EB0C01904271EB030CC5D20B4683
:10B46C00024649464046BDE8F08BB2FBF3F20000C1
:10B47C007F2805D8034B185C034B5B5C1840704766
:10B48C0000207047CCCD02004CCE0200A0F161032D
:10B49C00192B98BF20387047A0F14103192B98BF86
:10B4AC00203070477F2805D8034B185C034B5B5C3E
:10B4BC001840704700207047CCCD02004CCE0200E3
:10B4CC00A0F16103192B98BF20387047A0F14103FC
:10B4DC00192B98BF203070477F299ABF017001202B
:10B4EC006FF02E0070475AB10A787F2A0AD800B143
:10B4FC000260002119605960501A18BF0120704772
:10B50C00002070476FF02E00704738B5044608468F
:10B51C00A26842B1236861685D1C8D4208BF00209F
:10B52C008B4208D2D054E3682BB1216862689142F7
:10B53C0001D22146984723680133236038BD70B58A
:10B54C004C1E09D41646C5B229463046FFF7DDFF1E
:10B55C00013CB4F1FF3FF7D170BD10F0100F08D1D2
:10B56C0008B510F4007F14BF30202020FFF7E7FF50
:10B57C0008BD704708B5034B5B689B681B68984710
:10B58C0008BD00BFA82B002008B50921FFF7F2FF6A
:10B59C0008BD0EB400B586B007AA52F8041B05927C
:10B5AC000390002304936FF00043029301A800F072
:10B5BC00D3F806B05DF804EB03B07047037853B1D1
:10B5CC0059B10144034613F8012F12B18B42FAD141
:10B5DC000B46181A70470346FBE70346F9E710B50C
:10B5EC0084B00C46114602900022039201941A4634
:10B5FC00684600F0B1F804B010BD844640EA01037F
:10B60C0013F0030F18D18446202A0BD32DE9F00731
:10B61C00B1E8F807A0E8F807A2F12002202AF7D237
:10B62C00BDE8F007042A07D351F8043B40F8043B6B
:10B63C00A2F10402042AF7D2002A05D011F8013B2A
:10B64C0000F8013B013AF9D1604670478446002A64
:10B65C002DD010F0030F04D000F8011B013A26D0B6
:10B66C00F7E7C9B241EA012141EA0141202A12D38C
:10B67C00A2F120022DE9F0030B460C460D460E46B6
:10B68C000F4688468946A0E8FA03203AFBD2BDE86B
:10B69C00F00320320BD0042A05D340F8041B043AE3
:10B6AC0005D0042AF9D200F8011B013AFBD16046FF
:10B6BC007047024610F0030F16D111F0030F13D18F
:10B6CC002DE9F0004FF001374FF0803351F8044B67
:10B6DC00A4EB070525EA04051D4002D142F8044BF2
:10B6EC00F4E7A1F10401F0BC11F8013B02F8013BB5
:10B6FC00002BF9D1704700F1010110F0030F11D0AC
:10B70C0010F8012B002A23D010F0030F0AD010F8E8
:10B71C00012B002A1CD010F0030F03D010F8012BC2
:10B72C00002A15D02DE970004FF001324FF0803314
:10B73C0050F8044BA4EB020525EA04051D4000D18A
:10B74C00F6E7A0F1040070BC10F8012B002AFBD125
:10B75C00A0EB0100704700002DE9F04F89B00746BF
:10B76C000392002303600C4614F8011B002900F01F
:10B77C000F83DFF814B5FBE2002507E05E2868D1E3
:10B78C0045F4805501E045F040051C46234613F86E
:10B79C00010B3028F2D81F2837D9A0F12002102A2B
:10B7AC0033D801A151F822F093B7020017B8020068
:10B7BC0017B80200F9B7020017B8020017B8020058
:10B7CC0017B80200FFB7020017B8020017B8020042
:10B7DC0017B8020005B8020017B802000BB8020037
:10B7EC0017B8020017B8020011B8020045F0800526
:10B7FC00CBE745F40045C8E745F02005C5E745F023
:10B80C001005C2E745F40075BFE72A2821D1039A39
:10B81C00111D0391D2F800A0BAF1000FBCBFCAF100
:10B82C00000A45F010051878A31C2AEAEA7A2E289B
:10B83C0026D00021742847D07A2845D06C2800F0F7
:10B84C00A8804C2800F0AB80682800F0B8801C461B
:10B85C003DE0A0F13002D2B2092A88BF4FF0000AB5
:10B86C00E3D84FF0000A0AEB8A0A303800EB4A0A98
:10B87C0013F8010BA0F13002D2B2092AF3D9D4E7A4
:10B88C0018782A280AD1039A111D03911168587847
:10B89C0002330029CEDB45F48075CBE70133A0F1F0
:10B8AC003002D2B2092A88BF0021F4D8002101EB62
:10B8BC008101303800EB410113F8010BA0F130028B
:10B8CC00D2B2092AF3D9E4E71C4614F8010B00287C
:10B8DC0000F06A82A0F12503DBB2532B62D8A0F1F1
:10B8EC002503532B5ED8DFE813F076005D005D0076
:10B8FC005D005D005D005D005D005D005D005D0054
:10B90C005D005D005D005D005D005D005D005D0043
:10B91C005D005D005D005D005D005D005D005D0033
:10B92C005D005D005D005D005D005D005D005D0023
:10B93C005D005D005D005D005D005D005D005D0013
:10B94C005D005D005D005D005D005D005D005D0003
:10B95C00EB005D005D005D005D005D005D005D0065
:10B96C005D005D005D007B0020015D005D005D0001
:10B97C005D0020015D005D005D005D0095000E0125
:10B98C00D1005D005D00A6005D0019015D005D0049
:10B99C00ED001C4614F8010B45F0010597E745F046
:10B9AC0001051C46B44B1E68002E00F0DE8103AB73
:10B9BC000193009153462A463946B047D5E1187891
:10B9CC00682803D05C1C45F0040580E745F00805A9
:10B9DC009C1C58787BE725213846FFF796FDC4E17F
:10B9EC00039B1A1D03921E780AF1FF3A3A46514600
:10B9FC002846FFF7B2FD31463846FFF786FDA946CB
:10BA0C0019F0100F00F0B1813A4651462020FFF793
:10BA1C0096FDAAE115F0080F06D03A68039B191D94
:10BA2C0003911B681A70A0E1039B1A1D03921B68FB
:10BA3C003A681A6099E1039B1A1D0392D3F80080AF
:10BA4C008E4BB8F1000F08BF9846464625F4007996
:10BA5C0015F4807F15D04046FFF7B0FD0546AAEBE4
:10BA6C00050A3A4651464846FFF777FD002DC7D0E8
:10BA7C00454416F8011B3846FFF747FDAE42F8D196
:10BA8C00BEE74046FFF737FE0546E8E7039B1A1D65
:10BA9C0003921B6815F0800F0CBF0026232645F47B
:10BAAC00807508211A46002B00F02C8105AB4FF055
:10BABC00000805F4005CA64660468C460146D1E0C1
:10BACC0045F4005515F0800F1BD043F2780643F275
