:020000022000DC
:10600000000001205D630200B9630200BB6302006F
:10601000BD630200BF630200C16302000000000014
:10602000000000000000000000000000C363020048
:10603000C563020000000000C7630200C9630200DC
:10604000A9750200CB6302004D780200B57802000A
:10605000BD850200CB630200D5760200CB6302004F
:10606000CB630200CB630200CB630200CB63020070
:10607000CB630200CB630200CB630200CB63020060
:10608000CB6302000D6D0200CB630200CB63020004
:10609000CB630200CB630200D5B70200CB630200E2
:1060A000CB630200CB630200CB630200CB63020030
:1060B000CB630200CB630200000000000000000080
:1060C000CB630200CB630200CB630200CB63020010
:1060D000CB630200CB630200CB6302000000000030
:1060E00000000000000000000000000000000000B0
:1060F00000000000000000000000000000000000A0
:10610000000000000000000000000000000000008F
:10611000000000000000000000000000000000007F
:10612000000000000000000000000000000000006F
:10613000000000000000000000000000000000005F
:10614000000000000000000000000000000000004F
:10615000000000000000000000000000000000003F
:10616000000000000000000000000000000000002F
:10617000000000000000000000000000000000001F
:10618000000000000000000000000000000000000F
:1061900000000000000000000000000000000000FF
:1061A00000000000000000000000000000000000EF
:1061B00000000000000000000000000000000000DF
:1061C00000000000000000000000000000000000CF
:1061D00000000000000000000000000000000000BF
:1061E00000000000000000000000000000000000AF
:1061F000000000000000000000000000000000009F
:10620000354936480A1A02D0072291438D4634494F
:1062100034480A1A06D00722914381F309880222E2
:1062200082F3148830483149314A00F044F831484B
:106230003149324A00F03FF831483249324A00F0E1
:106240003AF832483249334A00F035F83248334997
:10625000334A00F030F833483349344A00F02BF821
:1062600033483449344A00F026F83448344900228F
:1062700000F02CF833483449002200F027F8334866
:106280003349091A082902DB002202604160314AC1
:1062900090471F481F49884205D00268043003B464
:1062A000904703BCF7E700208646EC46002000211B
:1062B000294A9047FEE7884207D0521A05D0037852
:1062C00001300B700131013AF9D17047884202D098
:1062D00002700130FAE770470000012000E0002062
:1062E000000001200000012048E80200D82A002018
:1062F0008D2B0020D0630200D0630200F4DA02008C
:1063000048E80200D82A0020D82A002058DB0200E2
:1063100058DB02005CDB020058DB020058DB0200A5
:1063200058DB02005CDB02005CDB020048E8020094
:1063300000E90200902B0020902B0020902B0020E1
:106340003C4B00203C4B0020444B0020444B0020A1
:10635000446B002085630200719E020000F036B895
:106360000F484FF00701884385460E4880470E4886
:10637000016841F470010160BFF34F8FBFF36F8F6D
:10638000FFF73EBF09480A490A4A884207D0521A15
:1063900005D0037801300B700131013AF9D1704713
:1063A000000001201570020088ED00E058DB0200BB
:1063B000D82A0020D82A0020FEE7FEE7FEE7FEE705
:1063C000FEE7FEE7FEE7FEE7FEE7FEE7FFF7C8BFF2
:1063D00000487047344B00201FB50021039001AAEC
:1063E00044F20100CDE9011100F004F805B05DF8B8
:1063F00004FB000072B6094BD3F8F020D20700D599
:1064000000BEBFF34F8FD968054A01F4E0610A432B
:10641000DA60BFF34F8F00BFFDE700BF00ED00E083
:106420000400FA0549B152B1531E1A4007D18260E7
:1064300001608380C260104670470E2070470920BB
:10644000704710B58468C2688388121B934208D3D2
:10645000C26813400268D154C3680133C36000208E
:1064600010BD0420FCE78268C3689A420AD08268A3
:10647000838813400268D35C0B70836801338360A8
:106480000020704705207047C36883600020704774
:1064900010B5D0E90243D1E90202A04272EB030336
:1064A0002CBF0120002010BD08B50A4800F019FCDF
:1064B000094AD2E90031C018084BD3E9002341F161
:1064C0000001904271EB030303D210F1807041F19F
:1064D000000108BDD82A0020982B0020102C002095
:1064E00037B505460C460A4801A900F02CFC60B1FE
:1064F0000570446001A9064800F04FFC18B105483A
:1065000000F0F4FB002003B030BD0420FBE700BF27
:10651000FC2B0020D82A002038B5184B1B780446E5
:1065200013B90025284638BD0028FAD0037F03F0B0
:10653000FF05002BF5D0FFF7B7FFD4E90223904207
:1065400071EB030314D3236903B92377D4E905302E
:10655000984721690029E4D0237F03F0FF05002B31
:10656000DFD0D4E902325B1842F10002C4E9023202
:106570000348214600F0E6FCD4E700BFA02B002032
:1065800060DB020013B5114B114918680190082314
:106590001048582200F0C4FB044698B90E4A0F4830
:1065A00001A900F0A3FA044660B90C48012100F0EB
:1065B0007BFB01230A4A0948194600F0DDFA094B22
:1065C00001221A70204602B010BD00BF5CDB020041
:1065D000A42B0020FC2B002059660200D82A0020A2
:1065E000FFFF7F00A02B00203AB103685A614A1ECA
:1065F000514251411961002070470720704738B55A
:10660000037F04460D4683B98261FFF74DFF23697E
:10661000281841F10001C4E9020103B125612146B6
:106620000020BDE83840FFF75BBF002038BD0023E5
:10663000014603770120FFF753BF0000024B002102
:1066400002201970FFF74CBFA02B0020014800F07A
:1066500048BB00BFD82A00202DE9F347064600F0CA
:106660002BFB40B1584AD2E9003113F1807341F15C
:106670000001C2E900310021304600F02CFB38B1A6
:10668000524C236823B12068FFF746FF00232360A4
:106690000121304600F01FFB20B1FFF705FF4C4BF6
:1066A000C3E900014B48494D4B4C4C4F01A900F048
:1066B00084FB002842D1DFF82081444CDFF824918C
:1066C000404600F055FC2368002872D07BB1236857
:1066D000D0E90252D3E902138D4272EB03032AD2AE
:1066E00023681B7F1BB12168404600F02BFC40460D
:1066F00000F038FCD0E9027A0546FFF7D5FE381ADB
:106700006AEB010A01287AF1000345DBB0F5350F89
:1067100040D3FFF79BFF324A02444FF49603002117
:10672000484600F049FA00283ED1236813B93046A4
:1067300000F01AFA256002B0BDE8F0870378012B5B
:106740001DD0022B09D14FF00008204600F00AFCB2
:10675000002836D080F81C80F7E73BB941680B7FF2
:1067600023B901230B77204600F0ECFB01A919485F
:1067700000F04EFB01A9174800F01FFB99E74168A4
:106780002B68994202D100232B60EFE7204600F0EE
:10679000F2FBEBE7AA68C0E70021484600F091FA57
:1067A0002846FFF7B9FE01E00D28F9D00023236049
:1067B00086E7002BBFD1304602B0BDE8F04700F0BD
:1067C000D7B901233B70D1E7982B0020182C00206B
:1067D000102C0020FC2B002060DB0200A02B0020EE
:1067E000FFFFB400D82A00200648074A037807496B
:1067F000D35C012213B1043001F036BE0C3001F03D
:106800007FBB00BFE02A00208C2C0020442C0020FD
:106810000648074A03780749D35C012213B10430C4
:1068200001F0D4BD0C3001F01BBB00BFE02A0020FA
:106830008C2C0020452C002037B50578012D0DD07B
:10684000022D30D075B91F491F48FFF70CFE0028F4
:1068500034D103B0BDE83040FFF7DABF037A1BB98B
:10686000FFF7C2FF03B030BD4368184C19782046CB
:10687000FFF7E7FD80B18DF800500190144B68469A
:106880001B689847A168E368A2885B1A9A42E7D21E
:10689000104B01221A70E5E7A268E3689A42F1D032
:1068A0008DF80000EAE7C3688DF800500193FFF708
:1068B0009BFF074B68461B689847D3E703238DF877
:1068C0000030F6E7452C0020342C0020202C00203E
:1068D0001C2C0020302C0020F0B51F46234B89B023
:1068E00004461A600D4600293DD08A882048096870
:1068F000FFF798FD002834D1AA89A9681D48FFF741
:1069000091FD00282DD11C4E0FCE6D460FC596E887
:106910000F0085E80F0063690693237C174A184827
:106920008DF81C70003B18BF01238DF81430637C78
:10693000002B14BF0E2300238DF81530E36802935B
:10694000A36803932368019369466368009300F08A
:1069500099FD30B90B4B18702368013301D0FFF754
:1069600043FF09B0F0BD0720FBE700BF1C2C00204F
:10697000202C0020342C00206CDB0200396802003F
:10698000E02A0020302C002008B50548FFF77CFDE8
:1069900020B9BDE808400348FFF776BD08BD00BF39
:1069A000202C0020342C002070B5084D01460848EA
:1069B0002E78FFF758FD044636B100232B70FFF701
:1069C00013FF08B1FFF708FD204670BD302C0020F2
:1069D000202C002010B501460E48FFF732FD04467A
:1069E000A8B90D480D4A0378D35C63B1043001F0B7
:1069F000E1FC60B90A490748FFF735FD38B9BDE841
:106A00001040FFF705BF0C3001F01EFAF1E72046F9
:106A100010BD00BF342C0020E02A00208C2C002068
:106A2000452C0020024B9A68D868801A704700BF36
:106A3000202C002008B50748074A0378D35C23B10F
:106A4000043001F041FC002008BD0C3001F09AF93F
:106A5000F9E700BFE02A00208C2C002070B5EFF38E
:106A6000108672B60C4A946801239CB993600B4B54
:106A70000B4DD3F8801029401160C3F88050D3F833
:106A8000841051604FF0FF32C3F88420047006B9BF
:106A900062B670BD0370FAE7482C002000E100E008
:106AA000FC06FFBD084B9A6810B55AB150B9EFF318
:106AB000108172B6054A1C6814605C685460986066
:106AC00001B962B610BD00BF482C002000E100E013
:106AD000435882B03BB10023435043580193019B7C
:106AE000012002B070471846FBE70000F0B51A4BD2
:106AF00045791A4E43F8252006EBC503EF001B79B4
:106B00003BBB03680A88C3F8082590F904408A78DB
:106B10000379002CADBF04F16041114903F00F0C63
:106B200001F561414FEA4212D2B2B4BF01F80C2024
:106B300081F80023640901220A4903F01F0302FAC5
:106B400003F341F82430F31946F835001A71002098
:106B5000F0BD0820FCE700BF5C2C0020542C002076
:106B600014ED00E000E100E0036801221A607047C4
:106B7000036801225A60704773B501F15005AD00FA
:106B80000068ADB24FF480348C400026C0F8084352
:106B9000C0F84843465101F5A8714559019522F0C6
:106BA0007F42019D40F82120C0F844430BB1C0F85A
:106BB000044302B070BD00002DE9F74F0D4622F0EE
:106BC0007F4402684FF4803705F150068F408046BD
:106BD000B60002EB8500C2F84873B6B2C2F808737B
:106BE000D2F8041599464FF0000BD0F84035C0F8A4
:106BF000401542F806B05B1A9259009223F07F4389
:106C0000012B009A4FEA850A0CD1264B4FF4806085
:106C100043F001039847D8F8003043F806B09B5979
:106C20000193019BD8F80010D1F80465C1F84473B2
:106C3000A31B23F07F43012B1CD11A4B05F5A8752C
:106C4000013443F0010341F825404FF48060984738
:106C5000D8F80030D3F804359E4209D1D8F8003076
:106C60000020C3F84473C3F8047303B0BDE8F08F89
:106C70000D20FAE78A44C9F1FF13CAF84045D1F85C
:106C80000405221A013A22F07F4203F57F43934222
:106C9000EED3002AE2D10134CAF84045D1F80435D8
:106CA0009842DAE790DB020003680222C3F844232B
:106CB00009B1C3F80423704700684FF48271FFF7ED
:106CC00007BF4FF4803303FA01F10368C3F8481398
:106CD000C3F80813704750318900006889B2FFF784
:106CE000F7BE0368D3F804057047000090F904303C
:106CF00001215A0903F01F0301FA03F3403202494C
:106D000041F82230704700BF00E100E0024B034A27
:106D10001B681068184700BF5C2C0020542C002012
:106D200010B561B1B2FBF3F403FB1424A4B244B96F
:106D3000C0E9001484608281C381204610BD0E200A
:106D4000FCE70920FAE737B550E8013F9DB2C48956
:106D500025448489A54228BF2D1B0489A54202BF72
:106D6000BFF32F8F002207E0C5EA030540E8015476
:106D7000002CE9D14FF001028DF803200193019A14
:106D80000A609DF8031001F0FF0321B1006810FABA
:106D900082F003B030BD1846FBE70A884B889A4260
:106DA00009D150E8012FC2EA024240E80123002B3A
:106DB000F7D1012070470020704737B550E8023FF7
:106DC0001FFAA3F5C488A54202BFBFF32F8F00228C
:106DD0000DE0C48925448489A54228BF2D1BC3EA40
:106DE000054540E80254002CE8D14FF001028DF82F
:106DF00003200193019A0A609DF8031001F0FF033C
:106E000021B1006800EB124003B030BD1846FBE72B
:106E10000A884B889A4209D150E8022FC2EA2242DE
:106E200040E80223002BF7D1012070470020704773
:106E300001F01F024B090121914000EB830000F09B
:106E400013B801F01F0301229A404B0900EB8300A5
:106E5000D14300F015B84B0901F01F0150F8230091
:106E6000C84000F00100704710B5034653E8002FFA
:106E700042EA010043E8000494F0000FF6D110BD8F
:106E800010B5034653E8002F02EA010043E800046E
:106E900094F0000FF6D110BD41DF7047064B10B5DE
:106EA00000241C70054B1C60BFF35F8F044905482C
:106EB00000F032F8204610BD682C00206C2C002019
:106EC00098DB0200602C002007B500230DF10700BD
:106ED0008DF80730FFF7C2FDF1EE103A23F09F0363
:106EE000E1EE103ABFF35F8F0A4B4022C3F88421D2
:106EF0009DF80700FFF7D6FD04F052FC20B103B067
:106F00005DF804EBFFF7C8BF20BF40BF20BF03B050
:106F10005DF804FB00E100E00B684A6843609342BF
:106F200008BF0023016008BF43607047436843B156
:106F30000268916852680B449342436004BF002387
:106F40004360704770B5446806460D46206818B126
:106F5000B3682946984718B923682B60256070BD2F
:106F60002468F3E74368186808B102681A6070473C
:106F70004368186870474368186800B970478842CA
:106F800003D102681A600120704703460068F4E7E5
:106F9000BFF34F8F0549064BCA6802F4E062134302
:106FA000CB60BFF34F8F00BFFDE700BF00ED00E0F7
:106FB0000400FA054FF0704393F8E02F062A10D131
:106FC000D3F8E42F12070CD1D3F8E80F00F0F00348
:106FD000302B08D000F0E000A0F1400358425841A7
:106FE000704700207047012070474FF0704393F8BE
:106FF000E02F062A0CD1D3F8E42F120708D1D3F8DA
:10700000E80F00F0F000A0F13003584258417047FB
:107010000020704708B5FFF7CDFF40B14FF0805317
:10702000934AD3F82433C3F30423C2F84035FFF75F
:10703000DCFF10B18F4B904A5A67FFF7BBFF48B196
:107040004FF080534FF08042D3F84432C3F34233C1
:10705000C2F83C35FFF7C9FF30B1884AD2F8FC309E
:1070600023F08073C2F8FC30FFF7A4FF40B14FF06B
:1070700080430022C3F80C21C3F81021C3F838253F
:10708000FFF7B3FF20B14FF080430322C3F8A025E0
:10709000FFF7ABFF60B17A4B0522C3F8102601223F
:1070A000C3F888260022C3F818263F22C3F8142606
:1070B0004FF0704393F8E02F062A50D1D3F8E42F15
:1070C00010074CD1D3F8E83F03F0F003502B46D122
:1070D0004FF080526B4BD2F80414C3F82015D2F84D
:1070E0000814C3F82415D2F80C14C3F82815D2F8E4
:1070F0001014C3F82C15D2F81414C3F83015D2F8B4
:107100001814C3F83415D2F81C14C3F84015D2F87B
:107110002014C3F84415D2F82414C3F84815D2F843
:107120002814C3F84C15D2F82C14C3F85015D2F813
:107130003014C3F85415D2F83414C3F86015D2F8DB
:107140003814C3F86415D2F83C14C3F86815D2F8A3
:107150004014C3F86C15D2F84424C3F87025FFF727
:1071600029FF48B14FF080534FF08042D3F8583296
:1071700003F04F03C2F8E43EFFF71CFF48B14FF0A5
:107180008043D3F80024D10744BF6FF00102C3F855
:1071900000244FF08053D3F83021062A0AD1D3F8C7
:1071A0003431062B01BF384AD2F83C3743F48063B0
:1071B000C2F83C37314AD2F8883043F47003C2F841
:1071C0008830BFF34F8FBFF36F8F4FF01023D3F88A
:1071D0000C22D2071DD52D4B0122C3F80425D3F86C
:1071E0000024002AFBD04FF01022D2F80C3223F0FA
:1071F0000103C2F80C32254BD3F80024002AFBD03F
:107200000022C3F80425D3F80024002AFBD0FFF79E
:10721000BFFED3F80022002A03DBD3F80432002B90
:1072200022DA1A4B0122C3F80425D3F80024002ADD
:10723000FBD04FF010221521C2F80012D3F8002421
:10724000002AFBD04FF010231522C3F804220F4B65
:10725000D3F80024002AFBD00022C3F80425D3F879
:107260000024002AFBD0D2E7094B0A4A1A6008BD65
:107270000030014000C007400DF0ADBA00ED00E065
:107280000050004000C000400010004000E00140FD
:10729000F42A00200090D00338B5074C051E04F1F5
:1072A000080318BF1C4623682BB11A6822605B686C
:1072B00028469847F7E738BD782C002020B9054BC1
:1072C00001225A70FFF7E8BF012802D1014A9070ED
:1072D000F8E77047702C002020B9034B01225A7048
:1072E000FFF7DABF704700BF702C002038B50B4C99
:1072F000237883B90A486360A3602361E36000F0E8
:10730000FFF8054604F04CFA08B900F005F901232E
:107310002370284638BD8525FBE700BF702C002070
:10732000BD72020037B5184CA378054603F0FF0282
:107330009BB110B143680120984700230DF107006D
:107340008DF80730FFF78AFBE3689DF807000133EB
:10735000E360FFF7A7FB03B030BD0DF107008DF828
:107360000720FFF77BFB25B1226913463BB92A6052
:107370002561E368002BE7D100F0E0F8E4E79D42E7
:10738000F7D01B68F2E700BF702C002037B50B4C1C
:1073900000230DF107008DF80730FFF75FFBE3686E
:1073A000013BE360E56815B900F0F4F8A5709DF8BD
:1073B0000700FFF777FB03B030BD00BF702C002043
:1073C000012813B508D003281CD018B9114B01228D
:1073D000C3F8802002B010BD0F4C00230DF1070050
:1073E0008DF80730FFF73AFB23780BB9FFF77EFFE4
:1073F000E3689DF807000133E3600123A370FFF702
:1074000051FBE7E700F088F802B0BDE81040FFF755
:10741000BDBF00BF00E100E0702C00201FB5037865
:107420008DF800304368019383688DF80830C36895
:10743000054A0393054B684653F8213052F8211052
:10744000984705B05DF804FB842C0020882C0020B0
:107450001FB503788DF800304368019383688DF879
:107460000830C368054A0393054B684653F821303A
:1074700052F82110984705B05DF804FB842C0020D9
:10748000882C0020F0B5194B90F800C091F81DE051
:1074900043F82C20164B16460A6943F82C20154B4E
:1074A00003F80CE00C4607460FCC89B06D460FC5BB
:1074B00094E80F0085E80F00CDF810C0BEF1000F72
:1074C00009D0002E0C4A694608BF3246381D00F02C
:1074D00035FE09B0F0BD002E084A694608BF3246A5
:1074E00007F10C0000F094FBF3E700BF882C0020AC
:1074F000842C00208C2C00201D740200517402008A
:10750000044A137923B9012110609180184670470D
:1075100085207047902C0020074B1A68D2075FBF68
:10752000C02283F8002301221A604FF08043012219
:10753000C3F81825704700BF00E100E037B54FF0F1
:1075400080430022C3F80421D3F804210192019A58
:107550000222C3F804230D4AD2F8FC0040F08073E5
:10756000C2F8FC300A4B1C6844F0010119605D68E8
:107570005968491BB1F50A5FFAD31C604FF080438C
:10758000C2F8FC0001229A6003B030BD00ED00E0BB
:10759000001000E04FF080430122DA60D3F8182495
:1075A000D203FBD4704700004FF0804307B5D3F8F7
:1075B00000217AB10022C3F80021D3F80021009203
:1075C000009A0122C3F808230F4B587910B95A7159
:1075D0001B6898474FF08043D3F8042182B1002202
:1075E000C3F80421D3F804210192019A0222C3F8BE
:1075F0000823054B1B68012003B05DF804EB184716
:1076000003B05DF804FB00BF902C002000F1804027
:1076100000F5C040002382B0036003680193019B22
:1076200002B07047800000F1A040D0F8002722F49B
:107630004032C0F80027D0F8003743EA0141C0F8D3
:1076400000177047C208012300F0070003FA00F09A
:107650008B5C184388547047054B4FF0FF32072866
:1076600043F8202084BFC01880F84820704700BF2E
:10767000982C002038B5144D95F858400CBB2022AA
:10768000FF2105F1300005F00CFAE0B20134FFF7FC
:10769000E3FF0C2CF9D10D4B0022C0216A6583F861
:1076A0000613402119604FF4BE70FFF7AFFF084B7F
:1076B0004FF00041C3F80413012385F858301046F9
:1076C00038BD0820FCE700BF982C002000E100E056
:1076D000006000402DE9F04F87B00024584D03941E
:1076E0004FF48072012102F1804303F5C04390B250
:1076F0001B68012B06D1D5F804330B4202D0FFF7EB
:1077000085FF0C430432B2F5907F4FEA4101EAD184
:107710004B4BD3F87C31012B0AD14FF4BE70FFF7ED
:1077200075FF4FF0A04344F00044D3F810350393A5
:10773000E3B2D3B1434F01260025344210D0AB0051
:1077400003F1804303F5C043D3F81005D3F81015B7
:1077500057F8253023B1C1F30141C0F30420984705
:107760000135082D4FEA4606E7D1002C61DA0022E8
:107770004FF0FF33CDE90423DFF8C880DFF8C8906D
:10778000002637464FF0A04B19F9014B631C45D03A
:10779000C4F3C20318336B440122E5B204F03F0086
:1077A00004F0070402FA04F413F8042C224235D042
:1077B00008EB0002AD0992F9302058F822A0BAF186
:1077C000000F09D1032D29D104A901930090FFF7DF
:1077D00039FFDDE9000301E0032DF5D000F5E0718C
:1077E00013F80C3C5BF821102342C1F3014105D092
:1077F000022913D1032D0CD1294604E003290DD110
:10780000032D06D1022100900136FFF70BFF0098EF
:10781000F6B2BAF1000F01D02946D0470137042F44
:10782000B2D136B14FF0A043039AD3F8103593424A
:1078300002D107B0BDE8F08F0393049B05939DE749
:1078400000600040982C0020E82C0020014B1B68B1
:10785000184700BFF42C00200E4B984237B50C4659
:1078600002D0002003B030BD00230DF107008DF8D9
:107870000730FFF7F3F8084B1D7915B901221C609A
:107880001A719DF80700FFF70DF9002DE9D01120BE
:10789000E8E700BF00200040F42C0020034B984292
:1078A00001BF034B00221A601A717047002000408C
:1078B000F42C0020124BD3F8182182B0EAB1002238
:1078C000C3F81821D3F818310193019B0D4BD97FD0
:1078D000FF2907D0987F01228A404FF0A04148B18C
:1078E000C1F80C2500225A771A72D3E90021064804
:1078F00002B01047C1F80825F4E702B0704700BF96
:1079000000300040FC2C0020042D00202DE9F34124
:107910000779474E24237B431446F2180D46517FC6
:107920008646002940F08180F35823B114F0140FEB
:1079300004BF0123537795E80F004FF0240C0CFB94
:10794000076C0CF10C0888E80F009CF81F20FF2A38
:1079500008D09CF81E10012393404FF0A042C1B103
:10796000C2F80835296821B101F06043B3F1005F26
:1079700006D1AA6882B102F06043B3F1005F0BD078
:10798000242303FB076600237377102002B0BDE8B1
:10799000F081C2F80C35E5E7DEF800306868C3F81E
:1079A0004415C3F84805E968C3F834250022C3F834
:1079B0003815C3F81821D3F818210192019A14F050
:1079C000010218BF0122C3F8502514F0020218BFAB
:1079D0000122C3F8402522075CBF01221A6124223C
:1079E0007A43B258B2B9D3F81821002AFBD0242325
:1079F00003FB0766F27FFF2A07D0B07F0123934085
:107A00004FF0A04218B1C2F80C350020BEE7C2F812
:107A10000835BBE714F004004FF0400202D0C3F871
:107A20000823F2E7C3F80423B0E71120AEE700BF54
:107A3000FC2C00200023435082B043580193019B4B
:107A400002B070470A4610B54FF48E71FFF7F2FF8F
:107A5000136A9168C95C136A01331362C0F81C157C
:107A600010BD024608B500684FF49271FFF7E2FFBF
:107A700010684FF48471FFF7DDFF136801221A606C
:107A800008BD8B690A4610B54FF4847123B9FFF71E
:107A9000D1FFD0F8183510BDFFF7CCFF536AD1687D
:107AA000D0F81805C854536A01335362F3E7000055
:107AB0001FB501238DF80030044BCDE90110D3E947
:107AC00000126846904705B05DF804FB202D0020A9
:107AD00030B54D4DD5F804339A0585B051D5D5F85C
:107AE0002431002B4DD04FF492712846FFF7A2FFAE
:107AF0004FF40173C5F80833444B93F829200AB9B1
:107B000001226A60404902228DF80020D1F88024C9
:107B1000C1F8802403929A690292DA6801920022E5
:107B2000C3E906226846D3E9001290473648D0F8E8
:107B30001C315BB1354A5169136A99424DD992F8AB
:107B40002830002B49D11146FFF77CFF2E48D0F892
:107B50004431002B56D04FF4A271FFF76BFF2B4B33
:107B600093F829200AB1012202609A69002A49D0BB
:107B7000586AD96800229A6105B0BDE83040FFF725
:107B800097BFD5F804335B07D0D5D5F80831002B63
:107B9000CCD01E4C1C482146FFF773FF636AA269D4
:107BA0009A42C3D1E369E1684BB1A3612369E36001
:107BB0000023606AE3616362FFF77AFFB6E794F837
:107BC00029300BB901236B600F4B4FF40172C3F8DE
:107BD00008230023606AA361EEE70B484FF48E711F
:107BE000FFF728FF5369002BB0D0516902910023A1
:107BF00091688DF80030019153616846D2E9001315
:107C00009847A3E705B030BD00200040202D00209C
:107C10002DE9F843564D90F804802C2303FB0853BC
:107C2000064693F82A300C469146002B40F09B8084
:107C300050490068FFF710FE0746002840F0958085
:107C400022683068511C0BD04FF0A04101239340B3
:107C5000C1F8083502F5E0734FF0030C41F823C07A
:107C600061684B1C1FBF01F5E0734FF0A04C4FF053
:107C7000000E4CF823E0A369C0F8243594F814C032
:107C8000637DBCF1010F4CEA0303C0F86C35C0F80A
:107C90001415C0F80C251DD1A268531C1FBF02F596
:107CA000E0734FF0A0414FF0000C41F823C0E368AF
:107CB000591C0BD04FF0A04C01219940CCF808156D
:107CC00003F5E0714FF0030E4CF821E0C0F80835E1
:107CD000C0F810252C2202FB08F2AB18C3F8049060
:107CE0002369AB50B9F1000F2AD04FF48E71247F75
:107CF000FFF7A0FE30684FF4A271FFF79BFE3268D9
:107D00001D4BC2F80433130B42F30732002AA8BFFD
:107D100002F160404FEA4411BABF184803F00F0463
:107D200000F56140C9B2B4BF015580F8001303F0FB
:107D30001F03012101FA03F35209114941F82230CE
:107D400033680422C3F800252C2303FB08530022C8
:107D5000C3E9062283F829205A61012283F82A20E8
:107D60003846BDE8F8830827FAE71127F8E700BF8F
:107D7000202D0020D17A02008000020014ED00E0E6
:107D800000E100E0F8B5057900682C4C0023C0F84C
:107D900000352C2303FB05435B686BB1284BC0F80F
:107DA000083340F30733C0F304315B0901228A40F2
:107DB0002033244941F82320D0F80C65D0F814155D
:107DC000D0F80835D0F810254FF0FF37BE42C0F884
:107DD000147518BF06F5E076C0F80C75C0F8087584
:107DE000C0F810751EBF4FF0A0474FF0020C47F8C7
:107DF00026C04E1C1FBF4FF0A04601F5E0710227C0
:107E000046F82170511C1FBF4FF0A04102F5E072EF
:107E1000022641F822605A1C1FBF03F5E0734FF0A1
:107E2000A042022142F82310FFF738FD2C2303FB68
:107E30000544002384F82A306360F8BD202D00201B
:107E40008402020000E100E00279044B2C2101FBD6
:107E500002335869003818BF01207047202D0020D8
:107E60002DE9F84F064690F8048089469246FFF7C0
:107E7000EBFF044600283CD1204F2C2508FB057B56
:107E80004FF48E71CBF814A0CBF80890CBF82000FB
:107E90008BF828003068FFF7CDFD30680123836040
:107EA0005946FFF7CFFDDBF804305D461BBB306859
:107EB000DBF814402B6A9C4211D83368D3F81C219C
:107EC000002AFBD00122DA6000202C2303FB087774
:107ED00000237B61BDE8F88F95F828303BB9D0F8D6
:107EE0001C31002BF8D05946FFF7ACFDE2E70F201C
:107EF000EBE71120EEE72046ECE700BF202D002045
:107F00002DE9F0473A4D07792C2303FB075306462A
:107F10005C6824B103684FF40170C3F808032C2394
:107F200003FB0753986950B1D869002841D024B1A8
:107F300033684FF40172C3F80423112436E09A61C8
:107F4000D9605862D8612C2303FB075393F829307A
:107F50001BB910B93046FFF784FD4FF02C0808FB21
:107F6000075A3068DAF80430002B37D14FF4A27189
:107F7000D046FFF75FFD3068D0F82491D0F8083183
:107F8000D0F84441CBB914B9B9F1000FF3D02C2388
:107F900003FB07550023AB61B9F1000F24D12CBBC3
:107FA00095F8291033680122B1B11A602046BDE866
:107FB000F0871961DA610120C5E7B9F1000FE6D158
:107FC000002CE4D14146FFF75CFDDAF82430DAF802
:107FD00018209A42CFD8DAE75A60E7E74FF40173E6
:107FE000C0F804330024E1E70324DFE70F24DDE7D2
:107FF000202D00200023435082B043580193019B61
:1080000002B070471FB501238DF80030044BCDE955
:108010000110D3E900126846904705B05DF804FBF3
:108020004C2D00207FB5434AD2F82461002E60D049
:1080300010464FF49271FFF7DDFF02238DF80030F8
:10804000D2F88034C2F880340393D2F83C350293DE
:10805000394BDA6801920022C3E906226846D3E967
:10806000001290473348D0F8443173B14FF4A271F5
:10807000FFF7C0FF304B9A693AB10022C3E90622EC
:10808000D968D0F83C05FFF7BDFF2A48D0F8203169
:10809000ABB14FF49071FFF7ADFF0123C360264BE6
:1080A0005A6962B1D0F84C150291002299688DF896
:1080B000002001915A616846D3E9001290471D489B
:1080C000D0F858319BB14FF4AC71FFF793FF1A4BC6
:1080D0005A6962B1D0F84C150291002299688DF866
:1080E000002001915A616846D3E90012904704B01C
:1080F00070BDD2F81031002BB4D04FF48871104607
:10810000FFF778FF0C4BD2F83C0599698842A9D15A
:10811000DC69D96864B1D2F8005225F02005C2F8B4
:1081200000521A699C61DA60DE61FFF76BFF99E724
:108130009C61FAE7002000404C2D00202DE9F84317
:108140005C4E90F80480242303FB0863044693F8F4
:1081500020300D469146002B40F0A880564900681B
:10816000FFF77AFB0746002840F0A2802A682068C3
:10817000511C0BD04FF0A04101239340C1F80835AA
:1081800002F5E0734FF0030C41F823C069684B1C03
:108190001FBF01F5E0734FF0A04C4FF0000E4CF8FC
:1081A00023E0AB69C0F8243595F814C06B7DBCF1B1
:1081B000010F4CEA0303C0F86C35C0F80C25C0F879
:1081C00014151DD1AA68531C1FBF02F5E0734FF0B0
:1081D000A0414FF0000C41F823C0EB68591C0BD0B4
:1081E0004FF0A04C01219940CCF8081503F5E0713F
:1081F0004FF0030E4CF821E0C0F80835C0F8102508
:10820000242202FB08F2B318C3F804902B69B35080
:10821000B9F1000F39D04FF488712A7FFFF7EAFED9
:1082200020684FF49071FFF7E5FE20684FF49271DB
:10823000FFF7E0FE20684FF4A271FFF7DBFE206835
:108240004FF4AC71FFF7D6FE23681C49C3F8041342
:10825000190B43F30733002BAEBF03F1604001F06D
:108260000F0517484FEA4212A8BF00F56140D2B28D
:10827000B4BF425580F8002301F01F01012202FA29
:1082800001F15B090F4A42F8231023680822C3F862
:108290000025242303FB08660023C6E90633736127
:1082A000012386F820303846BDE8F8830827FAE72E
:1082B0001127F8E74C2D0020258002001003420012
:1082C00014ED00E000E100E0F8B5374C0579242317
:1082D00003FB054302465B6800686BB1334BC0F893
:1082E000083340F30733C0F304365B090121B14082
:1082F00020332F4E46F82310D0F80032012623F009
:108300002003C0F800324FF4AC714660FFF772FEF4
:108310001068C660D0F85831002BFBD00023C0F89D
:108320000035D0F80C65D0F81415D0F80835D0F821
:1083300010254FF0FF37BE42C0F80C7518BF06F588
:10834000E076C0F81475C0F80875C0F810751EBF47
:108350004FF0A0474FF0020C47F826C04E1C1FBF3D
:108360004FF0A04601F5E071022746F82170511C3C
:108370001FBF4FF0A04102F5E072022641F82260D3
:108380005A1C1FBF03F5E0734FF0A042022142F8D0
:108390002310FFF783FA242303FB0544002384F80A
:1083A00020306360F8BD00BF4C2D00201003420058
:1083B00000E100E00279044B242101FB02335869FB
:1083C000003818BF012070474C2D002001F0604399
:1083D000B3F1005F2DE9F0470646884692463BD14F
:1083E00090F80490FFF7E6FF0446002836D11D4FB1
:1083F0003068242505FB09754FF49071C5F814A069
:10840000C5F80880FFF7F6FD4FF4AC713068FFF750
:10841000F1FD33686A69A968C3F84415C3F84825B3
:1084200001229A606A68DAB9D3F82021D3F858019A
:108430001AB90028F8D00F2007E00028FBD101224C
:10844000DA60D3F85821002AFBD0242303FB0977F4
:1084500000237B61BDE8F0871020FBE71120F9E7DE
:108460002046F7E74C2D0020F8B501F06043B3F14A
:10847000005F04460F465ED10379304D242101FB95
:108480000351496821B100684FF40476C0F80863CD
:10849000242000FB03539E6956B1D869002839D0C7
:1084A00021B123684FF40472C3F80423112030E093
:1084B0009A61DF60DE6120684FF48871FFF79AFDF2
:1084C00020684FF4A271FFF795FD2368C3F8347557
:1084D000C3F8382516BB01221A602479242202FB36
:1084E000045252680ABBD3F81011D3F84421D3F8D0
:1084F0002401114302D10028F5D00A46242303FBAE
:1085000004550023984218BF03209A42AB6118BF5C
:108510000F20F8BD1F61DA610126CCE7D3F80022F5
:1085200042F02002C3F80022D7E74FF40472C3F8E8
:1085300004230020EDE71020EBE700BF4C2D0020C6
:108540000023435082B043580193019B02B070470F
:108550000B7B032B2DD8DFE803F025291D028A6849
:10856000154B9A4204D1D0F84C350A699A4209D188
:108570008A6840F202239A421BD1D0F84C354A69EE
:108580009A4216D000230622C0F80035C0F8002514
:1085900018467047D0F84C350A699A42F2D1D0F8A3
:1085A0003C35ECE7D0F84C350A69E9E7D0F83C35C2
:1085B000FAE70120704700BF00020400F0B54FF059
:1085C00040204D4CD0F8243187B0ABB14FF49271BC
:1085D000FFF7B6FFD0F8043173B9A368C0F80833C9
:1085E0000223A360A368C0F804330123036243613C
:1085F00084F82E3007B0F0BD4FF04025D5F8043197
:10860000002B44D03D4E4FF482712846FFF798FF6F
:108610000FCE01AF0FC733683B6094F82E3043B9DB
:10862000A6F11C012846FFF793FF80F0010084F8B3
:108630002E004FF4B0714FF04020FFF781FF4FF450
:10864000AE71FFF77DFF94F8303013B194F82E30FF
:1086500043B14FF040230022C3F80022A260284A11
:10866000C3F808234FF04022D2F8C434C2F8C4340F
:108670009A0736D501238DF8003094F830300BB9C5
:1086800084F82F30D4E9003168469847B2E74FF4B8
:10869000A4712846FFF754FF237B83B9174F0FCFF0
:1086A00001AE0FC63B68336094F83030002BD9D14F
:1086B000C5F80032A360124BC5F80833D2E74FF477
:1086C0000073C5F8003240F20223A36003F1CE73B9
:1086D000C5F80833A368C5F804330123AB602B62E7
:1086E00088E713F0050F01D00223C4E794F82E3079
:1086F000002BC0D00423BEE7702D00207C2D00206D
:1087000002029C012DE9F843A44F90F804900468FC
:10871000342606FB0976002386F82E30CB6803F05A
:108720006043B3F1005F0D46904603D010263046FB
:10873000BDE8F8839A4BC4F8083396F82F3023B17C
:10874000B368C4F804331126F1E712F0140F0CBF1C
:108750000123002386F82F308E46BEE80F0006F175
:108760000C0CACE80F00DEF80030CCF80030C8F399
:10877000001386F830306B78C4F888354FF4827176
:108780002046FFF7DDFE4FF49271FFF7D9FE18F097
:10879000010318BF0123C4F8503518F0020318BFB5
:1087A0000123C4F840352B78032B00F2CC80DFE89E
:1087B00003F08EB46F022B6903F06043B3F1005FE6
:1087C000B4D14FF48073C4F80032EA686B68C4F81F
:1087D00044254FF4A871C4F84835FFF7B1FE4FF4B3
:1087E000B071FFF7ADFE4FF4A471FFF7A9FE0123AE
:1087F0002362A360D4F85031002BFBD04FF4A87152
:108800002046FFF79DFEAB682A69C4F84425C4F8EA
:108810004835342303FB0973624A9A604FF482712E
:108820000823002618F0080F04D12A78032A1CBF59
:108830000122E250342303FB09F3FA18FB58002B02
:1088400040F08680012221440B68002B00F08D80CF
:108850003421D4F8C434C4F8C43401FB09720020B4
:1088600082F82F00002B00F08F8013F0010F14BF4F
:108870004FF40246032648F2012213F0020F18BFFC
:10888000164613F0040F48F2022318BF1E464EE7A7
:108890006B68EA68C4F84425C4F848352B6903F0CE
:1088A0006042B2F1005F7FF441AFAA68C4F834358A
:1088B0004FF48453C4F83825C4F80032342303FB42
:1088C000097340F202229A6001232362A6E76B68D3
:1088D000EA68C4F8442518F0200FC4F848354FF072
:1088E00034030ED04FF4807203FB0973C4F80022E6
:1088F0002C4A9A604FF4A471FFF722FE01232362F1
:108900008EE74FF4007203FB0973C4F8002240F2B3
:1089100002229A604FF48271F0E76B68EA68C4F84B
:108920003425C4F838354FF48053C4F8003234236A
:1089300003FB097340F202229A60012323624FF481
:10894000827100236DE74FF482710823072669E7DF
:1089500018F0040F1CBF4FF400739360342303FB23
:108960000977BB68C4F80433E1E6D4F82431002B5E
:108970003FF46AAF4FF492712046FFF7E1FD2262A7
:108980004FF4827162615EE709FB01712046FFF7D7
:10899000DFFD002808BF0326C9E600BF702D0020B8
:1089A00002029C010002040010B586B00024CDE94B
:1089B00002349DF820308DF80510A342CDE904243F
:1089C00001A914BF202222468DF80440FFF79AFE29
:1089D00006B010BD10B586B0012402930023CDE986
:1089E00003328DF805101A4601A98DF8044005934D
:1089F000FFF788FE06B010BDBFF34F8F0549064B49
:108A0000CA6802F4E0621343CB60BFF34F8F00BF2C
:108A1000FDE700BF00ED00E00400FA053FDF70470E
:108A200074DF704776DF70477ADF70477CDF70470E
:108A30008ADF70478BDF70478FDF7047024A136809
:108A400001331360704700BF883B0020014B0122B7
:108A50001A607047043900200C4B4A881B889A42E0
:108A600010B504460BD10A8840F677239A4206D106
:108A70008A880748033A92B2114601F0D9FB22884E
:108A800061880448BDE8104001F0D2BB042B0020EF
:108A9000A4DB0200C1DB020008B5032806D8DFE82A
:108AA00000F00C020E10084801F0C2FBFDF7C6FDF5
:108AB00008B1FDF791FC012008BD0448F4E7044823
:108AC000F2E70448F0E700BFFBDB02001BDC02001A
:108AD0003BDC020067DC02000388212B07B52AD0AB
:108AE00006D8102B0FD0112B17D003B05DF804FB64
:108AF0003B2B01D0562BF8D18088132103B05DF8B1
:108B000004EBFFF78FBF114B81881148198002F0E9
:108B1000DEFB104B01221A70E7E70C4B4FF6FF709B
:108B20003B211880FFF77EFF0A4B00221A700A4B88
:108B300001221A60D9E7002301A980888DF8053049
:108B40008DF80430FFF778FFCFE700BF042B00203B
:108B5000C438002012390020343E0020037823B9A5
:108B6000024B3B211888FFF75DBF7047042B0020A4
:108B700038B5054D044645F001054FF47A40A84745
:108B8000013CFAD138BD00BFA0E0020007B50023C8
:108B9000019302F097FD01A9012002F05FFE01A8F8
:108BA00002F0AEFE03B05DF804FB000070B50D4AA4
:108BB0000025044600210C48FDF716FD4FF4004641
:108BC0004FF47A70294600234FF4FA62C4FB060181
:108BD00003F0E4FC2A4601460448FDF710FD044B6F
:108BE0001D6070BDF58B020094E002005834002037
:108BF000343E002038B5104B01221A600F4A13682A
:108C0000012B09D10E4C0F4D2168002905DC0E49BE
:108C10000B60002111602B7038BD0C4B1B684FF4AA
:108C20007A705843FFF7C2FF216809480139216073
:108C300001F0FEFA0023EEE7343E0020D03C002095
:108C4000903B0020CC3C0020303E0020882B0020B0
:108C500086DC020008B5064A06480121FDF7C4FC7F
:108C6000BDE80840044800221021FDF7C8BC00BF41
:108C70003D8A020090E002000030002010B50D4C4B
:108C8000F0220021201D03F00CFF41232370432319
:108C900063704B23A3703123E370074B074A1B8893
:108CA0000748214602F07EFCBDE81040054801F06F
:108CB000DCBA00BF13390020042B00206C2B0020ED
:108CC000282B00209ADC020070B505780446002DA0
:108CD00048D1818A2448254E01F0AAFAA38AAB42E2
:108CE00006D923693046595D01F0A2FA0135F5E74E
:108CF0000A2003F0D3FD23699A78012A0BD11C4B7B
:108D00001A704FF08043B122C3F81C256420FFF78E
:108D10002FFFFFF771FE174A19791170164A59791A
:108D200011709A7915484FF47A714A430260144AD7
:108D3000D87910701A7A13484A4302605A7A4A4323
:108D400011490A60997AD3F80B30104A07EE903A2D
:108D50001170FDEEE77A0E4ABDE87040C2ED007A70
:108D6000FFF78CBF70BD00BFACDC0200D5DC020099
:108D7000AA2D0020843A002011390020442B002025
:108D80008C2B0020802B0020842B0020A92D00207C
:108D9000602B00201FB50D4911230A2201A88DF870
:108DA0000430FFF743FE0023ADF80C301023ADF87C
:108DB00008303C23ADF80A3002A84FF4C873ADF870
:108DC0000E30FFF731FE05B05DF804FBDBDC02007E
:108DD00007B5002301A90648019302F066FA054B86
:108DE00005480093694602F063FB03B05DF804FB9D
:108DF000C4380020C98C0200282B002000B589B09F
:108E000000211C2201A803F04CFE4FF4A0324FF4C5
:108E1000F023CDE9022303238DF8103001A8034B82
:108E2000069301F07FFF09B05DF804FB5D8B020043
:108E300008B5FFF7FFFDBDE8084002490248FFF70B
:108E4000F7BD00BF082B0020102B002008B5FFF74E
:108E50009DFEBDE80840FFF7EBBF000013B502F030
:108E600031FC04460146124801F0E2F914B12046F3
:108E7000FDF7B2FA002301A8019302F0E5FC0146D8
:108E80000C4801F0D5F901990B4801F0D1F901A97D
:108E9000012002F0E3FC10B1084801F0E6F901A856
:108EA00002F02EFD0146024801F0C2F902B010BDE9
:108EB000EADC0200E6DC0200FADC02000CDD020063
:108EC00030B5ADB0AC22002101A803F0EAFD0223C9
:108ED0000D4D8DF8043005238DF807300B4B15939D
:108EE0000124402244F2506301A92846CDE92323FE
:108EF000ADF850408DF8804001F058FC21462846DE
:108F000001F051FC2DB030BD20300020002B00209E
:108F100010B5054C0549204602F0F5F82046F7212A
:108F2000BDE8104002F003B9D0380020598A020091
:108F30000148032101F0B7BC2030002008B5FFF73D
:108F40008DFFFFF727FFFFF7E3FFFFF741FFFFF775
:108F5000B7FFFFF753FFFFF7EBFF044B0448002276
:108F60001A70BDE8084001F080B900BF1239002036
:108F700014DD02000E4B082815D8DFE800F00508C4
:108F80000A0C0E1012141600D8221A707047FF2215
:108F9000FBE7EC22F9E7F022F7E7F422F5E7F82205
:108FA000F3E7FC22F1E70022EFE70422EDE700BF40
:108FB000393E0020094B0022C3F80022C3F81021DB
:108FC0001A600122DA601A61C3F80C21D3F810216B
:108FD000002AFBD00022C3F8102170470010004087
:108FE00010B50C490C4B0124C1F8FC4FC1F80042EC
:108FF00093F90000FFF7BEFF084B1B78C1F80C3552
:10900000074B1B78C1F81035064B1B68C1F80835B3
:109010000C6010BD001000408C2B0020393E002059
:10902000742B0020602B002038B5234C23490423E7
:109030002370D1F8503623F00103C1F85036204B8D
:10904000C1F8183501220023C1F83435CC20C1F80D
:109050002C35C1F830254FF0CC32C1F82405C1F8C9
:109060001C25184AC1F81425174AFF25157001332D
:10907000DBB2FF2BD054FAD12123C1F80425C1F86B
:109080000032124B93F90000FFF774FF104B0B4AAC
:109090001B78C1F80C352378C1F810350D4B1B68CF
:1090A000C1F808350023C1F80C3101230B60D2F858
:1090B0000C31002BFBD038BD742B00200010004079
:1090C000FF00040308000001863A00208C2B0020DA
:1090D000393E0020602B002008B5FEF707F900207C
:1090E000FEF720F9BDE80840FDF7D8BE7FB54FF088
:1090F0008051134ED1F8A820D1F8A830D1F8A4009F
:10910000D1F8A440D1F8A450D1F8A410C5F3072594
:10911000C9B2C4F30744000EC2F3072203910090C2
:10912000084902950194DBB242F0C002304603F0D8
:10913000DBFB304604B0BDE8704001F096B800BFDC
:10914000E438002021DD020013B54FF080540E48B2
:10915000D4F80421D4F80011D3B20193C2F3072349
:109160000093C2F30743120E01F062F8D4F808111D
:10917000064801F05DF8216E0548626E02B0BDE858
:10918000104001F055B800BF45DD02005EDD020071
:109190006BDD02000148FDF74ABA00BF80380020AD
:1091A00070B504460025FFF7F5FF0C4A0C48002176
:1091B000FDF71AFA4FF400464FF47A70294600235F
:1091C0004FF4FA62E4FB060103F0E8F92A4601468F
:1091D0000448FDF714FA044B1D6070BD4D8A02006F
:1091E0008CE00200803800200439002013B50B4CBD
:1091F0000B4801F01DF80B4B009306220A4B072188
:10920000204602F049FC4FF4FA60FFF7B1FC20461B
:1092100002B0BDE8104002F0CBBC00BF78340020A3
:1092200078DD020004390020A191020008B54FF05A
:10923000A0430422C3F808254FF4FA60FFF798FC16
:10924000FFF7D4FF0748074C012102F033FD054822
:1092500002F0AEFC204602F0EDFC4FF47A70FFF70E
:1092600087FCF7E77834002008B5FFF735FFFFF7F4
:109270003DFFFFF769FFFDF785F9FFF7EBFC0120E4
:10928000FFF7CCFBFEF7F6F910B1044800F0EDFF54
:109290006420FFF76DFC012008BD00BF95DD0200D2
:1092A00070B54FF0A04403250423C4F808574FF4C9
:1092B0007A70C4F80C35FFF75BFC4FF00076C4F809
:1092C00064570A25C820C4F80C65FFF751FCC4F8A0
:1092D0000865C820FFF74CFC013DF3D1022070BDAA
:1092E00008B502F02DFA104B01221A604FF08043AE
:1092F0000021C3F800111A60D3F80021002AFBD026
:109300000A4B0022C3F80022C3F810211A60012280
:10931000DA601A61C3F80C21D3F81021002AFBD0BF
:109320000022C3F8102108BD00D00040001000400A
:1093300007B500230193074B074893F900300093CA
:10934000064B01221B68114602F082FDFDF7BCFDB1
:10935000FCE700BF0839002078340020602B002093
:1093600007B5074B07480122019293F9003000939B
:10937000054B11461B6802F06BFDFDF7A5FDFCE7F0
:109380000839002078340020602B002007B5074BF7
:1093900007480021019193F900300093054B012209
:1093A0001B6802F055FDFDF78FFDFCE7103900202A
:1093B00078340020602B002008B53F4B1B78002B31
:1093C00075D0C820FFF7D4FB3C4802F0D5FB3C4BDE
:1093D00040228021C3F88421C3F880114FF48051CA
:1093E000C3F880110821C3F8841110210224C3F8A6
:1093F000801104254FF48071C3F88041C3F8805177
:10940000C3F880114FF40071C3F880114FF48061EC
:10941000C3F880112B49C820C1F8844CC3F88021BF
:10942000FFF7A6FB4FF0A0432022C3F80C55C3F86A
:109430000C254FF40052C3F80C25C3F81C47C3F8A1
:109440002047C3F82447C3F81847C3F80847C3F8B0
:109450001447C3F80C47C3F81047C3F87447C3F860
:109460001847C3F81847C3F85447C3F84847C3F828
:109470004047C3F83C47C3F83847C3F82847C3F808
:109480005047C3F83447104B0021C3F8FC1FD3F8F2
:10949000FC2F0122C3F8FC2F4FF04023C3F8FC1F20
:1094A000D3F8FC1FC3F8FC2FFDF70EFDFCE7FDF71A
:1094B0006BFAFDF7BFFA8AE71139002078340020F3
:1094C00000E100E000A0074000300040104BB3F87E
:1094D000E01041FA00F2D20710B512D40122824006
:1094E0000A430C4CA3F8E0200B4A2468126834218C
:1094F00001FB0031121B4FF47A74B2FBF4F2A1F8B5
:109500007420342202FB00330022A3F8682010BD2F
:10951000C82D00208C3B0020883B002030B5002364
:10952000934205DAC55CCC5CA54203D10133F7E771
:10953000012030BD0020FCE708B5064B782202FB75
:10954000013148310622FFF7E9FFB0FA80F0400907
:10955000404208BDC82D0020F0B504465D4AA18BED
:1095600011805D4A5D4E5E4D1278A3692B60033019
:1095700085B03060002A60D15A4893F805C007785A
:10958000BC4555D19F794078874251D1564893F8D0
:1095900007C00778BC454BD11F7A43789F4247D11B
:1095A000524B1B888B4243D1514B52481A7094F94D
:1095B00013300393237A0293E3790193A379009301
:1095C00063792279E1784C4C00F032FE31684B4EE1
:1095D0003078342303FB00438A1D4D3312F8017D9C
:1095E00003F801798A42F9D1FFF770FF2B684448EC
:1095F00093F909103378342707FB034383F8571096
:1096000000F016FE2B689B7A07EE903A3378F8EE5E
:10961000677A07FB034417EE900AC4ED197A02F04B
:1096200035FE02460B46374800F002FE0023337039
:1096300005B0BDE8F040FFF7FBBB2B4ADF7911789E
:109640008F42F5D1197A53789942F1D10021FFF771
:1096500073FF0130ECD194F913300393237A029312
:10966000E3790193A3790093244F63792279E17818
:10967000204800F0DDFD30683A781F4E342303FBAC
:109680000263811D4D3311F801CD03F801C98142F8
:10969000F9D194F913101A48342404FB026282F8B9
:1096A000571000F0C5FD2B689B7A07EE903A3B7887
:1096B000F8EE677A04FB036617EE900AC6ED197A96
:1096C00002F0E4FD02460B460E4800F0B1FD002317
:1096D0003B70ADE7FC380020073A0020F43800204A
:1096E000F8380020F82A0020FA2A0020662B0020F3
:1096F000642B0020BEDD0200C82D0020953B002019
:10970000E7DD0200F0DD020003881D2B02D10830E6
:10971000FFF722BF7047000008B50348FCF787FF3A
:10972000024B00221A6008BD58340020343E00204D
:109730002DE9F843684B694D1968694B044669483F
:10974000196000F075FDFFF7F9FB2046FFF72EFAD0
:109750006548664C00F089FD2368002B00F0B1805D
:109760002B78002B40F0AD806148624D00F07DFD0C
:10977000614B93F85400FFF753F94FF47A70FFF7F9
:10978000F7F901F0DDFF4FF47A70FFF7F1F9FFF719
:10979000C3FF95F90030082B00F39680574C584FC3
:1097A0002368642B03D93B780BB911232360554BF5
:1097B00095F900101E68544BDFF8C0911868534BA0
:1097C000DFF8BC811A688B1B121A5A43504B1B6876
:1097D0009B1B92FBF3F24F4B4F4E02441A702368CF
:1097E00003F5617307EE903A4C4BF8EE677AC3EDE0
:1097F000007A4B4BD3F800C04A4B18684A4B1A68A2
:10980000A1EB0C03121A5A43484B1B68A3EB0C0341
:1098100092FBF3F2464BD3F800C0464B0244186863
:10982000454B3270454A1B681268A1EB0C011B1AAC
:10983000A2EB0C024B4399F8001093FBF2F30344A4
:109840003F4888F8003000F0F3FC3E4B3E48196872
:1098500000F0EEFC95F900103C4800F0E9FC3C4BB0
:109860003C48196800F0E4FC3B4B3C48196800F0A8
:10987000DFFC3B4B3B48197800F0DAFC21683A48A2
:1098800000F0D6FC3978394800F0D2FC216838481D
:1098900000F0CEFC96F90010364800F0C9FC98F9AB
:1098A0000010354800F0C4FC99F800307BB14FF04F
:1098B0008043B122C3F81C256420FFF759F9FFF754
:1098C0009BF8FDF701FB47E707232B7066E7BDE830
:1098D000F843FFF75BB900BF883B00201239002036
:1098E0008C3B0020F9DD020004DE0200343E002043
:1098F00019DE02008C2B002020300020602B00207D
:1099000011390020683A00207C2B0020782B0020A1
:10991000682B0020853A002008390020702B002099
:1099200000390020502B00204C2B0020482B002019
:109930000C3900205C2B0020582B0020542B0020D9
:109940002EDE0200442B002037DE020044DE02003F
:10995000842B002057DE0200802B002066DE0200F0
:10996000A92D002078DE020082DE020098DE0200CF
:10997000BADE0200D0DE0200EDDE0200AA2D0020D9
:1099800010390020F8B55A4C5A48FFF7D1FE237819
:1099900053B14FF0A0430422C3F808254FF4FA60F6
:1099A000FFF7E6F8FFF722FC534B187802280ED198
:1099B0002378002B55D15149514A524B0C681568F8
:1099C000186844EA0506064316D1042048E000283A
:1099D00000F08C80032840F089802378002B4ED142
:1099E0004649474A474B0E6815681C6846EA050712
:1099F00027430FD1052033E0002D01DD204371D036
:109A0000086800280DDD106858B91868002808DDBE
:109A1000072025E0002E19DDC5B9002C16DD082031
:109A20001EE0086828B91068002802DD18680028C0
:109A30005ADC0968002959DD1268002A56DD1B68C6
:109A4000002BC8BF0A20D8BF032009E009680029FD
:109A500006DD1268002A03DD1B68002BC8BF0B203F
:109A6000F8BD012B19D1254B1968254B1A68254BD8
:109A70001B6841EA020018431DD10C20F0E7012BBE
:109A8000EED11E4B19681E4B1A681E4B1B6841EA2B
:109A900002041C4316D10D20E2E7022B26D1174BFE
:109AA0001968174B1A68174B1B6841EA02001843E4
:109AB00010D10E20D4E7002918DDBAB9002BC8BF99
:109AC0000F20C0E70029CBDD002AC9D1002BC8BF79
:109AD0001020C5E751B9002A08DD002BD4BF0320B0
:109AE0001120BDE70620BBE70920B9E70320B7E74F
:109AF00011390020C0D40100A92D0020442B0020E2
:109B0000802B0020842B002008B5FFF7E9FB0E4DC9
:109B10000E4CFFF765FA2868FFF748F8236813B979
:109B2000FDF7D2F9FAE7FFF7F7FDFFF743FA084B25
:109B30001868FFF73BF8236813B9FDF7C5F9FAE792
:109B4000FFF7EAFDE5E700BF442B0020343E00208C
:109B5000842B002008B5FFF7C3FB0E4D0E4CFFF71A
:109B600063FA2868FFF722F8236813B9FDF7ACF908
:109B7000FAE7FFF7D1FDFFF71DFA084B1868FFF76A
:109B800015F8236813B9FDF79FF9FAE7FFF7C4FD4D
:109B9000E5E700BF442B0020343E0020842B00204A
:109BA00083B5184C184D194F194E0023012201930B
:109BB00097F90030009311462368284602F048F9CF
:109BC000144B1868FEF7F2FF336813B9FDF77CF900
:109BD000FAE7FFF7A1FD97F9003000930022236810
:109BE00001922846012102F033F90B4B1868FEF769
:109BF000DDFF336813B9FDF767F9FAE7FFF78CFD6E
:109C0000D1E700BF602B0020783400200839002005
:109C1000343E0020442B0020842B002083B5174CB9
:109C2000174D184F184E97F9003000930122236802
:109C300001921146284602F00BF9144B1868FEF702
:109C4000B5FF336813B9FDF73FF9FAE7FFF764FD95
:109C500097F90030009301212368019128460022E2
:109C600002F0F6F80A4B1868FEF7A0FF336813B944
:109C7000FDF72AF9FAE7FFF74FFDD2E7602B002046
:109C80007834002008390020343E0020442B002086
:109C9000842B002083B5174C174D184F184E97F999
:109CA000003000930021236801910122284602F030
:109CB000CFF8144B1868FEF779FF336813B9FDF736
:109CC00003F9FAE7FFF728FD97F900300093002227
:109CD000236801922846114602F0BAF80A4B186828
:109CE000FEF764FF336813B9FDF7EEF8FAE7FFF704
:109CF00013FDD2E7602B00207834002008390020C3
:109D0000343E0020442B0020842B002037B5124A1B
:109D1000019000231370114A114C1370114A124D17
:109D20001370124A1370124A1370124A1370FFF71D
:109D30008DF80198FEF73AFF236823B92B7813B901
:109D4000FDF7C2F8F8E7FEF775FEFFF7E5FC03B094
:109D5000BDE8304001F0F4BCA42D0020A82D002067
:109D6000343E0020A62D0020953B0020A72D00208A
:109D7000A52D0020943B002008B5034B1868FFF781
:109D8000C5FF062008BD00BF802B002008B5FFF7E7
:109D9000A7FA084C084D094E2068FFF7B7FF28685E
:109DA000FEF704FF336813B9FDF78EF8FAE7FFF703
:109DB000B3FCF1E7802B0020842B0020343E0020F0
:109DC00008B5FFF78DFA104D104CFFF709F9286818
:109DD000FEF7ECFE236813B9FDF776F8FAE7FFF714
:109DE0009BFCFFF7E7F80A4B1868FEF7DFFE2368D5
:109DF00013B9FDF769F8FAE7FFF78EFC054B186811
:109E0000FFF784FFE1E700BF442B0020343E002031
:109E1000842B0020802B002008B5FFF761FA104D3D
:109E2000104CFFF701F92868FEF7C0FE236813B94C
:109E3000FDF74AF8FAE7FFF76FFCFFF7BBF80A4BAC
:109E40001868FEF7B3FE236813B9FDF73DF8FAE78B
:109E5000FFF762FC054B1868FFF758FFE1E700BF0A
:109E6000442B0020343E0020842B0020802B002037
:109E7000F8B5424C424D434E434F002323702378A4
:109E8000142B78D8DFE803F00B12181E232D353B76
:109E900040454A4F54595E63686D777772003B487E
:109EA00000F0E3F9FFF7E0F92070E8E7384800F048
:109EB000DCF9FFF7F5F9F7E7364800F0D6F9FFF7D8
:109EC00061FDF1E7344800F0D0F9FFF775FA384644
:109ED00000F0CBF9FFF704FAFFF782F803232370B1
:109EE000CDE7304600F0C1F9FFF7FAF9FFF79CF82B
:109EF000F4E7284600F0B9F9FFF73EFFD4E727481A
:109F000000F0B3F9FFF700FE254800F0AEF9FFF7C7
:109F100021FE244800F0A9F9FFF738FF224800F09D
:109F2000A4F9FFF74DFF214800F09FF9FFF774FFF8
:109F30001F4800F09AF9FFF7FBF91E4800F095F969
:109F4000FFF70EFA1C4800F090F9FFF71FFA1B48C4
:109F500000F08BF9FFF724FE194800F086F9FFF7AF
:109F60005DFE184800F081F9FFF794FE164800F0F6
:109F70005FF9FFF75BF91548A5E700BFD53C002066
:109F800069DF020053DF02003EDF02000CDF020047
:109F90001BDF02002CDF02007FE002007BDF0200FB
:109FA0008FDF0200A4DF0200B5DF0200CCDF020079
:109FB000E4DF0200F9DF02000FE0020021E002000E
:109FC00035E002004AE002005BE0020076E00200B9
:109FD00013B51B4C204601F0CCFF1A4A1A49204603
:109FE00003F080FD19481A4C01F0C2FF194802F035
:109FF00080F84FF0CC7307220093082102232046FB
:10A0000002F078F8204602F081F80146124802F08A
:10A010007FF8124802F06CF8114801F0A1FC1148D9
:10A0200001F09AFC104B1A68104B02F164011960A0
:10A030000F4B9A800F4A59801268DA8002B010BD27
:10A04000083A002000000000E5C00200383E002071
:10A05000503A00206C3A0020A82F0020B42D002098
:10A06000983B0020D83C0020FC2A0020B02D002086
:10A07000102B0020AC2D00200369C26893429CBFC6
:10A0800080681B18013B981A70472DE9F843D0E906
:10A0900002940546A9EB04084068904520440F4609
:10A0A000144404D902F0D4FCEC60BDE8F8834246C5
:10A0B000A4EB090402F0CCFC6868224607EB080117
:10A0C000F0E72DE9F843C5680646894617464FF084
:10A0D00000083469B3687068A54228BFE418013CE1
:10A0E000621B5C1BBC4228BF3C46944228BF1446FE
:10A0F00049462844224602F0ABFCB3682544AB42F3
:10A1000008BF00253F1BA044A144F560E1D14046B3
:10A11000BDE8F88310B5114C114AA2610223C4E9CD
:10A120000433104BE361A2644FF400730E4A0F49ED
:10A130002362E26400231022E01DA3626362E362F3
:10A14000A3656365E365226502F0DEFC08492046ED
:10A1500002F0DAFC2023A37110BD00BF3C3E0020BA
:10A16000A6E00200C43E0020B43E0020AFE00200A2
:10A17000B3E0020070B5164B182400FB04451D44E3
:10A1800004FB00331646DC6A012C0ED0022C18D0DA
:10A19000E4B92846FFF770FF864204D832462846C5
:10A1A000FFF773FF3446204670BD2846FFF764FF73
:10A1B0008642344628BF044622462846FFF765FFFC
:10A1C000F1E72846BDE87040FFF77BBF0024EAE7CF
:10A1D0003C3E002073B50E4B1B7804460D461646D8
:10A1E0000BB9FFF797FF00230DF107008DF807303B
:10A1F000FCF734FC324629462046FFF7BBFF0446F5
:10A200009DF80700FCF74EFC204602B070BD00BF71
:10A210003C3E002013B504460846019102F0BDFC07
:10A2200001990246204602B0BDE81040FFF7D2BFB8
:10A230000FB410B5A2B024AB802153F8042B0193C6
:10A2400002A802F0F5FB802804460ADD802202A95C
:10A250000020FFF7BFFF204622B0BDE8104004B049
:10A2600070470028F7DD0246F1E701460020FFF7BE
:10A27000D1BF07B50122019001A90020FFF7AAFF75
:10A28000019803B05DF804FB6DDF704779DF70471C
:10A290007DDF704764DF70472DE9F04F85B0002502
:10A2A0000E9CBDF83CB0B4F800A001910746904662
:10A2B0001E46A9463A884A450DDC45B12388013B34
:10A2C000A3EB0A039BB2FF2B3AD806F80A30002012
:10A2D00005B0BDE8F08F7A6852F82900039000229B
:10A2E0000DF10B0103A8FFF7D5FF0028F0D19DF871
:10A2F0000B20424521D12288002D14BF00200220CE
:10A3000002EB0801014459451ADC3DB9013292B211
:10A31000019B2280B35422880132228022880DF1D1
:10A320000B01324403A8FFF7B5FF0028D0D12188E4
:10A330009DF80B200A442280012509F10109B9E7A3
:10A340000C20C5E72DE9F341089FBDF82480154690
:10A35000CDE90078022204461E46FFF79DFF50B962
:10A360003346102229462046CDE9087802B0BDE8E0
:10A37000F041FFF791BF02B0BDE8F0812DE9F04F49
:10A3800000231788138090F82D3085B006460D46BF
:10A3900014465BB3082F01D80C2028E102A8FFF770
:10A3A00073FF002840F023812388DDF8091008227C
:10A3B000EA54238801339BB21B222380EA5423886A
:10A3C00001339BB2EA182380E950BDF80D30938029
:10A3D00023889DF8082006339BB212F0FE0218BFB6
:10A3E00001222380EA54238801332380B378FBB110
:10A3F00023880433BB42CFD802A8FFF747FF0028C9
:10A4000040F0F58023880322EA54238801339BB26D
:10A4100019222380EA542388BDF8082001339BB217
:10A42000E9182380EA54120A4A70238802332380F1
:10A43000F2789AB12388D91CB942ADD80221E954E7
:10A44000238801339BB201212380E95423880B44E4
:10A450009BB22380EA5423880B4423807268AAB1FC
:10A460002388D91CB94297D8022192F90020E954D7
:10A47000238801339BB20A212380E95423880133C6
:10A480009BB22380EA542388013323803389002B35
:10A4900040F0A180338A5BB1CDE900472B4607220B
:10A4A000032106F11000FFF74DFF002840F09F80C8
:10A4B000338B5BB1CDE900472B461522142106F101
:10A4C0001800FFF73FFF002840F09180326A002A11
:10A4D00040F09080D6F82480B8F1000F30D0B8F862
:10A4E00004302188981C8A1C0244BA423FF654AFBB
:10A4F000FE283FF651AF03336B54238801339BB2E0
:10A50000FF222380EA54238801339BB22380B8F8CA
:10A510000020EA54E918120A4A702088023080B2FA
:10A520002080B8F804205AB1D8F8081000296BD060
:10A53000284402F08DFA2388B8F8042013442380BD
:10A5400096F82C30002B40F09880307800284ED0C0
:10A550003388012B58D0228802F1020CBC453FF60B
:10A560001BAF012805D17378023313449F42FFF4D7
:10A5700013AF023FBF1ABFB202A905EB0C00ADF842
:10A580000870FFF785FE90BB3178BDF808300229CE
:10A5900000F0B98072789A4202D39F4280F0B18075
:10A5A000012940F0B280974293B2C0F0AE80ADF87E
:10A5B00008300821BDF80830FE2B3FF6EDAE2288AA
:10A5C0000133AB542288013292B22280A9542288EE
:10A5D000134423800BE0CDE900472B4606220221DD
:10A5E00006F10800FFF7AEFE00283FF453AF05B0B8
:10A5F000BDE8F08FB4F800C00CF10603BB423FF693
:10A60000CBAE1188052901D80720F0E76FF4486E1A
:10A6100001EB0E039BB24FF27D3E7345F4D9538894
:10A62000052BF1D96FF44860181880B27045EBD94A
:10A630004FF6FF70814201D09942E5D8052305F815
:10A640000C30238801339BB212212380E9542388E4
:10A6500001339BB223801188E954E818090A41703C
:10A66000238802339BB223805288EA54E918120AE5
:10A670004A702388023323802CE7B36A002BC3D0AF
:10A680004FF000084FF00C0A4FF0160BB16A5FFA5A
:10A6900088F20AFB02F201EB0209B9F80430981CB7
:10A6A000FE283FF679AE208803332B5423880133EC
:10A6B0009BB2238005F803B0238801339BB223802B
:10A6C0008A5AEA54E918120A4A702088023080B285
:10A6D0002080B9F804205AB1D9F80810002993D085
:10A6E000284402F0B5F92388B9F8042013442380E4
:10A6F00096F82C2008F101085FFA88F39A42C5D831
:10A7000023E7092156E79F42FBD2ADF8087050E7D6
:10A7100070B5E8B14AB116880024B44203D30519D4
:10A720006D789D4208D0A14201D8002010E0055D5F
:10A7300001352C44A4B2F0E7A142F6D9005D0138FE
:10A74000A31C80B29DB210FA83F38B42EDDC15801E
:10A7500070BD13B513460022ADF806200DF10602B8
:10A760000446FFF7D5FF10B1BDF80630E01802B07F
:10A7700010BD72DF704773DF704738B501220446A1
:10A780000D46B0F81414D0F81004FFF7E2FF00B142
:10A79000057004F13C0204F5826104F15400BDE847
:10A7A0003840FFF7E6BF80F830107047F8B5044630
:10A7B0000F46002973D0002871D091F87A301BB170
:10A7C00091F89830002B6CD1D7F8A030042B68D0CA
:10A7D000D7F89C30042B64D04FF0000C84F802C0F2
:10A7E00007F178060FCE251D0FC50FCE0FC596E8D1
:10A7F000070085E8070084F830C0D7F8A430636309
:10A80000D7F8A830A36304F582624FF6FF73C4F84B
:10A8100026C4A4F82434C4F82024C4F829C4227817
:10A820000AB984F8543094F82430002B14BFEE2376
:10A830001F2304F15501C4F81014A4F8143404F2D1
:10A8400014423846FFF79AFD40BB94F82430002BA1
:10A8500014BFEE231F2304F23121C4F81814A4F806
:10A860001C3404F21C4207F13C00FFF787FDA8B935
:10A87000A369A4F848304FF480730125A4F8503040
:10A8800063692064014684F83C50636404F13C022F
:10A8900004F15400FFF76DFF00B92570F8BD0E20DC
:10A8A000FCE70720FAE7F8B5077804460D46002FC5
:10A8B00000F001810023C0F82634C0F82934C38891
:10A8C000817000F226460BB1012903D0E37943B130
:10A8D000022D06D1636BABB1012284F82D24082030
:10A8E000984704F2274304F22D4113F8012B12B9C3
:10A8F0009942FAD117466B1E032B4ED8DFE803F0BE
:10A90000050B0F1284F82D34EBE7A3791BB194F8F3
:10A91000243003B95FB9E3790BB1002F3FD1237A1B
:10A92000002B3ED1637A002B0CBF00250425636BFE
:10A93000A570002B37D0033D012D34D8627992B336
:10A9400094F82E247ABB84F83024012284F82F2432
:10A950000720984704F13C0518220021284602F000
:10A96000A0F8E26A531E0121022B28BF0A4684F890
:10A97000512094F8242084F83C1032B1A36A581E68
:10A98000022828BF0B4684F85230A378042B1CD829
:10A99000DFE803F0780D23365A000025C7E70225CB
:10A9A000C5E70325C3E7002384F82F34D2E701234A
:10A9B00084F831300023C4E91063C4F82034022342
:10A9C00084F83C308023A4F84830A378002B5DD174
:10A9D000636B002B6BD1002068E00223002A84F80F
:10A9E000313014BF0723032384F83C302369A4F8D3
:10A9F00048300023C4F82034E36826646364E4E745
:10AA000063696364A369A4F8483012B1062384F82B
:10AA10003C306379B3B194F82E349BB994F8303458
:10AA200083B1022384F8503004212046FFF7A5FEAD
:10AA30000028CAD1052384F8313004F58263C4F8B4
:10AA40002034C2E70323F6E7E3696364236AA4F8CA
:10AA5000483012B1062384F83C30637983B194F80E
:10AA60002E346BB994F8303453B1022384F850304B
:10AA700004212046FFF781FE0028A6D10623DAE74D
:10AA80000423D8E7002384F831309EE7D4F820145B
:10AA90002A4604F15400FFF76CFE38B994F83010E0
:10AAA00094F85400FFF767FE002891D0F8BD94F8A1
:10AAB000310098478FE70820F8E70388112B10B57D
:10AAC0000C460AD0262B1FD0102B05D1C37B012B9F
:10AAD00002D18388A1F8243410BD0022838881F834
:10AAE0002E24B1F824249A42F6D10B79002BF3D10D
:10AAF00001212046FFF7D7FE0028EDD0A36B002BE5
:10AB0000EAD0BDE810401847037A013B012BE3D897
:10AB1000897805230131B1FBF3F303EB8303C91AF1
:10AB2000C9B2E6E775DF704776DF70477ADF7047B6
:10AB30007BDF7047034B1A8882420CBF1846002007
:10AB4000704700BFE0400020024B9B6903B11847EB
:10AB5000704700BFC440002073B585B22846FFF798
:10AB6000E9FF044638B3174E027A337B9A420CD27F
:10AB700000F10A012846FFF7D5FFF0B111281AD0DD
:10AB800002B0BDE87040FFF7DFBF00230372337CE3
:10AB900043B13B212846FFF7C7FF30F0080301D03F
:10ABA000FFF7D2FF736933B100228DF80420ADF8AE
:10ABB000065001A8984702B070BD237A0133237272
:10ABC000F9E700BFC440002037B50B46497A0F4A69
:10ABD00079B9D2E901141D7A0246002D18BF214629
:10ABE0005868FBF70CFD78B103B0BDE83040FFF7C3
:10ABF000ABBF00211972536933B10122ADF80600D1
:10AC00008DF8042001A8984703B030BDC44000204F
:10AC10004B8802889A4212D842889A420FD3808881
:10AC20008B8840F2F311884294BF021A421A9A426A
:10AC300005D80844984234BF002001207047002006
:10AC4000704700000388122B70B5014659D004D814
:10AC5000102B1ED0112B44D070BD502BFCD12F4B8C
:10AC6000C288DB899A42F7D1038A022BF4D1868805
:10AC70003046FFF75FFF05460028EDD001F11200D6
:10AC800000F07FF938BB6868FBF7D1FC0028E3D0FF
:10AC900009E0C37B012BDFD14FF6FF70FFF74AFFBE
:10ACA000054620B90420BDE87040FFF74DBF1C4A9F
:10ACB0008E880680002303721368C0F80A30536838
:10ACC000C0F80E3010310A30FFF7A2FF134B687244
:10ACD000DB89002BC0D129463046BDE87040FFF724
:10ACE00073BF8088FFF726FF04460028B4D0406871
:10ACF000FBF79DFC08B1FFF727FF4FF6FF7323809A
:10AD0000AAE786883046FFF715FF05460028A3D03E
:10AD100008310A30FFF77CFF6872DCE7C44000208E
:10AD2000F4400020F8B5064648B305460FCD154F50
:10AD30003C460FC495E8070084E807003068124CD1
:10AD40003C60B0B1FFF7F2FEC0B93268136823600F
:10AD5000536863600D480E4A4FF6FF7303800D4B36
:10AD600040F8043F0021FBF73FFC002818BF0320F8
:10AD700004E02046FFF7DCFE0028EBD0F8BD0E20F3
:10AD8000FCE700BFC4400020F4400020E040002069
:10AD900059AB0200004100200AB1FCF749B8FCF7AA
:10ADA00050B873B50191019C06466CB100252C4644
:10ADB000294601A8FCF74FF818B106EB440301340B
:10ADC0009D800135142DF3D13046346002B070BD42
:10ADD0002DE9F04703888488103B8CB005460A2B88
:10ADE00021D8DFE803F00640202020202020206525
:10ADF0004700DFF8E880D8F80830DB430093D8F844
:10AE000004106846FCF73CF8009901A8FFF7C9FF59
:10AE10000DF108090027019B9F4207D3132C12D97B
:10AE20000420FBF7D9FA0CB0BDE8F08739F802AB83
:10AE300000260136514608EB8600FCF702F81E2E6C
:10AE4000F7D10137E7E71F482146FBF7F1FF1E481E
:10AE50002146FBF7EDFFEB7B012BE4D01B4821469D
:10AE6000FBF7E6FFDFE7174821460CB0BDE8F047E7
:10AE7000FBF7E7BF027A16483F2A4FEA1215214630
:10AE800094BF00220122FFF787FF022D94BF00220A
:10AE9000012210482146FFF77FFF012D0E4894BF85
:10AEA0000022012221460CB0BDE8F047FFF774BF35
:10AEB000037A002BB7D1427A0548C2F3C00221467B
:10AEC000F1E700BF28410020244100202C41002050
:10AED0003841002034410020304100202041002032
:10AEE0001328014602D80248FBF7B5BF002070477F
:10AEF0002441002010B50446FFF7F2FF002814BFDC
:10AF00002046142010BD70B50546164608460AB9FD
:10AF10000E2070BD00231360002DF9D02B68002B8C
:10AF2000F6D0EB8813F003040ED1FFF7E3FFC0B2B5
:10AF300014280BD02B7983420AD9EA882B6800FBAE
:10AF4000023030602046E4E70720E2E70520E0E732
:10AF50000420DEE7AADF7047002301380B700428C5
:10AF600006D8DFE800F00306080A0C0011230B7076
:10AF700070472123FBE73123F9E71223F7E7222368
:10AF8000F5E7008800F001007047F0B58B7891B0CC
:10AF90000C46012B38BF012300278DF80E300546E3
:10AFA0000B88607CADF80C306946ADF800708DF808
:10AFB0000270FFF7D1FFA07C0DF10101FFF7CCFF7C
:10AFC0001646237BE27B217D43EAC203227C43EACF
:10AFD00002139DF80220B94222F0190203F019036E
:10AFE00014BF02210121134361F342031C2239469D
:10AFF00009A88DF8023001F054FD637B13F0300F87
:10B0000014D00DF10901E07CADF808708DF80A70DC
:10B01000FFF7A2FF11238DF808309DF80A300121B7
:10B0200002AA61F342038DF80A300E92637B8DF819
:10B030002430A37B8DF825300023CDE90633089317
:10B0400003AB0493A388ADF81C30A368CDF814D0EB
:10B050001BB1E288ADF818200893A36973B301A966
:10B060000022ADF804208A701A88ADF82C205A8886
:10B07000ADF82E205A680D91187B0A92FFF76CFFED
:10B08000A3690DF10501587BFFF766FFA3699A7A62
:10B09000197A41EAC201DA7A9B7B41EA02119DF8F2
:10B0A0000620002B01F0190122F0190214BF02231F
:10B0B0000123114363F342018DF80610E36903B1E4
:10B0C0000C93334604AA09A92846FFF743FF11B0A1
:10B0D000F0BD90DF7047A5DF7047B5DF70471FB543
:10B0E0000023ADF80810ADF80A106A4602A9ADF8C1
:10B0F0000C30ADF80E300093ADF80430FFF7E9FFE7
:10B1000005B05DF804FB80B14FF0F7130360FB233B
:10B110000371F723C3801723038141F6FB32002319
:10B12000016143818281184670470E20704730B11B
:10B13000A1F11703E02B04D80180002070470E20F6
:10B1400070470720704713B5034680880C46A0B9A6
:10B150001A88242A7DD012D8112A56D0232A00F02A
:10B160008880102A2ED0A37A3BB1E1880020FFF717
:10B17000B2FF10B94FF48073638102B010BD3A2A58
:10B180004CD0552AEFD1DB88C988A072172B38BF65
:10B1900017238B4228BF0B462381FFF79EFFE27ADD
:10B1A000002AE0D12369002BDDD040F67721ADF8ED
:10B1B00002202289ADF80010ADF80420694620462F
:10B1C0009847D0E7DB7B0A790A73012B13D0022B57
:10B1D00014D0E18823898B4205D20020FFF77BFF42
:10B1E00070B90123E372217B637B8B42BBD20020C9
:10B1F000FFF775FFB7E70B88E380EAE74B88FBE7CB
:10B20000112804BF0123A372EDE7F723CB80172396
:10B210000B8141F6FB3348818B81A4E75B89CA88A7
:10B22000934228BF1346172B0A6938BF17230B8197
:10B2300062B1C97A51B140F67721ADF80010ADF88E
:10B240000200ADF804306946204690470023638130
:10B2500089E71A7A0B694A73002B84D04DF67A215C
:10B260008DF80500ADF80010ADF802008DF804204F
:10B27000A4E7197A237B994228BF1946B8E7B0DFC3
:10B28000704766DF704710B5002104464088FFF71D
:10B29000F8FF034608B9237210BD112801D101231C
:10B2A000F9E76368BDE81040184760B159B1037809
:10B2B000DE2B0AD00B684360DE2303704FF6FF736A
:10B2C0004380002070470E2070470820704728B147
:10B2D0000378DE2B04D14180002070470E20704798
:10B2E00008207047F0B5054685B00C46002942D0CD
:10B2F000002840D00B78DE2B3DD182884B889A42C3
:10B3000004D10B7A13B10846FFF7BDFF2B88112B30
:10B3100033D0512B0FD0012B2DD12B7A012B2AD1D9
:10B32000A9886288914226D12046237205B0BDE8E3
:10B33000F040FFF7A8BFAE886388B3421BD1AF7956
:10B34000022F18D1AD7B2B1F022B14D80021102205
:10B35000684601F0A6FB052D18BF4FF4C07369467F
:10B36000304618BFADF804308DF80070FFF787FF46
:10B3700008B16368984705B0F0BD6388AA889A420F
:10B3800004BF4FF6FF736380F5E7A8DF7047ADDFBA
:10B390007047AEDF704762DF704770B505468AB010
:10B3A0000C4600295ED000285CD00388502B33D097
:10B3B000572B6BD0102B55D181886069002601AACC
:10B3C0000196FFF7A0FD02232189A888ADF80A6045
:10B3D00002AACDF80CD0ADF80830FFF7D8FF00284E
:10B3E00040D1A369002B3DD00398FFF7CAFD002888
:10B3F00038D0019E0EB1012333701822002104A819
:10B4000001F04FFB02238DF81030AB88ADF81830F7
:10B410000594A369079623E08188606902AAFFF773
:10B4200072FD1822002104A801F03BFBAB882189A2
:10B43000ADF81830EB88029A05949942079218D11A
:10B440002E8A022E15D16AB105F11200FFF799FD7F
:10B45000029B48B101221A708DF81060A3690BB1EC
:10B4600004A898470AB070BD187003238DF81030F7
:10B47000F4E7A2899A42F5D1A369002BF2D005F135
:10B48000120208922A8AADF82420E9E781886069CF
:10B4900002AAFFF738FD01460028E3D1029E337867
:10B4A000002BDFD0182204A801F0FBFA0123AAE741
:10B4B000F0B53A4B8FB002AD04460A4603F1100CCA
:10B4C0002F46186859682E4603C60833634535462B
:10B4D000F7D1002C5FD0002A5DD01368A36121460C
:10B4E0003846FFF758FF002853D12246012512F8AD
:10B4F000023B8DF8063001A92846ADF80450FFF74D
:10B5000044FF002845D10146202206A801F0C9FACF
:10B5100022460223ADF8183012F80C3B8DF81A3091
:10B52000BDF824301E4E6088079623F44F6323F045
:10B530000F0343F440632B4306A9ADF824308DF884
:10B5400029508DF82A50FFF720FD10BB014620221C
:10B5500006A801F0A6FA22460323ADF8183012F827
:10B56000043B8DF81A30BDF824306088079623F428
:10B57000875323F01F0343F480532B43ADF824304B
:10B5800006A940F201138DF82950ADF82A30FFF7D3
:10B59000FCFC0FB0F0BD0E20FBE700BFBAE00200DC
:10B5A000F4000100F0B50F4687B016461C4605466C
:10B5B00010B3406901AA1946FFF7A5FCD0B94FF6B0
:10B5C000FF739C421AD0019BC3B11B78C3B133886F
:10B5D000F42B17D8AB88CDF80B008DF80F00ADF821
:10B5E000083002A901232046CDE904678DF80A300E
:10B5F000FFF7CFFE07B0F0BD0E20FBE70520F9E70F
:10B600000820F7E70720F5E710DF704711DF7047E4
:10B6100013B5044609496846FBF77EFC019808B952
:10B6200002B010BDD0E900212046904718B168460D
:10B63000FBF77CFCF2E71120F2E700BFD0E002004C
:10B6400013B5044607496846FBF766FC019B0BB936
:10B6500002B010BD2046D3E9002190476846FBF7B1
:10B6600065FCF3E7E8E00200064B9A6822B11A682D
:10B6700022F480021A607047034B4FF48002C3F833
:10B6800080207047482C002000E100E00B4991F831
:10B6900016335A09EC231341DB0706D5084B9A6889
:10B6A0003AB94FF480030B60704742F20200FAF798
:10B6B00093BE1A6842F480021A60704700E100E00D
:10B6C000482C0020F7B5194F3C7864BB184E012573
:10B6D00020463570FFF79CFF112821D02046FFF748
:10B6E000AFFF144B8DF80340186801900DF1030073
:10B6F000FBF7B4F9104901A8FFF786FF0446B0FA3A
:10B7000080F0400938709DF80300FBF7CBF93CB995
:10B710000A4B34701C70FFF7B9FF2846FFF790FF03
:10B72000204603B0F0BD0824FAE700BF9D41002089
:10B730009C410020CAE00200F56302009E41002007
:10B74000F7B5154F3B781BB3144E01203070FFF74F
:10B750005FFF11284FF000051CD00220FFF770FF9B
:10B760000DF107008DF80750FBF778F9FFF74EFF52
:10B7700004469DF807003D70FBF794F92CB90320AF
:10B780003470FFF771FFFFF75BFF204603B0F0BD99
:10B790000824FAE72C46F8E79D4100209C41002050
:10B7A000014B1878704700BF9D41002007B508493C
:10B7B0006846FBF7B1FB019B13B903B05DF804FBCE
:10B7C000D3E9002090476846FBF7B0FBF3E700BFE2
:10B7D000DCE00200FFF7EABF60DF704769DF704717
:10B7E00061DF704730B5134DADF5017D4FF4FA744C
:10B7F0000DF1020103A8ADF80240FFF7F1FF70B9A7
:10B80000294601A8FBF788FB029B002BF0D003A878
:10B81000D3E90021904701A8FBF788FBF4E705284E
:10B8200005D00DF5017DBDE83040FAF7D5BD0DF529
:10B83000017D30BDF4E00200024B1B780BB1FFF735
:10B84000D1BF70479F41002018B1034B0360002017
:10B8500070470E20704700BFD82A0020F0B5074679
:10B8600085B00D46002947D00024244A0A60CDE95E
:10B870000144012606238DF8040001A92020ADF81B
:10B88000083003948DF80660FFF7A8FF2A68039438
:10B8900001A94020CDE901448DF80560FFF79EFF26
:10B8A000F7232A68039401A92320CDE90144ADF8C8
:10B8B00006308DF80470FFF791FF2A68039401A900
:10B8C0003046CDE901448DF80460FFF787FF4FF45F
:10B8D000B0632A68019301A9A120CDE90244FFF7D2
:10B8E0007DFF2A68039401A9A020CDE90144FFF758
:10B8F00075FF204605B0F0BD0E20FBE7D82A0020DA
:10B9000008B5FFF769FF10B9014B01221A7008BD95
:10B910009F4100204BDF70471FB50E4C01A8FFF779
:10B92000F9FF70B9214602A8FBF7F6FA039B002B3A
:10B93000F4D00198D3E90021904702A8FBF7F6FA6A
:10B94000F4E7052804D004B0BDE81040FAF744BD80
:10B9500004B010BD00E102007047FB2070470000FA
:10B96000014B0360704700BF14E1020010B586B0C0
:10B9700061F07F0100690C4C8DF80010022301A9D1
:10B98000CDE904138DF8012002A9002204302270B1
:10B99000CDF808D00393FBF7B9FF10B92378002B3B
:10B9A000FCD006B010BD00BFD43C002090F8203081
:10B9B000012B10B5044606D000220121FFF7D6FF67
:10B9C000012384F82030012010BD90F82030052B91
:10B9D00010B504460BD007220121FFF7C7FF8022D4
:10B9E00040212046FFF7C2FF052384F8203094F859
:10B9F0002030052BFBD0A07E10BD00000378022B69
:10BA000002D10448FEF731BC012B01D10248F9E70D
:10BA1000704700BF20E102003BE1020038B5054D50
:10BA2000044645F001054FF47A40A847013CFAD19D
:10BA300038BD00BF70E6020000B58BB000234FF0A8
:10BA40000A0C08930B23CDE906C30D4B0993CDE9EE
:10BA500004120C4B0C4A00934FF48063CDE902238F
:10BA600001930A4A6946022304A8FAF735FF084BF6
:10BA700018700848FEF7F9FB0BB05DF804FB00BF37
:10BA800000E0D701A1410020A1450020FDB902003E
:10BA9000A041002056E1020010B51C46FFF7CCFF84
:10BAA000FAF772FF024B029A1C60024B1A6010BD3B
:10BAB000A4490020A84900202DE9F7430546174670
:10BAC0001E460C4691B1FAF75FFF204601F065F87B
:10BAD00004EB0008444506D02078FAF77BFF0028E5
