:020000022000DC
:10600000000001205D630200B9630200BB6302006F
:10601000BD630200BF630200C16302000000000014
:10602000000000000000000000000000C363020048
:10603000C563020000000000C7630200C9630200DC
:10604000F1890200CB630200CD960200E5A00200B8
:10605000CB630200CB630200ED930200CB6302002E
:10606000CB630200CB630200CB630200CB63020070
:10607000CB630200CB630200CB630200CB63020060
:10608000CB63020011750200CB630200CB630200F8
:10609000CB630200CB630200E5F30200CB63020096
:1060A000CB630200CB630200CB630200CB63020030
:1060B000CB630200CB630200000000000000000080
:1060C000CB630200CB630200CB630200CB63020010
:1060D000CB630200CB630200CB6302000000000030
:1060E00000000000000000000000000000000000B0
:1060F00000000000000000000000000000000000A0
:10610000000000000000000000000000000000008F
:10611000000000000000000000000000000000007F
:10612000000000000000000000000000000000006F
:10613000000000000000000000000000000000005F
:10614000000000000000000000000000000000004F
:10615000000000000000000000000000000000003F
:10616000000000000000000000000000000000002F
:10617000000000000000000000000000000000001F
:10618000000000000000000000000000000000000F
:1061900000000000000000000000000000000000FF
:1061A00000000000000000000000000000000000EF
:1061B00000000000000000000000000000000000DF
:1061C00000000000000000000000000000000000CF
:1061D00000000000000000000000000000000000BF
:1061E00000000000000000000000000000000000AF
:1061F000000000000000000000000000000000009F
:10620000354936480A1A02D0072291438D4634494F
:1062100034480A1A06D00722914381F309880222E2
:1062200082F3148830483149314A00F044F831484B
:106230003149324A00F03FF831483249324A00F0E1
:106240003AF832483249334A00F035F83248334997
:10625000334A00F030F833483349344A00F02BF821
:1062600033483449344A00F026F83448344900228F
:1062700000F02CF833483449002200F027F8334866
:106280003349091A082902DB002202604160314AC1
:1062900090471F481F49884205D00268043003B464
:1062A000904703BCF7E700208646EC46002000211B
:1062B000294A9047FEE7884207D0521A05D0037852
:1062C00001300B700131013AF9D17047884202D098
:1062D00002700130FAE770470000012000E0002062
:1062E000000001200000012040300300D82A0020D7
:1062F000622B0020D0630200D0630200E01B030089
:1063000040300300D82A0020D82A0020441C030073
:10631000441C0300481C0300441C0300441C0300ED
:10632000441C0300481C0300481C030040300300C9
:10633000CC300300642B0020642B0020642B002051
:10634000BC400020BC400020C0400020C0400020D5
:10635000C06000208563020001BB020000F036B877
:106360000F484FF00701884385460E4880470E4886
:10637000016841F470010160BFF34F8FBFF36F8F6D
:10638000FFF73EBF09480A490A4A884207D0521A15
:1063900005D0037801300B700131013AF9D1704713
:1063A00000000120A57B020088ED00E0441C0300F2
:1063B000D82A0020D82A0020FEE7FEE7FEE7FEE705
:1063C000FEE7FEE7FEE7FEE7FEE7FEE7FFF7C8BFF2
:1063D00000487047B440002086B0039002910192BB
:1063E00001238DF817309DF81730214A039B136065
:1063F0001F4A029B53601E4A019B9360039B44F219
:106400000102934213D0039B44F20202934221D132
:10641000019B174AD360164BDB681B881A46144B46
:106420009A61134BDB685B68114AD36112E0019BF0
:106430000F4A13610E4B1B699B680D4A53610C4B4D
:106440001B691B680A4A9361094B1B695B68084A10
:10645000D36100BF72B600BF00BF9DF81730DBB23A
:10646000002BFAD162B600BF00BF06B0704700BF74
:10647000642B002000B583B002900091019244F299
:10648000010071466A4600F003F803B000BD00BF8A
:1064900000B587B003900291019272B600BF039BD2
:1064A00044F20202934217D0039B44F20202934249
:1064B00018D8039B44F20102934210D0039B44F28C
:1064C000010293420ED8039B012B0DD0039B41F296
:1064D000010293420AD005E0019B059307E0019B6E
:1064E000049304E000BF02E000BF00E000BF084BDF
:1064F0001B6803F00103002B00D000BE019A029933
:106500000398FFF769FF00BF07B05DF804FB00BF09
:10651000F0ED00E0F0B583B0124800F0DFFF034675
:1065200018464FF00001104BD3E90023861841EBC9
:106530000307CDE900670D4BD3E90023DDE9000136
:10654000994208BF904207D2DDE9002312F180741E
:1065500043F10005CDE90045DDE900231046194669
:1065600003B0F0BDD82A0020902B0020982B0020EB
:1065700088B001900091019B0793009B0693079BB5
:10658000D3E90223CDE90423069BD3E90223CDE915
:106590000223DDE90423DDE90201994208BF9042AC
:1065A0002CBF01230023DBB2184608B0704700005F
:1065B00030B585B00190019B5B69002B03D12B495D
:1065C000A22004F061F900238DF80F30284B1B78CE
:1065D000002B45D0019B002B42D0019B1B7FDBB2DF
:1065E000002B3DD0FFF796FF019BD3E90223994290
:1065F00008BF90422CD3019B1B69002B02D1019B49
:1066000000221A77019B5B69019A926910469847AC
:10661000019B1B69002B23D0019B1B7FDBB2002B4E
:106620001ED0019BD3E90201019B1B691A464FF062
:106630000003841841EB0305019BC3E90245019B5C
:1066400019460C4801F0E8F901238DF80F3007E0F6
:10665000019B1946074801F0DFF901238DF80F303F
:106660009DF80F30184605B030BD00BF541C030024
:10667000882B0020481C0300F0B589B001900091E0
:106680000D230793009B00221A70019BD3E902455A
:10669000FFF740FF02460B46A61A65EB0307CDE95C
:1066A0000467DDE90423012A73F100031BDB049B6B
:1066B000B3F5350F05D300F0B7FA0246154B134476
:1066C00003E0019BD3E90223134603934FF496039F
:1066D000039A0021104800F003FE0790079B002B4F
:1066E00005D1012313E000210B4800F0D1FE079BE8
:1066F0000D2B07D10198FFF75BFF03461A46009B5D
:106700001A7003E00549F52004F0BEF8002318468E
:1067100009B0F0BDFFFFB400D82A0020541C0300CC
:1067200000B583B0044801F0B1F90190019B18460F
:1067300003B05DF804FB00BF481C030000B583B044
:10674000044801F0C5F90190019B184603B05DF8BB
:1067500004FB00BF481C030000B583B0FFF7E0FF57
:106760000190019B002B02D0019B00221A77019B14
:10677000002BF3D100BF00BF03B05DF804FB0000A5
:10678000054BD3E9002312F1807043F10001024B65
:10679000C3E9000100BF7047902B002000B583B013
:1067A0000190134B1B68002B1DD0019800F096FE42
:1067B0000F4B1B68D3E90223134623F07F4319468E
:1067C00000F026FA0346B3F5960F04D309494FF4B7
:1067D000957004F059F8064B1B681846FFF7E8FE61
:1067E000034B00221A6000BF03B05DF804FB00BF3A
:1067F000842B0020541C030000B583B00190FFF7E8
:1068000089FE02460B460349C1E9002300BF03B0DD
:106810005DF804FB982B002000B587B00190FFF7CE
:106820008DFF049000238DF81730049B002B48D077
:106830002B4B1B68002B03D101238DF8173019E077
:10684000049BD3E90201264B1B68D3E9022399423A
:1068500008BF90420ED201238DF81730204B1B68E1
:106860001B7FDBB2002B05D01D4B1B6819461D4852
:1068700001F0D2F89DF81730002B2AD0FFF750FF17
:1068800004900DF10F0319460498FFF7F5FE034637
:10689000002B12D0124B1B68002B02D1019800F084
:1068A0002BFC0F4A049B13609DF80F3083F001030B
:1068B000DBB2002BB3D000BF0EE0094B00221A6000
:1068C000ADE7074B1B68002B05D1019800F02AFCAF
:1068D00001E000BF00E000BF00BF07B05DF804FBAF
:1068E000842B0020481C030000B587B001902C4A7F
:1068F00003AB1946104600F0EEFE059048E0059BFC
:106900001B78022B2ED0022B32DC002B02D0012B65
:1069100014D02DE0059B5B681B7FDBB283F0010385
:10692000DBB2002B26D0059B5B6801221A77059B02
:106930005B6819461B4801F06FF81BE0059B5A681D
:10694000194B1B689A4203D1174B00221A6012E0C0
:10695000059B5B681946134801F0CEF803468DF895
:10696000133008E0FFF7F8FE104B01221A7002E026
:1069700000BF00E000BF0A4A03AB1946104600F012
:10698000C3FE074A03AB1946104600F0A4FE05906B
:10699000059B002BB3D100BF00BF07B05DF804FB1F
:1069A000F82B0020481C0300842B0020882B00209B
:1069B00000B583B00190019800F05DFD0346002B07
:1069C00001D0FFF7DDFE0021019800F072FD0346C3
:1069D000002B02D00198FFF7E1FE0121019800F0A1
:1069E00068FD0346002B02D00198FFF705FF0198D0
:1069F000FFF77AFF0198FFF70FFF00BF03B05DF8C4
:106A000004FB000008B5024800F075FD00BF08BD9A
:106A1000D82A002000B585B0034600918DF80730D4
:106A2000114A02AB1946104600F028FE0390039B62
:106A3000002B13D0039B9DF807201A70039B009A2C
:106A40005A60094A02AB1946104600F030FE034670
:106A5000002B01D0FFF7D6FF002300E004231846E7
:106A600005B05DF804FB00BFF82B002000B583B033
:106A7000164B1B680093164808235822154900F04E
:106A8000CAFD0190019B002B01D0019B19E06B46D0
:106A9000114A1946114800F0CFFA0190019B002BD2
:106AA00001D0019B0DE001210C4800F0D3FC012333
:106AB0000B4A0121094800F04BFB0A4B01221A70D6
:106AC000019B184603B05DF804FB00BFB41C030033
:106AD000F82B0020A02B0020B1690200D82A00204A
:106AE000FFFF7F00882B002000B587B003900B4686
:106AF00001928DF80B30039B002B04D1134940F217
:106B00002E2003F0C1FE019B002B04D10F4940F25F
:106B10002F2003F0B9FE019B002B01D1072310E0C9
:106B2000039B1B680593059B019A5A619DF80B30E6
:106B3000012B0CBF01230023DBB21A46059B1A610F
:106B40000023184607B05DF804FB00BF541C030087
:106B500030B587B0039002910192039B002B04D1C2
:106B6000154940F23E2003F08FFE039B0593059BE1
:106B70001B7FDBB2002B01D000231AE0059B019A9A
:106B80009A61FFF7C7FC029B1A464FF00003841876
:106B900041EB0305059BC3E90245059B1B69002BDF
:106BA00002D0059B029A1A6105990020FFF732FF77
:106BB0000346184607B030BD541C030000B585B02D
:106BC0000190019B002B04D109494FF4157003F08B
:106BD0005BFE019B0393039B00221A77039901201C
:106BE000FFF718FF0346184605B05DF804FB00BF29
:106BF000541C030008B5054B00221A700021022026
:106C0000FFF708FF0346184608BD00BF882B002089
:106C100082B001900091019A009BD31A23F07F4328
:106C2000184602B07047000008B5034800F056FC53
:106C30000346184608BD00BFD82A002082B0EFF3F3
:106C400010830093009B019372B600BF019B18460E
:106C500002B0704762B600BF00BF704700B585B094
:106C60000190FFF7EBFF0390164B9B68002B1BD1A5
:106C7000144B01229A60144BD3F88020134B13401D
:106C8000104A1360104B114AC3F880200E4BD3F802
:106C900084300C4A53600C4B4FF0FF32C3F8842011
:106CA000019B00221A7002E0019B01221A70039BD3
:106CB000002B01D1FFF7CEFF0023184605B05DF889
:106CC00004FB00BF0C2C002000E100E0FC06FFBD2F
:106CD00000B585B003468DF80730104B9B68002B3C
:106CE00016D09DF80730002B12D1FFF7A7FF0390B5
:106CF0000B4A0A4B1B681360094A084B5B685360D8
:106D0000064B00229A60039B002B01D1FFF7A2FFE4
:106D10000023184605B05DF804FB00BF0C2C0020D2
:106D200000E100E000B583B0019000F02BF80346CD
:106D3000012B03D00549432003F0A6FD0198FFF77E
:106D40008DFF00BF03B05DF804FB00BFB81C03005B
:106D500000B583B003468DF8073000F013F8034602
:106D6000012B03D00649512003F08EFD9DF807301A
:106D70001846FFF7ADFF00BF03B05DF804FB00BF8E
:106D8000B81C030084B0EFF305830193019BC3F3A8
:106D900008030393039B002B0DD1EFF3148300939F
:106DA000009B0293029B03F00103002B0CBF012305
:106DB0000023DBB200E00123184604B07047000056
:106DC00082B003468DF807309DF8073003F01F02AC
:106DD00005499DF907305B09012000FA02F241F8EC
:106DE000232000BF02B0704700E100E082B00346FC
:106DF0008DF807309DF8073003F01F0206499DF912
:106E000007305B09012000FA02F2403341F82320E9
:106E100000BF02B0704700BF00E100E082B003464F
:106E200000918DF807309DF90730002B0CDA009B9C
:106E3000DAB20C499DF8073003F00F03043B52010E
:106E4000D2B20B441A7609E0009BDAB206499DF9EA
:106E500007305201D2B20B4483F8002300BF02B0C6
:106E6000704700BF00ED00E000E100E000B583B036
:106E700003460A468DF8073013468DF806309DF814
:106E80000630012B03D99DF80630032B0BD99DF852
:106E90000630042B03D99DF80630072B03D9084987
:106EA0006B2003F0F1FC9DF806209DF90730114698
:106EB0001846FFF7B3FF00BF03B05DF804FB00BF47
:106EC0001C1D030000B583B003468DF807309DF903
:106ED00007301846FFF774FF00BF03B05DF804FBEE
:106EE00000B585B00190019B002B0AD0074B43F001
:106EF00001030393019B9B010293039B0298984714
:106F000000E000BF05B05DF804FB00BFF01D03000A
:106F100084B0039002910192039B029A02F5A87239
:106F2000019943F8221000BF04B0704782B001906D
:106F30000091019B009A02F5A87253F8223018467E
:106F400002B0704782B001900091019B009AC3F893
:106F5000042300BF02B0704782B001900091019BF2
:106F6000009AC3F8082300BF02B0704782B00190B6
:106F70000B46ADF80230BDF80230019A13441B688D
:106F8000184602B0704784B001900B46ADF802304D
:106F9000BDF80230019A134400221A60BDF8023095
:106FA000019A13441B680393039B00BF04B070470E
:106FB00082B00190019BD3F80435184602B07047A7
:106FC00000B583B001900091009BB3F5805F04D3BE
:106FD00006494FF4BE7003F057FC019B009AC3F8BA
:106FE000082500BF03B05DF804FB00BF541D03007B
:106FF00082B001900B468DF803309DF80320019B71
:1070000013441A460123136000BF02B0704782B0D8
:1070100001900091019B009AC3F8442300BF02B085
:10702000704782B001900091019B009AC3F84823F9
:1070300000BF02B07047000000B587B00390029116
:107040000192039B002B03D12849552003F01CFC1F
:10705000029B002B03D12549562003F015FC019B10
:10706000002B03D12149572003F00EFC039B5B79D1
:1070700019461F4A019B42F82130039B5B791D4A48
:10708000DB0013441B79002B03D008230593059BD9
:1070900027E0039B1A68029B1B8819461046FFF7DE
:1070A0008FFF039B93F90420029B9B78194610469F
:1070B000FFF7DCFE039B93F904301846FFF702FF4D
:1070C000039B5B790B4ADB00134401221A71039B7B
:1070D0005B791946074A039B42F831300023059338
:1070E000059B184607B05DF804FB00BF881D030030
:1070F000182C00201C2C002000B583B00190019BAF
:10710000002B03D10649872003F0BEFB019B1B68BF
:1071100000211846FFF76CFF00BF03B05DF804FBC9
:10712000881D030000B583B00190019B002B03D1A3
:1071300006498D2003F0A8FB019B1B68042118461B
:10714000FFF756FF00BF03B05DF804FB881D030086
:1071500000B587B00390029101928DF80330039B34
:10716000002B03D12149962003F08EFB4FF480328F
:10717000029B02FA03F30593029B50339BB29B00E0
:10718000ADF81230019B23F07F430193039B1B68F2
:1071900005991846FFF7E0FE039B1B680599184602
:1071A000FFF73FFF039B1B68BDF8122011461846EE
:1071B000FFF7E9FE039B1B68019A02991846FFF747
:1071C000A7FE039B1B6805991846FFF720FF9DF853
:1071D0000330002B05D0039B1B6805991846FFF769
:1071E000B1FE00BF07B05DF804FB00BF881D0300BF
:1071F00000B585B00390029113468DF80730039BCC
:10720000002B03D10B49A92003F03EFB039B1B6815
:1072100002991846FFF7FBFE9DF80730002B05D0BA
:10722000039B1B6802991846FFF78CFE00BF05B050
:107230005DF804FB881D030000B583B00190009148
:10724000019B002B03D10A49B32003F01DFB019BD6
:107250001B6800991846FFF7E4FE019B1B68009924
:107260001846FFF779FE00BF03B05DF804FB00BFCE
:10727000881D030000B583B001900B46ADF80230C5
:10728000019B002B03D10F49BA2003F0FDFA019BAB
:107290001B68BDF8022011461846FFF767FE03463B
:1072A000002B09D0019B1B68BDF80220114618462F
:1072B000FFF769FE012300E00023184603B05DF8E4
:1072C00004FB00BF881D030082B001900091019A69
:1072D000009BD31A23F07F43184602B0704700008A
:1072E00000B58BB00390029101920093039B002B99
:1072F00003D15749CD2003F0C7FA4FF48032029BE7
:1073000002FA03F30993029B50339BB29B00ADF842
:107310002230019B23F07F43019309990398FFF7E3
:107320008BFF039B1B681846FFF742FE0790039BE9
:107330001B6802991846FFF7F9FD0690039B1B682E
:10734000079A02991846FFF7E3FD039B1B68BDF8F7
:10735000222011461846FFF716FE07990698FFF7F8
:10736000B3FF0346012B0AD11020FFF7B9FD039BA1
:107370001B68BDF8222011461846FFF704FE039B48
:107380001B681846FFF714FE079007990198FFF74E
:107390009BFF0590039B1B6809991846FFF737FE72
:1073A000059B012B15D1039B1868019B01331A46DD
:1073B0000299FFF7ADFD1020FFF792FD039B1B68BC
:1073C0001846FFF7F5FD0246079B934235D00D2383
:1073D00039E0039B1B68019A02991846FFF798FD54
:1073E000039B1B681846FFF7E3FD0790019B013BD9
:1073F00007991846FFF768FF0590009BC3F1FF133C
:1074000003F57F43059A9A4201D90D231BE0059BA2
:10741000002B12D1039B1868019B01331A46029975
:10742000FFF776FD039B1B681846FFF7C1FD024678
:10743000079B934201D00D2305E00122099903988F
:10744000FFF7D6FE002318460BB05DF804FB00BF23
:10745000881D030000B583B001900B468DF8033002
:107460009DF803301A4602210198FFF7C1FE00BFC4
:1074700003B05DF804FB00B583B001904FF4827156
:107480000198FFF7F7FE0346184603B05DF804FBCA
:1074900000B583B0019000914FF48032009B02FA56
:1074A00003F319460198FFF7C7FE00BF03B05DF86C
:1074B00004FB00B585B001900091009B50339BB256
:1074C0009B00ADF80E30BDF80E3019460198FFF75D
:1074D000D1FE0346184605B05DF804FB00B583B045
:1074E0000190019B1B681846FFF762FD0346184692
:1074F00003B05DF804FB00B583B00190019B93F9E4
:1075000004301846FFF772FC00BF03B05DF804FBBF
:1075100008B5044B1B68044A12681046984700BF20
:1075200008BD00BF182C00201C2C002086B0019044
:107530000091019B53E8011F8AB2D88902449889BF
:10754000824228BF121A1889824202BFBFF32F8FCE
:10755000002307E0C2EA010243E801200028E9D144
:107560004FF001038DF80F30059002910492029ABA
:10757000009B1A609DF80F30DBB2184606B07047CA
:1075800084B00190019951E8013FC3EA034341E807
:107590000132002AF7D10392029300BF04B0704772
:1075A00086B001900091019B53E8021F1FFAA1F2DF
:1075B000D888824202BFBFF32F8F00230DE0D88905
:1075C00002449889824228BF121AC1EA024243E863
:1075D00002200028E8D14FF001038DF80F3005900C
:1075E00002910492029A009B1A609DF80F30DBB260
:1075F000184606B0704784B00190019951E8023FE7
:10760000C3EA234341E80232002AF7D103920293EE
:1076100000BF04B0704784B00390029111461A462F
:107620000B46ADF806301346ADF80430029B002B34
:1076300001D10E231FE0BDF80630BDF80420B3FBD6
:10764000F2F102FB01F29B1A9BB2002B01D009233D
:1076500011E0039B029A1A60039B00225A60039B6D
:1076600000229A60039BBDF806209A81039BBDF817
:107670000420DA810023184604B0704700B585B0B5
:1076800001900091009B19460198FFF74FFF0346B8
:10769000002B07D0019B1B68009A128813440393A8
:1076A000039B00E00023184605B05DF804FB00B51D
:1076B00083B001900091009B1A88009B5B889A42DE
:1076C00004D10198FFF75CFF012300E00023184676
:1076D00003B05DF804FB00B585B001900091009BFC
:1076E00019460198FFF75CFF0346002B07D0019B6A
:1076F0001B68009A528813440393039B00E0002305
:10770000184605B05DF804FB00B583B00190009108
:10771000009B1A88009B5B889A4204D10198FFF76E
:107720006AFF012300E00023184603B05DF804FB64
:1077300000B585B001900091009B5B099B00019A08
:107740001A44009B03F01F03012101FA03F31946B9
:10775000104600F036F8039000BF05B05DF804FB5A
:1077600000B585B001900091009B5B099B00019AD8
:107770001A44009B03F01F03012101FA03F3DB43CA
:107780001946104600F035F8039000BF05B05DF8CB
:1077900004FB82B001900091009B5B099B00019A61
:1077A00013441A68009B03F01F0322FA03F303F04B
:1077B0000103002B14BF01230023DBB2184602B0E3
:1077C000704710B487B001900091019B009A53E874
:1077D000004F44EA020043E8000191F0000FF6D1A7
:1077E000059404900391049B184607B05DF8044B80
:1077F000704710B487B001900091019B009A53E844
:10780000004F04EA020043E8000191F0000FF6D1B6
:10781000059404900391049B184607B05DF8044B4F
:107820007047000082B003468DF807309DF807309E
:1078300003F01F0206499DF907305B09012000FA99
:1078400002F2603341F8232000BF02B0704700BF4E
:1078500000E100E000B583B00190019B002B03D153
:107860000649722003F010F8019B00221A60BFF352
:107870005F8F00BF00BF03B05DF804FB541E030020
:1078800041DF704700BF184600B585B000238DF872
:1078900003300DF103031846FFF744FAF1EE103AF6
:1078A0000193019B0393039B23F09F030293029B8D
:1078B000E1EE103A00BFBFF35F8F00BF2620FFF755
:1078C000B1FF9DF803301846FFF742FA039B03F01F
:1078D0000703002B03D004497D2002F0D5FF00BF31
:1078E00005B05DF804FB00BF941E030008B5064B0D
:1078F00000221A700548FFF7ADFF0549054800F062
:107900002FF80023184608BD282C0020242C002026
:10791000F81E03002C2C002000B583B0FFF7B4FF45
:1079200007F032FD0346002B0ED0FFF7A9FF0190B0
:10793000019B002B0ED0019B022B0BD007494FF46B
:10794000B07002F0A1FF05E020BF00BF40BF00BF44
:1079500020BF00BF00BF03B05DF804FB941E03000E
:1079600000B583B001900091019B002B03D1104919
:10797000502002F089FF009B002B03D10C495120BD
:1079800002F082FF019B009A1A60019B1B681A6833
:10799000019B5A60019B5A68019B1B685B689A4275
:1079A00002D1019B00225A6000BF03B05DF804FBC6
:1079B000041F030000B583B00190019B002B03D18D
:1079C0001449632002F060FF019B1B68002B03D168
:1079D0001049642002F058FF019B5B68002B14D013
:1079E000019B5B681A46019B1B689B6813441A46FF
:1079F000019B5A60019B5A68019B1B685B689A4215
:107A000004D1019B00225A6000E000BF03B05DF882
:107A100004FB00BF041F030000B585B00190009176
:107A2000019B002B03D118493A2002F02DFF009B47
:107A3000002B03D114493B2002F026FF019B5B6819
:107A400003930FE0019B9B68039A1268009910460C
:107A50009847034683F00103DBB2002B07D1039B59
:107A60001B680393039B1B68002BEBD100E000BF56
:107A7000039B1A68009B1A60039B009A1A6000BF60
:107A800005B05DF804FB00BF7C1F030000B585B0A6
:107A90000190019B002B03D10C49512002F0F4FE10
:107AA000019B5B681B680393019B5B681B68002B51
:107AB00006D0019B5B681A68019B5B6812681A60BC
:107AC000039B184605B05DF804FB00BF7C1F030054
:107AD00000B583B00190019B002B03D105495D20C7
:107AE00002F0D2FE019B5B681B68184603B05DF88C
:107AF00004FB00BF7C1F030000B585B0019000911E
:107B0000019B002B03D11649692002F0BDFE009BAA
:107B1000002B03D112496A2002F0B6FE00238DF833
:107B20000F30019B5B6802930FE0029B1B68009A79
:107B30009A4207D1009B1A68029B1A6001238DF8B4
:107B40000F3006E0029B1B680293029B1B68002B10
:107B5000EBD19DF80F30184605B05DF804FB00BF6F
:107B60007C1F0300BFF34F8F00BF074BDB6803F49C
:107B7000E0620549054B1343CB60BFF34F8F00BF55
:107B800000BF00BFFCE700BF00ED00E00400FA0505
:107B9000024B034A1A6000BF704700BFE02A002072
:107BA0000090D00308B500F097F90346002B06D0EB
:107BB000B74B1B681B0AB74A03F01F03136000F0A2
:107BC000B7F90346002B02D0B34BB44A1A6000F059
:107BD000CBF90346002B06D0B14B1B685B0BB14AB7
:107BE00003F00703136000F0EBF90346002B05D008
:107BF000AD4BDB68AC4A23F08073D36000F0FCF936
:107C00000346002B0ED04FF080430022C3F80C2116
:107C10004FF080430022C3F810214FF08043002230
:107C2000C3F8382500F014FA0346002B02D09F4B0E
:107C300003221A6000F028FA0346002B0BD09C4B5D
:107C400005221A609B4B01221A609B4B00221A608E
:107C50009A4B3F221A6000F033FA0346002B76D08D
:107C60004FF08053964AD3F80434C2F820354FF0D1
:107C70008053934AD3F80834C2F824354FF0805328
:107C80008F4AD3F80C34C2F828354FF080538C4A11
:107C9000D3F81034C2F82C354FF08053884AD3F80B
:107CA0001434C2F830354FF08053854AD3F8183475
:107CB000C2F834354FF08053814AD3F81C34C2F8EF
:107CC00040354FF080537E4AD3F82034C2F8443513
:107CD0004FF080537A4AD3F82434C2F848354FF035
:107CE0008053774AD3F82834C2F84C354FF080538C
:107CF000734AD3F82C34C2F850354FF08053704A91
:107D0000D3F83034C2F854354FF080536C4AD3F86E
:107D10003434C2F860354FF08053694AD3F83834B0
:107D2000C2F864354FF08053654AD3F83C34C2F84A
:107D300068354FF08053624AD3F84034C2F86C354E
:107D40004FF080535E4AD3F84434C2F8703500F0E7
:107D5000D3F90346002B05D05A4B1B685A4A03F04F
:107D60004F03136000F0F4F90346002B0DD04FF0E1
:107D70008043D3F8003403F00103002B05D04FF00B
:107D800080436FF00102C3F8002400F00DFA0346AF
:107D9000002B05D04D4B1B684C4A43F480631360A5
:107DA0004B4BD3F888304A4A43F47003C2F888300A
:107DB000BFF34F8F00BFBFF36F8F00BF4FF0102393
:107DC000D3F80C3203F00103012B25D1414B0122E2
:107DD000C3F8042500BF3F4BD3F80034002BFAD082
:107DE0004FF01023D3F80C324FF0102223F0010390
:107DF000C2F80C3200BF374BD3F80034002BFAD056
:107E0000344B0022C3F8042500BF324BD3F80034B2
:107E1000002BFAD0FFF7A6FE4FF01023D3F8003264
:107E2000002B05DB4FF01023D3F80432002B2BDAA4
:107E3000284B0122C3F8042500BF264BD3F8003499
:107E4000002BFAD04FF010231522C3F8002200BFF8
:107E5000204BD3F80034002BFAD04FF0102315221A
:107E6000C3F8042200BF1B4BD3F80034002BFAD018
:107E7000184B0022C3F8042500BF164BD3F800347A
:107E8000002BFAD0FFF76EFEFFF782FE00BF08BDA1
:107E9000240300104035014074C007400DF0ADBA16
:107EA000440200103C050040F0ED00E0A005004059
:107EB00010560040885600401856004014560040A6
:107EC00000C0004058020010E40E00403C17004083
:107ED00000ED00E000E00140124B1B68DBB2062B16
:107EE0001DD1114B1B6803F00F03002B17D10F4B53
:107EF0001B6803F0F003302B01D1012310E00B4B82
:107F00001B6803F0F003402B01D1012308E0074B6D
:107F10001B6803F0F003502B01D1012300E0002384
:107F200018467047E00F00F0E40F00F0E80F00F093
:107F30000A4B1B68DBB2062B0DD1094B1B6803F003
:107F40000F03002B07D1074B1B6803F0F003302B06
:107F500001D1012300E0002318467047E00F00F034
:107F6000E40F00F0E80F00F0124B1B68DBB2062BA9
:107F70001DD1114B1B6803F00F03002B17D10F4BC2
:107F80001B6803F0F003302B01D1012310E00B4BF1
:107F90001B6803F0F003402B01D1012308E0074BDD
:107FA0001B6803F0F003502B01D1012300E00023F4
:107FB00018467047E00F00F0E40F00F0E80F00F003
:107FC0000A4B1B68DBB2062B0DD1094B1B6803F073
:107FD0000F03002B07D1074B1B6803F0F003302B76
:107FE00001D1012300E0002318467047E00F00F0A4
:107FF000E40F00F0E80F00F0124B1B68DBB2062B19
:108000001DD1114B1B6803F00F03002B17D10F4B31
:108010001B6803F0F003302B01D1012310E00B4B60
:108020001B6803F0F003402B01D1012308E0074B4C
:108030001B6803F0F003502B01D1012300E0002363
:1080400018467047E00F00F0E40F00F0E80F00F072
:108050000A4B1B68DBB2062B0DD1094B1B6803F0E2
:108060000F03002B07D1074B1B6803F0F003302BE5
:1080700001D1012300E0002318467047E00F00F013
:10808000E40F00F0E80F00F00A4B1B68DBB2062B90
:108090000DD1094B1B6803F00F03002B07D1074BD1
:1080A0001B6803F0F003302B01D1012300E0002313
:1080B00018467047E00F00F0E40F00F0E80F00F002
:1080C0000A4B1B68DBB2062B0DD1094B1B6803F072
:1080D0000F03002B07D1074B1B6803F0F003502B55
:1080E00001D1012300E0002318467047E00F00F0A3
:1080F000E40F00F0E80F00F0124B1B68DBB2062B18
:108100001DD1114B1B6803F00F03002B17D10F4B30
:108110001B6803F0F003302B01D1012310E00B4B5F
:108120001B6803F0F003402B01D1012308E0074B4B
:108130001B6803F0F003502B01D1012300E0002362
:1081400018467047E00F00F0E40F00F0E80F00F071
:10815000124B1B68DBB2062B1DD1114B1B6803F0C1
:108160000F03002B17D10F4B1B6803F0F003302BCC
:1081700001D1012310E00B4B1B6803F0F003402BEF
:1081800001D1012308E0074B1B6803F0F003502BDB
:1081900001D1012300E0002318467047E00F00F0F2
:1081A000E40F00F0E80F00F0064B1B68062B05D12A
:1081B000054B1B68062B01D1012300E00023184664
:1081C000704700BF300100103401001082B0034638
:1081D0008DF807309DF8073003F01F0206499DF91E
:1081E00007305B09012000FA02F2203341F8232016
:1081F00000BF02B0704700BF00E100E008B507F023
:10820000C3F8034683F00103DBB2002B03D1054919
:10821000792002F039FB00F0D1FB034B00229A7069
:1082200000BF08BDE01F0300342C002000B583B060
:1082300000230193144B1B78002B02D0852301935C
:108240001CE0114B00229A600F4B00225A600E4B2B
:1082500000221A610C4B0022DA600C4800F058FB37
:10826000019007F091F8034683F00103DBB2002B85
:1082700001D000F073FB044B01221A70019B1846D9
:1082800003B05DF804FB00BF342C002055840200CD
:1082900084B001900091019B1B68039306E0039A50
:1082A000009B9A420DD0039B1B680393039B002BFA
:1082B000F5D1019B1A68009B1A60019B009A1A6015
:1082C00000E000BF04B0704784B00190019B1B68C0
:1082D0000393039B002B03D0039B1A68019B1A6036
:1082E000039B184604B0704700B585B00190294B38
:1082F0001B78002B03D12849E92002F0C5FA254B51
:108300009B78DBB2002B19D0019B002B03D0019B83
:108310005B680120984700238DF80F300DF10F03A3
:108320001846FEF7FFFC1B4BDB680133194AD3608C
:108330009DF80F301846FEF70BFD1EE000238DF868
:108340000E300DF10E031846FEF7ECFC019B002BDE
:1083500003D001991148FFF79BFF0E4BDB68002B00
:1083600001D100F00FFB0B4BDB680133094AD360EE
:108370009DF80E301846FEF7EBFC064BDB68002B31
:1083800004D1054940F2051002F07EFA00BF05B0A5
:108390005DF804FB342C0020E01F0300442C002077
:1083A00000B583B0164B1B78002B04D115494FF450
:1083B000857002F069FA124BDB68002B04D1114979
:1083C00040F20B1002F060FA00238DF807300DF137
:1083D00007031846FEF7A6FC094BDB68013B084A79
:1083E000D360074BDB68002B01D1FFF707FF9DF837
:1083F00007301846FEF7ACFC00BF03B05DF804FB85
:10840000342C0020E01F030000B585B003468DF832
:1084100007309DF80730002B02D10C4B039301E08D
:108420000B4B03930398FFF74FFF0290029B002B27
:1084300006D0029B5B689DF8072010469847F1E73D
:1084400000BF00BF05B05DF804FB00BF3C2C00205E
:10845000442C002000B583B003468DF807309DF80A
:108460000730002B05D10A4B01225A700020FFF77C
:10847000CBFF9DF80730012B05D1054B01229A70E7
:108480000120FFF7C1FF00BF03B05DF804FB00BF90
:10849000342C002000B583B001900091019B002B8B
:1084A00005D1054B01225A700020FFF7ADFF00BF38
:1084B00003B05DF804FB00BF342C002000B585B08C
:1084C000034600918DF807309DF80730032B29D023
:1084D000032B35DC002B02D0012B04D030E0002030
:1084E000FFF774FE2DE000238DF80F300DF10F0320
:1084F0001846FEF717FC154B1B7883F00103DBB21F
:10850000002B01D0FFF792FE104BDB6801330F4ABE
:10851000D3600E4B01229A709DF80F301846FEF77B
:1085200017FC0EE0094B1B78002B04D1084940F2E0
:10853000452002F0A9F900F011FAFFF731FF00E041
:1085400000BF00BF05B05DF804FB00BF342C002065
:10855000E01F030000B589B001900091009B0793D4
:10856000019B1B788DF80830019B5B680393019B8E
:108570009B68DBB28DF81030019BDB680593019B93
:108580001B69DBB28DF81830074A079B52F823307D
:108590000649079A51F8221002AA1046984700BFD0
:1085A00009B05DF804FB00BF482C0020542C0020CB
:1085B00010B58AB00390029101920093039B1B783F
:1085C00009932249099B019A41F823202049099BDC
:1085D000009A41F82320002308931E4B04AC0FCBD4
:1085E00084E80F00029B1B788DF81030029B5B78AB
:1085F0008DF81130029B9B788DF81230029BDB784E
:108600008DF81330029B1B798DF81530029B5B7936
:108610008DF81630029B9B680693029B1B7B8DF89E
:108620001C30029B5B7B8DF81D30039B181D019B4A
:10863000002B01D0084A00E00022099B04A901F0A8
:10864000D1FA0890089B18460AB010BD482C0020AB
:10865000542C0020402003005585020082B00346C0
:108660008DF807309DF8073003F01F0205499DF98A
:1086700007305B09012000FA02F241F8232000BF15
:1086800002B0704700E100E082B0034600918DF82F
:1086900007309DF90730002B0CDA009BDAB20C4949
:1086A0009DF8073003F00F03043B5201D2B20B4494
:1086B0001A7609E0009BDAB206499DF907305201AB
:1086C000D2B20B4483F8002300BF02B0704700BF52
:1086D00000ED00E000E100E082B00190019B1B0B87
:1086E0005BB2184602B0704700B583B003460A4635
:1086F0008DF8073013468DF806309DF80630012BB3
:1087000003D99DF80630032B0BD99DF80630042BB6
:1087100003D99DF80630072B03D908496B2002F0D6
:10872000B3F89DF806209DF9073011461846FFF76B
:10873000ABFF00BF03B05DF804FB00BF5020030097
:1087400000B583B003468DF807309DF90730184611
:10875000FFF784FF00BF03B05DF804FB82B003465F
:108760008DF807300F4A9DF90730002B00DA1F33D0
:108770005B115BB252F823209DF90730594203F098
:108780001F0301F01F0158BF4B425BB222FA03F3F3
:1087900003F00103002B14BF01230023DBB21846B2
:1087A00002B0704700E100E082B001904FF08042DB
:1087B000019BC2F8043300BF02B0704782B0019041
:1087C0004FF08042019BC2F8083300BF02B07047EF
:1087D00082B003468DF807309DF8073003F18043DF
:1087E00001221A6000BF02B0704784B00346ADF8A2
:1087F0000630BDF8063003F1804300221A60BDF850
:10880000063003F180431B680393039B00BF04B051
:10881000704782B00346ADF80630BDF8063003F16C
:1088200080431B68002B14BF01230023DBB21846D2
:1088300002B0704782B001904FF08042019BC2F8B5
:10884000183500BF02B070474FF08043D3F818349A
:108850001B0C03F00103002B14BF01230023DBB228
:108860001846704700B583B006238DF807304FF0E7
:108870008040FFF731FF03461846FFF76FFF0346BE
:1088800083F00103DBB2002B13D04FF08040FFF7E1
:1088900023FF03461A469DF8073019461046FFF796
:1088A00023FF4FF08040FFF717FF03461846FFF7FE
:1088B00047FF00BF03B05DF804FB000084B0124B1B
:1088C000DB680393104A039B43F08073D3600F4B24
:1088D0001B6802930D4A029B43F0010313600B4B8C
:1088E0005B68019300BF094B5A68019BD31AB3F52B
:1088F0000A5FF8D3054A029B1360034A039BD360C7
:1089000000BF04B0704700BFF0ED00E0001000E0D1
:1089100000B585B00190019B002B03D10D49A42027
:1089200001F0B2FF002303930B4B1B79002B02D005
:108930008523039308E0084A019B1360064B01223C
:108940001A71054B00225A71039B184605B05DF859
:1089500004FB00BF88200300602C002008B5074BF3
:108960001B79002B03D10649BD2001F08DFFFFF7D5
:1089700079FF0120FFF75EFF00BF08BD602C0020DB
:108980008820030008B50B4B1B79002B03D10A4943
:10899000EA2001F079FF4FF48270FFF726FF0220F2
:1089A000FFF702FFFFF78AFF0820FFF711FF00BF64
:1089B00008BD00BF602C00208820030008B50A4BCA
:1089C0001B79002B03D10949F72001F05DFF0C2032
:1089D000FFF7FEFE00BFFFF737FF0346002BFAD17B
:1089E00000BF00BF08BD00BF602C0020882003002E
:1089F00008B54FF48070FFF70CFF0346002B14D02E
:108A00004FF48070FFF7F1FE0120FFF7D7FE114B06
:108A10005B7983F00103DBB2002B06D00D4B012202
:108A20005A710C4B1B68002098474FF48270FFF777
:108A3000F0FE0346002B0AD04FF48270FFF7D5FEFC
:108A40000220FFF7BBFE034B1B680120984700BFC5
:108A500008BD00BF602C002082B003468DF80730AF
:108A60009DF8073003F01F0205499DF907305B09A7
:108A7000012000FA02F241F8232000BF02B0704743
:108A800000E100E082B0034600918DF807309DF9C7
:108A90000730002B0CDA009BDAB20C499DF8073046
:108AA00003F00F03043B5201D2B20B441A7609E0E3
:108AB000009BDAB206499DF907305201D2B20B444D
:108AC00083F8002300BF02B0704700BF00ED00E054
:108AD00000E100E000B583B003460A468DF8073098
:108AE00013468DF806309DF80630012B03D99DF80A
:108AF0000630032B0BD99DF80630042B03D99DF8C3
:108B00000630072B03D908496B2001F0BDFE9DF804
:108B100006209DF9073011461846FFF7B3FF00BF46
:108B200003B05DF804FB00BFE420030000B583B090
:108B300003468DF807309DF907301846FFF78CFF84
:108B400000BF03B05DF804FB00B583B00346ADF889
:108B50000630BDF80630184600F026F803461B68BC
:108B6000012B0CBF01230023DBB2184603B05DF8D4
:108B700004FB00B585B00346ADF80630BDF80630FD
:108B8000184600F011F803461A4600231360BDF89A
:108B90000630184600F008F803461B680393039B51
:108BA00000BF05B05DF804FB82B00346ADF80630A7
:108BB000BDF8063003F1804303F5C043184602B008
:108BC0007047000082B00190034A019BC2F8043351
:108BD00000BF02B0704700BF0060004082B001904B
:108BE000034BD3F80423019B1340184602B070478F
:108BF0000060004082B00190084A019B03F5A27317
:108C000052F82330054943F00102019B03F5A2739A
:108C100041F8232000BF02B0704700BF0060004051
:108C200084B00390029113468DF80730144A039BD9
:108C300003F5A27352F82330114923F4473323F488
:108C40004073039A02F5A27241F822300C4A039B4A
:108C500003F5A27352F82320029B1B0203F4F85180
:108C60009DF807301B0403F440330B4304491A43B7
:108C7000039B03F5A27341F8232000BF04B07047A3
:108C80000060004082B00190054A019B03F5A27389
:108C900052F823301B0A03F01F03184602B0704736
:108CA0000060004082B00190064A019B03F5A27368
:108CB00052F823301B0C03F00303DBB2184602B05A
:108CC000704700BF0060004000B583B00190019B79
:108CD0001B681F2B04D9054940F2CD1001F0D4FDCB
:108CE0004FF0A043184603B05DF804FB1C210300BD
:108CF00000B585B00190084611461A4603468DF826
:108D000003300B468DF8023013468DF8013001AB6D
:108D10001846FFF7D9FF03909DF803209DF8023015
:108D20005B001A439DF801309B001A439DF81830F0
:108D30001B0242EA03019DF81C301B04019A1943EF
:108D4000039B02F5E07243F8221000BF05B05DF806
:108D500004FB00B585B003900B468DF80B309DF8F1
:108D60000B30002201920022009200220021039881
:108D7000FFF7BEFF00BF05B05DF804FB00B585B08E
:108D8000019001AB1846FFF79FFF0390019A039BE8
:108D900002F5E07253F8223023F002030293019AA5
:108DA000039B02F5E072029943F8221000BF05B060
:108DB0005DF804FB00B585B001900B468DF80330DB
:108DC00001AB1846FFF780FF0390019A039B02F561
:108DD000E07253F82230019A23F44031039B02F5EC
:108DE000E07243F82210019A039B02F5E07253F8F7
:108DF00022309DF8032012041146019A1943039B67
:108E000002F5E07243F8221000BF05B05DF804FBE4
:108E100000B585B0019001AB1846FFF755FF0390F0
:108E2000039800F020F80246019B22FA03F303F0B6
:108E30000103184605B05DF804FB00B585B001904C
:108E400001AB1846FFF740FF0390019A039B02F520
:108E5000E07253F822301B0C03F00303DBB2184618
:108E600005B05DF804FB82B00190019BD3F810358A
:108E7000184602B07047000000B587B00390029119
:108E800001924FF0A0430493039A029B1344012BD9
:108E900004D9124940F2FD2001F0F6FC039B059332
:108EA00011E0059B9B0006AA134453F8083C1846A2
:108EB000FFF7D9FF0246019B1A60019B043301931F
:108EC000059B01330593039A029B1344059A9A422A
:108ED000E7D300BF00BF07B05DF804FB1C2103000F
:108EE00084B001900091009B0393019BDB080293E7
:108EF000019B03F0070301930122019B02FA03F394
:108F00000399029A0A4412781340184604B0704735
:108F100084B001900091009B0393019BDB080293B6
:108F2000019B03F007030193039A029B13441B78F0
:108F30005AB20121019B01FA03F35BB2134359B208
:108F4000039A029B1344CAB21A7000BF04B0704760
:108F500082B001900C4A019B1344303393F90030E6
:108F6000002B09DB084A019B1344303393F900308E
:108F7000072B01DC012300E0002303F00103DBB237
:108F8000184602B0704700BF682C002082B00190E4
:108F9000064A019B1344303393F90030072BCCBFB2
:108FA00001230023DBB2184602B07047682C002072
:108FB00082B00190064A019B1344303393F900308C
:108FC000DB43DBB2DB09DBB2184602B0704700BFFF
:108FD000682C002084B00390029101928DF8033038
:108FE000029B59B20E4A039B134430330A461A704F
:108FF0000B49029B019A41F823209DF8033083F02E
:109000000103DBB2002B08D0029B083B039A51B24C
:10901000034A13440A4683F8502000BF04B0704747
:10902000682C002082B00190044A019B1344303325
:10903000FF221A7000BF02B0704700BF682C0020EA
:1090400000B583B0019004490198FFF761FF00BFAC
:1090500003B05DF804FB00BFBC2C002082B001907F
:10906000044A019B1344303393F90030184602B090
:10907000704700BF682C002082B00190034A019B1A
:1090800052F82330184602B0704700BF682C002009
:1090900000B589B00390029113468DF80730FF2385
:1090A0008DF81F309DF80730002B01D0002300E021
:1090B000082305939DF80730002B01D0082300E01A
:1090C0000C230493059B069314E00F4A069B52F869
:1090D0002330B3F1FF3F0AD19DF80730029A069979
:1090E0000398FFF777FF069B8DF81F3006E0069B7D
:1090F00001330693069A049B9A42E6D39DF91F30EA
:10910000184609B05DF804FB682C002082B00346C5
:109110008DF807309DF80730094A4FF0FF3142F8CB
:1091200023109DF80730072B07D99DF80730083B1F
:10913000034A1344FF2283F8502000BF02B0704757
:10914000682C002000B583B0254B93F85830002BD5
:1091500003D008230093009B3EE000238DF80730E6
:1091600009E09DF807301846FFF75CFF9DF80730CF
:1091700001338DF807309DF807301F2BF1D90023FC
:109180008DF8073009E09DF807301846FFF7BEFF5D
:109190009DF8073001338DF807309DF807300B2B11
:1091A000F1D9042200210F4807F09BFD062106207B
:1091B000FFF790FC0620FFF7B9FC4FF4BE70FFF7F5
:1091C000D8FC4FF00040FFF7FDFC054B012283F86F
:1091D000582000230093009B184603B05DF804FB61
:1091E000682C0020BC2C002000B587B003900291B1
:1091F0000192039B1F2B04D9364940F2072001F04E
:1092000043FB002305930398FFF7D2FE0346002B90
:1092100002D00823059357E0029B9B78C3F34003D9
:10922000DBB21A4601990398FFF732FF03468DF827
:1092300013309DF91330B3F1FF3F43D0029B9B786D
:10924000C3F38003DBB283F00103DBB2002B13D046
:10925000029B9B7803F00103DBB2002B03D0039841
:10926000FFF78CFD05E0029B5B7819460398FFF73A
:1092700070FD0398FFF7E4FE029B9B7803F0020366
:10928000DBB2002B08D09DF91300029B1B781A4615
:109290000399FFF7C5FC17E09DF91330083B0E4A10
:1092A000134493F95010029B1B789B015AB29DF90D
:1092B0001330083B0A4351B2074A13440A4683F865
:1092C000502001E004230593059B184607B05DF884
:1092D00004FB00BF54210300682C002000B589B0B6
:1092E00001900B468DF80330019B1F2B04D93D499B
:1092F00040F2372001F0C8FA0198FFF759FE034603
:10930000002B04D137494FF40E7001F0BDFA0198DB
:10931000FFF73CFE0346002B2FD00198FFF79EFE7F
:109320000346083B304A134493F950308DF80F3010
:109330009DF80F309B098DF80E309DF80E30032BF1
:109340000BD10198FFF764FD0346002B01D00323E6
:1093500000E002238DF81F3008E09DF80E30012B4D
:1093600001D1022300E003238DF81F309DF81F3048
:1093700019460198FFF71EFD30E00198FFF7E8FD60
:109380000346002B2AD00198FFF768FE0346069398
:10939000069B9BB240339BB29B00ADF81630069BF8
:1093A0001846FFF727FCBDF816301846FFF7E1FB1B
:1093B0009DF80330002B11D00198FFF74FFE0346B4
:1093C0001846FFF759FE0490049B002B06D001229B
:1093D000069B02FA03F31846FFF7F4FB00BF09B03F
:1093E0005DF804FB54210300682C002000B595B003
:1093F00000231393002303934FF48073ADF846309A
:10940000012310930023129321E0BDF84630184643
:10941000FFF79AFB0346002B0ED01098FFF7DEFBF8
:109420000346002B08D0BDF846301846FFF7A1FBD5
:10943000139A109B13431393109B5B001093BDF87A
:1094400046300433ADF84630129B01331293129B21
:10945000072BDAD94FF4BE70FFF776FB0346002BDB
:109460000DD04FF4BE70FFF784FB139B43F0004315
:10947000139303AB1A4601210020FFF7FDFC139B59
:10948000DBB2002B29D0012310930023129321E09B
:10949000109A139B1340002B16D01298FFF7F2FB83
:1094A0000D901298FFF7FEFB03468DF833301298AB
:1094B000FFF7E2FD0B900B9B002B05D09DF83320AE
:1094C0000B9B11460D989847109B5B001093129BC5
:1094D00001331293129B072BDAD9139B002B80F2D6
:1094E000EE8000238DF83B300023029300230F937E
:1094F0000AE00F9B9B0014AA13444FF0FF3243F87D
:109500004C2C0F9B01330F930F9B002BF1D00023AA
:109510008DF83B300023129378E06B4A129B134482
:10952000503393F900308DF82B309DF82B3023F019
:10953000C0030993644A129B1344503393F90030DB
:10954000B3F1FF3F5FD001AB19460998FFF7C8FCA4
:109550000346002B57D09DF82B309B098DF8233004
:109560000998FFF77BFD03461846FFF785FD079036
:10957000079B002B03D19DF82330032B43D19DF88B
:109580002330032B04D102AB19460998FFF7C0FC26
:109590000998FFF752FC03468DF81B3003AB1946C0
:1095A0000998FFF79DFC0590059B002B03D09DF8C3
:1095B0001B30022B06D0059B002B24D19DF81B30BD
:1095C000032B20D19DF82330032B13D19DF81B30A2
:1095D000022B01D1032300E002238DF813309DF804
:1095E000133019460998FFF7E5FB9DF83B3001332E
:1095F0008DF83B30079B002B05D09DF82320079B5F
:10960000114609989847129B01331293129B032B22
:1096100083D99DF83B30002B4CD001238DF83A3094
:109620006B461A4601210020FFF726FC00230F930A
:1096300014E00F9B9B0014AA134453F8502C0F9B6B
:109640009B0014A90B4453F8443C9A4203D00023D6
:109650008DF83A3005E00F9B01330F930F9B002BE1
:10966000E7D09DF83A30002B03D000238DF83B3033
:1096700020E000230F931AE00F9B9B0014AA1344D1
:1096800053F8502C0F9B9B0014A90B4443F8442C17
:109690000F9B9B0014AA134453F8482C0F9B9B006C
:1096A00014A90B4443F84C2C0F9B01330F930F9BD1
:1096B000002BE1D09DF83B30002B7FF428AF00BF9A
:1096C00015B05DF804FB00BF682C002008B5064B00
:1096D0001B68002B03D10549512001F0D5F8024B3E
:1096E0001B68984700BF08BDC42C0020B0210300B0
:1096F00082B00190019B044A934201D1034B00E0E8
:109700000023184602B0704700200040C42C0020FF
:1097100000B587B001900091019B002B03D11C493B
:10972000772001F0B1F80198FFF7E2FF0490049B65
:10973000002B25D000238DF8173000238DF80B3037
:109740000DF10B031846FDF7EDFA049B1B79002B76
:1097500003D001238DF8173005E0049B009A1A60AE
:10976000049B01221A719DF80B301846FDF7F0FAA0
:109770009DF81730002B03D011230393039B02E0C5
:1097800000230393039B184607B05DF804FB00BF5A
:10979000B021030082B003468DF807309DF80730F2
:1097A00003F01F0205499DF907305B09012000FA0B
:1097B00002F241F8232000BF02B0704700E100E050
:1097C00082B0034600918DF807309DF90730002BD9
:1097D0000CDA009BDAB20C499DF8073003F00F0356
:1097E000043B5201D2B20B441A7609E0009BDAB274
:1097F00006499DF907305201D2B20B4483F8002389
:1098000000BF02B0704700BF00ED00E000E100E0E3
:1098100082B00190019B03F06043B3F1005F0CBF85
:1098200001230023DBB2184602B0704782B00190DA
:10983000019B1B0B5BB2184602B0704700B583B0AA
:1098400003460A468DF8073013468DF806309DF81A
:109850000630012B03D99DF80630032B0BD99DF858
:109860000630042B03D99DF80630072B03D908498D
:109870006B2001F009F89DF806209DF9073011468C
:109880001846FFF79DFF00BF03B05DF804FB00BF63
:109890001022030000B583B003468DF807309DF910
:1098A00007301846FFF776FF00BF03B05DF804FBF2
:1098B00082B001900B468DF803309DF80330019A79
:1098C000134401221A6000BF02B0704784B00190B7
:1098D0000B46ADF80230BDF80230019A1344002265
:1098E0001A60BDF80230019A13441B680393039B6E
:1098F00000BF04B0704782B001900B46ADF8023053
:10990000BDF80230019A13441B68002B14BF0123D9
:109910000023DBB2184602B0704782B0019000917C
:10992000019B009AC3F8042300BF02B0704782B0C5
:1099300001900091019B009AC3F8082300BF02B078
:10994000704782B00190019B0722C3F8002500BF39
:1099500002B0704784B00390029101920093039B80
:10996000029AC3F80825039B019AC3F80C25039BB0
:10997000009AC3F8102500BF04B0704782B0019070
:109980000091009A019BC3F8242500BF02B07047E4
:1099900084B0039002910192029A039BC3F844257C
:1099A000039B019AC3F8482500BF04B0704784B0F8
:1099B000039002910192029A039BC3F83425039B02
:1099C000019AC3F8382500BF04B0704784B00190F5
:1099D0000B468DF8033013468DF802309DF80230A7
:1099E000002B14BF01230023DBB203939DF8033047
:1099F000032B10D0032B13DC012B02D0022B05D03C
:109A00000EE0039B43F0020303930AE0039B43F041
:109A10000403039305E0039B43F00603039300E074
:109A200000BF019B039AC3F8542500BF04B07047E0
:109A300082B001900B468DF803309DF80320019B06
:109A4000C3F8C02500BF02B0704782B00190019BEF
:109A50000122C3F8502500BF02B0704782B00190C8
:109A6000019B0022C3F8502500BF02B0704782B0AE
:109A70000190019B0122C3F8402500BF02B070474E
:109A800082B00190019B0022C3F8402500BF02B0C4
:109A90007047000000B583B00190019B1B681F2B2D
:109AA00004D9054940F2CD1000F0EEFE4FF0A0437E
:109AB000184603B05DF804FB4822030000B585B0EA
:109AC0000190084611461A4603468DF803300B46AE
:109AD0008DF8023013468DF8013001AB1846FFF7C0
:109AE000D9FF03909DF803209DF802305B001A43D4
:109AF0009DF801309B001A439DF818301B0242EA82
:109B000003019DF81C301B04019A1943039B02F5C5
:109B1000E07243F8221000BF05B05DF804FB00B509
:109B200085B00390002301930023009300230122BA
:109B300001210398FFF7C2FF00BF05B05DF804FBE9
:109B400000B585B003900B468DF80B309DF80B30B7
:109B50000022019200220092002200210398FFF7C8
:109B6000ADFF00BF05B05DF804FB00B585B0019006
:109B700001AB1846FFF78EFF0390019B012202FA0A
:109B800003F31946039800F018F800BF05B05DF81C
:109B900004FB00B585B0019001AB1846FFF77AFFD2
:109BA0000390019B012202FA03F31946039800F087
:109BB0000EF800BF05B05DF804FB82B00190009183
:109BC000019B009AC3F8082500BF02B0704782B01D
:109BD00001900091019B009AC3F80C2500BF02B0D0
:109BE0007047000000B58DB0059004910392029378
:109BF000049B002B03D17049AD2000F045FE059B6E
:109C00001B791A461346DB0013449B006B4A13442E
:109C10000993099B1B7F002B03D008230793079B05
:109C2000C5E0059B1B680893059B1A68059B1B797B
:109C30001946634B53F8213019461046FFF768FD6B
:109C40000346002B03D011230793079BAFE0099B2A
:109C5000039A1A60099B029A5A60049B1B7B012B92
:109C600005D8049B1B781846FFF793FF04E0049B7C
:109C70001B781846FFF779FF049B1B7818460023D2
:109C8000019300230093002300220121FFF716FF18
:109C9000049B5B78FF2B09D0049B5B780B930B989C
:109CA000FFF777FF0B98FFF73AFF02E04FF0FF3323
:109CB0000B93049B9B78FF2B07D0049B9B780A9304
:109CC00001210A98FFF73CFF02E04FF0FF330A93AF
:109CD000049B9A78099B83F82020049BDA78099BDF
:109CE000DA77049BDB78FF2B17D0049B1B79002BC2
:109CF00005D0049BDB781846FFF74BFF04E0049B7C
:109D0000DB781846FFF731FF049BDB781846FFF736
:109D100006FF049B1A79099B9A77049B1B781946C6
:109D20000A9B0B9A0898FFF715FE049B9B6819463F
:109D30000898FFF723FE049B197B049B5B7B1A4664
:109D40000898FFF743FE049B9B7919460898FFF794
:109D50006FFE099B1B68002B03D040210898FFF77A
:109D6000DCFD0898FFF7EDFD099B1B68002B15D063
:109D7000059B1B681846FFF759FD03461A46049BCE
:109D80005B7919461046FFF759FD059B1B6818467D
:109D9000FFF74CFD03461846FFF77CFD099B0022A8
:109DA0005A77099B01221A7700230793079B1846CD
:109DB0000DB05DF804FB00BF80220300CC2C002016
:109DC000DC22030000B583B00190019BDB7FFF2BF9
:109DD0000ED0019B9B7F002B05D0019BDB7F18469B
:109DE000FFF7D7FE04E0019BDB7F1846FFF7BDFEBF
:109DF000019B00225A77019B00221A72019B1B686B
:109E0000019A02F10800019A52681146984700BF72
:109E100003B05DF804FB00B583B001900B468DF8EC
:109E200003309DF8033083F00103DBB2002B04D034
:109E300040210198FFF77BFD03E040210198FFF7E7
:109E40006CFD00BF03B05DF804FB00B583B001906A
:109E50000091009B03F00103002B03D00198FFF752
:109E6000F4FD02E00198FFF7F9FD009B03F0020307
:109E7000002B03D00198FFF7FAFD02E00198FFF7ED
:109E8000FFFD00BF03B05DF804FB00B587B0039091
:109E9000029101920093019B1B68002B0AD0019B49
:109EA0001B681846FFF7B4FC034683F00103DBB2DE
:109EB000002B0ED1019B9B68002B11D0019B9B684E
:109EC0001846FFF7A5FC034683F00103DBB2002B25
:109ED00006D0029B00225A7710230593059B54E07D
:109EE000019B1968019B5B681A460398FFF750FDB8
:109EF000019B9968019BDB681A460398FFF757FDA1
:109F00004FF48C710398FFF7E1FC00990398FFF779
:109F10009CFF009B03F00803002B03D11021039842
:109F2000FFF7C6FC029B1B68002B1FD100BF4FF43C
:109F30008C710398FFF7DFFC034683F00103DBB26B
:109F4000002BF4D1029BDB7FFF2B1BD0029B9B7F5E
:109F5000002B05D0029BDB7F1846FFF71AFE11E0AD
:109F6000029BDB7F1846FFF700FE0BE0009B03F02F
:109F70000403002B0CBF01230023DBB21946039816
:109F8000FFF749FF00230593059B184607B05DF8CE
:109F900004FB000010B586B0039002910192039B70
:109FA0001B791A461346DB0013449B00394A1344BD
:109FB0000593059B1B7F002B04D1374940F23220CB
:109FC00000F062FC029B1B68002B08D1029B5B68BF
:109FD000002B04D0304940F2332000F055FC029BA6
:109FE0009B68002B08D1029BDB68002B04D02A4918
:109FF0004FF40D7000F048FC039B1B79002B07D138
:10A00000029BDB68FF2B03D8029B5B68FF2B04D904
:10A01000214940F2352000F037FC00230493059BD2
:10A020005B7FDBB2002B03D011230493049B2EE053
:10A03000059B1B68002B07D0019B03F01403002B2A
:10A0400002D1059B01225A77059B029A03F10C0469
:10A0500013460FCB84E80F00059BDB7FFF2B0ED050
:10A06000059B9B7F002B05D0059BDB7F1846FFF7E8
:10A070007CFD04E0059BDB7F1846FFF78AFD039B10
:10A080001868019B029A0599FFF7FFFE03461846E0
:10A0900006B010BDCC2C00208022030000B583B098
:10A0A000019000914FF48C710198FFF724FC034656
:10A0B000002B10D04FF48C710198FFF707FC009B28
:10A0C0001B68002B04D106494FF4277000F0DCFB1D
:10A0D0000098FFF777FE00BF03B05DF804FB00BFF8
:10A0E0008022030008B503490348FFF7D7FF00BFEC
:10A0F00008BD00BFCC2C002000300040BFF34F8FC4
:10A1000000BF074BDB6803F4E0620549054B1343CE
:10A11000CB60BFF34F8F00BF00BF00BFFCE700BFA5
:10A1200000ED00E00400FA0500B585B00190019B48
:10A13000002B0CD0084B43F001030393019B9B01C0
:10A140000293054B43F001030298984700E000BFDB
:10A1500005B05DF804FB00BFE022030000B583B04A
:10A160000190019B1B681F2B04D9054940F2CD10BB
:10A1700000F08AFB4FF0A043184603B05DF804FBE3
:10A18000E822030000B585B00190084611461A4642
:10A1900003468DF803300B468DF8023013468DF8D8
:10A1A000013001AB1846FFF7D9FF03909DF803205B
:10A1B0009DF802305B001A439DF801309B001A4362
:10A1C0009DF818301B0242EA03019DF81C301B0465
:10A1D000019A1943039B02F5E07243F8221000BF75
:10A1E00005B05DF804FB00B585B003900B468DF813
:10A1F0000B309DF80B3000220192002200920022C9
:10A2000000210398FFF7BEFF00BF05B05DF804FB17
:10A2100074DF704700BF184676DF704700BF1846EE
:10A220007ADF704700BF18467CDF704700BF1846D2
:10A230008ADF704700BF18468BDF704700BF1846A3
:10A240008FDF704700BF184600B583B00190019BB7
:10A25000002B0FD04FF47A70FFF766FF019B013B94
:10A260000193019B002B14BF01230023DBB2002BC1
:10A2700001D0EFE700BF03B05DF804FB014B1B68A2
:10A28000184670476830002082B00190034B1B686D
:10A290000133024A136000BF02B0704768300020EB
:10A2A00000B585B003468DF807309DF80730032BC5
:10A2B0001AD801A252F823F0D1A20200C9A20200CA
:10A2C000D9A20200E1A20200114801F035FF0BE023
:10A2D000104801F031FF07E00F4801F02DFF03E0C7
:10A2E0000E4801F029FF00BFFCF784FC0390039B9C
:10A2F0000293029B002B05D0094A40F219210298D3
:10A30000FCF7B8F80123184605B05DF804FB00BF60
:10A310002023030040230300602303008C23030059
:10A32000AC23030070B58CB0059000230893059B07
:10A330000333784A1360059B9B69774A1360059B3A
:10A340009A8B764B1A80764B1B7883F00103DBB235
:10A35000002B00F0F980704B1B6805331A78714BA5
:10A360001B789A4240F09C816B4B1B6806331A782D
:10A370006C4B5B789A4240F09381674B1B680733C4
:10A380001A78694B1B789A4240F08A81624B1B68AD
:10A3900008331A78644B5B789A4240F081815F4BB6
:10A3A0001A88624B1B889A4240F07A814FF0FF3343
:10A3B0000893089BB3F1FF3F40F095805C4B00226F
:10A3C0001A70544B1B681B781C46524B1B68013398
:10A3D0001B781D464F4B1B6802331B781E464D4BA6
:10A3E0001B6803331B781A464A4B1B6804331B78DF
:10A3F0001946484B1B6805331B781846059B93F993
:10A400001330039302900191009233462A4621466D
:10A41000484801F091FE05230B930B9B002B15DBA5
:10A420003C4B1A680B9B1344434A12781046197828
:10A43000424A342303FB00F31A440B9B1344483372
:10A440000A461A700B9B013B0B93E6E73A4B1B78CD
:10A45000184601F0EDFB304B1B6809331A78364B78
:10A460001B78184651B2354A342303FB00F31344DA
:10A4700057330A461A70304B1B7819462F4A34233B
:10A4800003FB01F31344573393F9003019462C486A
:10A4900001F052FE204B1B680A331A78264B1B78BA
:10A4A000194607EE902AF8EE677A244A342303FB14
:10A4B00001F313446433C3ED007A1F4B1B78194634
:10A4C0001E4A342303FB01F3134464331B6818460C
:10A4D00006F056F902460B461A4801F02DFE164BBF
:10A4E00000221A70DCE0089801F0A2FB124B1B78E6
:10A4F0000A930A9B002B00F3D380104A0A9B342155
:10A5000001FB03F31344683300221A800A9B0133D2
:10A510000A93EEE7403700204437002048370020F8
:10A52000CA310020F82A0020FC2A0020582B0020E5
:10A53000FE2A0020E4230300C83100204C3700200D
:10A54000102403001C240300584B1B6807331A789F
:10A55000574B1B789A4240F0A380544B1B6808333A
:10A560001A78534B5B789A4240F09A80514B1B68A3
:10A570000021184601F0A0FB0346B3F1FF3F0CBFDA
:10A5800001230023DBB2002B00F08A80494B1B68BB
:10A590001B781C46474B1B6801331B781D46454BF7
:10A5A0001B6802331B781E46424B1B6803331B7823
:10A5B0001A46404B1B6804331B7819463D4B1B68F9
:10A5C00005331B781846059B93F9133003930290CB
:10A5D0000191009233462A462146374801F0ACFDEE
:10A5E00005230993099B002B15DB324B1A68099B45
:10A5F0001344324A127810461978314A342303FB47
:10A6000000F31A44099B134448330A461A70099B05
:10A61000013B0993E6E7294B1B781846059B93F904
:10A620001310274A342303FB00F3134457330A461D
:10A630001A70224B1B781946214A342303FB01F37D
:10A640001344573393F9003019461E4801F074FD46
:10A65000164B1B680A331A78184B1B78194607EEFD
:10A66000902AF8EE677A164A342303FB01F3134469
:10A670006433C3ED007A114B1B781946104A34231A
:10A6800003FB01F3134464331B68184606F078F8A3
:10A6900002460B460C4801F04FFD084B00221A7091
:10A6A00000F08EFA00BF0CB070BD00BF4437002030
:10A6B000FC2A002040370020E4230300C83100209A
:10A6C0004C370020102403001C24030000B585B083
:10A6D00001900091019B04330393019B1B881D2B68
:10A6E00004D1039B04331846FFF71CFE00BF05B0DE
:10A6F0005DF804FB00B583B00190184B01221A608D
:10A70000174B1B68012B24D1164B1B68002B09DC4F
:10A71000154B01221A60124B00221A60134B0122C2
:10A720001A7016E0124B1B684FF47A7202FB03F3A7
:10A73000184600F021F80B4B1B68013B094A1360D7
:10A74000084B1B6819460B4801F0F6FC074B00222A
:10A750001A7000BF03B05DF804FB00BF3C39002055
:10A760004439002048390020403900204C3900206D
:10A770005C2B00202824030030B583B00190154ADB
:10A7800000211548FCF7B0F9019B18464FEAE0712B
:10A790004FF000024FF00003CB0343EA5043C203E3
:10A7A00012F57A7443F100054FF4FA624FF000039A
:10A7B0002046294606F06AF902460B461346002257
:10A7C00019460648FCF7C4F9054B00221A6000BF81
:10A7D00003B030BDF5A60200B429030028300020E4
:10A7E0003C39002008B5064A01210648FCF77CF9EF
:10A7F000002210210448FCF7ABF900BF08BD00BFE0
:10A8000089A20200B82903004830002000B583B0B7
:10A810000023009304F022FD01906B4619460120AD
:10A8200004F016FE6B46184604F0A0FE019000BF2F
:10A8300003B05DF804FB000008B5F42200210D48C8
:10A8400006F04FFA0B4B41221A700A4B43225A7002
:10A85000084B4B229A70074B3122DA70064B1B884B
:10A86000064A0449064804F0F3FA064801F064FC7D
:10A8700000BF08BD24360020242B00202C2B0020F4
:10A88000082B00203C24030000B583B00346009150
:10A89000ADF80630064801F04FFCBDF80630009ACE
:10A8A00019460448FBF7E6FD00BF03B05DF804FB62
:10A8B00050240300EFBEADDE00B585B00190019BD2
:10A8C0001B78002B6CD1019B9B8A1946364801F0FE
:10A8D00033FC00230393019B9B8A1A46039B9342FC
:10A8E0000CD2019B1A69039B13441B7819462F480D
:10A8F00001F022FC039B01330393ECE72C4801F0A9
:10A900001BFC019B1B6902331B78012B0CD1294BCB
:10A9100001221A704FF08043B122C3F81C25642035
:10A92000FFF792FCFFF7EAFB019B1B6904331A78DF
:10A93000214B1A70019B1B6906331B781A464FF492
:10A940007A7303FB02F31D4A1360019B1B690733F3
:10A950001B785AB21A4B1A70019B1B6908331B787B
:10A960001A464FF47A7303FB02F3164A1360019BF5
:10A970001B6909331B781A464FF47A7303FB02F301
:10A98000114A1360019B1B690A331A780F4B1A7026
:10A99000019B1B690B331A780D4B1A70FFF74CFFA4
:10A9A00000BF05B05DF804FB682403009424030095
:10A9B0009C2403004D3900206D300020342B0020F2
:10A9C000F42A00203C2B0020382B00204E39002098
:10A9D000612B002000B585B09DF80430012262F3A0
:10A9E00003038DF804309DF80430012262F307134D
:10A9F0008DF80430124806F0C9F903469AB201AB4B
:10AA00000F491846FFF710FC02AB08220021184638
:10AA100006F067F91023ADF808303C23ADF80A3092
:10AA20000023ADF80C304FF4C873ADF80E3002AB14
:10AA30001846FFF7F5FB00BF05B05DF804FB00BF4B
:10AA4000A024030000B583B00023009300230093EB
:10AA50006B461946094803F013FF01AB042200219D
:10AA6000184606F03EF9064B019301AB194605481E
:10AA700004F048F900BF03B05DF804FBE4310020A6
:10AA8000B9A80200082B002000B583B00190019BFB
:10AA90001B78002B05D1054B1B883B211846FFF77F
:10AAA000BBFB00BF03B05DF804FB00BF242B0020FC
:10AAB00000B589B001AB1C220021184606F011F93F
:10AAC000002301934FF4A03302934FF4F023039338
:10AAD00003238DF810300023ADF8123000238DF8D9
:10AAE0001430064B06930023079301AB184602F07F
:10AAF000EFFE00BF09B05DF804FB00BF89AA0200A9
:10AB000000B585B001900091019B1B88562B42D067
:10AB1000562B47DC3B2B37D03B2B43DC212B25D05E
:10AB2000212B3FDC102B02D0112B0ED03AE0019BE1
:10AB30009A881F4B1A801E4B1B8819461D4803F02C
:10AB4000C1FE1D4B01221A702DE0194B4FF6FF720A
:10AB50001A80174B1B883B211846FFF75DFB164BED
:10AB600000221A70154B01221A601CE000238DF898
:10AB70000D3000238DF80C30019B9B8803AA1146F1
:10AB80001846FFF75DFB0EE0019B9B8813211846DA
:10AB9000FFF742FB07E0019B9B8813211846FFF754
:10ABA0003BFB00E000BF00BF05B05DF804FB00BF49
:10ABB000242B0020E4310020C93100203C39002042
:10ABC00008B5FFF739FB03490348FFF731FB00BF26
:10ABD00008BD00BF502B0020402B002000B583B0E3
:10ABE00004F03CFB0023019301AB1946012004F063
:10ABF0002FFC0346002B14BF01230023DBB2002BE4
:10AC000002D00B4801F098FA01AB184604F0AEFCF4
:10AC10000346002B14BF01230023DBB2002B02D01C
:10AC2000044801F089FA00BF03B05DF804FB00BFDF
:10AC3000AC240300B824030000B5ADB001ABAC22D6
:10AC40000021184606F04DF802238DF80430002349
:10AC50008DF8063005238DF807300123ADF850300C
:10AC60000C4B159301238DF880304023239344F23D
:10AC70005063249300232A9301AB1946064802F03F
:10AC8000C5FA0121044802F0B4FA00BF2DB05DF806
:10AC900004FB00BF282B0020F031002000B583B05A
:10ACA00001900091009B5A88124B1B889A4214D144
:10ACB000009B1B8840F6772293420ED1009B9B8815
:10ACC000033B9AB20C4B1A800B4B1B8819460A4B5C
:10ACD0001B881A46094801F02FFA019B5B88194628
:10ACE000019B1B881A46064801F026FA00BF03B0F4
:10ACF0005DF804FB242B0020262B0020C824030031
:10AD0000E824030008B50549054803F0D2FCF72103
:10AD1000034803F0F9FC00BF08BD00BF9DAC020072
:10AD2000D031002008B50321024802F047FB00BFE4
:10AD300008BD00BFF031002008B5FFF74FFFFFF757
:10AD400049FEFFF7DFFFFFF77DFEFFF775FFFFF717
:10AD5000AFFEFFF7E7FF044B00221A70034801F033
:10AD6000EBF900BF08BD00BFC93100202425030056
:10AD700082B00190019B082B38D801A252F823F031
:10AD8000A5AD0200ADAD0200B5AD0200BDAD020043
:10AD9000C5AD0200CDAD0200D5AD0200DDAD0200B3
:10ADA000E5AD0200154BD8221A7023E0134BFF22A9
:10ADB0001A701FE0114BEC221A701BE00F4BF022AF
:10ADC0001A7017E00D4BF4221A7013E00B4BF822A7
:10ADD0001A700FE0094BFC221A700BE0074B00229F
:10ADE0001A7007E0054B04221A7003E0034B00229F
:10ADF0001A7000BF00BF02B0704700BF543A002075
:10AE0000124B0022C3F80022104B0022C3F810217D
:10AE10000E4B00221A600D4B0122DA600B4B01220F
:10AE20001A610A4B0122C3F80C21084BD3F81031E8
:10AE3000002B0CBF01230023DBB2002B00D0F4E772
:10AE4000024B0022C3F8102100BF704700100040E1
:10AE500008B5114B0122C3F8FC2F0F4B0122C3F898
:10AE600000220E4B93F900301846FFF781FF0C4B80
:10AE70001A78094BC3F80C250A4B1A78064BC3F80D
:10AE80001025094B1A78044BC3F80825024B012200
:10AE90001A6000BF08BD00BF00100040F42A002067
:10AEA000543A0020602B0020612B002000B583B0B5
:10AEB000384B04221A70384BD3F85036364A23F0F8
:10AEC0000103C2F85036344B344AC3F81825324BCC
:10AED0000022C3F83425304B0022C3F82C252E4B1A
:10AEE0000122C3F830252C4BCC22C3F824252A4B51
:10AEF0004FF0CC32C3F81C25274B294AC3F8142540
:10AF0000284BFF221A7000238DF807309DF8073078
:10AF1000FF2B0BD09DF807300133224ACC21D154AE
:10AF20009DF8073001338DF80730EFE71A4B1D4AC3
:10AF3000C3F80425184B2122C3F800221A4B93F9B9
:10AF400000301846FFF714FF184B1A78124BC3F85D
:10AF50000C25104B1A78104BC3F81025144B1A7897
:10AF60000D4BC3F808250C4B0022C3F80C210A4BEB
:10AF700001221A60084BD3F80C31002B0CBF0123BF
:10AF80000023DBB2002B00D0F4E700BF03B05DF874
:10AF900004FB00BF602B002000100040FF000403F2
:10AFA0000800000154390020F42A0020543A0020FF
:10AFB000612B00201D4B1A781D4BC3F810251C4B2C
:10AFC0002122C3F800221A4B1A4AC3F80425184B51
:10AFD000D3F85036164A23F00103C2F85036144B0A
:10AFE000154AC3F81825124B0022C3F83425104B1C
:10AFF0000022C3F82C250E4B0122C3F830250C4B40
:10B00000CC22C3F824250A4B4FF0CC32C3F81C25C0
:10B01000074B0A4AC3F81425094B1A78044BC3F8A6
:10B020000825034B01225A6000BF7047602B0020A7
:10B0300000100040583A0020FF00040308000001FF
:10B04000612B002008B504F05DF900BF08BD00BF0A
:10B050007047000008B5FFF7F5FFFFF7F8FF684BF2
:10B0600001221A604FF080430022C3F800214FF004
:10B07000804301221A604FF08043D3F80031002B47
:10B080000CBF01230023DBB2002B00D0F3E75D4BA4
:10B090001B78002B09D05C4801F04EF800F01AFC38
:10B0A0004FF47A70FFF7D0F804E0584801F044F804
:10B0B000FFF7A6FE564B1B78002B00F08F80514BFC
:10B0C0001B78002B09D0534B1B68002B05DD524821
:10B0D00001F032F800F04EFB0CE04A4B1B78002BDD
:10B0E00008D14C4B1B68002B04DD4C4801F024F8C0
:10B0F000FFF7AEFE474B1B68002B12DD454B1B686C
:10B100001846FFF739FB464B1B68002B0CBF012389
:10B110000023DBB2002B02D0FCF7FEFBF3E700F0CC
:10B1200021FE384B1B78002B02D000F08BFB05E092
:10B13000344B1B78002B01D1FFF762FE394B1B68A3
:10B14000002B13D0384800F0F7FF364B1B68184629
:10B15000FFF712FB324B1B68002B0CBF01230023AF
:10B16000DBB2002B02D0FCF7D7FBF3E7254B1B78B3
:10B17000002B12D02D4B1B68002B0EDD2C4800F04D
:10B18000DBFF2A4B1B6819462A4800F0D5FF274BE6
:10B190001B68184600F058FC1FE01A4B1B78002B68
:10B1A0008DD1224B1B68002B89DD234800F0C4FFA2
:10B1B000FFF700FF1D4B1B681846FFF7DDFA184B21
:10B1C0001B68002B0CBF01230023DBB2002B02D035
:10B1D000FCF7A2FBF3E700F0C5FD70E7094B1B7815
:10B1E000002B05D00C4800F0A7FF00F0C3FA04E0E4
:10B1F0000A4800F0A1FFFFF72BFEFCF78DFBFCE7F0
:10B2000000D000406D300020342503005425030099
:10B21000CA310020342B002074250300942503003C
:10B220003C390020382B0020B42503003C2B0020A3
:10B23000D4250300FC2503002026030000B583B0BD
:10B2400003468DF80730FFF7FDFEFFF700FF6C4B5C
:10B2500001221A604FF080430022C3F800214FF012
:10B26000804301221A604FF08043D3F80031002B55
:10B270000CBF01230023DBB2002B00D0F3E7614BAE
:10B280001B78002B09D0604800F056FF00F022FB2D
:10B290004FF47A70FEF7D8FF04E05C4800F04CFFF2
:10B2A000FFF7AEFD9DF80730002B00F09680554B60
:10B2B0001B78002B0CD0564B1B68002B08DD554823
:10B2C00000F03AFF524B1B68184600F073FB0CE08D
:10B2D0004C4B1B78002B08D14D4B1B68002B04DD19
:10B2E0004D4800F029FFFFF7E1FD464B1B78002B8E
:10B2F00016D1474B1B68002B12DD454B1B681846C7
:10B30000FFF73AFA454B1B68002B0CBF01230023C3
:10B31000DBB2002B02D0FCF7FFFAF3E700F022FDCE
:10B32000384B1B78002B02D000F08CFA05E0354B2F
:10B330001B78002B01D1FFF763FD394B1B68002BF5
:10B3400013D0384800F0F8FE354B1B681846FFF75D
:10B3500013FA324B1B68002B0CBF01230023DBB216
:10B36000002B02D0FCF7D8FAF3E7264B1B78002B12
:10B3700012D02D4B1B68002B0EDD2C4800F0DCFE9C
:10B38000294B1B6819462A4800F0D6FE264B1B683D
:10B39000184600F059FB1FE01A4B1B78002B86D192
:10B3A000214B1B68002B82DD224800F0C5FEFFF711
:10B3B00001FE1D4B1B681846FFF7DEF9174B1B6893
:10B3C000002B0CBF01230023DBB2002B02D0FCF7C3
:10B3D000A3FAF3E700F0C6FC69E70A4B1B78002BE1
:10B3E00005D00C4800F0A8FE00F0B0FA04E00A48CE
:10B3F00000F0A2FEFFF75AFDFCF78EFAFCE700BF53
:10B4000000D000406D300020342503005425030097
:10B41000342B002074250300942503003C390020C0
:10B42000382B0020B42503003C2B0020D42503003A
:10B43000FC2503002026030010B584B00390FEF71E
:10B440001DFF03465C4A13605B4B1B6819465B4853
:10B4500000F072FEFFF770FC0398FFF78DF9584873
:10B4600000F06AFE574B1B68002B03D0564B1B782D
:10B47000002B01D0012300E00023002B02D0FCF7B9
:10B480004BFAEFE7514800F057FE514B93F8543018
:10B490001846FEF7BDFE4FF47A70FEF7D5FE03F0B6
:10B4A00031FF4FF47A70FEF7CFFE00F05BFC494BA2
:10B4B00093F90030082B02DD464B07221A70464BE9
:10B4C0001B78642B02D9444B11221A70414B93F91B
:10B4D00000301C46414B1968414B1A68414B1868B3
:10B4E000414B1B6800930346204600F0F1FA0346E7
:10B4F0005AB23E4B1A70384B1B7803F5617307EE56
:10B50000903AF8EEE77A3A4BC3ED007A394B1B7864
:10B510001946394800F010FE384B1B681946384868
:10B5200000F00AFE2B4B93F900301946354800F025
:10B5300003FE2E4B93F900301946334800F0FCFD12
:10B54000324B1B681946324800F0F6FD314B1B6840
:10B550001946314800F0F0FD304B1B781946304851
:10B5600000F0EAFD1C4B1B7819462E4800F0E4FD64
:10B570001F4B1B68184605F003F902460B462A4884
:10B5800000F0DAFD294B1B781946294800F0D4FD5C
:10B59000184B1B78002B09D04FF08043B122C3F821
:10B5A0001C256420FEF750FEFEF7A8FDFFF72EF9DC
:10B5B00000BF04B010BD00BF503900205826030062
:10B5C000642603003C390020C93100207C2603009A
:10B5D000F0310020F42A0020612B00201C300020D4
:10B5E000E42A0020E82A0020EC2A00202030002055
:10B5F000F02A00204D39002094260300342B00202F
:10B60000A0260300B0260300C4260300382B002028
:10B61000D82603003C2B0020E82603004E390020EA
:10B62000FC26030008270300202703006D300020BC
:10B630003827030008B5FCF7F9FD0020FCF754FE9D
:10B64000FCF754F900BF08BD30B587B04FF0805308
:10B65000D3F8A8301B0ADBB263F03F03DBB28DF8EE
:10B6600010304FF08053D3F8A830DBB28DF8113092
:10B670004FF08053D3F8A4301B0EDBB28DF812309C
:10B680004FF08053D3F8A4301B0CDBB28DF813308D
:10B690004FF08053D3F8A4301B0ADBB28DF814307E
:10B6A0004FF08053D3F8A430DBB28DF815309DF8FD
:10B6B00010301C469DF811301D469DF812309DF843
:10B6C00013209DF814109DF815000390029101922B
:10B6D00000932B4622460549054805F0A5FA044982
:10B6E000044800F029FD00BF07B030BD4427030027
:10B6F0002C3900206827030010B584B04FF0805328
:10B70000D3F80431029302AB03934FF08053D3F884
:10B710000011039B03331B781846039B02331B78ED
:10B720001C46039B01331B781A46039B1B7801932D
:10B730000092234602460C4800F0FEFC4FF0805376
:10B74000D3F808311946094800F0F6FC4FF0805351
:10B750001B6E4FF08052526E1946054800F0ECFC0B
:10B7600000BF04B010BD00BF88270300A42703005A
:10B77000B427030000B583B02F4800F0DDFC2F484C
:10B7800004F0C8FB002201212C4804F091FD0022A6
:10B7900040212A4804F08CFD30224121274804F042
:10B7A00087FD274B93F9003000221946234804F007
:10B7B00035FC00220421214804F07AFD00220521F5
:10B7C0001E4804F075FD00238DF8073001238DF825
:10B7D00006303021194804F039FD03465BB203F00E
:10B7E0006F035BB29DF80720012A01D1002201E01E
:10B7F0006FF07F0213435AB29DF806301B015BB213
:10B8000013435BB2DBB21A4630210C4804F050FD02
:10B8100031210A4804F01AFD03461A46312107482F
:10B8200004F046FD00220021044804F070FA00BF35
:10B8300003B05DF804FB00BFE8270300F02C0020F4
:10B840002030002008B54FF47A70FEF7FDFC024866
:10B8500004F060FB00BF08BDF02C002010B586B0DE
:10B8600000210620FEF7BFFC3220FEF7EDFC154B51
:10B8700001AC0FCB84E80F0002238DF807300523BD
:10B880008DF8063003238DF8053004238DF804303D
:10B890004FF00053039300238DF8113001A90023CA
:10B8A000094A0A48FCF784FE0590059B002B05D049
:10B8B000074A4FF4DF610598FAF7DCFD00BF06B0D8
:10B8C00010BD00BF1028030085BD0200BC29030085
:10B8D000AC23030008B506221649174803F070FF91
:10B8E000034683F00103DBB2002B04D0134800F0C1
:10B8F00023FC00231BE0124B93F900300022194671
:10B900000D4804F08BFB0E4B93F9003019460D489F
:10B9100000F012FC4FF47A70FEF796FC0A4BD3ED60
:10B92000007AB0EE670A044804F046FA012318468C
:10B9300008BD00BFBC290300F02C00202028030014
:10B940002030002038280300F02A002008B51348D2
:10B9500000F0F2FBFB220021114805F0C2F9114A68
:10B9600011490F4805F060F90D4805F00FFA03463C
:10B97000DBB21A460A490D4804F0C9F908490C48D7
:10B9800000F0DAFB094804F0B0F94FF4FA70FEF762
:10B990005BFC064804F0BEFADCE700BF5428030055
:10B9A000202F00202C39002078280300F02C0020C4
:10B9B0006827030000B583B001901C4800F0BCFB71
:10B9C0000198FEF7D9FE1A4B1B68002B0CBF012310
:10B9D0000023DBB2002B22D0FB220021154805F00A
:10B9E00080F9154A1549134805F01EF9114805F06C
:10B9F000CDF90346DBB21A460E49114804F087F927
:10BA00000C49104800F098FB0D4804F06EF94FF413
:10BA1000FA70FEF719FC0A4804F07CFAD3E700F04C
:10BA2000A1F900BF03B05DF804FB00BF8828030044
:10BA30003C390020202F00202C39002078280300DA
:10BA4000F02C00206827030000B585B001901B484A
:10BA500000F072FB0198FEF78FFE194B1B68002B5C
:10BA60000CBF01230023DBB2002B21D04FF4FA706E
:10BA7000FEF7EAFB134804F0E1F80346002BECD094
:10BA80004FF4FA70FEF7E0FBFB2200210E4805F0B0
:10BA900028F9FB238DF80F300DF10F031A460A49E0
:10BAA000084804F0F3F80849084800F045FBD4E7DB
:10BAB00000F058F900BF05B05DF804FBD028030082
:10BAC0003C390020F02C0020242E002068270300A1
:10BAD00084B00390029101920093039A029BD31ABF
