:020000022000DC
:1070000000000220757302005D7302005F730200CE
:1070100061730200637302006573020000000000E8
:107020000000000000000000000000006773020084
:1070300069730200000000006B7302006D730200B0
:10704000199602006F73020011A3020049AD0200FD
:107050006F7302006F73020029A002006F730200B9
:107060006F7302006F7302006F7302006F73020090
:107070006F7302006F7302006F7302006F73020080
:107080006F730200118502006F7302006F730200BC
:107090006F7302006F73020005FC02006F73020041
:1070A0006F7302006F7302006F7302006F73020050
:1070B0006F7302006F730200000000000000000008
:1070C0006F7302006F7302006F7302006F73020030
:1070D0006F7302006F7302006F7302006F73020020
:1070E0006F730200000000000000000000000000BC
:1070F000000000006F730200000000006F730200C8
:10710000000000000000000000000000000000007F
:10711000000000000000000000000000000000006F
:10712000000000000000000000000000000000005F
:10713000000000000000000000000000000000004F
:10714000000000000000000000000000000000003F
:10715000000000000000000000000000000000002F
:10716000000000000000000000000000000000001F
:10717000000000000000000000000000000000000F
:1071800000000000000000000000000000000000FF
:1071900000000000000000000000000000000000EF
:1071A00000000000000000000000000000000000DF
:1071B00000000000000000000000000000000000CF
:1071C00000000000000000000000000000000000BF
:1071D00000000000000000000000000000000000AF
:1071E000000000000000000000000000000000009F
:1071F000000000000000000000000000000000008F
:10720000354936480A1A02D0072291438D4634493F
:1072100034480A1A06D00722914381F309880222D2
:1072200082F3148830483149314A00F044F831483B
:107230003149324A00F03FF831483249324A00F0D1
:107240003AF832483249334A00F035F83248334987
:10725000334A00F030F833483349344A00F02BF811
:1072600033483449344A00F026F83448344900227F
:1072700000F02CF833483449002200F027F8334856
:107280003349091A082902DB002202604160314AB1
:1072900090471F481F49884205D00268043003B454
:1072A000904703BCF7E700208646EC46002000210B
:1072B000294A9047FEE7884207D0521A05D0037842
:1072C00001300B700131013AF9D17047884202D088
:1072D00002700130FAE770470000022000E0012050
:1072E00000000220000002206C3903000030002062
:1072F0007F300020D0730200D073020044280300C6
:107300006C3903000030002000300020A828030062
:10731000A8280300AC280300A8280300A82803001D
:10732000A8280300AC280300AC2803006B39030035
:10733000EC390300803000208030002080300020B5
:10734000A83F0020A83F0020AC3F0020AC3F002019
:10735000AC5F00209D7302001DC10200FEE7FEE746
:10736000FEE7FEE7FEE7FEE7FEE7FEE7FEE7FEE7F5
:1073700000F002B8FFF7FCBF0F484FF00701884349
:1073800085460E4880470E48016841F4700101604F
:10739000BFF34F8FBFF36F8FFFF732BF09480A4922
:1073A0000A4A884207D0521A05D0037801300B7080
:1073B0000131013AF9D1704700000220A58B02008B
:1073C00088ED00E0A82803000030002000300020F5
:1073D00000487047A03F002086B0039002910192C0
:1073E00001238DF817309DF81730214A039B136055
:1073F0001F4A029B53601E4A019B9360039B44F209
:107400000102934213D0039B44F20202934221D122
:10741000019B174AD360164BDB681B881A46144B36
:107420009A61134BDB685B68114AD36112E0019BE0
:107430000F4A13610E4B1B699B680D4A53610C4B3D
:107440001B691B680A4A9361094B1B695B68084A00
:10745000D36100BF72B600BF00BF9DF81730DBB22A
:10746000002BFAD162B600BF00BF06B0704700BF64
:107470008030002000B583B002900091019244F268
:10748000010071466A4600F003F803B000BD00BF7A
:1074900000B587B003900291019272B600BF039BC2
:1074A00044F20202934217D0039B44F20202934239
:1074B00018D8039B44F20102934210D0039B44F27C
:1074C000010293420ED8039B012B0DD0039B41F286
:1074D000010293420AD005E0019B059307E0019B5E
:1074E000049304E000BF02E000BF00E000BF084BCF
:1074F0001B6803F00103002B00D000BE019A029923
:107500000398FFF769FF00BF07B05DF804FB00BFF9
:10751000F0ED00E0F0B583B0124800F0DFFF034665
:1075200018464FF00001104BD3E90023861841EBB9
:107530000307CDE900670D4BD3E90023DDE9000126
:10754000994208BF904207D2DDE9002312F180740E
:1075500043F10005CDE90045DDE900231046194659
:1075600003B0F0BD00300020A8300020B030002073
:1075700088B001900091019B0793009B0693079BA5
:10758000D3E90223CDE90423069BD3E90223CDE905
:107590000223DDE90423DDE90201994208BF90429C
:1075A0002CBF01230023DBB2184608B0704700004F
:1075B00030B585B00190019B5B69002B03D12B494D
:1075C000A22003F0D9FF00238DF80F30284B1B7841
:1075D000002B45D0019B002B42D0019B1B7FDBB2CF
:1075E000002B3DD0FFF796FF019BD3E90223994280
:1075F00008BF90422CD3019B1B69002B02D1019B39
:1076000000221A77019B5B69019A9269104698479C
:10761000019B1B69002B23D0019B1B7FDBB2002B3E
:107620001ED0019BD3E90201019B1B691A464FF052
:107630000003841841EB0305019BC3E90245019B4C
:1076400019460C4801F0E8F901238DF80F3007E0E6
:10765000019B1946074801F0DFF901238DF80F302F
:107660009DF80F30184605B030BD00BFB8280300A4
:10767000A4300020AC280300F0B589B0019000913F
:107680000D230793009B00221A70019BD3E902454A
:10769000FFF740FF02460B46A61A65EB0307CDE94C
:1076A0000467DDE90423012A73F100031BDB049B5B
:1076B000B3F5350F05D300F0B7FA0246154B134466
:1076C00003E0019BD3E90223134603934FF496038F
:1076D000039A0021104800F003FE0790079B002B3F
:1076E00005D1012313E000210B4800F0D1FE079BD8
:1076F0000D2B07D10198FFF75BFF03461A46009B4D
:107700001A7003E00549F52003F036FF0023184600
:1077100009B0F0BDFFFFB40000300020B82803001E
:1077200000B583B0044801F0B1F90190019B1846FF
:1077300003B05DF804FB00BFAC28030000B583B0C4
:10774000044801F0C5F90190019B184603B05DF8AB
:1077500004FB00BFAC28030000B583B0FFF7E0FFD7
:107760000190019B002B02D0019B00221A77019B04
:10777000002BF3D100BF00BF03B05DF804FB000095
:10778000054BD3E9002312F1807043F10001024B55
:10779000C3E9000100BF7047A830002000B583B0E6
:1077A0000190134B1B68002B1DD0019800F096FE32
:1077B0000F4B1B68D3E90223134623F07F4319467E
:1077C00000F026FA0346B3F5960F04D309494FF4A7
:1077D000957003F0D1FE064B1B681846FFF7E8FED4
:1077E000034B00221A6000BF03B05DF804FB00BF2A
:1077F000A0300020B828030000B583B00190FFF747
:1078000089FE02460B460349C1E9002300BF03B0CD
:107810005DF804FBB030002000B587B00190FFF7A1
:107820008DFF049000238DF81730049B002B48D067
:107830002B4B1B68002B03D101238DF8173019E067
:10784000049BD3E90201264B1B68D3E9022399422A
:1078500008BF90420ED201238DF81730204B1B68D1
:107860001B7FDBB2002B05D01D4B1B6819461D4842
:1078700001F0D2F89DF81730002B2AD0FFF750FF07
:1078800004900DF10F0319460498FFF7F5FE034627
:10789000002B12D0124B1B68002B02D1019800F074
:1078A0002BFC0F4A049B13609DF80F3083F00103FB
:1078B000DBB2002BB3D000BF0EE0094B00221A60F0
:1078C000ADE7074B1B68002B05D1019800F02AFC9F
:1078D00001E000BF00E000BF00BF07B05DF804FB9F
:1078E000A0300020AC28030000B587B001902C4ADE
:1078F00003AB1946104600F0EEFE059048E0059BEC
:107900001B78022B2ED0022B32DC002B02D0012B55
:1079100014D02DE0059B5B681B7FDBB283F0010375
:10792000DBB2002B26D0059B5B6801221A77059BF2
:107930005B6819461B4801F06FF81BE0059B5A680D
:10794000194B1B689A4203D1174B00221A6012E0B0
:10795000059B5B681946134801F0CEF803468DF885
:10796000133008E0FFF7F8FE104B01221A7002E016
:1079700000BF00E000BF0A4A03AB1946104600F002
:10798000C3FE074A03AB1946104600F0A4FE05905B
:10799000059B002BB3D100BF00BF07B05DF804FB0F
:1079A00010310020AC280300A0300020A4300020BB
:1079B00000B583B00190019800F05DFD0346002BF7
:1079C00001D0FFF7DDFE0021019800F072FD0346B3
:1079D000002B02D00198FFF7E1FE0121019800F091
:1079E00068FD0346002B02D00198FFF705FF0198C0
:1079F000FFF77AFF0198FFF70FFF00BF03B05DF8B4
:107A000004FB000008B5024800F075FD00BF08BD8A
:107A10000030002000B585B0034600918DF8073096
:107A2000114A02AB1946104600F028FE0390039B52
:107A3000002B13D0039B9DF807201A70039B009A1C
:107A40005A60094A02AB1946104600F030FE034660
:107A5000002B01D0FFF7D6FF002300E004231846D7
:107A600005B05DF804FB00BF1031002000B583B005
:107A7000164B1B680093164808235822154900F03E
:107A8000CAFD0190019B002B01D0019B19E06B46C0
:107A9000114A1946114800F0CFFA0190019B002BC2
:107AA00001D0019B0DE001210C4800F0D3FC012323
:107AB0000B4A0121094800F04BFB0A4B01221A70C6
:107AC000019B184603B05DF804FB00BF24290300A6
:107AD00010310020B8300020B179020000300020C1
:107AE000FFFF7F00A430002000B587B003900B4655
:107AF00001928DF80B30039B002B04D1134940F207
:107B00002E2003F039FD019B002B04D10F4940F2D8
:107B10002F2003F031FD019B002B01D1072310E042
:107B2000039B1B680593059B019A5A619DF80B30D6
:107B3000012B0CBF01230023DBB21A46059B1A61FF
:107B40000023184607B05DF804FB00BFB828030007
:107B500030B587B0039002910192039B002B04D1B2
:107B6000154940F23E2003F007FD039B0593059B5A
:107B70001B7FDBB2002B01D000231AE0059B019A8A
:107B80009A61FFF7C7FC029B1A464FF00003841866
:107B900041EB0305059BC3E90245059B1B69002BCF
:107BA00002D0059B029A1A6105990020FFF732FF67
:107BB0000346184607B030BDB828030000B585B0AD
:107BC0000190019B002B04D109494FF4157003F07B
:107BD000D3FC019B0393039B00221A770399012096
:107BE000FFF718FF0346184605B05DF804FB00BF19
:107BF000B828030008B5054B00221A7000210220A6
:107C0000FFF708FF0346184608BD00BFA430002058
:107C100082B001900091019A009BD31A23F07F4318
:107C2000184602B07047000008B5034800F056FC43
:107C30000346184608BD00BF0030002082B0EFF3B5
:107C400010830093009B019372B600BF019B1846FE
:107C500002B0704762B600BF00BF704700B585B084
:107C60000190FFF7EBFF0390164B9B68002B1BD195
:107C7000144B01229A60144BD3F88020134B13400D
:107C8000104A1360104B114AC3F880200E4BD3F8F2
:107C900084300C4A53600C4B4FF0FF32C3F8842001
:107CA000019B00221A7002E0019B01221A70039BC3
:107CB000002B01D1FFF7CEFF0023184605B05DF879
:107CC00004FB00BF2431002000E100E0FC06FFBD02
:107CD00000B585B003468DF80730104B9B68002B2C
:107CE00016D09DF80730002B12D1FFF7A7FF0390A5
:107CF0000B4A0A4B1B681360094A084B5B685360C8
:107D0000064B00229A60039B002B01D1FFF7A2FFD4
:107D10000023184605B05DF804FB00BF24310020A5
:107D200000E100E000B583B0019000F02BF80346BD
:107D3000012B03D00549432003F01EFC0198FFF7F7
:107D40008DFF00BF03B05DF804FB00BF28290300CE
:107D500000B583B003468DF8073000F013F80346F2
:107D6000012B03D00649512003F006FC9DF8073093
:107D70001846FFF7ADFF00BF03B05DF804FB00BF7E
:107D80002829030084B0EFF305830193019BC3F31B
:107D900008030393039B002B0DD1EFF3148300938F
:107DA000009B0293029B03F00103002B0CBF0123F5
:107DB0000023DBB200E00123184604B07047000046
:107DC00082B003468DF807309DF8073003F01F029C
:107DD00005499DF907305B09012000FA02F241F8DC
:107DE000232000BF02B0704700E100E082B00346EC
:107DF0008DF807309DF8073003F01F0206499DF902
:107E000007305B09012000FA02F2403341F82320D9
:107E100000BF02B0704700BF00E100E082B003463F
:107E200000918DF807309DF90730002B0CDA009B8C
:107E3000DAB20C499DF8073003F00F03043B5201FE
:107E4000D2B20B441A7609E0009BDAB206499DF9DA
:107E500007305201D2B20B4483F8002300BF02B0B6
:107E6000704700BF00ED00E000E100E000B583B026
:107E700003460A468DF8073013468DF806309DF804
:107E80000630012B03D99DF80630032B0BD99DF842
:107E90000630042B03D99DF80630072B03D9084977
:107EA0006B2003F069FB9DF806209DF90730114611
:107EB0001846FFF7B3FF00BF03B05DF804FB00BF37
:107EC0009C29030000B583B003468DF807309DF967
:107ED00007301846FFF774FF00BF03B05DF804FBDE
:107EE00000B585B00190019B002B0AD0074B43F0F1
:107EF00001030393019B9B010293039B0298984704
:107F000000E000BF05B05DF804FB00BF802A03005D
:107F100084B0039002910192039B029A02F5A87229
:107F2000019943F8221000BF04B0704782B001905D
:107F30000091019B009A02F5A87253F8223018466E
:107F400002B0704782B001900091019B009AC3F883
:107F5000042300BF02B0704782B001900091019BE2
:107F6000009AC3F8082300BF02B0704782B00190A6
:107F70000B46ADF80230BDF80230019A13441B687D
:107F8000184602B0704784B001900B46ADF802303D
:107F9000BDF80230019A134400221A60BDF8023085
:107FA000019A13441B680393039B00BF04B07047FE
:107FB00082B00190019BD3F80435184602B0704797
:107FC00000B583B001900091009BB3F5805F04D3AE
:107FD00006494FF4BE7003F0CFFA019B009AC3F834
:107FE000082500BF03B05DF804FB00BFD4290300DF
:107FF00082B001900B468DF803309DF80320019B61
:1080000013441A460123136000BF02B0704782B0C8
:1080100001900091019B009AC3F8442300BF02B075
:10802000704782B001900091019B009AC3F84823E9
:1080300000BF02B07047000000B587B00390029106
:108040000192039B002B03D12849552003F094FA99
:10805000029B002B03D12549562003F08DFA019B8A
:10806000002B03D12149572003F086FA039B5B794B
:1080700019461F4A019B42F82130039B5B791D4A38
:10808000DB0013441B79002B03D008230593059BC9
:1080900027E0039B1A68029B1B8819461046FFF7CE
:1080A0008FFF039B93F90420029B9B78194610468F
:1080B000FFF7DCFE039B93F904301846FFF702FF3D
:1080C000039B5B790B4ADB00134401221A71039B6B
:1080D0005B791946074A039B42F831300023059328
:1080E000059B184607B05DF804FB00BF082A030093
:1080F000303100203431002000B583B00190019B65
:10810000002B03D10649872003F036FA019B1B6838
:1081100000211846FFF76CFF00BF03B05DF804FBB9
:10812000082A030000B583B00190019B002B03D106
:1081300006498D2003F020FA019B1B680421184694
:10814000FFF756FF00BF03B05DF804FB082A0300E9
:1081500000B587B00390029101928DF80330039B24
:10816000002B03D12149962003F006FA4FF4803208
:10817000029B02FA03F30593029B50339BB29B00D0
:10818000ADF81230019B23F07F430193039B1B68E2
:1081900005991846FFF7E0FE039B1B6805991846F2
:1081A000FFF73FFF039B1B68BDF8122011461846DE
:1081B000FFF7E9FE039B1B68019A02991846FFF737
:1081C000A7FE039B1B6805991846FFF720FF9DF843
:1081D0000330002B05D0039B1B6805991846FFF759
:1081E000B1FE00BF07B05DF804FB00BF082A030022
:1081F00000B585B00390029113468DF80730039BBC
:10820000002B03D10B49A92003F0B6F9039B1B688F
:1082100002991846FFF7FBFE9DF80730002B05D0AA
:10822000039B1B6802991846FFF78CFE00BF05B040
:108230005DF804FB082A030000B583B001900091AB
:10824000019B002B03D10A49B32003F095F9019B50
:108250001B6800991846FFF7E4FE019B1B68009914
:108260001846FFF779FE00BF03B05DF804FB00BFBE
:10827000082A030000B583B001900B46ADF8023028
:10828000019B002B03D10F49BA2003F075F9019B24
:108290001B68BDF8022011461846FFF767FE03462B
:1082A000002B09D0019B1B68BDF80220114618461F
:1082B000FFF769FE012300E00023184603B05DF8D4
:1082C00004FB00BF082A030082B001900091019ACC
:1082D000009BD31A23F07F43184602B0704700007A
:1082E00000B58BB00390029101920093039B002B89
:1082F00003D15749CD2003F03FF94FF48032029B60
:1083000002FA03F30993029B50339BB29B00ADF832
:108310002230019B23F07F43019309990398FFF7D3
:108320008BFF039B1B681846FFF742FE0790039BD9
:108330001B6802991846FFF7F9FD0690039B1B681E
:10834000079A02991846FFF7E3FD039B1B68BDF8E7
:10835000222011461846FFF716FE07990698FFF7E8
:10836000B3FF0346012B0AD11020FFF7B9FD039B91
:108370001B68BDF8222011461846FFF704FE039B38
:108380001B681846FFF714FE079007990198FFF73E
:108390009BFF0590039B1B6809991846FFF737FE62
:1083A000059B012B15D1039B1868019B01331A46CD
:1083B0000299FFF7ADFD1020FFF792FD039B1B68AC
:1083C0001846FFF7F5FD0246079B934235D00D2373
:1083D00039E0039B1B68019A02991846FFF798FD44
:1083E000039B1B681846FFF7E3FD0790019B013BC9
:1083F00007991846FFF768FF0590009BC3F1FF132C
:1084000003F57F43059A9A4201D90D231BE0059B92
:10841000002B12D1039B1868019B01331A46029965
:10842000FFF776FD039B1B681846FFF7C1FD024668
:10843000079B934201D00D2305E00122099903987F
:10844000FFF7D6FE002318460BB05DF804FB00BF13
:10845000082A030000B583B001900B468DF8033065
:108460009DF803301A4602210198FFF7C1FE00BFB4
:1084700003B05DF804FB00B583B001904FF4827146
:108480000198FFF7F7FE0346184603B05DF804FBBA
:1084900000B583B0019000914FF48032009B02FA46
:1084A00003F319460198FFF7C7FE00BF03B05DF85C
:1084B00004FB00B585B001900091009B50339BB246
:1084C0009B00ADF80E30BDF80E3019460198FFF74D
:1084D000D1FE0346184605B05DF804FB00B583B035
:1084E0000190019B1B681846FFF762FD0346184682
:1084F00003B05DF804FB00B583B00190019B93F9D4
:1085000004301846FFF772FC00BF03B05DF804FBAF
:1085100008B5044B1B68044A12681046984700BF10
:1085200008BD00BF303100203431002086B00190FA
:108530000091019B53E8011F8AB2D88902449889AF
:10854000824228BF121A1889824202BFBFF32F8FBE
:10855000002307E0C2EA010243E801200028E9D134
:108560004FF001038DF80F30059002910492029AAA
:10857000009B1A609DF80F30DBB2184606B07047BA
:1085800084B00190019951E8013FC3EA034341E8F7
:108590000132002AF7D10392029300BF04B0704762
:1085A00086B001900091019B53E8021F1FFAA1F2CF
:1085B000D888824202BFBFF32F8F00230DE0D889F5
:1085C00002449889824228BF121AC1EA024243E853
:1085D00002200028E8D14FF001038DF80F300590FC
:1085E00002910492029A009B1A609DF80F30DBB250
:1085F000184606B0704784B00190019951E8023FD7
:10860000C3EA234341E80232002AF7D103920293DE
:1086100000BF04B0704784B00390029111461A461F
:108620000B46ADF806301346ADF80430029B002B24
:1086300001D10E231FE0BDF80630BDF80420B3FBC6
:10864000F2F102FB01F29B1A9BB2002B01D009232D
:1086500011E0039B029A1A60039B00225A60039B5D
:1086600000229A60039BBDF806209A81039BBDF807
:108670000420DA810023184604B0704700B585B0A5
:1086800001900091009B19460198FFF74FFF0346A8
:10869000002B07D0019B1B68009A12881344039398
:1086A000039B00E00023184605B05DF804FB00B50D
:1086B00083B001900091009B1A88009B5B889A42CE
:1086C00004D10198FFF75CFF012300E00023184666
:1086D00003B05DF804FB00B585B001900091009BEC
:1086E00019460198FFF75CFF0346002B07D0019B5A
:1086F0001B68009A528813440393039B00E00023F5
:10870000184605B05DF804FB00B583B001900091F8
:10871000009B1A88009B5B889A4204D10198FFF75E
:108720006AFF012300E00023184603B05DF804FB54
:1087300000B585B001900091009B5B099B00019AF8
:108740001A44009B03F01F03012101FA03F31946A9
:10875000104600F036F8039000BF05B05DF804FB4A
:1087600000B585B001900091009B5B099B00019AC8
:108770001A44009B03F01F03012101FA03F3DB43BA
:108780001946104600F035F8039000BF05B05DF8BB
:1087900004FB82B001900091009B5B099B00019A51
:1087A00013441A68009B03F01F0322FA03F303F03B
:1087B0000103002B14BF01230023DBB2184602B0D3
:1087C000704710B487B001900091019B009A53E864
:1087D000004F44EA020043E8000191F0000FF6D197
:1087E000059404900391049B184607B05DF8044B70
:1087F000704710B487B001900091019B009A53E834
:10880000004F04EA020043E8000191F0000FF6D1A6
:10881000059404900391049B184607B05DF8044B3F
:108820007047000082B003468DF807309DF807308E
:1088300003F01F0206499DF907305B09012000FA89
:1088400002F2603341F8232000BF02B0704700BF3E
:1088500000E100E000B583B00190019B002B03D143
:108860000649722002F088FE019B00221A60BFF3C5
:108870005F8F00BF00BF03B05DF804FBE42A030074
:1088800041DF704700BF184600B585B000238DF862
:1088900003300DF103031846FFF744FAF1EE103AE6
:1088A0000193019B0393039B23F09F030293029B7D
:1088B000E1EE103A00BFBFF35F8F00BF2620FFF745
:1088C000B1FF9DF803301846FFF742FA039B03F00F
:1088D0000703002B03D004497D2002F04DFE00BFAA
:1088E00005B05DF804FB00BF242B030008B5064B60
:1088F00000221A700548FFF7ADFF0549054800F052
:108900002FF80023184608BD403100203C310020DC
:10891000982B03004431002000B583B0FFF7B4FF6B
:1089200007F042F90346002B0ED0FFF7A9FF019094
:10893000019B002B0ED0019B022B0BD007494FF45B
:10894000B07002F019FE05E020BF00BF40BF00BFBD
:1089500020BF00BF00BF03B05DF804FB242B030061
:1089600000B583B001900091019B002B03D1104909
:10897000502002F001FE009B002B03D10C49512036
:1089800002F0FAFD019B009A1A60019B1B681A68AD
:10899000019B5A60019B5A68019B1B685B689A4265
:1089A00002D1019B00225A6000BF03B05DF804FBB6
:1089B000A42B030000B583B00190019B002B03D1D1
:1089C0001449632002F0D8FD019B1B68002B03D1E2
:1089D0001049642002F0D0FD019B5B68002B14D08D
:1089E000019B5B681A46019B1B689B6813441A46EF
:1089F000019B5A60019B5A68019B1B685B689A4205
:108A000004D1019B00225A6000E000BF03B05DF872
:108A100004FB00BFA42B030000B585B001900091BA
:108A2000019B002B03D118493A2002F0A5FD009BC1
:108A3000002B03D114493B2002F09EFD019B5B6893
:108A400003930FE0019B9B68039A126800991046FC
:108A50009847034683F00103DBB2002B07D1039B49
:108A60001B680393039B1B68002BEBD100E000BF46
:108A7000039B1A68009B1A60039B009A1A6000BF50
:108A800005B05DF804FB00BF2C2C030000B585B0D9
:108A90000190019B002B03D10C49512002F06CFD89
:108AA000019B5B681B680393019B5B681B68002B41
:108AB00006D0019B5B681A68019B5B6812681A60AC
:108AC000039B184605B05DF804FB00BF2C2C030087
:108AD00000B583B00190019B002B03D105495D20B7
:108AE00002F04AFD019B5B681B68184603B05DF805
:108AF00004FB00BF2C2C030000B585B00190009151
:108B0000019B002B03D11649692002F035FD009B23
:108B1000002B03D112496A2002F02EFD00238DF8AC
:108B20000F30019B5B6802930FE0029B1B68009A69
:108B30009A4207D1009B1A68029B1A6001238DF8A4
:108B40000F3006E0029B1B680293029B1B68002B00
:108B5000EBD19DF80F30184605B05DF804FB00BF5F
:108B60002C2C0300BFF34F8F00BF074BDB6803F4CF
:108B7000E0620549054B1343CB60BFF34F8F00BF45
:108B800000BF00BFFCE700BF00ED00E00400FA05F5
:108B9000024B034A1A6000BF704700BF0830002034
:108BA0000090D00308B500F01FF90346002B0ED04B
:108BB0004FF080430022C3F80C214FF08043002285
:108BC000C3F810214FF080430022C3F8382500F08D
:108BD0001DF90346002B76D04FF080537F4AD3F81F
:108BE0000434C2F820354FF080537C4AD3F808345F
:108BF000C2F824354FF08053784AD3F80C34C2F8C9
:108C000028354FF08053754AD3F81034C2F82C350C
:108C10004FF08053714AD3F81434C2F830354FF016
:108C200080536E4AD3F81834C2F834354FF080536D
:108C30006A4AD3F81C34C2F840354FF08053674A73
:108C4000D3F82034C2F844354FF08053634AD3F848
:108C50002434C2F848354FF08053604AD3F82834A2
:108C6000C2F84C354FF080535C4AD3F82C34C2F82C
:108C700050354FF08053594AD3F83034C2F8543548
:108C80004FF08053554AD3F83434C2F860354FF072
:108C90008053524AD3F83834C2F864354FF08053C9
:108CA0004E4AD3F83C34C2F868354FF080534B4AF3
:108CB000D3F84034C2F86C354FF08053474AD3F8AC
:108CC0004434C2F8703500F0B3F80346002B0DD0E1
:108CD0004FF08043D3F8003403F00103002B05D09C
:108CE0004FF080436FF00102C3F800243C4BD3F8EF
:108CF00088303B4A43F47003C2F88830BFF34F8F8B
:108D000000BFBFF36F8F00BF4FF01023D3F80C32BA
:108D100003F00103012B25D1324B0122C3F80425B6
:108D200000BF304BD3F80034002BFAD04FF01023A3
:108D3000D3F80C324FF0102223F00103C2F80C32AA
:108D400000BF284BD3F80034002BFAD0254B00226B
:108D5000C3F8042500BF234BD3F80034002BFAD00E
:108D6000FFF700FF4FF01023D3F80032002B05DB94
:108D70004FF01023D3F80432002B2BDA194B0122C9
:108D8000C3F8042500BF174BD3F80034002BFAD0EA
:108D90004FF010231222C3F8002200BF114BD3F86A
:108DA0000034002BFAD04FF010231222C3F8042213
:108DB00000BF0C4BD3F80034002BFAD0094B002233
:108DC000C3F8042500BF074BD3F80034002BFAD0BA
:108DD000FFF7C8FEFFF7DCFE00BF08BD00C0004083
:108DE00000ED00E000E00140064B1B680D2B05D1B3
:108DF000054B1B68002B01D1012300E0002318461E
:108E0000704700BF3001001034010010064B1B6892
:108E10000D2B05D1054B1B68002B01D1012300E070
:108E200000231846704700BF3001001034010010C5
:108E3000064B1B680D2B05D1054B1B68002B01D180
:108E4000012300E000231846704700BF30010010E6
:108E50003401001082B003468DF807309DF80730CA
:108E600003F01F0206499DF907305B09012000FA53
:108E700002F2203341F8232000BF02B0704700BF48
:108E800000E100E008B506F08FFE034683F0010321
:108E9000DBB2002B03D10549792002F06DFB00F015
:108EA000A1FB034B00229A7000BF08BDA02C030059
:108EB0004C31002000B583B000230193144B1B7884
:108EC000002B02D0852301931CE0114B00229A60F5
:108ED0000F4B00225A600E4B00221A610C4B0022ED
:108EE000DA600C4800F02EFB019006F05DFE0346B0
:108EF00083F00103DBB2002B01D000F045FB044BF3
:108F000001221A70019B184603B05DF804FB00BFF4
:108F10004C310020DD90020084B001900091019B53
:108F20001B68039306E0039A009B9A420DD0039BB3
:108F30001B680393039B002BF5D1019B1A68009BD0
:108F40001A60019B009A1A6000E000BF04B07047ED
:108F500084B00190019B1B680393039B002B03D0FB
:108F6000039B1A68019B1A60039B184604B0704764
:108F700000B585B00190294B1B78002B03D12849FF
:108F8000E92002F0F9FA254B9B78DBB2002B19D0CF
:108F9000019B002B03D0019B5B68012098470023B5
:108FA0008DF80F300DF10F031846FEF7BBFE1B4B7B
:108FB000DB680133194AD3609DF80F301846FEF77D
:108FC000C7FE1EE000238DF80E300DF10E0318468B
:108FD000FEF7A8FE019B002B03D001991148FFF773
:108FE0009BFF0E4BDB68002B01D100F0E1FA0B4B2D
:108FF000DB680133094AD3609DF80E301846FEF74E
:10900000A7FE064BDB68002B04D1054940F2051092
:1090100002F0B2FA00BF05B05DF804FB4C3100204D
:10902000A02C03005C31002000B583B0164B1B78E8
:10903000002B04D115494FF4857002F09DFA124BB4
:10904000DB68002B04D1114940F20B1002F094FAB6
:1090500000238DF807300DF107031846FEF762FE76
:10906000094BDB68013B084AD360074BDB68002BE8
:1090700001D1FFF707FF9DF807301846FEF768FE9D
:1090800000BF03B05DF804FB4C310020A02C0300AE
:1090900000B585B003468DF807309DF80730002BEA
:1090A00002D10C4B039301E00B4B03930398FFF7A2
:1090B0004FFF0290029B002B06D0029B5B689DF83D
:1090C000072010469847F1E700BF00BF05B05DF8E4
:1090D00004FB00BF543100205C31002000B583B098
:1090E00003468DF807309DF80730002B05D10A4B59
:1090F00001225A700020FFF7CBFF9DF80730012BAB
:1091000005D1054B01229A700120FFF7C1FF00BF76
:1091100003B05DF804FB00BF4C31002000B583B004
:1091200001900091019B002B05D1054B01225A7043
:109130000020FFF7ADFF00BF03B05DF804FB00BFE8
:109140004C31002000B585B0034600918DF8073002
:109150009DF80730032B29D0032B35DC002B02D0E0
:10916000012B04D030E00020FFF774FE2DE0002337
:109170008DF80F300DF10F031846FEF7D3FD154B98
:109180001B7883F00103DBB2002B01D0FFF792FEC6
:10919000104BDB6801330F4AD3600E4B01229A70EB
:1091A0009DF80F301846FEF7D3FD0EE0094B1B78F3
:1091B000002B04D1084940F2452002F0DDF900F00F
:1091C000E3F9FFF731FF00E000BF00BF05B05DF835
:1091D00004FB00BF4C310020A02C030000B589B077
:1091E00001900091009B0793019B1B788DF808303C
:1091F000019B5B680393019B9B68DBB28DF8103089
:10920000019BDB680593019B1B69DBB28DF818306D
:10921000074A079B52F823300649079A51F8221053
:1092200002AA1046984700BF09B05DF804FB00BFD2
:10923000603100207031002010B58AB00390029197
:1092400001920093039B1B7809932249099B019A81
:1092500041F823202049099B009A41F8232000234C
:1092600008931E4B04AC0FCB84E80F00029B1B78C5
:109270008DF81030029B5B788DF81130029B9B7843
:109280008DF81230029BDB788DF81330029B1B792E
:109290008DF81530029B5B798DF81630029B9B6828
:1092A0000693029B1B7B8DF81C30029B5B7B8DF829
:1092B0001D30039B181D019B002B01D0084A00E0C4
:1092C0000022099B04A901F0BDFA0890089B1846EA
:1092D0000AB010BD60310020703100200C2D030059
:1092E000DD91020082B003468DF807309DF807300B
:1092F00003F01F0205499DF907305B09012000FAC0
:1093000002F241F8232000BF02B0704700E100E004
:1093100082B0034600918DF807309DF90730002B8D
:109320000CDA009BDAB20C499DF8073003F00F030A
:10933000043B5201D2B20B441A7609E0009BDAB228
:1093400006499DF907305201D2B20B4483F800233D
:1093500000BF02B0704700BF00ED00E000E100E098
:1093600082B00190019B1B0B5BB2184602B07047A4
:1093700000B583B003460A468DF8073013468DF8D2
:1093800006309DF80630012B03D99DF80630032BDB
:109390000BD99DF80630042B03D99DF80630072B16
:1093A00003D908496B2002F0E7F89DF806209DF9E3
:1093B000073011461846FFF7ABFF00BF03B05DF85A
:1093C00004FB00BF1C2D030000B583B003468DF8DD
:1093D00007309DF907301846FFF784FF00BF03B040
:1093E0005DF804FB82B003468DF807300F4A9DF903
:1093F0000730002B00DA1F335B115BB252F82320D9
:109400009DF90730594203F01F0301F01F0158BFB7
:109410004B425BB222FA03F303F00103002B14BFAB
:1094200001230023DBB2184602B0704700E100E0E0
:1094300082B001904FF08042019BC2F8043300BF1C
:1094400002B0704782B001904FF08042019BC2F899
:10945000083300BF02B0704782B003468DF8073072
:109460009DF8073003F1804301221A6000BF02B06B
:10947000704784B00346ADF80630BDF8063003F1FE
:10948000804300221A60BDF8063003F180431B6858
:109490000393039B00BF04B0704782B00346ADF84E
:1094A0000630BDF8063003F180431B68002B14BF63
:1094B00001230023DBB2184602B0704782B001904E
:1094C0004FF08042019BC2F8183500BF02B07047D0
:1094D0004FF08043D3F818341B0C03F00103002B2A
:1094E00014BF01230023DBB21846704700B583B0D8
:1094F00006238DF807304FF08040FFF731FF034619
:109500001846FFF76FFF034683F00103DBB2002B21
:1095100013D04FF08040FFF723FF03461A469DF813
:10952000073019461046FFF723FF4FF08040FFF742
:1095300017FF03461846FFF747FF00BF03B05DF86B
:1095400004FB000000B585B00190019B002B03D106
:109550000B49A42002F010F800230393094B1B7958
:10956000002B02D08523039305E0064A019B13607C
:10957000044B01221A71039B184605B05DF804FBE9
:10958000542D03008031002008B5074B1B79002BB8
:1095900003D10649BD2001F0EFFFFFF7A7FF01202F
:1095A000FFF78CFF00BF08BD80310020542D030061
:1095B00008B50A4B1B79002B03D10949EA2001F0B9
:1095C000DBFF4FF48270FFF754FF0220FFF730FFFC
:1095D0000820FFF741FF00BF08BD00BF8031002019
:1095E000542D030008B50A4B1B79002B03D1094900
:1095F000F72001F0C1FF0C20FFF72EFF00BFFFF79F
:1096000067FF0346002BFAD100BF00BF08BD00BFB3
:1096100080310020542D030008B54FF48070FFF70F
:109620003CFF0346002B0AD04FF48070FFF721FF68
:109630000120FFF707FF0C4B1B68002098474FF4F1
:109640008270FFF72AFF0346002B0AD04FF4827086
:10965000FFF70FFF0220FFF7F5FE034B1B68012009
:10966000984700BF08BD00BF8031002082B003468C
:109670008DF807309DF8073003F01F0205499DF96A
:1096800007305B09012000FA02F241F8232000BFF5
:1096900002B0704700E100E082B0034600918DF80F
:1096A00007309DF90730002B0CDA009BDAB20C4929
:1096B0009DF8073003F00F03043B5201D2B20B4474
:1096C0001A7609E0009BDAB206499DF9073052018B
:1096D000D2B20B4483F8002300BF02B0704700BF32
:1096E00000ED00E000E100E000B583B003460A466B
:1096F0008DF8073013468DF806309DF80630012BA3
:1097000003D99DF80630032B0BD99DF80630042BA6
:1097100003D99DF80630072B03D908496B2001F0C7
:109720002BFF9DF806209DF9073011461846FFF7DC
:10973000B3FF00BF03B05DF804FB00BFC02D030002
:1097400000B583B003468DF807309DF90730184601
:10975000FFF78CFF00BF03B05DF804FB00B583B0DA
:109760000346ADF80630BDF80630184600F026F87E
:1097700003461B68012B0CBF01230023DBB21846F4
:1097800003B05DF804FB00B585B00346ADF80630C4
:10979000BDF80630184600F011F803461A460023BB
:1097A0001360BDF80630184600F008F803461B6841
:1097B0000393039B00BF05B05DF804FB82B0034632
:1097C000ADF80630BDF8063003F1804303F5C04321
:1097D000184602B07047000082B00190034A019B16
:1097E000C2F8043300BF02B0704700BF0060004001
:1097F00082B00190034BD3F80423019B1340184619
:1098000002B070470060004082B00190084A019B9E
:1098100003F5A27352F82330054943F00102019B7E
:1098200003F5A27341F8232000BF02B0704700BFC8
:109830000060004084B00390029113468DF8073019
:10984000144A039B03F5A27352F82330114923F401
:109850004F3323F44073039A02F5A27241F8223089
:109860000C4A039B03F5A27352F82320029B1B02B0
:1098700003F47C519DF807301B0403F440330B4381
:1098800004491A43039B03F5A27341F8232000BF48
:1098900004B070470060004082B00190054A019B0F
:1098A00003F5A27352F823301B0A03F03F03184656
:1098B00002B070470060004082B00190064A019BF0
:1098C00003F5A27352F823301B0C03F00303DBB241
:1098D000184602B0704700BF0060004000B583B07A
:1098E0000190019B1B68292B04D90B4940F2CD1034
:1098F00001F042FE019B1B681F2B02D84FF0A043D2
:1099000006E0019B1B6803F01F02019B1A60034BDA
:10991000184603B05DF804FBF82D03000003005067
:1099200000B585B00190084611461A4603468DF8E9
:1099300003300B468DF8023013468DF8013001AB31
:109940001846FFF7CBFF03909DF803209DF80230E7
:109950005B001A439DF801309B001A439DF81830B4
:109960001B0242EA03019DF81C301B04019A1943B3
:10997000039B02F5E07243F8221000BF05B05DF8CA
:1099800004FB00B585B003900B468DF80B309DF8B5
:109990000B30002201920022009200220021039845
:1099A000FFF7BEFF00BF05B05DF804FB00B585B052
:1099B000019001AB1846FFF791FF0390019A039BBA
:1099C00002F5E07253F8223023F002030293019A69
:1099D000039B02F5E072029943F8221000BF05B024
:1099E0005DF804FB00B585B001900B468DF803309F
:1099F00001AB1846FFF772FF0390019A039B02F533
:109A0000E07253F82230019A23F44031039B02F5AF
:109A1000E07243F82210019A039B02F5E07253F8BA
:109A200022309DF8032012041146019A1943039B2A
:109A300002F5E07243F8221000BF05B05DF804FBA8
:109A400000B585B0019001AB1846FFF747FF0390C2
:109A5000039800F020F80246019B22FA03F303F07A
:109A60000103184605B05DF804FB00B585B0019010
:109A700001AB1846FFF732FF0390019A039B02F5F2
:109A8000E07253F822301B0C03F00303DBB21846DC
:109A900005B05DF804FB82B00190019BD3F810354E
:109AA000184602B07047000000B589B003900291DB
:109AB0000192184A05AB92E8030083E80300039A79
:109AC000029B1344022B04D9134940F2FD2001F0FC
:109AD00053FD039B079311E0079B9B0008AA1344C7
:109AE00053F80C3C1846FFF7D6FF0246019B1A605C
:109AF000019B04330193079B01330793039A029B55
:109B00001344079A9A42E7D300BF00BF09B05DF83B
:109B100004FB00BF302E0300F82D030084B0019039
:109B20000091009B0393019BDB080293019B03F0D0
:109B3000070301930122019B02FA03F30399029A9E
:109B40000A4412781340184604B0704784B001905C
:109B50000091009B0393019BDB080293019B03F0A0
:109B600007030193039A029B13441B785AB2012105
:109B7000019B01FA03F35BB2134359B2039A029BB0
:109B80001344CAB21A7000BF04B0704782B001908B
:109B90000C4A019B1344303393F90030002B09DB4E
:109BA000084A019B1344303393F90030072B01DC42
:109BB000012300E0002303F00103DBB2184602B0EA
:109BC000704700BF8831002082B00190064A019B97
:109BD0001344303393F90030072BCCBF012300230B
:109BE000DBB2184602B070478831002082B0019085
:109BF000064A019B1344303393F90030DB43DBB258
:109C0000DB09DBB2184602B0704700BF8831002084
:109C100084B00390029101928DF80330029B59B2F7
:109C20000E4A039B134430330A461A700B49029BB9
:109C3000019A41F823209DF8033083F00103DBB241
:109C4000002B08D0029B083B039A51B2034A1344ED
:109C50000A4683F85A2000BF04B0704788310020BC
:109C600082B00190044A019B13443033FF221A70E2
:109C700000BF02B0704700BF8831002000B583B03C
:109C8000019004490198FFF761FF00BF03B05DF840
:109C900004FB00BFE631002082B00190044A019B22
:109CA0001344303393F90030184602B0704700BFB8
:109CB0008831002082B00190034A019B52F8233082
:109CC000184602B0704700BF8831002000B589B047
:109CD0000390029113468DF80730FF238DF81F3053
:109CE0009DF80730002B01D0002300E008230593E6
:109CF0009DF80730002B01D0082300E00C230493CB
:109D0000059B069314E00F4A069B52F82330B3F1EB
:109D1000FF3F0AD19DF80730029A06990398FFF792
:109D200077FF069B8DF81F3006E0069B01330693F4
:109D3000069A049B9A42E6D39DF91F30184609B053
:109D40005DF804FB8831002082B003468DF80730AF
:109D50009DF80730094A4FF0FF3142F823109DF873
:109D60000730072B07D99DF80730083B034A1344F7
:109D7000FF2283F85A2000BF02B0704788310020CC
:109D800000B583B0254B93F86430002B03D0082333
:109D90000093009B3EE000238DF8073009E09DF81A
:109DA00007301846FFF75CFF9DF8073001338DF848
:109DB00007309DF80730292BF1D900238DF80730A3
:109DC00009E09DF807301846FFF7BEFF9DF8073001
:109DD00001338DF807309DF807300B2BF1D906229F
:109DE00000210F4808F076F906210620FFF77CFCD9
:109DF0000620FFF7A5FC4FF4BE70FFF7C4FC4FF040
:109E00000040FFF7E9FC054B012283F864200023A2
:109E10000093009B184603B05DF804FB88310020D6
:109E2000E631002000B587B0039002910192039BB8
:109E3000292B04D9364940F2072001F09DFB00236D
:109E400005930398FFF7D2FE0346002B02D00823A8
:109E5000059357E0029B9B78C3F34003DBB21A469D
:109E600001990398FFF732FF03468DF813309DF9EF
:109E70001330B3F1FF3F43D0029B9B78C3F38003C1
:109E8000DBB283F00103DBB2002B13D0029B9B7883
:109E900003F00103DBB2002B03D00398FFF786FD2C
:109EA00005E0029B5B7819460398FFF76AFD03986B
:109EB000FFF7E4FE029B9B7803F00203DBB2002B6A
:109EC00008D09DF91300029B1B781A460399FFF7EF
:109ED000B1FC17E09DF91330083B0E4A134493F987
:109EE0005A10029B1B789B015AB29DF91330083B14
:109EF0000A4351B2074A13440A4683F85A2001E044
:109F000004230593059B184607B05DF804FB00BFCA
:109F1000382E03008831002000B589B001900B462F
:109F20008DF80330019B292B04D93D4940F237209D
:109F300001F022FB0198FFF759FE0346002B04D1E4
:109F400037494FF40E7001F017FB0198FFF73CFE04
:109F50000346002B2FD00198FFF79EFE0346083BD7
:109F6000304A134493F95A308DF80F309DF80F3072
:109F70009B098DF80E309DF80E30032B0BD1019804
:109F8000FFF75EFD0346002B01D0032300E0022310
:109F90008DF81F3008E09DF80E30012B01D102230F
:109FA00000E003238DF81F309DF81F3019460198FB
:109FB000FFF718FD30E00198FFF7E8FD0346002B9E
:109FC0002AD00198FFF768FE03460693069B9BB2D2
:109FD00040339BB29B00ADF81630069B1846FFF746
:109FE00013FCBDF816301846FFF7CDFB9DF8033083
:109FF000002B11D00198FFF74FFE03461846FFF7DC
:10A0000059FE0490049B002B06D00122069B02FA05
:10A0100003F31846FFF7E0FB00BF09B05DF804FB4F
:10A02000382E03008831002000B599B00023179323
:10A0300006AB00221A605A604FF48073ADF85630B8
:10A04000012314930023169321E0BDF856301846DF
:10A05000FFF784FB0346002B0ED01498FFF7C8FBD4
:10A060000346002B08D0BDF856301846FFF78BFB8F
:10A07000179A149B13431793149B5B001493BDF81A
:10A0800056300433ADF85630169B01331693169BA9
:10A09000072BDAD94FF4BE70FFF760FB0346002BA5
:10A0A0000DD04FF4BE70FFF76EFB179B43F00043DB
:10A0B000179306AB1A4602210020FFF7F5FC179B09
:10A0C000DBB2002B29D0012314930023169321E047
:10A0D000149A179B1340002B16D01698FFF7DCFB41
:10A0E00011901698FFF7E8FB03468DF84330169859
:10A0F000FFF7E0FD0F900F9B002B05D09DF843204C
:10A100000F9B114611989847149B5B001493169B64
:10A1100001331693169B072BDAD9179B002B80F27D
:10A12000F08000238DF84B3004AB00221A605A6097
:10A13000002313930AE0139B9B0018AA13444FF0CB
:10A14000FF3243F8582C139B01331393139B012BBD
:10A15000F1D900238DF84B300023169378E06B4A39
:10A16000169B13445A3393F900308DF83B309DF819
:10A170003B3023F0C0030D93644A169B13445A33BB
:10A1800093F90030B3F1FF3F5FD002AB19460D9851
:10A19000FFF7C4FC0346002B57D09DF83B309B09CA
:10A1A0008DF833300D98FFF777FD03461846FFF71B
:10A1B00081FD0B900B9B002B03D19DF83330032BBB
:10A1C00043D19DF83330032B04D104AB19460D98CD
:10A1D000FFF7BCFC0D98FFF748FC03468DF82B30C9
:10A1E00006AB19460D98FFF799FC0990099B002BC7
:10A1F00003D09DF82B30022B06D0099B002B24D1D5
:10A200009DF82B30032B20D19DF83330032B13D135
:10A210009DF82B30022B01D1032300E002238DF89F
:10A2200023309DF8233019460D98FFF7DBFB9DF88E
:10A230004B3001338DF84B300B9B002B05D09DF834
:10A2400033200B9B11460D989847169B01331693AC
:10A25000169B032B83D99DF84B30002B4CD0012348
:10A260008DF84A306B461A4602210020FFF71CFC8D
:10A270000023139314E0139B9B0018AA134453F874
:10A28000602C139B9B0018A90B4453F8483C9A423E
:10A2900003D000238DF84A3005E0139B013313935C
:10A2A000139B012BE7D99DF84A30002B03D00023E4
:10A2B0008DF84B3020E0002313931AE0139B9B0092
:10A2C00018AA134453F8602C139B9B0018A90B4445
:10A2D00043F8482C139B9B0018AA134453F8502CA6
:10A2E000139B9B0018A90B4443F8582C139B013374
:10A2F0001393139B012BE1D99DF84B30002B7FF476
:10A3000028AF00BF19B05DF804FB00BF8831002002
:10A3100008B5064B1B68002B03D10549512001F0FD
:10A320002BF9024B1B68984700BF08BDF031002095
:10A33000A42E030082B00190019B044A934201D1F4
:10A34000034B00E00023184602B070470020004095
:10A35000F031002000B587B001900091019B002BE7
:10A3600003D11C49772001F007F90198FFF7E2FFBC
:10A370000490049B002B25D000238DF81730002378
:10A380008DF80B300DF10B031846FDF7CBFC049B49
:10A390001B79002B03D001238DF8173005E0049BB7
:10A3A000009A1A60049B01221A719DF80B3018461E
:10A3B000FDF7CEFC9DF81730002B03D0112303933B
:10A3C000039B02E000230393039B184607B05DF84C
:10A3D00004FB00BFA42E030082B003468DF80730B3
:10A3E0009DF8073003F01F0205499DF907305B090E
:10A3F000012000FA02F241F8232000BF02B07047AA
:10A4000000E100E082B0034600918DF807309DF92D
:10A410000730002B0CDA009BDAB20C499DF80730AC
:10A4200003F00F03043B5201D2B20B441A7609E049
:10A43000009BDAB206499DF907305201D2B20B44B3
:10A4400083F8002300BF02B0704700BF00ED00E0BA
:10A4500000E100E082B00190019B03F06043B3F1A2
:10A46000005F0CBF01230023DBB2184602B0704727
:10A4700082B00190019B1B0B5BB2184602B0704783
:10A4800000B583B003460A468DF8073013468DF8B1
:10A4900006309DF80630012B03D99DF80630032BBA
:10A4A0000BD99DF80630042B03D99DF80630072BF5
:10A4B00003D908496B2001F05FF89DF806209DF94B
:10A4C000073011461846FFF79DFF00BF03B05DF847
:10A4D00004FB00BF102F030000B583B003468DF8C6
:10A4E00007309DF907301846FFF776FF00BF03B02D
:10A4F0005DF804FB82B001900B468DF803309DF8A7
:10A500000330019A134401221A6000BF02B0704761
:10A5100084B001900B46ADF80230BDF80230019ACC
:10A52000134400221A60BDF80230019A13441B68DC
:10A530000393039B00BF04B0704782B001900B46A9
:10A54000ADF80230BDF80230019A13441B68002BAD
:10A5500014BF01230023DBB2184602B0704782B05B
:10A5600001900091019B009AC3F8042300BF02B040
:10A57000704782B001900091019B009AC3F80823B4
:10A5800000BF02B0704782B00190019B0722C3F860
:10A59000002500BF02B0704784B003900291019281
:10A5A0000093039B029AC3F80825039B019AC3F802
:10A5B0000C25039B009AC3F8102500BF04B0704718
:10A5C00082B001900091009A019BC3F8242500BF3E
:10A5D00002B0704784B0039002910192029A039BEB
:10A5E000C3F84425039B019AC3F8482500BF04B073
:10A5F000704784B0039002910192029A039BC3F8C2
:10A600003425039B019AC3F8382500BF04B0704776
:10A6100084B001900B468DF8033013468DF802305C
:10A620009DF80230002B14BF01230023DBB20393FB
:10A630009DF80330032B10D0032B13DC012B02D029
:10A64000022B05D00EE0039B43F0020303930AE0C4
:10A65000039B43F00403039305E0039B43F00603CD
:10A66000039300E000BF019B039AC3F8542500BF89
:10A6700004B0704782B001900B468DF803309DF80E
:10A680000320019BC3F8C02500BF02B0704782B011
:10A690000190019B0122C3F8502500BF02B0704712
:10A6A00082B00190019B0022C3F8502500BF02B088
:10A6B000704782B00190019B0122C3F8402500BF82
:10A6C00002B0704782B00190019B0022C3F8402580
:10A6D00000BF02B07047000000B583B00190019B3D
:10A6E0001B68292B04D90B4940F2CD1000F044FF20
:10A6F000019B1B681F2B02D84FF0A04306E0019B73
:10A700001B6803F01F02019B1A60034B184603B03D
:10A710005DF804FB482F03000003005000B585B02E
:10A720000190084611461A4603468DF803300B4641
:10A730008DF8023013468DF8013001AB1846FFF753
:10A74000CBFF03909DF803209DF802305B001A4375
:10A750009DF801309B001A439DF818301B0242EA15
:10A7600003019DF81C301B04019A1943039B02F559
:10A77000E07243F8221000BF05B05DF804FB00B59D
:10A7800085B003900023019300230093002301224E
:10A7900001210398FFF7C2FF00BF05B05DF804FB7D
:10A7A00000B585B003900B468DF80B309DF80B304B
:10A7B0000022019200220092002200210398FFF75C
:10A7C000ADFF00BF05B05DF804FB00B585B001909A
:10A7D00001AB1846FFF780FF0390019B012202FAAC
:10A7E00003F31946039800F018F800BF05B05DF8B0
:10A7F00004FB00B585B0019001AB1846FFF76CFF74
:10A800000390019B012202FA03F31946039800F01A
:10A810000EF800BF05B05DF804FB82B00190009116
:10A82000019B009AC3F8082500BF02B0704782B0B0
:10A8300001900091019B009AC3F80C2500BF02B063
:10A840007047000000B58DB005900491039202930B
:10A85000049B002B03D17049AD2000F08DFE059BB9
:10A860001B791A461346DB0013449B006B4A1344C2
:10A870000993099B1B7F002B03D008230793079B99
:10A88000C5E0059B1B680893059B1A68059B1B790F
:10A890001946634B53F8213019461046FFF75AFD0D
:10A8A0000346002B03D011230793079BAFE0099BBE
:10A8B000039A1A60099B029A5A60049B1B7B012B26
:10A8C00005D8049B1B781846FFF793FF04E0049B10
:10A8D0001B781846FFF779FF049B1B781846002366
:10A8E000019300230093002300220121FFF716FFAC
:10A8F000049B5B78FF2B09D0049B5B780B930B9830
:10A90000FFF777FF0B98FFF73AFF02E04FF0FF33B6
:10A910000B93049B9B78FF2B07D0049B9B780A9397
:10A9200001210A98FFF73CFF02E04FF0FF330A9342
:10A93000049B9A78099B83F82020049BDA78099B72
:10A94000DA77049BDB78FF2B17D0049B1B79002B55
:10A9500005D0049BDB781846FFF74BFF04E0049B0F
:10A96000DB781846FFF731FF049BDB781846FFF7CA
:10A9700006FF049B1A79099B9A77049B1B7819465A
:10A980000A9B0B9A0898FFF707FE049B9B681946E1
:10A990000898FFF715FE049B197B049B5B7B1A4606
:10A9A0000898FFF735FE049B9B7919460898FFF736
:10A9B00061FE099B1B68002B03D040210898FFF71C
:10A9C000CEFD0898FFF7DFFD099B1B68002B15D013
:10A9D000059B1B681846FFF74BFD03461A46049B70
:10A9E0005B7919461046FFF74BFD059B1B6818461F
:10A9F000FFF73EFD03461846FFF76EFD099B002258
:10AA00005A77099B01221A7700230793079B184660
:10AA10000DB05DF804FB00BF802F0300F83100206B
:10AA2000EC2F030000B583B00190019BDB7FFF2B6F
:10AA30000ED0019B9B7F002B05D0019BDB7F18462E
:10AA4000FFF7D7FE04E0019BDB7F1846FFF7BDFE52
:10AA5000019B00225A77019B00221A72019B1B68FE
:10AA6000019A02F10800019A52681146984700BF06
:10AA700003B05DF804FB00B583B001900B468DF880
:10AA800003309DF8033083F00103DBB2002B04D0C8
:10AA900040210198FFF76DFD03E040210198FFF789
:10AAA0005EFD00BF03B05DF804FB00B583B001900C
:10AAB0000091009B03F00103002B03D00198FFF7E6
:10AAC000E6FD02E00198FFF7EBFD009B03F00203B7
:10AAD000002B03D00198FFF7ECFD02E00198FFF78F
:10AAE000F1FD00BF03B05DF804FB00B587B0039033
:10AAF000029101920093019B1B68002B0AD0019BDD
:10AB00001B681846FFF7A6FC034683F00103DBB27F
:10AB1000002B0ED1019B9B68002B11D0019B9B68E1
:10AB20001846FFF797FC034683F00103DBB2002BC6
:10AB300006D0029B00225A7710230593059B54E010
:10AB4000019B1968019B5B681A460398FFF742FD59
:10AB5000019B9968019BDB681A460398FFF749FD42
:10AB60004FF48C710398FFF7D3FC00990398FFF71B
:10AB70009CFF009B03F00803002B03D110210398D6
:10AB8000FFF7B8FC029B1B68002B1FD100BF4FF4DE
:10AB90008C710398FFF7D1FC034683F00103DBB20D
:10ABA000002BF4D1029BDB7FFF2B1BD0029B9B7FF2
:10ABB000002B05D0029BDB7F1846FFF71AFE11E041
:10ABC000029BDB7F1846FFF700FE0BE0009B03F0C3
:10ABD0000403002B0CBF01230023DBB219460398AA
:10ABE000FFF749FF00230593059B184607B05DF862
:10ABF00004FB000010B586B0039002910192039B04
:10AC00001B791A461346DB0013449B003A4A13444F
:10AC10000593059B1B7F002B04D1384940F232205D
:10AC200000F0AAFC029B1B68002B08D1029B5B680A
:10AC3000002B04D0314940F2332000F09DFC029BF0
:10AC40009B68002B08D1029BDB68002B04D02B49AA
:10AC50004FF40D7000F090FC039B1B79002B09D181
:10AC6000029BDB68B3F5803F04D2029B5B68B3F5BF
:10AC7000803F04D3214940F2352000F07DFC0023C1
:10AC80000493059B5B7FDBB2002B03D0112304935D
:10AC9000049B2EE0059B1B68002B07D0019B03F053
:10ACA0001403002B02D1059B01225A77059B029ABF
:10ACB00003F10C0413460FCB84E80F00059BDB7FE8
:10ACC000FF2B0ED0059B9B7F002B05D0059BDB7FC8
:10ACD0001846FFF77AFD04E0059BDB7F1846FFF777
:10ACE00088FD039B1868019B029A0599FFF7FDFEFA
:10ACF0000346184606B010BDF8310020802F03002F
:10AD000000B583B0019000914FF48C710198FFF76A
:10AD100014FC0346002B10D04FF48C710198FFF700
:10AD2000F7FB009B1B68002B04D106494FF42770EA
:10AD300000F022FC0098FFF775FE00BF03B05DF83D
:10AD400004FB00BF802F030008B503490348FFF749
:10AD5000D7FF00BF08BD00BFF83100200030004021
:10AD6000BFF34F8F00BF074BDB6803F4E062054978
:10AD7000054B1343CB60BFF34F8F00BF00BF00BF35
:10AD8000FCE700BF00ED00E00400FA0500B585B067
:10AD90000190019B002B0CD0084B43F0010303935F
:10ADA000019B9B010293054B43F0010302989847D6
:10ADB00000E000BF05B05DF804FB00BFF02F03000A
:10ADC00000B583B00190019B1B68292B04D90B4966
:10ADD00040F2CD1000F0D0FB019B1B681F2B02D866
:10ADE0004FF0A04306E0019B1B6803F01F02019B8C
:10ADF0001A60034B184603B05DF804FBF82F0300FC
:10AE00000003005000B585B00190084611461A466F
:10AE100003468DF803300B468DF8023013468DF84B
:10AE2000013001AB1846FFF7CBFF03909DF80320DC
:10AE30009DF802305B001A439DF801309B001A43D5
:10AE40009DF818301B0242EA03019DF81C301B04D8
:10AE5000019A1943039B02F5E07243F8221000BFE8
:10AE600005B05DF804FB00B585B0039000230193A5
:10AE7000002300930023012201210398FFF7C2FF62
:10AE800000BF05B05DF804FB00B585B0019001ABD3
:10AE90001846FFF795FF0390019B012202FA03F386
:10AEA0001946039800F018F800BF05B05DF804FBE0
:10AEB00000B585B0019001AB1846FFF781FF039004
:10AEC000019B012202FA03F31946039800F00EF8E1
:10AED00000BF05B05DF804FB82B001900091019BBA
:10AEE000009AC3F8082500BF02B0704782B00190F5
:10AEF0000091019B009AC3F80C2500BF02B0704777
:10AF000074DF704700BF184676DF704700BF1846F1
:10AF10007ADF704700BF18467CDF704700BF1846D5
:10AF20008ADF704700BF18468BDF704700BF1846A6
:10AF30008FDF704700BF184600B583B00190019BBA
:10AF4000002B0FD04FF47A70FFF720FF019B013BDD
:10AF50000193019B002B14BF01230023DBB2002BC4
:10AF600001D0EFE700BF03B05DF804FB014B1B68A5
:10AF7000184670476032002082B00190034B1B6876
:10AF80000133024A136000BF02B0704760320020F4
:10AF900000B585B003468DF807309DF80730032BC8
:10AFA0001AD801A252F823F0C1AF0200B9AF0200D3
:10AFB000C9AF0200D1AF0200114801F0D3FC0BE091
:10AFC000104801F0CFFC07E00F4801F0CBFC03E094
:10AFD0000E4801F0C7FC00BFFCF70CFE0390039B7A
:10AFE0000293029B002B05D0094A4FF4F671029898
:10AFF000FCF740FA0123184605B05DF804FB00BFDA
:10B000003030030050300300703003009C300300E8
:10B01000BC30030070B58CB0059000230893059BED
:10B020000333784A1360059B9B69774A1360059B3D
:10B030009A8B764B1A80764B1B7883F00103DBB238
:10B04000002B00F0F980704B1B6805331A78714BA8
:10B050001B789A4240F09C816B4B1B6806331A7830
:10B060006C4B5B789A4240F09381674B1B680733C7
:10B070001A78694B1B789A4240F08A81624B1B68B0
:10B0800008331A78644B5B789A4240F081815F4BB9
:10B090001A88624B1B889A4240F07A814FF0FF3346
:10B0A0000893089BB3F1FF3F40F095805C4B002272
:10B0B0001A70544B1B681B781C46524B1B6801339B
:10B0C0001B781D464F4B1B6802331B781E464D4BA9
:10B0D0001B6803331B781A464A4B1B6804331B78E2
:10B0E0001946484B1B6805331B781846059B93F996
:10B0F0001330039302900191009233462A46214671
:10B10000484801F02FFC05230B930B9B002B15DB0C
:10B110003C4B1A680B9B1344434A1278104619782B
:10B12000424A342303FB00F31A440B9B1344483375
:10B130000A461A700B9B013B0B93E6E73A4B1B78D0
:10B14000184601F081F8304B1B6809331A78364BEA
:10B150001B78184651B2354A342303FB00F31344DD
:10B1600057330A461A70304B1B7819462F4A34233E
:10B1700003FB01F31344573393F9003019462C486D
:10B1800001F0F0FB204B1B680A331A78264B1B7822
:10B19000194607EE902AF8EE677A244A342303FB17
:10B1A00001F313446433C3ED007A1F4B1B78194637
:10B1B0001E4A342303FB01F3134464331B6818460F
:10B1C00006F012FB02460B461A4801F0CBFB164B69
:10B1D00000221A70DCE0089801F036F8124B1B7858
:10B1E0000A930A9B002B00F3D380104A0A9B342158
:10B1F00001FB03F31344683300221A800A9B0133D6
:10B200000A93EEE7383900203C390020403900200D
:10B21000C2330020183000201C3000207430002081
:10B220001E30002004310300C033002044390020C8
:10B23000303103003C310300584B1B6807331A7848
:10B24000574B1B789A4240F0A380544B1B6808333D
:10B250001A78534B5B789A4240F09A80514B1B68A6
:10B260000021184601F034F80346B3F1FF3F0CBF4C
:10B2700001230023DBB2002B00F08A80494B1B68BE
:10B280001B781C46474B1B6801331B781D46454BFA
:10B290001B6802331B781E46424B1B6803331B7826
:10B2A0001A46404B1B6804331B7819463D4B1B68FC
:10B2B00005331B781846059B93F9133003930290CE
:10B2C0000191009233462A462146374801F04AFB55
:10B2D00005230993099B002B15DB324B1A68099B48
:10B2E0001344324A127810461978314A342303FB4A
:10B2F00000F31A44099B134448330A461A70099B09
:10B30000013B0993E6E7294B1B781846059B93F907
:10B310001310274A342303FB00F3134457330A4620
:10B320001A70224B1B781946214A342303FB01F380
:10B330001344573393F9003019461E4801F012FBAD
:10B34000164B1B680A331A78184B1B78194607EE00
:10B35000902AF8EE677A164A342303FB01F313446C
:10B360006433C3ED007A114B1B781946104A34231D
:10B3700003FB01F3134464331B68184606F034FAE8
:10B3800002460B460C4801F0EDFA084B00221A70F9
:10B3900000F082FA00BF0CB070BD00BF3C39002045
:10B3A0001C3000203839002004310300C033002055
:10B3B00044390020303103003C31030000B585B032
:10B3C00001900091019B04330393019B1B881D2B6B
:10B3D00004D1039B04331846FFF71CFE00BF05B0E1
:10B3E0005DF804FB00B583B00190184B01221A6090
:10B3F000174B1B68012B24D1164B1B68002B09DC53
:10B40000154B01221A60124B00221A60134B0122C5
:10B410001A7016E0124B1B684FF47A7202FB03F3AA
:10B42000184600F021F80B4B1B68013B094A1360DA
:10B43000084B1B6819460B4801F094FA074B002291
:10B440001A7000BF03B05DF804FB00BF243B00206E
:10B450002C3B0020303B0020283B0020343B0020C8
:10B46000783000204831030030B583B00190154A90
:10B4700000211548FCF738FB019B18464FEAE071A4
:10B480004FF000024FF00003CB0343EA5043C203E6
:10B4900012F57A7443F100054FF4FA624FF000039D
:10B4A0002046294606F0E0FC02460B4613460022E1
:10B4B00019460648FCF74CFB054B00221A6000BFFA
:10B4C00003B030BDE5B30200103503002032002088
:10B4D000243B002008B5064A01210648FCF704FB7E
:10B4E000002210210448FCF733FB00BF08BD00BF59
:10B4F00079AF0200143503004032002000B583B05C
:10B500000023009304F0BAFA01906B46194601201B
:10B5100004F0AEFB6B46184604F038FC019000BF07
:10B5200003B05DF804FB000008B5F42200210D48CB
:10B5300006F0D0FD0B4B41221A700A4B43225A7081
:10B54000084B4B229A70074B3122DA70064B1B884E
:10B55000064A0449064804F08BF8064801F002FA4E
:10B5600000BF08BD1C380020443000204C300020B3
:10B57000283000205C31030000B583B00346009101
:10B58000ADF80630064801F0EDF9BDF80630009A36
:10B5900019460448FBF76EFF00BF03B05DF804FBDB
:10B5A00070310300EFBEADDE00B585B00190019BA8
:10B5B0001B78002B61D1019B9B8A1946314801F011
:10B5C000D1F900230393019B9B8A1A46039B934264
:10B5D0000CD2019B1A69039B13441B7819462A4815
:10B5E00001F0C0F9039B01330393ECE7274801F016
:10B5F000B9F9019B1B6902331B78012B0CD1244B39
:10B6000001221A704FF08043B122C3F81C25642038
:10B61000FFF792FCFFF7A4FB019B1B6904331A7828
:10B620001C4B1A70019B1B6906331B781A464FF49A
:10B630007A7303FB02F3184A1360019B1B690733FB
:10B640001B785AB2154B1A70019B1B6909331B7882
:10B650001A464FF47A7303FB02F3114A1360019BFD
:10B660001B690A331A780F4B1A70019B1B690B3345
:10B670001A780D4B1A70FFF757FF00BF05B05DF841
:10B6800004FB00BF88310300B4310300BC31030068
:10B69000353B00206532002054300020143000205B
:10B6A00058300020363B00207D30002000B585B0AA
:10B6B0009DF80430012262F303038DF804309DF8F5
:10B6C0000430012262F307138DF80430124806F0AB
:10B6D00056FD03469AB201AB0F491846FFF71CFC12
:10B6E00002AB08220021184606F0F4FC1023ADF846
:10B6F00008303C23ADF80A300023ADF80C304FF48D
:10B70000C873ADF80E3002AB1846FFF701FC00BF5E
:10B7100005B05DF804FB00BFC031030000B583B085
:10B7200000230093002300936B461946094803F059
:10B73000B7FC01AB04220021184606F0CBFC064BF7
:10B74000019301AB1946054803F0ECFE00BF03B0BE
:10B750005DF804FBDC330020A9B50200283000208E
:10B7600000B583B00190019B1B78002B05D1054BE0
:10B770001B883B211846FFF7C7FB00BF03B05DF8ED
:10B7800004FB00BF4430002000B589B001AB1C228F
:10B790000021184606F09EFC002301934FF4A033CD
:10B7A00002934FF4F023039303238DF8103000230A
:10B7B000ADF8123000238DF81430064B06930023A9
:10B7C000079301AB184602F093FC00BF09B05DF887
:10B7D00004FB00BF61B7020000B585B00190009185
:10B7E000019B1B88562B42D0562B47DC3B2B37D076
:10B7F0003B2B43DC212B25D0212B3FDC102B02D00F
:10B80000112B0ED03AE0019B9A881F4B1A801E4BD9
:10B810001B8819461D4803F065FC1D4B01221A7058
:10B820002DE0194B4FF6FF721A80174B1B883B21F6
:10B830001846FFF769FB164B00221A70154B0122C0
:10B840001A601CE000238DF80D3000238DF80C30B9
:10B85000019B9B8803AA11461846FFF769FB0EE07F
:10B86000019B9B8813211846FFF74EFB07E0019BC5
:10B870009B8813211846FFF747FB00E000BF00BF7D
:10B8800005B05DF804FB00BF44300020DC3300202D
:10B89000C1330020243B002008B5FFF745FB0349D6
:10B8A0000348FFF73DFB00BF08BD00BF6C30002020
:10B8B0005C30002000B583B004F0E0F80023019371
:10B8C00001AB1946012004F0D3F90346002B14BF45
:10B8D00001230023DBB2002B02D00B4801F042F819
:10B8E00001AB184604F052FA0346002B14BF0123A3
:10B8F0000023DBB2002B02D0044801F033F800BF74
:10B9000003B05DF804FB00BFCC310300D831030065
:10B9100000B5ADB001ABAC220021184606F0DAFB51
:10B9200002238DF8043000238DF8063005238DF8AE
:10B9300007300123ADF850300C4B159301238DF8DF
:10B9400080304023239344F25063249300232A93AE
:10B9500001AB1946064802F065F80121044802F0DF
:10B9600054F800BF2DB05DF804FB00BF4830002044
:10B97000E833002000B583B001900091009B5A8805
:10B98000124B1B889A4214D1009B1B8840F67722E9
:10B9900093420ED1009B9B88033B9AB20C4B1A80BA
:10B9A0000B4B1B8819460A4B1B881A46094800F0A6
:10B9B000D9FF019B5B881946019B1B881A460648E4
:10B9C00000F0D0FF00BF03B05DF804FB443000205E
:10B9D00046300020E83103000832030008B505496D
:10B9E000054803F076FAF721034803F09DFA00BFFB
:10B9F00008BD00BF75B90200C833002008B5032197
:10BA0000024802F0EBF800BF08BD00BFE833002099
:10BA100008B5FFF74FFFFFF749FEFFF7DFFFFFF71E
:10BA20007DFEFFF775FFFFF7AFFEFFF7E7FF044B63
:10BA300000221A70034800F095FF00BF08BD00BF48
:10BA4000C13300204432030082B00190019B082BD7
:10BA500038D801A252F823F07DBA020085BA02005C
:10BA60008DBA020095BA02009DBA0200A5BA020082
:10BA7000ADBA0200B5BA0200BDBA0200154BFC22F5
:10BA80001A7023E0134BF8221A701FE0114BF422B6
:10BA90001A701BE00F4BF0221A7017E00D4BEC22CE
:10BAA0001A7013E00B4BE2221A700FE0094BD822F8
:10BAB0001A700BE0074B00221A7007E0054B0422B6
:10BAC0001A7003E0034B00221A7000BF00BF02B0DF
:10BAD000704700BF3C3B0020124B0022C3F80022FD
:10BAE000104B0022C3F810210E4B00221A600D4BA0
:10BAF0000122DA600B4B01221A610A4B0122C3F8C2
:10BB00000C21084BD3F81031002B0CBF012300236C
:10BB1000DBB2002B00D0F4E7024B0022C3F8102167
:10BB200000BF70470010004008B5114B0122C3F858
:10BB3000FC2F0F4B0122C3F800220E4B93F900306B
:10BB40001846FFF781FF0C4B1A78094BC3F80C25F8
:10BB50000A4B1A78064BC3F81025094B1A78044B88
:10BB6000C3F80825024B01221A6000BF08BD00BFC0
:10BB700000100040143000203C3B00207C300020AE
:10BB80007D3000201D4B1A781D4BC3F810251C4B2F
:10BB90002122C3F800221A4B1A4AC3F80425184B75
:10BBA000D3F85036164A23F00103C2F85036144B2E
:10BBB000154AC3F81825124B0022C3F83425104B40
:10BBC0000022C3F82C250E4B0122C3F830250C4B64
:10BBD000CC22C3F824250A4B4FF0CC32C3F81C25E5
:10BBE000074B0A4AC3F81425094B1A78044BC3F8CB
:10BBF0000825034B01225A6000BF70477C300020AB
:10BC000000100040403B0020FF000403080000013A
:10BC10007D30002008B503F085FF00BF08BD00BFE0
:10BC20007047000008B5FFF7F5FFFFF7F8FF3C4B42
:10BC300001221A604FF080430022C3F800214FF028
:10BC4000804301221A604FF08043D3F80031002B6B
:10BC50000CBF01230023DBB2002B00D0F3E7314BF4
:10BC60001B78002B02D000F0A7FC01E0FFF734FFA7
:10BC70002C4B1B78002B01D000F024FC2A4B1B78A6
:10BC8000002B3ED0274B1B78002B02D000F08CFC01
:10BC900001E0FFF749FF254800F064FE244B1B68D4
:10BCA0001846FFF7E1FB234B1B68002B0CBF012359
:10BCB0000023DBB2002B02D0FCF72EFEF3E700F0EE
:10BCC0005DFB184B1B78002B02D000F075FC01E0E7
:10BCD000FFF702FF184800F045FE184B1B68184696
:10BCE000FFF7C2FB134B1B68002B0CBF0123002383
:10BCF000DBB2002B02D0FCF70FFEF3E700F03EFBB7
:10BD0000C0E7084B1B78002B02D000F04DFC01E08F
:10BD1000FFF70AFF0A4800F025FEFCF7FDFDFCE7EF
:10BD200000D0004065320020C233002054320300AE
:10BD300054300020243B002064320300583000209F
:10BD40007432030000B583B003468DF80730FFF767
:10BD500061FFFFF764FF3C4B01221A604FF0804304
:10BD60000022C3F800214FF0804301221A604FF0F7
:10BD70008043D3F80031002B0CBF01230023DBB23A
:10BD8000002B00D0F3E7314B1B78002B02D000F0E2
:10BD900013FC01E0FFF7A0FE2C4B1B78002B01D019
:10BDA00000F090FB9DF80730002B3ED0274B1B780E
:10BDB000002B02D000F0EAFB01E0FFF7E3FE24488D
:10BDC00000F0D0FD234B1B681846FFF74DFB224BBC
:10BDD0001B68002B0CBF01230023DBB2002B02D019
:10BDE000FCF79AFDF3E700F0C9FA184B1B78002B1B
:10BDF00002D000F0E1FB01E0FFF76EFE174800F013
:10BE0000B1FD174B1B681846FFF72EFB124B1B6842
:10BE1000002B0CBF01230023DBB2002B02D0FCF768
:10BE20007BFDF3E700F0AAFAC0E7084B1B78002B74
:10BE300002D000F0ABFB01E0FFF7A4FE094800F0E0
:10BE400091FDFCF769FDFCE700D000406532002061
:10BE50005432030054300020243B0020643203009D
:10BE6000583000209032030000B583B00190FFF7F6
:10BE70007DF80346444A1360434B1B681946434808
:10BE800000F070FDFFF7C4FD0198FFF7EDFA4048A0
:10BE900000F068FD3F4B1B68002B03D03E4B1B7826
:10BEA000002B01D0012300E00023002B02D0FCF77F
:10BEB00033FDEFE7394800F055FD394B93F8543026
:10BEC0001846FFF71DF84FF47A70FFF735F803F0C6
:10BED00029FE4FF47A70FFF72FF800F04FFA314B3C
:10BEE00093F90030082B02DD2E4B07221A702E4BDF
:10BEF0001B78642B02D92C4B11221A702B4B1B7808
:10BF000019462B4800F02EFD2A4B1B6819462A487B
:10BF100000F028FD234B93F900301946274800F024
:10BF200021FD274B1B681946264800F01BFD264BB8
:10BF30001B781946254800F015FD1B4B1B78194648
:10BF4000234800F00FFD234B1B781946224800F0D0
:10BF500009FD164B1B78002B09D04FF08043B1220E
:10BF6000C3F81C256420FEF7E7FFFEF7F9FE194B26
:10BF70001B78002B01D000F01DFAFFF7BFFA00BFBD
:10BF800003B05DF804FB00BF383B0020C83203005B
:10BF9000D4320300243B0020C1330020EC320300E4
:10BFA000E8330020143000207D300020353B002095
:10BFB0000433030054300020103303002033030007
:10BFC0005830002030330300363B00204433030058
:10BFD00050330300653200206033030008B5FCF7DE
:10BFE00069FF0020FCF7C4FFFCF780FC00BF08BD20
:10BFF00070B596B04FF08053D3F8A8301B0ADBB26F
:10C0000063F03F03DBB28DF850304FF08053D3F82C
:10C01000A830DBB28DF851304FF08053D3F8A43004
:10C020001B0EDBB28DF852304FF08053D3F8A430A2
:10C030001B0CDBB28DF853304FF08053D3F8A43093
:10C040001B0ADBB28DF854304FF08053D3F8A43084
:10C05000DBB28DF855309DF850301D469DF85130BB
:10C060001E469DF852309DF853209DF854109DF8BF
:10C070005500044604A803940291019200933346AC
:10C080002A46054905F0C9FF04AB1946034800F0EC
:10C0900069FC00BF16B070BD6C330300943303001D
:10C0A00010B584B04FF08053D3F80431029302AB43
:10C0B00003934FF08053D3F80011039B03331B7895
:10C0C0001846039B02331B781C46039B01331B78E5
:10C0D0001A46039B1B7801930092234602460C48A4
:10C0E00000F040FC4FF08053D3F80831194609485E
:10C0F00000F038FC4FF080531B6E4FF08052526EB0
:10C100001946054800F02EFC00BF04B010BD00BF6A
:10C11000B4330300D0330300E033030000B583B031
:10C12000FDF72EFE0190019B0093009B002B05D094
:10C13000334A40F20A610098FBF79CF9FFF74EFF83
:10C14000FFF756FFFFF7ACFF00F012F9FFF7C2F957
:10C150002C48FFF789FE2C4B1B78032B45D801A2F6
:10C1600052F823F075C1020089C102009BC1020090
:10C17000C5C10200254800F0F5FB00F00DF9FFF7FE
:10C1800049FDFCF7C9FBFCE7214800F0EBFB214B24
:10C1900000221A70FCF7C0FBFCE71F4800F0E2FB2E
:10C1A0001E4B1B68002B07D11D4B1B68002B03D1B6
:10C1B000184B00221A7002E0164B01221A70FFF78A
:10C1C00031FDFCE7174800F0CDFB144B1B68002B3A
:10C1D00007D1134B1B68002B03D10020FFF7B2FDE2
:10C1E000FBE70120FFF7AEFDFBE7084800F0BAFBD4
:10C1F00000F0D2F8FFF70EFDFCF78EFBFCE700BF66
:10C20000BC300300C0D40100363B0020F0330300F3
:10C21000FC330300C23300201034030054300020EC
:10C22000583000203034030082B00190054BB3F841
:10C23000E0301A46019B42FA03F303F0010318466B
:10C2400002B070474439002000B583B001900198D6
:10C25000FFF7EAFF0346002B0CBF01230023DBB2EC
:10C26000002B22D0174BB3F8E0301AB20121019B0A
:10C2700001FA03F31BB213431BB29AB2114BA3F89A
:10C28000E020FEF773FE02460F4B1B68D31A0F4ADD
:10C29000A2FB03239B0998B20A4A019B342101FBAC
:10C2A00003F31344743302461A80064A019B342177
:10C2B00001FB03F31344683300221A8000BF03B06C
:10C2C0005DF804FB44390020383B0020D34D621058
:10C2D00000B585B00190009100230393039B002BD0
:10C2E00020DC039B342202FB03F1009A13461B015E
:10C2F0009B1ADB000B4440330D4A134408330622DB
:10C300001946019800F016F80346002B14BF0123CC
:10C310000023DBB2002B01D0039B05E0039B01331C
:10C320000393DBE74FF0FF33184605B05DF804FBDD
:10C330004439002086B003900291019200230593B6
:10C34000059A019B9A420FDA059B039A13441A78C7
:10C35000059B02990B441B789A4201D0002304E00C
:10C36000059B01330593EBE70123184606B07047A0
:10C3700008B5FBF77BFB00BF08BD000008B504480B
:10C38000FBF71CFC034B00221A6000BF08BD00BF76
:10C3900020320020243B002000BF704782B0019073
:10C3A0000091034B01221A7000BF02B0704700BF1A
:10C3B0006432002010B588B01C20FEF754FD1C200C
:10C3C000FEF762FD0220FEF74EFD0220FEF75CFD47
:10C3D0000A20FEF748FD0A20FEF76AFD0120FEF75D
:10C3E000ABFD0A20FEF750FD0120FEF7A5FD03205E
:10C3F000FEF739FD0320FEF747FD6420FEF79CFDA4
:10C40000274B02AC0FCB84E80F0004238DF80B30D0
:10C410000B238DF80A3029238DF8093005238DF878
:10C4200008304FF00053049300238DF8153002A913
:10C4300000231C4A1C48FCF7FFFE0790079B002BBB
:10C4400005D01A4A40F261710798FBF713F8184AB1
:10C4500001AB1268114619800233120C1A7001AB3D
:10C46000144A19460A20FDF7DDFC0690069B002BB6
:10C4700002D0114800F076FA01210A20FDF74CFDA8
:10C48000092209490D4803F0FBFD034683F001032F
:10C49000DBB2002B02D00A4800F064FA08B010BDED
:10C4A000883403009DC3020018350300BC3003002C
:10C4B00098340300C9C502004C34030068320020E0
:10C4C0007034030000B583B001238DF8043001AA55
:10C4D000012340F68901264804F0C2F8254B1B7859
:10C4E000002B03D0234B1B781D2B02D9214B0F228D
:10C4F0001A70204B1B7803F5617307EE903AF8EE43
:10C50000E77A1D4BC3ED007A1B4BD3ED007AB0EEFA
:10C51000670A174804F030FA0120FEF70DFD174BAB
:10C5200093F9003001221946114804F020FB012044
:10C53000FEF702FD104BD3ED007A9FED117A67EE06
:10C54000877A9FED0F7A67EE877AFCEEE77A17EE2F
:10C55000901A0C4800F006FA084B93F9003019467F
:10C56000094800F0FFF900BF03B05DF804FB00BF0D
:10C57000683200207D300020103000200C30002078
:10C5800000007A449C340300A834030000B5C1B015
:10C590006B46FF221946034804F0F0F80A20FEF724
:10C5A000CBFCF5E76832002008B5024804F0A4FA95
:10C5B00000BF08BD6832002008B5024804F04CFAFC
:10C5C00000BF08BD6832002000B583B001900B4663
:10C5D0008DF80330074800F0C5F99DF80330012BB2
:10C5E00003D1054804F0B8FB00E000BF00BF03B072
:10C5F0005DF804FBE83403006832002000B583B026
:10C6000001900091019B012B1BD1009B4FF6FF7203
:10C61000934216D10D4803F02DFD0D4B1B6864337A
:10C620000C4A13600B4B1B689AB20B4B5A80084B99
:10C630001B689AB2084B9A80084B1B689AB2064B4B
:10C64000DA8000BF03B05DF804FB00BF6832002051
:10C6500050300020103900205C30002014390020B8
:10C6600008B54FF6FF710120FFF7C8FF08BD0000B5
:10C6700000B583B01F4B0193019B02221A61019BFD
:10C6800002225A61019B1C4A9A61019B1B4ADA6192
:10C69000019B4FF400721A62019B00229A62019B77
:10C6A00000225A62019B0022DA62019B124A9A64BC
:10C6B000019B134ADA64019B10221A65019B002238
:10C6C0009A65019B00225A65019B0022DA65019B55
:10C6D00007330C49184605F030FD019B0A491846FE
:10C6E00005F02BFD019B20229A7100BF03B05DF87D
:10C6F00004FB00BF403C002028350300B83C00206C
:10C70000B83E0020343503003835030000B589B049
:10C7100003900291019200230693039BDB6805932B
:10C72000039B1B690493049A059B9A4205D9049ABA
:10C73000059BD31A013B079307E0039B9A68049972
:10C74000059BCB1A1344013B0793039B9A68059BF7
:10C75000D31A079A934228BF13460793079A019B5F
:10C76000934228BF13460793039B5A68059B1344C3
:10C77000079A0299184605F084FC069A079B134411
:10C780000693029A079B13440293019A079BD31ABC
:10C790000193059A079B13440593039B9B68059A95
:10C7A0009A4201D100230593039B059ADA60019B0D
:10C7B000002BB5D1069B184609B05DF804FB00B507
:10C7C00089B0039002910192039BDB680793039B5E
:10C7D0009A68079BD31A0693069A019B9A420ED930
:10C7E000039B5A68079B1344019A0299184605F067
:10C7F00048FC079A019B1A44039BDA601AE0069BE7
:10C800000593039B5A68079B1344059A029918469F
:10C8100005F037FC019A069BD31A0593039B5868D1
:10C82000029A069B1344059A194605F02AFC039BBD
:10C83000059ADA6000BF09B05DF804FB86B001908C
:10C84000019B1B690493019BDB680393049A039B80
:10C850009A4208D8019B9A68039BD21A049B1344FE
:10C86000013B059304E0049A039BD31A013B059313
:10C87000059B184606B0704700B589B00390029139
:10C880000192029B0693039B5A1C13465B001344C0
:10C89000DB00204A13440593059B5B69022B29D0DA
:10C8A000022B2ED8002B02D0012B13D029E00598A3
:10C8B000FFF7C4FF0490049A019B9A4202D200231E
:10C8C000079321E0019B0793019A06990598FFF7CA
:10C8D00076FF19E00598FFF7B1FF0490019A049BD9
:10C8E000934228BF13460793079A06990598FFF7C6
:10C8F00066FF09E0019A06990598FFF707FF079080
:10C9000002E00023079300BF079B184609B05DF8BB
:10C9100004FB00BF403C002000B587B003900291AB
:10C9200001920F4B1B78002B01D1FFF7A1FE0023D2
:10C930008DF813300DF113031846FBF7F3F9019A44
:10C9400002990398FFF798FF05909DF81330184659
:10C95000FBF7FEF9059B184607B05DF804FB00BF26
:10C96000403C00200FB400B5A3B025AB009301A854
:10C97000009B249A802105F076FB2190219B802B3F
:10C9800006DD01AB802219460020FFF7C5FF08E055
:10C99000219B002B05DD219A01AB19460020FFF7F2
:10C9A000BBFF219B184623B05DF804EB04B0704731
:10C9B0006DDF704700BF184679DF704700BF18462B
:10C9C0007DDF704700BF184664DF704700BF184620
:10C9D00082B003460091ADF80630BDF80630DAB2F9
:10C9E000009B1A70BDF806301B0A9AB2009B0133F7
:10C9F000D2B21A700223184602B0704700B589B04F
:10CA0000039002911346ADF80630029B1B8803F198
:10CA10000902BDF806309A4201D90C2353E004AB59
:10CA20001846FFF7C5FF0790079B0693069B002B50
:10CA300001D0069B47E0029B1B881A46039B1344C8
:10CA400008221A70029B1B8801339AB2029B1A803B
:10CA5000029B1B881A46039B13441B221A70029BDD
:10CA60001B8801339AB2029B1A80029B1B881A46CC
:10CA7000039B981804AB01330622194605F001FB0D
:10CA8000029B1B8806339AB2029B1A809DF81030D5
:10CA900023F00103DBB2002B07D1029B1B881A464F
:10CAA000039B134400221A7006E0029B1B881A465F
:10CAB000039B134401221A70029B1B8801339AB214
:10CAC000029B1A800023184609B05DF804FB00B5EC
:10CAD00089B0039002910192ADF80230039B1B785C
